{"contracts/PriceRelay.sol":{"PriceRelay":{"abi":[{"inputs":[{"internalType":"uint256","name":"_minRelayInterval","type":"uint256"},{"internalType":"uint256","name":"_maxPriceAge","type":"uint256"}],"stateMutability":"nonpayable","type":"constructor"},{"anonymous":false,"inputs":[{"indexed":true,"internalType":"uint256","name":"chainId","type":"uint256"}],"name":"ChainDisabled","type":"event"},{"anonymous":false,"inputs":[{"indexed":true,"internalType":"uint256","name":"chainId","type":"uint256"}],"name":"ChainEnabled","type":"event"},{"anonymous":false,"inputs":[{"indexed":false,"internalType":"uint256","name":"minRelayInterval","type":"uint256"},{"indexed":false,"internalType":"uint256","name":"maxPriceAge","type":"uint256"}],"name":"ConfigUpdated","type":"event"},{"anonymous":false,"inputs":[{"indexed":true,"internalType":"uint256","name":"chainId","type":"uint256"},{"indexed":true,"internalType":"address","name":"pool","type":"address"}],"name":"PoolDisabled","type":"event"},{"anonymous":false,"inputs":[{"indexed":true,"internalType":"uint256","name":"chainId","type":"uint256"},{"indexed":true,"internalType":"address","name":"pool","type":"address"},{"indexed":false,"internalType":"address","name":"token0","type":"address"},{"indexed":false,"internalType":"address","name":"token1","type":"address"}],"name":"PoolEnabled","type":"event"},{"anonymous":false,"inputs":[{"indexed":true,"internalType":"uint256","name":"sourceChainId","type":"uint256"},{"indexed":true,"internalType":"address","name":"poolAddress","type":"address"},{"indexed":false,"internalType":"uint160","name":"sqrtPriceX96","type":"uint160"},{"indexed":false,"internalType":"int24","name":"tick","type":"int24"},{"indexed":false,"internalType":"uint128","name":"liquidity","type":"uint128"},{"indexed":false,"internalType":"address","name":"token0","type":"address"},{"indexed":false,"internalType":"address","name":"token1","type":"address"},{"indexed":false,"internalType":"uint256","name":"sourceTimestamp","type":"uint256"},{"indexed":false,"internalType":"uint256","name":"sourceBlockNumber","type":"uint256"},{"indexed":false,"internalType":"uint256","name":"relayTimestamp","type":"uint256"},{"indexed":false,"internalType":"address","name":"relayer","type":"address"}],"name":"PriceRelayed","type":"event"},{"anonymous":false,"inputs":[],"name":"RelayPaused","type":"event"},{"anonymous":false,"inputs":[],"name":"RelayUnpaused","type":"event"},{"anonymous":false,"inputs":[{"indexed":true,"internalType":"address","name":"relayer","type":"address"}],"name":"RelayerAuthorized","type":"event"},{"anonymous":false,"inputs":[{"indexed":true,"internalType":"address","name":"relayer","type":"address"}],"name":"RelayerRevoked","type":"event"},{"inputs":[],"name":"MAX_DEVIATION_BPS","outputs":[{"internalType":"uint256","name":"","type":"uint256"}],"stateMutability":"view","type":"function"},{"inputs":[{"internalType":"address","name":"relayer","type":"address"}],"name":"authorizeRelayer","outputs":[],"stateMutability":"nonpayable","type":"function"},{"inputs":[{"internalType":"address","name":"","type":"address"}],"name":"authorizedRelayers","outputs":[{"internalType":"bool","name":"","type":"bool"}],"stateMutability":"view","type":"function"},{"inputs":[{"internalType":"uint256","name":"chainId","type":"uint256"},{"internalType":"address","name":"pool","type":"address"}],"name":"canRelay","outputs":[{"internalType":"bool","name":"","type":"bool"}],"stateMutability":"view","type":"function"},{"inputs":[{"internalType":"uint256","name":"chainId","type":"uint256"}],"name":"disableChain","outputs":[],"stateMutability":"nonpayable","type":"function"},{"inputs":[{"internalType":"uint256","name":"chainId","type":"uint256"},{"internalType":"address","name":"pool","type":"address"}],"name":"disablePool","outputs":[],"stateMutability":"nonpayable","type":"function"},{"inputs":[{"internalType":"uint256","name":"chainId","type":"uint256"}],"name":"enableChain","outputs":[],"stateMutability":"nonpayable","type":"function"},{"inputs":[{"internalType":"uint256","name":"chainId","type":"uint256"},{"internalType":"address","name":"pool","type":"address"},{"internalType":"address","name":"token0","type":"address"},{"internalType":"address","name":"token1","type":"address"}],"name":"enablePool","outputs":[],"stateMutability":"nonpayable","type":"function"},{"inputs":[{"internalType":"uint256","name":"","type":"uint256"},{"internalType":"address","name":"","type":"address"}],"name":"enabledPools","outputs":[{"internalType":"bool","name":"","type":"bool"}],"stateMutability":"view","type":"function"},{"inputs":[{"internalType":"uint256","name":"chainId","type":"uint256"},{"internalType":"address","name":"pool","type":"address"}],"name":"getPoolConfig","outputs":[{"components":[{"internalType":"address","name":"token0","type":"address"},{"internalType":"address","name":"token1","type":"address"},{"internalType":"uint256","name":"lastBlockNumber","type":"uint256"},{"internalType":"uint256","name":"lastSqrtPriceX96","type":"uint256"}],"internalType":"struct PriceRelay.PoolConfig","name":"","type":"tuple"}],"stateMutability":"view","type":"function"},{"inputs":[],"name":"isActive","outputs":[{"internalType":"bool","name":"","type":"bool"}],"stateMutability":"view","type":"function"},{"inputs":[{"internalType":"uint256","name":"","type":"uint256"},{"internalType":"address","name":"","type":"address"}],"name":"lastRelayTime","outputs":[{"internalType":"uint256","name":"","type":"uint256"}],"stateMutability":"view","type":"function"},{"inputs":[],"name":"maxPriceAge","outputs":[{"internalType":"uint256","name":"","type":"uint256"}],"stateMutability":"view","type":"function"},{"inputs":[],"name":"minRelayInterval","outputs":[{"internalType":"uint256","name":"","type":"uint256"}],"stateMutability":"view","type":"function"},{"inputs":[],"name":"owner","outputs":[{"internalType":"address","name":"","type":"address"}],"stateMutability":"view","type":"function"},{"inputs":[],"name":"pause","outputs":[],"stateMutability":"nonpayable","type":"function"},{"inputs":[{"internalType":"uint256","name":"","type":"uint256"},{"internalType":"address","name":"","type":"address"}],"name":"poolConfig","outputs":[{"internalType":"address","name":"token0","type":"address"},{"internalType":"address","name":"token1","type":"address"},{"internalType":"uint256","name":"lastBlockNumber","type":"uint256"},{"internalType":"uint256","name":"lastSqrtPriceX96","type":"uint256"}],"stateMutability":"view","type":"function"},{"inputs":[{"internalType":"uint256","name":"sourceChainId","type":"uint256"},{"internalType":"address","name":"poolAddress","type":"address"},{"internalType":"uint160","name":"sqrtPriceX96","type":"uint160"},{"internalType":"int24","name":"tick","type":"int24"},{"internalType":"uint128","name":"liquidity","type":"uint128"},{"internalType":"address","name":"token0","type":"address"},{"internalType":"address","name":"token1","type":"address"},{"internalType":"uint256","name":"sourceTimestamp","type":"uint256"},{"internalType":"uint256","name":"sourceBlockNumber","type":"uint256"}],"name":"relayPrice","outputs":[],"stateMutability":"nonpayable","type":"function"},{"inputs":[{"internalType":"address","name":"relayer","type":"address"}],"name":"revokeRelayer","outputs":[],"stateMutability":"nonpayable","type":"function"},{"inputs":[{"internalType":"uint256","name":"age","type":"uint256"}],"name":"setMaxPriceAge","outputs":[],"stateMutability":"nonpayable","type":"function"},{"inputs":[{"internalType":"uint256","name":"interval","type":"uint256"}],"name":"setMinRelayInterval","outputs":[],"stateMutability":"nonpayable","type":"function"},{"inputs":[{"internalType":"uint256","name":"","type":"uint256"}],"name":"supportedChains","outputs":[{"internalType":"bool","name":"","type":"bool"}],"stateMutability":"view","type":"function"},{"inputs":[{"internalType":"uint256","name":"chainId","type":"uint256"},{"internalType":"address","name":"pool","type":"address"}],"name":"timeUntilNextRelay","outputs":[{"internalType":"uint256","name":"","type":"uint256"}],"stateMutability":"view","type":"function"},{"inputs":[{"internalType":"address","name":"newOwner","type":"address"}],"name":"transferOwnership","outputs":[],"stateMutability":"nonpayable","type":"function"},{"inputs":[],"name":"unpause","outputs":[],"stateMutability":"nonpayable","type":"function"}],"evm":{"bytecode":{"linkReferences":{},"object":"608060405234801561001057600080fd5b5060405161199938038061199983398101604081905261002f91610131565b600082116100775760405162461bcd60e51b815260206004820152601060248201526f125b9d985b1a59081a5b9d195c9d985b60821b60448201526064015b60405180910390fd5b600081116100b95760405162461bcd60e51b815260206004820152600f60248201526e496e76616c6964206d61782061676560881b604482015260640161006e565b6000805460ff60a01b19339081166001600160a81b031990921691909117600160a01b17825560058490556006839055808252600160208190526040808420805460ff19169092179091555190917f34aff43ff674361fe2288d5bfdd1c3ee4c20de76d41536ac0e195c6b59552ff591a25050610155565b6000806040838503121561014457600080fd5b505080516020909101519092909150565b611835806101646000396000f3fe608060405234801561001057600080fd5b50600436106101735760003560e01c80635669d4b8116100de5780639429939011610097578063f2fde38b11610071578063f2fde38b146103c9578063f42d1ec5146103dc578063f6f27325146104a2578063f899b23c146104b557600080fd5b8063942993901461039a578063a4a05f82146103a3578063ced74eb4146103b657600080fd5b80635669d4b8146102e85780636821afab146103135780637a046674146103265780638456cb59146103395780638c97fe2b146103415780638da5cb5b1461036f57600080fd5b806333e670121161013057806333e67012146102715780633f4ba83a146102845780634f0828431461028c578063540323021461029f578063548d496f146102b257806356447ce8146102d557600080fd5b80631584410a1461017857806319c00d461461019457806321ef5f8b1461020c57806322f3e2d41461022157806325c684031461024557806329e295c51461024e575b600080fd5b61018160065481565b6040519081526020015b60405180910390f35b6101e16101a23660046115f9565b600760209081526000928352604080842090915290825290208054600182015460028301546003909301546001600160a01b0392831693919092169184565b604080516001600160a01b03958616815294909316602085015291830152606082015260800161018b565b61021f61021a366004611629565b6104c8565b005b60005461023590600160a01b900460ff1681565b604051901515815260200161018b565b61018161138881565b61023561025c366004611629565b60016020526000908152604090205460ff1681565b61021f61027f36600461164d565b61059d565b61021f610653565b61021f61029a36600461164d565b610700565b61021f6102ad36600461164d565b610801565b6102356102c036600461164d565b60026020526000908152604090205460ff1681565b61021f6102e336600461164d565b6108b4565b6101816102f63660046115f9565b600460209081526000928352604080842090915290825290205481565b6102356103213660046115f9565b61095a565b6101816103343660046115f9565b610a0d565b61021f610a66565b61023561034f3660046115f9565b600360209081526000928352604080842090915290825290205460ff1681565b600054610382906001600160a01b031681565b6040516001600160a01b03909116815260200161018b565b61018160055481565b61021f6103b13660046115f9565b610b10565b61021f6103c4366004611666565b610bf2565b61021f6103d7366004611629565b6110b1565b6104616103ea3660046115f9565b6040805160808082018352600080835260208084018290528385018290526060938401829052958152600786528381206001600160a01b0395861682528652839020835191820184528054851682526001810154909416948101949094526002830154918401919091526003909101549082015290565b60405161018b919081516001600160a01b03908116825260208084015190911690820152604080830151908201526060918201519181019190915260800190565b61021f6104b0366004611714565b611190565b61021f6104c3366004611629565b611465565b6000546001600160a01b031633146104fb5760405162461bcd60e51b81526004016104f290611767565b60405180910390fd5b6001600160a01b03811660009081526001602052604090205460ff166105545760405162461bcd60e51b815260206004820152600e60248201526d139bdd08185d5d1a1bdc9a5e995960921b60448201526064016104f2565b6001600160a01b038116600081815260016020526040808220805460ff19169055517f3cec689f527469da1c32e52219a628d3d417c9398fe105d55cb3a628d76762659190a250565b6000546001600160a01b031633146105c75760405162461bcd60e51b81526004016104f290611767565b60008181526002602052604090205460ff166106135760405162461bcd60e51b815260206004820152600b60248201526a139bdd08195b98589b195960aa1b60448201526064016104f2565b600081815260026020526040808220805460ff191690555182917f6f16a56a321422b0943f17444e22842443899035391e47e74fd2eae02f1070d991a250565b6000546001600160a01b0316331461067d5760405162461bcd60e51b81526004016104f290611767565b600054600160a01b900460ff16156106c45760405162461bcd60e51b815260206004820152600a602482015269139bdd081c185d5cd95960b21b60448201526064016104f2565b6000805460ff60a01b1916600160a01b1781556040517f2323cae9119b0fc2495428b41dcb8f1d6571a9f0fb30b4bbd126f235b0ab94509190a1565b6000546001600160a01b0316331461072a5760405162461bcd60e51b81526004016104f290611767565b6000811161076d5760405162461bcd60e51b815260206004820152601060248201526f125b9d985b1a590818da185a5b88125160821b60448201526064016104f2565b60008181526002602052604090205460ff16156107be5760405162461bcd60e51b815260206004820152600f60248201526e105b1c9958591e48195b98589b1959608a1b60448201526064016104f2565b600081815260026020526040808220805460ff191660011790555182917f06e3e2a4832c608c7cd61e48893fbc62b88bc0a48d8bc1f69fd054912b64d7f391a250565b6000546001600160a01b0316331461082b5760405162461bcd60e51b81526004016104f290611767565b6000811161086e5760405162461bcd60e51b815260206004820152601060248201526f125b9d985b1a59081a5b9d195c9d985b60821b60448201526064016104f2565b60058190556006546040805183815260208101929092527f0936b3616d5072fa8f7381ef8e7c35d39bed9ecfb2184e908a56027ad5c0b6bc91015b60405180910390a150565b6000546001600160a01b031633146108de5760405162461bcd60e51b81526004016104f290611767565b6000811161091c5760405162461bcd60e51b815260206004820152600b60248201526a496e76616c69642061676560a81b60448201526064016104f2565b600681905560055460408051918252602082018390527f0936b3616d5072fa8f7381ef8e7c35d39bed9ecfb2184e908a56027ad5c0b6bc91016108a9565b60008054600160a01b900460ff1661097457506000610a07565b60008381526002602052604090205460ff1661099257506000610a07565b60008381526003602090815260408083206001600160a01b038616845290915290205460ff166109c457506000610a07565b60055460008481526004602090815260408083206001600160a01b03871684529091529020546109f491906117a0565b421015610a0357506000610a07565b5060015b92915050565b60055460008381526004602090815260408083206001600160a01b038616845290915281205490918291610a4191906117a0565b9050804210610a54576000915050610a07565b610a5e42826117b3565b949350505050565b6000546001600160a01b03163314610a905760405162461bcd60e51b81526004016104f290611767565b600054600160a01b900460ff16610ada5760405162461bcd60e51b815260206004820152600e60248201526d105b1c9958591e481c185d5cd95960921b60448201526064016104f2565b6000805460ff60a01b191681556040517f3e56e4347e3d957b715e870e295e543f6d3eedb2a0f77e36fa9036ab1af3bc959190a1565b6000546001600160a01b03163314610b3a5760405162461bcd60e51b81526004016104f290611767565b60008281526003602090815260408083206001600160a01b038516845290915290205460ff16610b9a5760405162461bcd60e51b815260206004820152600b60248201526a139bdd08195b98589b195960aa1b60448201526064016104f2565b60008281526003602090815260408083206001600160a01b0385168085529252808320805460ff1916905551909184917f7ad593f09a6665c184871228603dc064743edbf3bdb4151c625cedb3397e4ff99190a35050565b3360009081526001602052604090205460ff16610c4a5760405162461bcd60e51b81526020600482015260166024820152752737ba1030baba3437b934bd32b2103932b630bcb2b960511b60448201526064016104f2565b600054600160a01b900460ff16610c925760405162461bcd60e51b815260206004820152600c60248201526b14995b185e481c185d5cd95960a21b60448201526064016104f2565b60008981526002602052604090205460ff16610ce65760405162461bcd60e51b815260206004820152601360248201527210da185a5b881b9bdd081cdd5c1c1bdc9d1959606a1b60448201526064016104f2565b60008981526003602090815260408083206001600160a01b038c16845290915290205460ff16610d4b5760405162461bcd60e51b815260206004820152601060248201526f141bdbdb081b9bdd08195b98589b195960821b60448201526064016104f2565b6000876001600160a01b031611610d945760405162461bcd60e51b815260206004820152600d60248201526c496e76616c696420707269636560981b60448201526064016104f2565b60008981526007602090815260408083206001600160a01b03808d1685529252909120805490918681169116148015610ddc575060018101546001600160a01b038581169116145b610e195760405162461bcd60e51b815260206004820152600e60248201526d0a8ded6cadc40dad2e6dac2e8c6d60931b60448201526064016104f2565b42831115610e5c5760405162461bcd60e51b815260206004820152601060248201526f04675747572652074696d657374616d760841b60448201526064016104f2565b600654610e6984426117b3565b1115610eac5760405162461bcd60e51b8152602060048201526012602482015271141c9a58d94819185d18481d1bdbc81bdb1960721b60448201526064016104f2565b80600201548211610ef45760405162461bcd60e51b815260206004820152601260248201527129ba30b63290313637b1b590373ab6b132b960711b60448201526064016104f2565b60055460008b81526004602090815260408083206001600160a01b038e168452909152902054610f2491906117a0565b421015610f735760405162461bcd60e51b815260206004820152601a60248201527f52656c617920696e74657276616c206e6f7420656c617073656400000000000060448201526064016104f2565b600381015415610fec576000610f9682600301548a6001600160a01b0316611584565b9050611388811115610fea5760405162461bcd60e51b815260206004820152601860248201527f507269636520646576696174696f6e20746f6f2068696768000000000000000060448201526064016104f2565b505b60028181018390556001600160a01b038981166003840181905560008d81526004602090815260408083208f86168085529083529281902042908190558151948552958d900b918401919091526001600160801b038b16908301528883166060830152918716608082015260a0810186905260c0810185905260e081019290925233610100830152908b907f75c79671c8187d029ada1a8f8cacf6af122360061d5f3e78d2eb1f00871946f2906101200160405180910390a350505050505050505050565b6000546001600160a01b031633146110db5760405162461bcd60e51b81526004016104f290611767565b6001600160a01b0381166111235760405162461bcd60e51b815260206004820152600f60248201526e496e76616c6964206164647265737360881b60448201526064016104f2565b6000546001600160a01b039081169082160361116e5760405162461bcd60e51b815260206004820152600a60248201526929b0b6b29037bbb732b960b11b60448201526064016104f2565b600080546001600160a01b0319166001600160a01b0392909216919091179055565b6000546001600160a01b031633146111ba5760405162461bcd60e51b81526004016104f290611767565b60008481526002602052604090205460ff1661120e5760405162461bcd60e51b815260206004820152601360248201527210da185a5b881b9bdd081cdd5c1c1bdc9d1959606a1b60448201526064016104f2565b6001600160a01b0383166112535760405162461bcd60e51b815260206004820152600c60248201526b125b9d985b1a59081c1bdbdb60a21b60448201526064016104f2565b6001600160a01b0382161580159061127357506001600160a01b03811615155b6112b05760405162461bcd60e51b815260206004820152600e60248201526d496e76616c696420746f6b656e7360901b60448201526064016104f2565b806001600160a01b0316826001600160a01b0316036113065760405162461bcd60e51b81526020600482015260126024820152712a37b5b2b7399036bab9ba103234b33332b960711b60448201526064016104f2565b60008481526003602090815260408083206001600160a01b038716845290915290205460ff161561136b5760405162461bcd60e51b815260206004820152600f60248201526e105b1c9958591e48195b98589b1959608a1b60448201526064016104f2565b60008481526003602081815260408084206001600160a01b03808916808752918452828620805460ff1916600190811790915583516080810185528983168152888316818701908152818601898152606083018a81528e8b5260078952878b20878c5290985298869020915182549085166001600160a01b0319918216178355905192820180549390941692169190911790915594516002860155915193909201929092555185907f13ea0230134d185ab081f399887466713fd79cf905fdfee5447a583a2f5e11329061145790869086906001600160a01b0392831681529116602082015260400190565b60405180910390a350505050565b6000546001600160a01b0316331461148f5760405162461bcd60e51b81526004016104f290611767565b6001600160a01b0381166114d75760405162461bcd60e51b815260206004820152600f60248201526e496e76616c6964206164647265737360881b60448201526064016104f2565b6001600160a01b03811660009081526001602052604090205460ff16156115355760405162461bcd60e51b8152602060048201526012602482015271105b1c9958591e48185d5d1a1bdc9a5e995960721b60448201526064016104f2565b6001600160a01b0381166000818152600160208190526040808320805460ff1916909217909155517f34aff43ff674361fe2288d5bfdd1c3ee4c20de76d41536ac0e195c6b59552ff59190a250565b60008260000361159657506000610a07565b60008284116115ae576115a984846117b3565b6115b8565b6115b883856117b3565b9050836115c7826127106117c6565b610a5e91906117dd565b6001600160a01b03811681146115e657600080fd5b50565b80356115f4816115d1565b919050565b6000806040838503121561160c57600080fd5b82359150602083013561161e816115d1565b809150509250929050565b60006020828403121561163b57600080fd5b8135611646816115d1565b9392505050565b60006020828403121561165f57600080fd5b5035919050565b60008060008060008060008060006101208a8c03121561168557600080fd5b8935985060208a0135611697816115d1565b975060408a01356116a7816115d1565b965060608a0135600281900b81146116be57600080fd5b955060808a01356001600160801b03811681146116da57600080fd5b94506116e860a08b016115e9565b93506116f660c08b016115e9565b925060e08a013591506101008a013590509295985092959850929598565b6000806000806080858703121561172a57600080fd5b84359350602085013561173c816115d1565b9250604085013561174c816115d1565b9150606085013561175c816115d1565b939692955090935050565b6020808252600990820152682737ba1037bbb732b960b91b604082015260600190565b634e487b7160e01b600052601160045260246000fd5b80820180821115610a0757610a0761178a565b81810381811115610a0757610a0761178a565b8082028115828204841417610a0757610a0761178a565b6000826117fa57634e487b7160e01b600052601260045260246000fd5b50049056fea26469706673582212205854c1dd1b1e2a96eca98cf3edf4a6eb43ca412ae0986607a2a80b7e93cf9b4964736f6c63430008130033","opcodes":"PUSH1 0x80 PUSH1 0x40 MSTORE CALLVALUE DUP1 ISZERO PUSH2 0x10 JUMPI PUSH1 0x0 DUP1 REVERT JUMPDEST POP PUSH1 0x40 MLOAD PUSH2 0x1999 CODESIZE SUB DUP1 PUSH2 0x1999 DUP4 CODECOPY DUP2 ADD PUSH1 0x40 DUP2 SWAP1 MSTORE PUSH2 0x2F SWAP2 PUSH2 0x131 JUMP JUMPDEST PUSH1 0x0 DUP3 GT PUSH2 0x77 JUMPI PUSH1 0x40 MLOAD PUSH3 0x461BCD PUSH1 0xE5 SHL DUP2 MSTORE PUSH1 0x20 PUSH1 0x4 DUP3 ADD MSTORE PUSH1 0x10 PUSH1 0x24 DUP3 ADD MSTORE PUSH16 0x125B9D985B1A59081A5B9D195C9D985B PUSH1 0x82 SHL PUSH1 0x44 DUP3 ADD MSTORE PUSH1 0x64 ADD JUMPDEST PUSH1 0x40 MLOAD DUP1 SWAP2 SUB SWAP1 REVERT JUMPDEST PUSH1 0x0 DUP2 GT PUSH2 0xB9 JUMPI PUSH1 0x40 MLOAD PUSH3 0x461BCD PUSH1 0xE5 SHL DUP2 MSTORE PUSH1 0x20 PUSH1 0x4 DUP3 ADD MSTORE PUSH1 0xF PUSH1 0x24 DUP3 ADD MSTORE PUSH15 0x496E76616C6964206D617820616765 PUSH1 0x88 SHL PUSH1 0x44 DUP3 ADD MSTORE PUSH1 0x64 ADD PUSH2 0x6E JUMP JUMPDEST PUSH1 0x0 DUP1 SLOAD PUSH1 0xFF PUSH1 0xA0 SHL NOT CALLER SWAP1 DUP2 AND PUSH1 0x1 PUSH1 0x1 PUSH1 0xA8 SHL SUB NOT SWAP1 SWAP3 AND SWAP2 SWAP1 SWAP2 OR PUSH1 0x1 PUSH1 0xA0 SHL OR DUP3 SSTORE PUSH1 0x5 DUP5 SWAP1 SSTORE PUSH1 0x6 DUP4 SWAP1 SSTORE DUP1 DUP3 MSTORE PUSH1 0x1 PUSH1 0x20 DUP2 SWAP1 MSTORE PUSH1 0x40 DUP1 DUP5 KECCAK256 DUP1 SLOAD PUSH1 0xFF NOT AND SWAP1 SWAP3 OR SWAP1 SWAP2 SSTORE MLOAD SWAP1 SWAP2 PUSH32 0x34AFF43FF674361FE2288D5BFDD1C3EE4C20DE76D41536AC0E195C6B59552FF5 SWAP2 LOG2 POP POP PUSH2 0x155 JUMP JUMPDEST PUSH1 0x0 DUP1 PUSH1 0x40 DUP4 DUP6 SUB SLT ISZERO PUSH2 0x144 JUMPI PUSH1 0x0 DUP1 REVERT JUMPDEST POP POP DUP1 MLOAD PUSH1 0x20 SWAP1 SWAP2 ADD MLOAD SWAP1 SWAP3 SWAP1 SWAP2 POP JUMP JUMPDEST PUSH2 0x1835 DUP1 PUSH2 0x164 PUSH1 0x0 CODECOPY PUSH1 0x0 RETURN INVALID PUSH1 0x80 PUSH1 0x40 MSTORE CALLVALUE DUP1 ISZERO PUSH2 0x10 JUMPI PUSH1 0x0 DUP1 REVERT JUMPDEST POP PUSH1 0x4 CALLDATASIZE LT PUSH2 0x173 JUMPI PUSH1 0x0 CALLDATALOAD PUSH1 0xE0 SHR DUP1 PUSH4 0x5669D4B8 GT PUSH2 0xDE JUMPI DUP1 PUSH4 0x94299390 GT PUSH2 0x97 JUMPI DUP1 PUSH4 0xF2FDE38B GT PUSH2 0x71 JUMPI DUP1 PUSH4 0xF2FDE38B EQ PUSH2 0x3C9 JUMPI DUP1 PUSH4 0xF42D1EC5 EQ PUSH2 0x3DC JUMPI DUP1 PUSH4 0xF6F27325 EQ PUSH2 0x4A2 JUMPI DUP1 PUSH4 0xF899B23C EQ PUSH2 0x4B5 JUMPI PUSH1 0x0 DUP1 REVERT JUMPDEST DUP1 PUSH4 0x94299390 EQ PUSH2 0x39A JUMPI DUP1 PUSH4 0xA4A05F82 EQ PUSH2 0x3A3 JUMPI DUP1 PUSH4 0xCED74EB4 EQ PUSH2 0x3B6 JUMPI PUSH1 0x0 DUP1 REVERT JUMPDEST DUP1 PUSH4 0x5669D4B8 EQ PUSH2 0x2E8 JUMPI DUP1 PUSH4 0x6821AFAB EQ PUSH2 0x313 JUMPI DUP1 PUSH4 0x7A046674 EQ PUSH2 0x326 JUMPI DUP1 PUSH4 0x8456CB59 EQ PUSH2 0x339 JUMPI DUP1 PUSH4 0x8C97FE2B EQ PUSH2 0x341 JUMPI DUP1 PUSH4 0x8DA5CB5B EQ PUSH2 0x36F JUMPI PUSH1 0x0 DUP1 REVERT JUMPDEST DUP1 PUSH4 0x33E67012 GT PUSH2 0x130 JUMPI DUP1 PUSH4 0x33E67012 EQ PUSH2 0x271 JUMPI DUP1 PUSH4 0x3F4BA83A EQ PUSH2 0x284 JUMPI DUP1 PUSH4 0x4F082843 EQ PUSH2 0x28C JUMPI DUP1 PUSH4 0x54032302 EQ PUSH2 0x29F JUMPI DUP1 PUSH4 0x548D496F EQ PUSH2 0x2B2 JUMPI DUP1 PUSH4 0x56447CE8 EQ PUSH2 0x2D5 JUMPI PUSH1 0x0 DUP1 REVERT JUMPDEST DUP1 PUSH4 0x1584410A EQ PUSH2 0x178 JUMPI DUP1 PUSH4 0x19C00D46 EQ PUSH2 0x194 JUMPI DUP1 PUSH4 0x21EF5F8B EQ PUSH2 0x20C JUMPI DUP1 PUSH4 0x22F3E2D4 EQ PUSH2 0x221 JUMPI DUP1 PUSH4 0x25C68403 EQ PUSH2 0x245 JUMPI DUP1 PUSH4 0x29E295C5 EQ PUSH2 0x24E JUMPI JUMPDEST PUSH1 0x0 DUP1 REVERT JUMPDEST PUSH2 0x181 PUSH1 0x6 SLOAD DUP2 JUMP JUMPDEST PUSH1 0x40 MLOAD SWAP1 DUP2 MSTORE PUSH1 0x20 ADD JUMPDEST PUSH1 0x40 MLOAD DUP1 SWAP2 SUB SWAP1 RETURN JUMPDEST PUSH2 0x1E1 PUSH2 0x1A2 CALLDATASIZE PUSH1 0x4 PUSH2 0x15F9 JUMP JUMPDEST PUSH1 0x7 PUSH1 0x20 SWAP1 DUP2 MSTORE PUSH1 0x0 SWAP3 DUP4 MSTORE PUSH1 0x40 DUP1 DUP5 KECCAK256 SWAP1 SWAP2 MSTORE SWAP1 DUP3 MSTORE SWAP1 KECCAK256 DUP1 SLOAD PUSH1 0x1 DUP3 ADD SLOAD PUSH1 0x2 DUP4 ADD SLOAD PUSH1 0x3 SWAP1 SWAP4 ADD SLOAD PUSH1 0x1 PUSH1 0x1 PUSH1 0xA0 SHL SUB SWAP3 DUP4 AND SWAP4 SWAP2 SWAP1 SWAP3 AND SWAP2 DUP5 JUMP JUMPDEST PUSH1 0x40 DUP1 MLOAD PUSH1 0x1 PUSH1 0x1 PUSH1 0xA0 SHL SUB SWAP6 DUP7 AND DUP2 MSTORE SWAP5 SWAP1 SWAP4 AND PUSH1 0x20 DUP6 ADD MSTORE SWAP2 DUP4 ADD MSTORE PUSH1 0x60 DUP3 ADD MSTORE PUSH1 0x80 ADD PUSH2 0x18B JUMP JUMPDEST PUSH2 0x21F PUSH2 0x21A CALLDATASIZE PUSH1 0x4 PUSH2 0x1629 JUMP JUMPDEST PUSH2 0x4C8 JUMP JUMPDEST STOP JUMPDEST PUSH1 0x0 SLOAD PUSH2 0x235 SWAP1 PUSH1 0x1 PUSH1 0xA0 SHL SWAP1 DIV PUSH1 0xFF AND DUP2 JUMP JUMPDEST PUSH1 0x40 MLOAD SWAP1 ISZERO ISZERO DUP2 MSTORE PUSH1 0x20 ADD PUSH2 0x18B JUMP JUMPDEST PUSH2 0x181 PUSH2 0x1388 DUP2 JUMP JUMPDEST PUSH2 0x235 PUSH2 0x25C CALLDATASIZE PUSH1 0x4 PUSH2 0x1629 JUMP JUMPDEST PUSH1 0x1 PUSH1 0x20 MSTORE PUSH1 0x0 SWAP1 DUP2 MSTORE PUSH1 0x40 SWAP1 KECCAK256 SLOAD PUSH1 0xFF AND DUP2 JUMP JUMPDEST PUSH2 0x21F PUSH2 0x27F CALLDATASIZE PUSH1 0x4 PUSH2 0x164D JUMP JUMPDEST PUSH2 0x59D JUMP JUMPDEST PUSH2 0x21F PUSH2 0x653 JUMP JUMPDEST PUSH2 0x21F PUSH2 0x29A CALLDATASIZE PUSH1 0x4 PUSH2 0x164D JUMP JUMPDEST PUSH2 0x700 JUMP JUMPDEST PUSH2 0x21F PUSH2 0x2AD CALLDATASIZE PUSH1 0x4 PUSH2 0x164D JUMP JUMPDEST PUSH2 0x801 JUMP JUMPDEST PUSH2 0x235 PUSH2 0x2C0 CALLDATASIZE PUSH1 0x4 PUSH2 0x164D JUMP JUMPDEST PUSH1 0x2 PUSH1 0x20 MSTORE PUSH1 0x0 SWAP1 DUP2 MSTORE PUSH1 0x40 SWAP1 KECCAK256 SLOAD PUSH1 0xFF AND DUP2 JUMP JUMPDEST PUSH2 0x21F PUSH2 0x2E3 CALLDATASIZE PUSH1 0x4 PUSH2 0x164D JUMP JUMPDEST PUSH2 0x8B4 JUMP JUMPDEST PUSH2 0x181 PUSH2 0x2F6 CALLDATASIZE PUSH1 0x4 PUSH2 0x15F9 JUMP JUMPDEST PUSH1 0x4 PUSH1 0x20 SWAP1 DUP2 MSTORE PUSH1 0x0 SWAP3 DUP4 MSTORE PUSH1 0x40 DUP1 DUP5 KECCAK256 SWAP1 SWAP2 MSTORE SWAP1 DUP3 MSTORE SWAP1 KECCAK256 SLOAD DUP2 JUMP JUMPDEST PUSH2 0x235 PUSH2 0x321 CALLDATASIZE PUSH1 0x4 PUSH2 0x15F9 JUMP JUMPDEST PUSH2 0x95A JUMP JUMPDEST PUSH2 0x181 PUSH2 0x334 CALLDATASIZE PUSH1 0x4 PUSH2 0x15F9 JUMP JUMPDEST PUSH2 0xA0D JUMP JUMPDEST PUSH2 0x21F PUSH2 0xA66 JUMP JUMPDEST PUSH2 0x235 PUSH2 0x34F CALLDATASIZE PUSH1 0x4 PUSH2 0x15F9 JUMP JUMPDEST PUSH1 0x3 PUSH1 0x20 SWAP1 DUP2 MSTORE PUSH1 0x0 SWAP3 DUP4 MSTORE PUSH1 0x40 DUP1 DUP5 KECCAK256 SWAP1 SWAP2 MSTORE SWAP1 DUP3 MSTORE SWAP1 KECCAK256 SLOAD PUSH1 0xFF AND DUP2 JUMP JUMPDEST PUSH1 0x0 SLOAD PUSH2 0x382 SWAP1 PUSH1 0x1 PUSH1 0x1 PUSH1 0xA0 SHL SUB AND DUP2 JUMP JUMPDEST PUSH1 0x40 MLOAD PUSH1 0x1 PUSH1 0x1 PUSH1 0xA0 SHL SUB SWAP1 SWAP2 AND DUP2 MSTORE PUSH1 0x20 ADD PUSH2 0x18B JUMP JUMPDEST PUSH2 0x181 PUSH1 0x5 SLOAD DUP2 JUMP JUMPDEST PUSH2 0x21F PUSH2 0x3B1 CALLDATASIZE PUSH1 0x4 PUSH2 0x15F9 JUMP JUMPDEST PUSH2 0xB10 JUMP JUMPDEST PUSH2 0x21F PUSH2 0x3C4 CALLDATASIZE PUSH1 0x4 PUSH2 0x1666 JUMP JUMPDEST PUSH2 0xBF2 JUMP JUMPDEST PUSH2 0x21F PUSH2 0x3D7 CALLDATASIZE PUSH1 0x4 PUSH2 0x1629 JUMP JUMPDEST PUSH2 0x10B1 JUMP JUMPDEST PUSH2 0x461 PUSH2 0x3EA CALLDATASIZE PUSH1 0x4 PUSH2 0x15F9 JUMP JUMPDEST PUSH1 0x40 DUP1 MLOAD PUSH1 0x80 DUP1 DUP3 ADD DUP4 MSTORE PUSH1 0x0 DUP1 DUP4 MSTORE PUSH1 0x20 DUP1 DUP5 ADD DUP3 SWAP1 MSTORE DUP4 DUP6 ADD DUP3 SWAP1 MSTORE PUSH1 0x60 SWAP4 DUP5 ADD DUP3 SWAP1 MSTORE SWAP6 DUP2 MSTORE PUSH1 0x7 DUP7 MSTORE DUP4 DUP2 KECCAK256 PUSH1 0x1 PUSH1 0x1 PUSH1 0xA0 SHL SUB SWAP6 DUP7 AND DUP3 MSTORE DUP7 MSTORE DUP4 SWAP1 KECCAK256 DUP4 MLOAD SWAP2 DUP3 ADD DUP5 MSTORE DUP1 SLOAD DUP6 AND DUP3 MSTORE PUSH1 0x1 DUP2 ADD SLOAD SWAP1 SWAP5 AND SWAP5 DUP2 ADD SWAP5 SWAP1 SWAP5 MSTORE PUSH1 0x2 DUP4 ADD SLOAD SWAP2 DUP5 ADD SWAP2 SWAP1 SWAP2 MSTORE PUSH1 0x3 SWAP1 SWAP2 ADD SLOAD SWAP1 DUP3 ADD MSTORE SWAP1 JUMP JUMPDEST PUSH1 0x40 MLOAD PUSH2 0x18B SWAP2 SWAP1 DUP2 MLOAD PUSH1 0x1 PUSH1 0x1 PUSH1 0xA0 SHL SUB SWAP1 DUP2 AND DUP3 MSTORE PUSH1 0x20 DUP1 DUP5 ADD MLOAD SWAP1 SWAP2 AND SWAP1 DUP3 ADD MSTORE PUSH1 0x40 DUP1 DUP4 ADD MLOAD SWAP1 DUP3 ADD MSTORE PUSH1 0x60 SWAP2 DUP3 ADD MLOAD SWAP2 DUP2 ADD SWAP2 SWAP1 SWAP2 MSTORE PUSH1 0x80 ADD SWAP1 JUMP JUMPDEST PUSH2 0x21F PUSH2 0x4B0 CALLDATASIZE PUSH1 0x4 PUSH2 0x1714 JUMP JUMPDEST PUSH2 0x1190 JUMP JUMPDEST PUSH2 0x21F PUSH2 0x4C3 CALLDATASIZE PUSH1 0x4 PUSH2 0x1629 JUMP JUMPDEST PUSH2 0x1465 JUMP JUMPDEST PUSH1 0x0 SLOAD PUSH1 0x1 PUSH1 0x1 PUSH1 0xA0 SHL SUB AND CALLER EQ PUSH2 0x4FB JUMPI PUSH1 0x40 MLOAD PUSH3 0x461BCD PUSH1 0xE5 SHL DUP2 MSTORE PUSH1 0x4 ADD PUSH2 0x4F2 SWAP1 PUSH2 0x1767 JUMP JUMPDEST PUSH1 0x40 MLOAD DUP1 SWAP2 SUB SWAP1 REVERT JUMPDEST PUSH1 0x1 PUSH1 0x1 PUSH1 0xA0 SHL SUB DUP2 AND PUSH1 0x0 SWAP1 DUP2 MSTORE PUSH1 0x1 PUSH1 0x20 MSTORE PUSH1 0x40 SWAP1 KECCAK256 SLOAD PUSH1 0xFF AND PUSH2 0x554 JUMPI PUSH1 0x40 MLOAD PUSH3 0x461BCD PUSH1 0xE5 SHL DUP2 MSTORE PUSH1 0x20 PUSH1 0x4 DUP3 ADD MSTORE PUSH1 0xE PUSH1 0x24 DUP3 ADD MSTORE PUSH14 0x139BDD08185D5D1A1BDC9A5E9959 PUSH1 0x92 SHL PUSH1 0x44 DUP3 ADD MSTORE PUSH1 0x64 ADD PUSH2 0x4F2 JUMP JUMPDEST PUSH1 0x1 PUSH1 0x1 PUSH1 0xA0 SHL SUB DUP2 AND PUSH1 0x0 DUP2 DUP2 MSTORE PUSH1 0x1 PUSH1 0x20 MSTORE PUSH1 0x40 DUP1 DUP3 KECCAK256 DUP1 SLOAD PUSH1 0xFF NOT AND SWAP1 SSTORE MLOAD PUSH32 0x3CEC689F527469DA1C32E52219A628D3D417C9398FE105D55CB3A628D7676265 SWAP2 SWAP1 LOG2 POP JUMP JUMPDEST PUSH1 0x0 SLOAD PUSH1 0x1 PUSH1 0x1 PUSH1 0xA0 SHL SUB AND CALLER EQ PUSH2 0x5C7 JUMPI PUSH1 0x40 MLOAD PUSH3 0x461BCD PUSH1 0xE5 SHL DUP2 MSTORE PUSH1 0x4 ADD PUSH2 0x4F2 SWAP1 PUSH2 0x1767 JUMP JUMPDEST PUSH1 0x0 DUP2 DUP2 MSTORE PUSH1 0x2 PUSH1 0x20 MSTORE PUSH1 0x40 SWAP1 KECCAK256 SLOAD PUSH1 0xFF AND PUSH2 0x613 JUMPI PUSH1 0x40 MLOAD PUSH3 0x461BCD PUSH1 0xE5 SHL DUP2 MSTORE PUSH1 0x20 PUSH1 0x4 DUP3 ADD MSTORE PUSH1 0xB PUSH1 0x24 DUP3 ADD MSTORE PUSH11 0x139BDD08195B98589B1959 PUSH1 0xAA SHL PUSH1 0x44 DUP3 ADD MSTORE PUSH1 0x64 ADD PUSH2 0x4F2 JUMP JUMPDEST PUSH1 0x0 DUP2 DUP2 MSTORE PUSH1 0x2 PUSH1 0x20 MSTORE PUSH1 0x40 DUP1 DUP3 KECCAK256 DUP1 SLOAD PUSH1 0xFF NOT AND SWAP1 SSTORE MLOAD DUP3 SWAP2 PUSH32 0x6F16A56A321422B0943F17444E22842443899035391E47E74FD2EAE02F1070D9 SWAP2 LOG2 POP JUMP JUMPDEST PUSH1 0x0 SLOAD PUSH1 0x1 PUSH1 0x1 PUSH1 0xA0 SHL SUB AND CALLER EQ PUSH2 0x67D JUMPI PUSH1 0x40 MLOAD PUSH3 0x461BCD PUSH1 0xE5 SHL DUP2 MSTORE PUSH1 0x4 ADD PUSH2 0x4F2 SWAP1 PUSH2 0x1767 JUMP JUMPDEST PUSH1 0x0 SLOAD PUSH1 0x1 PUSH1 0xA0 SHL SWAP1 DIV PUSH1 0xFF AND ISZERO PUSH2 0x6C4 JUMPI PUSH1 0x40 MLOAD PUSH3 0x461BCD PUSH1 0xE5 SHL DUP2 MSTORE PUSH1 0x20 PUSH1 0x4 DUP3 ADD MSTORE PUSH1 0xA PUSH1 0x24 DUP3 ADD MSTORE PUSH10 0x139BDD081C185D5CD959 PUSH1 0xB2 SHL PUSH1 0x44 DUP3 ADD MSTORE PUSH1 0x64 ADD PUSH2 0x4F2 JUMP JUMPDEST PUSH1 0x0 DUP1 SLOAD PUSH1 0xFF PUSH1 0xA0 SHL NOT AND PUSH1 0x1 PUSH1 0xA0 SHL OR DUP2 SSTORE PUSH1 0x40 MLOAD PUSH32 0x2323CAE9119B0FC2495428B41DCB8F1D6571A9F0FB30B4BBD126F235B0AB9450 SWAP2 SWAP1 LOG1 JUMP JUMPDEST PUSH1 0x0 SLOAD PUSH1 0x1 PUSH1 0x1 PUSH1 0xA0 SHL SUB AND CALLER EQ PUSH2 0x72A JUMPI PUSH1 0x40 MLOAD PUSH3 0x461BCD PUSH1 0xE5 SHL DUP2 MSTORE PUSH1 0x4 ADD PUSH2 0x4F2 SWAP1 PUSH2 0x1767 JUMP JUMPDEST PUSH1 0x0 DUP2 GT PUSH2 0x76D JUMPI PUSH1 0x40 MLOAD PUSH3 0x461BCD PUSH1 0xE5 SHL DUP2 MSTORE PUSH1 0x20 PUSH1 0x4 DUP3 ADD MSTORE PUSH1 0x10 PUSH1 0x24 DUP3 ADD MSTORE PUSH16 0x125B9D985B1A590818DA185A5B881251 PUSH1 0x82 SHL PUSH1 0x44 DUP3 ADD MSTORE PUSH1 0x64 ADD PUSH2 0x4F2 JUMP JUMPDEST PUSH1 0x0 DUP2 DUP2 MSTORE PUSH1 0x2 PUSH1 0x20 MSTORE PUSH1 0x40 SWAP1 KECCAK256 SLOAD PUSH1 0xFF AND ISZERO PUSH2 0x7BE JUMPI PUSH1 0x40 MLOAD PUSH3 0x461BCD PUSH1 0xE5 SHL DUP2 MSTORE PUSH1 0x20 PUSH1 0x4 DUP3 ADD MSTORE PUSH1 0xF PUSH1 0x24 DUP3 ADD MSTORE PUSH15 0x105B1C9958591E48195B98589B1959 PUSH1 0x8A SHL PUSH1 0x44 DUP3 ADD MSTORE PUSH1 0x64 ADD PUSH2 0x4F2 JUMP JUMPDEST PUSH1 0x0 DUP2 DUP2 MSTORE PUSH1 0x2 PUSH1 0x20 MSTORE PUSH1 0x40 DUP1 DUP3 KECCAK256 DUP1 SLOAD PUSH1 0xFF NOT AND PUSH1 0x1 OR SWAP1 SSTORE MLOAD DUP3 SWAP2 PUSH32 0x6E3E2A4832C608C7CD61E48893FBC62B88BC0A48D8BC1F69FD054912B64D7F3 SWAP2 LOG2 POP JUMP JUMPDEST PUSH1 0x0 SLOAD PUSH1 0x1 PUSH1 0x1 PUSH1 0xA0 SHL SUB AND CALLER EQ PUSH2 0x82B JUMPI PUSH1 0x40 MLOAD PUSH3 0x461BCD PUSH1 0xE5 SHL DUP2 MSTORE PUSH1 0x4 ADD PUSH2 0x4F2 SWAP1 PUSH2 0x1767 JUMP JUMPDEST PUSH1 0x0 DUP2 GT PUSH2 0x86E JUMPI PUSH1 0x40 MLOAD PUSH3 0x461BCD PUSH1 0xE5 SHL DUP2 MSTORE PUSH1 0x20 PUSH1 0x4 DUP3 ADD MSTORE PUSH1 0x10 PUSH1 0x24 DUP3 ADD MSTORE PUSH16 0x125B9D985B1A59081A5B9D195C9D985B PUSH1 0x82 SHL PUSH1 0x44 DUP3 ADD MSTORE PUSH1 0x64 ADD PUSH2 0x4F2 JUMP JUMPDEST PUSH1 0x5 DUP2 SWAP1 SSTORE PUSH1 0x6 SLOAD PUSH1 0x40 DUP1 MLOAD DUP4 DUP2 MSTORE PUSH1 0x20 DUP2 ADD SWAP3 SWAP1 SWAP3 MSTORE PUSH32 0x936B3616D5072FA8F7381EF8E7C35D39BED9ECFB2184E908A56027AD5C0B6BC SWAP2 ADD JUMPDEST PUSH1 0x40 MLOAD DUP1 SWAP2 SUB SWAP1 LOG1 POP JUMP JUMPDEST PUSH1 0x0 SLOAD PUSH1 0x1 PUSH1 0x1 PUSH1 0xA0 SHL SUB AND CALLER EQ PUSH2 0x8DE JUMPI PUSH1 0x40 MLOAD PUSH3 0x461BCD PUSH1 0xE5 SHL DUP2 MSTORE PUSH1 0x4 ADD PUSH2 0x4F2 SWAP1 PUSH2 0x1767 JUMP JUMPDEST PUSH1 0x0 DUP2 GT PUSH2 0x91C JUMPI PUSH1 0x40 MLOAD PUSH3 0x461BCD PUSH1 0xE5 SHL DUP2 MSTORE PUSH1 0x20 PUSH1 0x4 DUP3 ADD MSTORE PUSH1 0xB PUSH1 0x24 DUP3 ADD MSTORE PUSH11 0x496E76616C696420616765 PUSH1 0xA8 SHL PUSH1 0x44 DUP3 ADD MSTORE PUSH1 0x64 ADD PUSH2 0x4F2 JUMP JUMPDEST PUSH1 0x6 DUP2 SWAP1 SSTORE PUSH1 0x5 SLOAD PUSH1 0x40 DUP1 MLOAD SWAP2 DUP3 MSTORE PUSH1 0x20 DUP3 ADD DUP4 SWAP1 MSTORE PUSH32 0x936B3616D5072FA8F7381EF8E7C35D39BED9ECFB2184E908A56027AD5C0B6BC SWAP2 ADD PUSH2 0x8A9 JUMP JUMPDEST PUSH1 0x0 DUP1 SLOAD PUSH1 0x1 PUSH1 0xA0 SHL SWAP1 DIV PUSH1 0xFF AND PUSH2 0x974 JUMPI POP PUSH1 0x0 PUSH2 0xA07 JUMP JUMPDEST PUSH1 0x0 DUP4 DUP2 MSTORE PUSH1 0x2 PUSH1 0x20 MSTORE PUSH1 0x40 SWAP1 KECCAK256 SLOAD PUSH1 0xFF AND PUSH2 0x992 JUMPI POP PUSH1 0x0 PUSH2 0xA07 JUMP JUMPDEST PUSH1 0x0 DUP4 DUP2 MSTORE PUSH1 0x3 PUSH1 0x20 SWAP1 DUP2 MSTORE PUSH1 0x40 DUP1 DUP4 KECCAK256 PUSH1 0x1 PUSH1 0x1 PUSH1 0xA0 SHL SUB DUP7 AND DUP5 MSTORE SWAP1 SWAP2 MSTORE SWAP1 KECCAK256 SLOAD PUSH1 0xFF AND PUSH2 0x9C4 JUMPI POP PUSH1 0x0 PUSH2 0xA07 JUMP JUMPDEST PUSH1 0x5 SLOAD PUSH1 0x0 DUP5 DUP2 MSTORE PUSH1 0x4 PUSH1 0x20 SWAP1 DUP2 MSTORE PUSH1 0x40 DUP1 DUP4 KECCAK256 PUSH1 0x1 PUSH1 0x1 PUSH1 0xA0 SHL SUB DUP8 AND DUP5 MSTORE SWAP1 SWAP2 MSTORE SWAP1 KECCAK256 SLOAD PUSH2 0x9F4 SWAP2 SWAP1 PUSH2 0x17A0 JUMP JUMPDEST TIMESTAMP LT ISZERO PUSH2 0xA03 JUMPI POP PUSH1 0x0 PUSH2 0xA07 JUMP JUMPDEST POP PUSH1 0x1 JUMPDEST SWAP3 SWAP2 POP POP JUMP JUMPDEST PUSH1 0x5 SLOAD PUSH1 0x0 DUP4 DUP2 MSTORE PUSH1 0x4 PUSH1 0x20 SWAP1 DUP2 MSTORE PUSH1 0x40 DUP1 DUP4 KECCAK256 PUSH1 0x1 PUSH1 0x1 PUSH1 0xA0 SHL SUB DUP7 AND DUP5 MSTORE SWAP1 SWAP2 MSTORE DUP2 KECCAK256 SLOAD SWAP1 SWAP2 DUP3 SWAP2 PUSH2 0xA41 SWAP2 SWAP1 PUSH2 0x17A0 JUMP JUMPDEST SWAP1 POP DUP1 TIMESTAMP LT PUSH2 0xA54 JUMPI PUSH1 0x0 SWAP2 POP POP PUSH2 0xA07 JUMP JUMPDEST PUSH2 0xA5E TIMESTAMP DUP3 PUSH2 0x17B3 JUMP JUMPDEST SWAP5 SWAP4 POP POP POP POP JUMP JUMPDEST PUSH1 0x0 SLOAD PUSH1 0x1 PUSH1 0x1 PUSH1 0xA0 SHL SUB AND CALLER EQ PUSH2 0xA90 JUMPI PUSH1 0x40 MLOAD PUSH3 0x461BCD PUSH1 0xE5 SHL DUP2 MSTORE PUSH1 0x4 ADD PUSH2 0x4F2 SWAP1 PUSH2 0x1767 JUMP JUMPDEST PUSH1 0x0 SLOAD PUSH1 0x1 PUSH1 0xA0 SHL SWAP1 DIV PUSH1 0xFF AND PUSH2 0xADA JUMPI PUSH1 0x40 MLOAD PUSH3 0x461BCD PUSH1 0xE5 SHL DUP2 MSTORE PUSH1 0x20 PUSH1 0x4 DUP3 ADD MSTORE PUSH1 0xE PUSH1 0x24 DUP3 ADD MSTORE PUSH14 0x105B1C9958591E481C185D5CD959 PUSH1 0x92 SHL PUSH1 0x44 DUP3 ADD MSTORE PUSH1 0x64 ADD PUSH2 0x4F2 JUMP JUMPDEST PUSH1 0x0 DUP1 SLOAD PUSH1 0xFF PUSH1 0xA0 SHL NOT AND DUP2 SSTORE PUSH1 0x40 MLOAD PUSH32 0x3E56E4347E3D957B715E870E295E543F6D3EEDB2A0F77E36FA9036AB1AF3BC95 SWAP2 SWAP1 LOG1 JUMP JUMPDEST PUSH1 0x0 SLOAD PUSH1 0x1 PUSH1 0x1 PUSH1 0xA0 SHL SUB AND CALLER EQ PUSH2 0xB3A JUMPI PUSH1 0x40 MLOAD PUSH3 0x461BCD PUSH1 0xE5 SHL DUP2 MSTORE PUSH1 0x4 ADD PUSH2 0x4F2 SWAP1 PUSH2 0x1767 JUMP JUMPDEST PUSH1 0x0 DUP3 DUP2 MSTORE PUSH1 0x3 PUSH1 0x20 SWAP1 DUP2 MSTORE PUSH1 0x40 DUP1 DUP4 KECCAK256 PUSH1 0x1 PUSH1 0x1 PUSH1 0xA0 SHL SUB DUP6 AND DUP5 MSTORE SWAP1 SWAP2 MSTORE SWAP1 KECCAK256 SLOAD PUSH1 0xFF AND PUSH2 0xB9A JUMPI PUSH1 0x40 MLOAD PUSH3 0x461BCD PUSH1 0xE5 SHL DUP2 MSTORE PUSH1 0x20 PUSH1 0x4 DUP3 ADD MSTORE PUSH1 0xB PUSH1 0x24 DUP3 ADD MSTORE PUSH11 0x139BDD08195B98589B1959 PUSH1 0xAA SHL PUSH1 0x44 DUP3 ADD MSTORE PUSH1 0x64 ADD PUSH2 0x4F2 JUMP JUMPDEST PUSH1 0x0 DUP3 DUP2 MSTORE PUSH1 0x3 PUSH1 0x20 SWAP1 DUP2 MSTORE PUSH1 0x40 DUP1 DUP4 KECCAK256 PUSH1 0x1 PUSH1 0x1 PUSH1 0xA0 SHL SUB DUP6 AND DUP1 DUP6 MSTORE SWAP3 MSTORE DUP1 DUP4 KECCAK256 DUP1 SLOAD PUSH1 0xFF NOT AND SWAP1 SSTORE MLOAD SWAP1 SWAP2 DUP5 SWAP2 PUSH32 0x7AD593F09A6665C184871228603DC064743EDBF3BDB4151C625CEDB3397E4FF9 SWAP2 SWAP1 LOG3 POP POP JUMP JUMPDEST CALLER PUSH1 0x0 SWAP1 DUP2 MSTORE PUSH1 0x1 PUSH1 0x20 MSTORE PUSH1 0x40 SWAP1 KECCAK256 SLOAD PUSH1 0xFF AND PUSH2 0xC4A JUMPI PUSH1 0x40 MLOAD PUSH3 0x461BCD PUSH1 0xE5 SHL DUP2 MSTORE PUSH1 0x20 PUSH1 0x4 DUP3 ADD MSTORE PUSH1 0x16 PUSH1 0x24 DUP3 ADD MSTORE PUSH22 0x2737BA1030BABA3437B934BD32B2103932B630BCB2B9 PUSH1 0x51 SHL PUSH1 0x44 DUP3 ADD MSTORE PUSH1 0x64 ADD PUSH2 0x4F2 JUMP JUMPDEST PUSH1 0x0 SLOAD PUSH1 0x1 PUSH1 0xA0 SHL SWAP1 DIV PUSH1 0xFF AND PUSH2 0xC92 JUMPI PUSH1 0x40 MLOAD PUSH3 0x461BCD PUSH1 0xE5 SHL DUP2 MSTORE PUSH1 0x20 PUSH1 0x4 DUP3 ADD MSTORE PUSH1 0xC PUSH1 0x24 DUP3 ADD MSTORE PUSH12 0x14995B185E481C185D5CD959 PUSH1 0xA2 SHL PUSH1 0x44 DUP3 ADD MSTORE PUSH1 0x64 ADD PUSH2 0x4F2 JUMP JUMPDEST PUSH1 0x0 DUP10 DUP2 MSTORE PUSH1 0x2 PUSH1 0x20 MSTORE PUSH1 0x40 SWAP1 KECCAK256 SLOAD PUSH1 0xFF AND PUSH2 0xCE6 JUMPI PUSH1 0x40 MLOAD PUSH3 0x461BCD PUSH1 0xE5 SHL DUP2 MSTORE PUSH1 0x20 PUSH1 0x4 DUP3 ADD MSTORE PUSH1 0x13 PUSH1 0x24 DUP3 ADD MSTORE PUSH19 0x10DA185A5B881B9BDD081CDD5C1C1BDC9D1959 PUSH1 0x6A SHL PUSH1 0x44 DUP3 ADD MSTORE PUSH1 0x64 ADD PUSH2 0x4F2 JUMP JUMPDEST PUSH1 0x0 DUP10 DUP2 MSTORE PUSH1 0x3 PUSH1 0x20 SWAP1 DUP2 MSTORE PUSH1 0x40 DUP1 DUP4 KECCAK256 PUSH1 0x1 PUSH1 0x1 PUSH1 0xA0 SHL SUB DUP13 AND DUP5 MSTORE SWAP1 SWAP2 MSTORE SWAP1 KECCAK256 SLOAD PUSH1 0xFF AND PUSH2 0xD4B JUMPI PUSH1 0x40 MLOAD PUSH3 0x461BCD PUSH1 0xE5 SHL DUP2 MSTORE PUSH1 0x20 PUSH1 0x4 DUP3 ADD MSTORE PUSH1 0x10 PUSH1 0x24 DUP3 ADD MSTORE PUSH16 0x141BDBDB081B9BDD08195B98589B1959 PUSH1 0x82 SHL PUSH1 0x44 DUP3 ADD MSTORE PUSH1 0x64 ADD PUSH2 0x4F2 JUMP JUMPDEST PUSH1 0x0 DUP8 PUSH1 0x1 PUSH1 0x1 PUSH1 0xA0 SHL SUB AND GT PUSH2 0xD94 JUMPI PUSH1 0x40 MLOAD PUSH3 0x461BCD PUSH1 0xE5 SHL DUP2 MSTORE PUSH1 0x20 PUSH1 0x4 DUP3 ADD MSTORE PUSH1 0xD PUSH1 0x24 DUP3 ADD MSTORE PUSH13 0x496E76616C6964207072696365 PUSH1 0x98 SHL PUSH1 0x44 DUP3 ADD MSTORE PUSH1 0x64 ADD PUSH2 0x4F2 JUMP JUMPDEST PUSH1 0x0 DUP10 DUP2 MSTORE PUSH1 0x7 PUSH1 0x20 SWAP1 DUP2 MSTORE PUSH1 0x40 DUP1 DUP4 KECCAK256 PUSH1 0x1 PUSH1 0x1 PUSH1 0xA0 SHL SUB DUP1 DUP14 AND DUP6 MSTORE SWAP3 MSTORE SWAP1 SWAP2 KECCAK256 DUP1 SLOAD SWAP1 SWAP2 DUP7 DUP2 AND SWAP2 AND EQ DUP1 ISZERO PUSH2 0xDDC JUMPI POP PUSH1 0x1 DUP2 ADD SLOAD PUSH1 0x1 PUSH1 0x1 PUSH1 0xA0 SHL SUB DUP6 DUP2 AND SWAP2 AND EQ JUMPDEST PUSH2 0xE19 JUMPI PUSH1 0x40 MLOAD PUSH3 0x461BCD PUSH1 0xE5 SHL DUP2 MSTORE PUSH1 0x20 PUSH1 0x4 DUP3 ADD MSTORE PUSH1 0xE PUSH1 0x24 DUP3 ADD MSTORE PUSH14 0xA8DED6CADC40DAD2E6DAC2E8C6D PUSH1 0x93 SHL PUSH1 0x44 DUP3 ADD MSTORE PUSH1 0x64 ADD PUSH2 0x4F2 JUMP JUMPDEST TIMESTAMP DUP4 GT ISZERO PUSH2 0xE5C JUMPI PUSH1 0x40 MLOAD PUSH3 0x461BCD PUSH1 0xE5 SHL DUP2 MSTORE PUSH1 0x20 PUSH1 0x4 DUP3 ADD MSTORE PUSH1 0x10 PUSH1 0x24 DUP3 ADD MSTORE PUSH16 0x4675747572652074696D657374616D7 PUSH1 0x84 SHL PUSH1 0x44 DUP3 ADD MSTORE PUSH1 0x64 ADD PUSH2 0x4F2 JUMP JUMPDEST PUSH1 0x6 SLOAD PUSH2 0xE69 DUP5 TIMESTAMP PUSH2 0x17B3 JUMP JUMPDEST GT ISZERO PUSH2 0xEAC JUMPI PUSH1 0x40 MLOAD PUSH3 0x461BCD PUSH1 0xE5 SHL DUP2 MSTORE PUSH1 0x20 PUSH1 0x4 DUP3 ADD MSTORE PUSH1 0x12 PUSH1 0x24 DUP3 ADD MSTORE PUSH18 0x141C9A58D94819185D18481D1BDBC81BDB19 PUSH1 0x72 SHL PUSH1 0x44 DUP3 ADD MSTORE PUSH1 0x64 ADD PUSH2 0x4F2 JUMP JUMPDEST DUP1 PUSH1 0x2 ADD SLOAD DUP3 GT PUSH2 0xEF4 JUMPI PUSH1 0x40 MLOAD PUSH3 0x461BCD PUSH1 0xE5 SHL DUP2 MSTORE PUSH1 0x20 PUSH1 0x4 DUP3 ADD MSTORE PUSH1 0x12 PUSH1 0x24 DUP3 ADD MSTORE PUSH18 0x29BA30B63290313637B1B590373AB6B132B9 PUSH1 0x71 SHL PUSH1 0x44 DUP3 ADD MSTORE PUSH1 0x64 ADD PUSH2 0x4F2 JUMP JUMPDEST PUSH1 0x5 SLOAD PUSH1 0x0 DUP12 DUP2 MSTORE PUSH1 0x4 PUSH1 0x20 SWAP1 DUP2 MSTORE PUSH1 0x40 DUP1 DUP4 KECCAK256 PUSH1 0x1 PUSH1 0x1 PUSH1 0xA0 SHL SUB DUP15 AND DUP5 MSTORE SWAP1 SWAP2 MSTORE SWAP1 KECCAK256 SLOAD PUSH2 0xF24 SWAP2 SWAP1 PUSH2 0x17A0 JUMP JUMPDEST TIMESTAMP LT ISZERO PUSH2 0xF73 JUMPI PUSH1 0x40 MLOAD PUSH3 0x461BCD PUSH1 0xE5 SHL DUP2 MSTORE PUSH1 0x20 PUSH1 0x4 DUP3 ADD MSTORE PUSH1 0x1A PUSH1 0x24 DUP3 ADD MSTORE PUSH32 0x52656C617920696E74657276616C206E6F7420656C6170736564000000000000 PUSH1 0x44 DUP3 ADD MSTORE PUSH1 0x64 ADD PUSH2 0x4F2 JUMP JUMPDEST PUSH1 0x3 DUP2 ADD SLOAD ISZERO PUSH2 0xFEC JUMPI PUSH1 0x0 PUSH2 0xF96 DUP3 PUSH1 0x3 ADD SLOAD DUP11 PUSH1 0x1 PUSH1 0x1 PUSH1 0xA0 SHL SUB AND PUSH2 0x1584 JUMP JUMPDEST SWAP1 POP PUSH2 0x1388 DUP2 GT ISZERO PUSH2 0xFEA JUMPI PUSH1 0x40 MLOAD PUSH3 0x461BCD PUSH1 0xE5 SHL DUP2 MSTORE PUSH1 0x20 PUSH1 0x4 DUP3 ADD MSTORE PUSH1 0x18 PUSH1 0x24 DUP3 ADD MSTORE PUSH32 0x507269636520646576696174696F6E20746F6F20686967680000000000000000 PUSH1 0x44 DUP3 ADD MSTORE PUSH1 0x64 ADD PUSH2 0x4F2 JUMP JUMPDEST POP JUMPDEST PUSH1 0x2 DUP2 DUP2 ADD DUP4 SWAP1 SSTORE PUSH1 0x1 PUSH1 0x1 PUSH1 0xA0 SHL SUB DUP10 DUP2 AND PUSH1 0x3 DUP5 ADD DUP2 SWAP1 SSTORE PUSH1 0x0 DUP14 DUP2 MSTORE PUSH1 0x4 PUSH1 0x20 SWAP1 DUP2 MSTORE PUSH1 0x40 DUP1 DUP4 KECCAK256 DUP16 DUP7 AND DUP1 DUP6 MSTORE SWAP1 DUP4 MSTORE SWAP3 DUP2 SWAP1 KECCAK256 TIMESTAMP SWAP1 DUP2 SWAP1 SSTORE DUP2 MLOAD SWAP5 DUP6 MSTORE SWAP6 DUP14 SWAP1 SIGNEXTEND SWAP2 DUP5 ADD SWAP2 SWAP1 SWAP2 MSTORE PUSH1 0x1 PUSH1 0x1 PUSH1 0x80 SHL SUB DUP12 AND SWAP1 DUP4 ADD MSTORE DUP9 DUP4 AND PUSH1 0x60 DUP4 ADD MSTORE SWAP2 DUP8 AND PUSH1 0x80 DUP3 ADD MSTORE PUSH1 0xA0 DUP2 ADD DUP7 SWAP1 MSTORE PUSH1 0xC0 DUP2 ADD DUP6 SWAP1 MSTORE PUSH1 0xE0 DUP2 ADD SWAP3 SWAP1 SWAP3 MSTORE CALLER PUSH2 0x100 DUP4 ADD MSTORE SWAP1 DUP12 SWAP1 PUSH32 0x75C79671C8187D029ADA1A8F8CACF6AF122360061D5F3E78D2EB1F00871946F2 SWAP1 PUSH2 0x120 ADD PUSH1 0x40 MLOAD DUP1 SWAP2 SUB SWAP1 LOG3 POP POP POP POP POP POP POP POP POP POP JUMP JUMPDEST PUSH1 0x0 SLOAD PUSH1 0x1 PUSH1 0x1 PUSH1 0xA0 SHL SUB AND CALLER EQ PUSH2 0x10DB JUMPI PUSH1 0x40 MLOAD PUSH3 0x461BCD PUSH1 0xE5 SHL DUP2 MSTORE PUSH1 0x4 ADD PUSH2 0x4F2 SWAP1 PUSH2 0x1767 JUMP JUMPDEST PUSH1 0x1 PUSH1 0x1 PUSH1 0xA0 SHL SUB DUP2 AND PUSH2 0x1123 JUMPI PUSH1 0x40 MLOAD PUSH3 0x461BCD PUSH1 0xE5 SHL DUP2 MSTORE PUSH1 0x20 PUSH1 0x4 DUP3 ADD MSTORE PUSH1 0xF PUSH1 0x24 DUP3 ADD MSTORE PUSH15 0x496E76616C69642061646472657373 PUSH1 0x88 SHL PUSH1 0x44 DUP3 ADD MSTORE PUSH1 0x64 ADD PUSH2 0x4F2 JUMP JUMPDEST PUSH1 0x0 SLOAD PUSH1 0x1 PUSH1 0x1 PUSH1 0xA0 SHL SUB SWAP1 DUP2 AND SWAP1 DUP3 AND SUB PUSH2 0x116E JUMPI PUSH1 0x40 MLOAD PUSH3 0x461BCD PUSH1 0xE5 SHL DUP2 MSTORE PUSH1 0x20 PUSH1 0x4 DUP3 ADD MSTORE PUSH1 0xA PUSH1 0x24 DUP3 ADD MSTORE PUSH10 0x29B0B6B29037BBB732B9 PUSH1 0xB1 SHL PUSH1 0x44 DUP3 ADD MSTORE PUSH1 0x64 ADD PUSH2 0x4F2 JUMP JUMPDEST PUSH1 0x0 DUP1 SLOAD PUSH1 0x1 PUSH1 0x1 PUSH1 0xA0 SHL SUB NOT AND PUSH1 0x1 PUSH1 0x1 PUSH1 0xA0 SHL SUB SWAP3 SWAP1 SWAP3 AND SWAP2 SWAP1 SWAP2 OR SWAP1 SSTORE JUMP JUMPDEST PUSH1 0x0 SLOAD PUSH1 0x1 PUSH1 0x1 PUSH1 0xA0 SHL SUB AND CALLER EQ PUSH2 0x11BA JUMPI PUSH1 0x40 MLOAD PUSH3 0x461BCD PUSH1 0xE5 SHL DUP2 MSTORE PUSH1 0x4 ADD PUSH2 0x4F2 SWAP1 PUSH2 0x1767 JUMP JUMPDEST PUSH1 0x0 DUP5 DUP2 MSTORE PUSH1 0x2 PUSH1 0x20 MSTORE PUSH1 0x40 SWAP1 KECCAK256 SLOAD PUSH1 0xFF AND PUSH2 0x120E JUMPI PUSH1 0x40 MLOAD PUSH3 0x461BCD PUSH1 0xE5 SHL DUP2 MSTORE PUSH1 0x20 PUSH1 0x4 DUP3 ADD MSTORE PUSH1 0x13 PUSH1 0x24 DUP3 ADD MSTORE PUSH19 0x10DA185A5B881B9BDD081CDD5C1C1BDC9D1959 PUSH1 0x6A SHL PUSH1 0x44 DUP3 ADD MSTORE PUSH1 0x64 ADD PUSH2 0x4F2 JUMP JUMPDEST PUSH1 0x1 PUSH1 0x1 PUSH1 0xA0 SHL SUB DUP4 AND PUSH2 0x1253 JUMPI PUSH1 0x40 MLOAD PUSH3 0x461BCD PUSH1 0xE5 SHL DUP2 MSTORE PUSH1 0x20 PUSH1 0x4 DUP3 ADD MSTORE PUSH1 0xC PUSH1 0x24 DUP3 ADD MSTORE PUSH12 0x125B9D985B1A59081C1BDBDB PUSH1 0xA2 SHL PUSH1 0x44 DUP3 ADD MSTORE PUSH1 0x64 ADD PUSH2 0x4F2 JUMP JUMPDEST PUSH1 0x1 PUSH1 0x1 PUSH1 0xA0 SHL SUB DUP3 AND ISZERO DUP1 ISZERO SWAP1 PUSH2 0x1273 JUMPI POP PUSH1 0x1 PUSH1 0x1 PUSH1 0xA0 SHL SUB DUP2 AND ISZERO ISZERO JUMPDEST PUSH2 0x12B0 JUMPI PUSH1 0x40 MLOAD PUSH3 0x461BCD PUSH1 0xE5 SHL DUP2 MSTORE PUSH1 0x20 PUSH1 0x4 DUP3 ADD MSTORE PUSH1 0xE PUSH1 0x24 DUP3 ADD MSTORE PUSH14 0x496E76616C696420746F6B656E73 PUSH1 0x90 SHL PUSH1 0x44 DUP3 ADD MSTORE PUSH1 0x64 ADD PUSH2 0x4F2 JUMP JUMPDEST DUP1 PUSH1 0x1 PUSH1 0x1 PUSH1 0xA0 SHL SUB AND DUP3 PUSH1 0x1 PUSH1 0x1 PUSH1 0xA0 SHL SUB AND SUB PUSH2 0x1306 JUMPI PUSH1 0x40 MLOAD PUSH3 0x461BCD PUSH1 0xE5 SHL DUP2 MSTORE PUSH1 0x20 PUSH1 0x4 DUP3 ADD MSTORE PUSH1 0x12 PUSH1 0x24 DUP3 ADD MSTORE PUSH18 0x2A37B5B2B7399036BAB9BA103234B33332B9 PUSH1 0x71 SHL PUSH1 0x44 DUP3 ADD MSTORE PUSH1 0x64 ADD PUSH2 0x4F2 JUMP JUMPDEST PUSH1 0x0 DUP5 DUP2 MSTORE PUSH1 0x3 PUSH1 0x20 SWAP1 DUP2 MSTORE PUSH1 0x40 DUP1 DUP4 KECCAK256 PUSH1 0x1 PUSH1 0x1 PUSH1 0xA0 SHL SUB DUP8 AND DUP5 MSTORE SWAP1 SWAP2 MSTORE SWAP1 KECCAK256 SLOAD PUSH1 0xFF AND ISZERO PUSH2 0x136B JUMPI PUSH1 0x40 MLOAD PUSH3 0x461BCD PUSH1 0xE5 SHL DUP2 MSTORE PUSH1 0x20 PUSH1 0x4 DUP3 ADD MSTORE PUSH1 0xF PUSH1 0x24 DUP3 ADD MSTORE PUSH15 0x105B1C9958591E48195B98589B1959 PUSH1 0x8A SHL PUSH1 0x44 DUP3 ADD MSTORE PUSH1 0x64 ADD PUSH2 0x4F2 JUMP JUMPDEST PUSH1 0x0 DUP5 DUP2 MSTORE PUSH1 0x3 PUSH1 0x20 DUP2 DUP2 MSTORE PUSH1 0x40 DUP1 DUP5 KECCAK256 PUSH1 0x1 PUSH1 0x1 PUSH1 0xA0 SHL SUB DUP1 DUP10 AND DUP1 DUP8 MSTORE SWAP2 DUP5 MSTORE DUP3 DUP7 KECCAK256 DUP1 SLOAD PUSH1 0xFF NOT AND PUSH1 0x1 SWAP1 DUP2 OR SWAP1 SWAP2 SSTORE DUP4 MLOAD PUSH1 0x80 DUP2 ADD DUP6 MSTORE DUP10 DUP4 AND DUP2 MSTORE DUP9 DUP4 AND DUP2 DUP8 ADD SWAP1 DUP2 MSTORE DUP2 DUP7 ADD DUP10 DUP2 MSTORE PUSH1 0x60 DUP4 ADD DUP11 DUP2 MSTORE DUP15 DUP12 MSTORE PUSH1 0x7 DUP10 MSTORE DUP8 DUP12 KECCAK256 DUP8 DUP13 MSTORE SWAP1 SWAP9 MSTORE SWAP9 DUP7 SWAP1 KECCAK256 SWAP2 MLOAD DUP3 SLOAD SWAP1 DUP6 AND PUSH1 0x1 PUSH1 0x1 PUSH1 0xA0 SHL SUB NOT SWAP2 DUP3 AND OR DUP4 SSTORE SWAP1 MLOAD SWAP3 DUP3 ADD DUP1 SLOAD SWAP4 SWAP1 SWAP5 AND SWAP3 AND SWAP2 SWAP1 SWAP2 OR SWAP1 SWAP2 SSTORE SWAP5 MLOAD PUSH1 0x2 DUP7 ADD SSTORE SWAP2 MLOAD SWAP4 SWAP1 SWAP3 ADD SWAP3 SWAP1 SWAP3 SSTORE MLOAD DUP6 SWAP1 PUSH32 0x13EA0230134D185AB081F399887466713FD79CF905FDFEE5447A583A2F5E1132 SWAP1 PUSH2 0x1457 SWAP1 DUP7 SWAP1 DUP7 SWAP1 PUSH1 0x1 PUSH1 0x1 PUSH1 0xA0 SHL SUB SWAP3 DUP4 AND DUP2 MSTORE SWAP2 AND PUSH1 0x20 DUP3 ADD MSTORE PUSH1 0x40 ADD SWAP1 JUMP JUMPDEST PUSH1 0x40 MLOAD DUP1 SWAP2 SUB SWAP1 LOG3 POP POP POP POP JUMP JUMPDEST PUSH1 0x0 SLOAD PUSH1 0x1 PUSH1 0x1 PUSH1 0xA0 SHL SUB AND CALLER EQ PUSH2 0x148F JUMPI PUSH1 0x40 MLOAD PUSH3 0x461BCD PUSH1 0xE5 SHL DUP2 MSTORE PUSH1 0x4 ADD PUSH2 0x4F2 SWAP1 PUSH2 0x1767 JUMP JUMPDEST PUSH1 0x1 PUSH1 0x1 PUSH1 0xA0 SHL SUB DUP2 AND PUSH2 0x14D7 JUMPI PUSH1 0x40 MLOAD PUSH3 0x461BCD PUSH1 0xE5 SHL DUP2 MSTORE PUSH1 0x20 PUSH1 0x4 DUP3 ADD MSTORE PUSH1 0xF PUSH1 0x24 DUP3 ADD MSTORE PUSH15 0x496E76616C69642061646472657373 PUSH1 0x88 SHL PUSH1 0x44 DUP3 ADD MSTORE PUSH1 0x64 ADD PUSH2 0x4F2 JUMP JUMPDEST PUSH1 0x1 PUSH1 0x1 PUSH1 0xA0 SHL SUB DUP2 AND PUSH1 0x0 SWAP1 DUP2 MSTORE PUSH1 0x1 PUSH1 0x20 MSTORE PUSH1 0x40 SWAP1 KECCAK256 SLOAD PUSH1 0xFF AND ISZERO PUSH2 0x1535 JUMPI PUSH1 0x40 MLOAD PUSH3 0x461BCD PUSH1 0xE5 SHL DUP2 MSTORE PUSH1 0x20 PUSH1 0x4 DUP3 ADD MSTORE PUSH1 0x12 PUSH1 0x24 DUP3 ADD MSTORE PUSH18 0x105B1C9958591E48185D5D1A1BDC9A5E9959 PUSH1 0x72 SHL PUSH1 0x44 DUP3 ADD MSTORE PUSH1 0x64 ADD PUSH2 0x4F2 JUMP JUMPDEST PUSH1 0x1 PUSH1 0x1 PUSH1 0xA0 SHL SUB DUP2 AND PUSH1 0x0 DUP2 DUP2 MSTORE PUSH1 0x1 PUSH1 0x20 DUP2 SWAP1 MSTORE PUSH1 0x40 DUP1 DUP4 KECCAK256 DUP1 SLOAD PUSH1 0xFF NOT AND SWAP1 SWAP3 OR SWAP1 SWAP2 SSTORE MLOAD PUSH32 0x34AFF43FF674361FE2288D5BFDD1C3EE4C20DE76D41536AC0E195C6B59552FF5 SWAP2 SWAP1 LOG2 POP JUMP JUMPDEST PUSH1 0x0 DUP3 PUSH1 0x0 SUB PUSH2 0x1596 JUMPI POP PUSH1 0x0 PUSH2 0xA07 JUMP JUMPDEST PUSH1 0x0 DUP3 DUP5 GT PUSH2 0x15AE JUMPI PUSH2 0x15A9 DUP5 DUP5 PUSH2 0x17B3 JUMP JUMPDEST PUSH2 0x15B8 JUMP JUMPDEST PUSH2 0x15B8 DUP4 DUP6 PUSH2 0x17B3 JUMP JUMPDEST SWAP1 POP DUP4 PUSH2 0x15C7 DUP3 PUSH2 0x2710 PUSH2 0x17C6 JUMP JUMPDEST PUSH2 0xA5E SWAP2 SWAP1 PUSH2 0x17DD JUMP JUMPDEST PUSH1 0x1 PUSH1 0x1 PUSH1 0xA0 SHL SUB DUP2 AND DUP2 EQ PUSH2 0x15E6 JUMPI PUSH1 0x0 DUP1 REVERT JUMPDEST POP JUMP JUMPDEST DUP1 CALLDATALOAD PUSH2 0x15F4 DUP2 PUSH2 0x15D1 JUMP JUMPDEST SWAP2 SWAP1 POP JUMP JUMPDEST PUSH1 0x0 DUP1 PUSH1 0x40 DUP4 DUP6 SUB SLT ISZERO PUSH2 0x160C JUMPI PUSH1 0x0 DUP1 REVERT JUMPDEST DUP3 CALLDATALOAD SWAP2 POP PUSH1 0x20 DUP4 ADD CALLDATALOAD PUSH2 0x161E DUP2 PUSH2 0x15D1 JUMP JUMPDEST DUP1 SWAP2 POP POP SWAP3 POP SWAP3 SWAP1 POP JUMP JUMPDEST PUSH1 0x0 PUSH1 0x20 DUP3 DUP5 SUB SLT ISZERO PUSH2 0x163B JUMPI PUSH1 0x0 DUP1 REVERT JUMPDEST DUP2 CALLDATALOAD PUSH2 0x1646 DUP2 PUSH2 0x15D1 JUMP JUMPDEST SWAP4 SWAP3 POP POP POP JUMP JUMPDEST PUSH1 0x0 PUSH1 0x20 DUP3 DUP5 SUB SLT ISZERO PUSH2 0x165F JUMPI PUSH1 0x0 DUP1 REVERT JUMPDEST POP CALLDATALOAD SWAP2 SWAP1 POP JUMP JUMPDEST PUSH1 0x0 DUP1 PUSH1 0x0 DUP1 PUSH1 0x0 DUP1 PUSH1 0x0 DUP1 PUSH1 0x0 PUSH2 0x120 DUP11 DUP13 SUB SLT ISZERO PUSH2 0x1685 JUMPI PUSH1 0x0 DUP1 REVERT JUMPDEST DUP10 CALLDATALOAD SWAP9 POP PUSH1 0x20 DUP11 ADD CALLDATALOAD PUSH2 0x1697 DUP2 PUSH2 0x15D1 JUMP JUMPDEST SWAP8 POP PUSH1 0x40 DUP11 ADD CALLDATALOAD PUSH2 0x16A7 DUP2 PUSH2 0x15D1 JUMP JUMPDEST SWAP7 POP PUSH1 0x60 DUP11 ADD CALLDATALOAD PUSH1 0x2 DUP2 SWAP1 SIGNEXTEND DUP2 EQ PUSH2 0x16BE JUMPI PUSH1 0x0 DUP1 REVERT JUMPDEST SWAP6 POP PUSH1 0x80 DUP11 ADD CALLDATALOAD PUSH1 0x1 PUSH1 0x1 PUSH1 0x80 SHL SUB DUP2 AND DUP2 EQ PUSH2 0x16DA JUMPI PUSH1 0x0 DUP1 REVERT JUMPDEST SWAP5 POP PUSH2 0x16E8 PUSH1 0xA0 DUP12 ADD PUSH2 0x15E9 JUMP JUMPDEST SWAP4 POP PUSH2 0x16F6 PUSH1 0xC0 DUP12 ADD PUSH2 0x15E9 JUMP JUMPDEST SWAP3 POP PUSH1 0xE0 DUP11 ADD CALLDATALOAD SWAP2 POP PUSH2 0x100 DUP11 ADD CALLDATALOAD SWAP1 POP SWAP3 SWAP6 SWAP9 POP SWAP3 SWAP6 SWAP9 POP SWAP3 SWAP6 SWAP9 JUMP JUMPDEST PUSH1 0x0 DUP1 PUSH1 0x0 DUP1 PUSH1 0x80 DUP6 DUP8 SUB SLT ISZERO PUSH2 0x172A JUMPI PUSH1 0x0 DUP1 REVERT JUMPDEST DUP5 CALLDATALOAD SWAP4 POP PUSH1 0x20 DUP6 ADD CALLDATALOAD PUSH2 0x173C DUP2 PUSH2 0x15D1 JUMP JUMPDEST SWAP3 POP PUSH1 0x40 DUP6 ADD CALLDATALOAD PUSH2 0x174C DUP2 PUSH2 0x15D1 JUMP JUMPDEST SWAP2 POP PUSH1 0x60 DUP6 ADD CALLDATALOAD PUSH2 0x175C DUP2 PUSH2 0x15D1 JUMP JUMPDEST SWAP4 SWAP7 SWAP3 SWAP6 POP SWAP1 SWAP4 POP POP JUMP JUMPDEST PUSH1 0x20 DUP1 DUP3 MSTORE PUSH1 0x9 SWAP1 DUP3 ADD MSTORE PUSH9 0x2737BA1037BBB732B9 PUSH1 0xB9 SHL PUSH1 0x40 DUP3 ADD MSTORE PUSH1 0x60 ADD SWAP1 JUMP JUMPDEST PUSH4 0x4E487B71 PUSH1 0xE0 SHL PUSH1 0x0 MSTORE PUSH1 0x11 PUSH1 0x4 MSTORE PUSH1 0x24 PUSH1 0x0 REVERT JUMPDEST DUP1 DUP3 ADD DUP1 DUP3 GT ISZERO PUSH2 0xA07 JUMPI PUSH2 0xA07 PUSH2 0x178A JUMP JUMPDEST DUP2 DUP2 SUB DUP2 DUP2 GT ISZERO PUSH2 0xA07 JUMPI PUSH2 0xA07 PUSH2 0x178A JUMP JUMPDEST DUP1 DUP3 MUL DUP2 ISZERO DUP3 DUP3 DIV DUP5 EQ OR PUSH2 0xA07 JUMPI PUSH2 0xA07 PUSH2 0x178A JUMP JUMPDEST PUSH1 0x0 DUP3 PUSH2 0x17FA JUMPI PUSH4 0x4E487B71 PUSH1 0xE0 SHL PUSH1 0x0 MSTORE PUSH1 0x12 PUSH1 0x4 MSTORE PUSH1 0x24 PUSH1 0x0 REVERT JUMPDEST POP DIV SWAP1 JUMP INVALID LOG2 PUSH5 0x6970667358 0x22 SLT KECCAK256 PC SLOAD 0xC1 0xDD SHL 0x1E 0x2A SWAP7 0xEC 0xA9 DUP13 RETURN 0xED DELEGATECALL 0xA6 0xEB NUMBER 0xCA COINBASE 0x2A 0xE0 SWAP9 PUSH7 0x7A2A80B7E93CF SWAP12 0x49 PUSH5 0x736F6C6343 STOP ADDMOD SGT STOP CALLER "},"methodIdentifiers":{"MAX_DEVIATION_BPS()":"25c68403","authorizeRelayer(address)":"f899b23c","authorizedRelayers(address)":"29e295c5","canRelay(uint256,address)":"6821afab","disableChain(uint256)":"33e67012","disablePool(uint256,address)":"a4a05f82","enableChain(uint256)":"4f082843","enablePool(uint256,address,address,address)":"f6f27325","enabledPools(uint256,address)":"8c97fe2b","getPoolConfig(uint256,address)":"f42d1ec5","isActive()":"22f3e2d4","lastRelayTime(uint256,address)":"5669d4b8","maxPriceAge()":"1584410a","minRelayInterval()":"94299390","owner()":"8da5cb5b","pause()":"8456cb59","poolConfig(uint256,address)":"19c00d46","relayPrice(uint256,address,uint160,int24,uint128,address,address,uint256,uint256)":"ced74eb4","revokeRelayer(address)":"21ef5f8b","setMaxPriceAge(uint256)":"56447ce8","setMinRelayInterval(uint256)":"54032302","supportedChains(uint256)":"548d496f","timeUntilNextRelay(uint256,address)":"7a046674","transferOwnership(address)":"f2fde38b","unpause()":"3f4ba83a"}}}}}