{"contracts/PoolPriceCustomFeed.sol":{"PoolPriceCustomFeed":{"abi":[{"inputs":[{"internalType":"address","name":"_priceRecorder","type":"address"},{"internalType":"address","name":"_poolAddress","type":"address"},{"internalType":"string","name":"_feedName","type":"string"},{"internalType":"address","name":"_fdcVerificationAddress","type":"address"},{"internalType":"uint8","name":"_token0Decimals","type":"uint8"},{"internalType":"uint8","name":"_token1Decimals","type":"uint8"},{"internalType":"bool","name":"_invertPrice","type":"bool"}],"stateMutability":"nonpayable","type":"constructor"},{"anonymous":false,"inputs":[{"indexed":true,"internalType":"uint256","name":"value","type":"uint256"},{"indexed":false,"internalType":"uint64","name":"timestamp","type":"uint64"},{"indexed":false,"internalType":"uint256","name":"blockNumber","type":"uint256"},{"indexed":true,"internalType":"address","name":"updater","type":"address"}],"name":"FeedUpdated","type":"event"},{"anonymous":false,"inputs":[{"indexed":true,"internalType":"address","name":"previousOwner","type":"address"},{"indexed":true,"internalType":"address","name":"newOwner","type":"address"}],"name":"OwnershipTransferred","type":"event"},{"anonymous":false,"inputs":[{"indexed":true,"internalType":"bytes32","name":"transactionHash","type":"bytes32"},{"indexed":false,"internalType":"uint256","name":"value","type":"uint256"},{"indexed":false,"internalType":"uint64","name":"timestamp","type":"uint64"}],"name":"ProofVerified","type":"event"},{"anonymous":false,"inputs":[],"name":"UpdatesPaused","type":"event"},{"anonymous":false,"inputs":[],"name":"UpdatesResumed","type":"event"},{"inputs":[],"name":"acceptingUpdates","outputs":[{"internalType":"bool","name":"","type":"bool"}],"stateMutability":"view","type":"function"},{"inputs":[],"name":"calculateFee","outputs":[{"internalType":"uint256","name":"","type":"uint256"}],"stateMutability":"pure","type":"function"},{"inputs":[],"name":"decimals","outputs":[{"internalType":"int8","name":"","type":"int8"}],"stateMutability":"pure","type":"function"},{"inputs":[],"name":"feedId","outputs":[{"internalType":"bytes21","name":"","type":"bytes21"}],"stateMutability":"view","type":"function"},{"inputs":[],"name":"getCurrentFeed","outputs":[{"internalType":"uint256","name":"_value","type":"uint256"},{"internalType":"int8","name":"_decimals","type":"int8"},{"internalType":"uint64","name":"_timestamp","type":"uint64"}],"stateMutability":"payable","type":"function"},{"inputs":[],"name":"getFeedInfo","outputs":[{"components":[{"internalType":"bytes21","name":"feedId","type":"bytes21"},{"internalType":"uint256","name":"latestValue","type":"uint256"},{"internalType":"int8","name":"decimals","type":"int8"},{"internalType":"uint64","name":"lastUpdate","type":"uint64"},{"internalType":"uint256","name":"updateCount","type":"uint256"},{"internalType":"address","name":"priceRecorder","type":"address"},{"internalType":"address","name":"poolAddress","type":"address"},{"internalType":"bool","name":"acceptingUpdates","type":"bool"},{"internalType":"uint256","name":"avgGasPerUpdate","type":"uint256"},{"internalType":"uint256","name":"totalProofsVerified","type":"uint256"}],"internalType":"struct PoolPriceCustomFeed.FeedInfo","name":"info","type":"tuple"}],"stateMutability":"view","type":"function"},{"inputs":[],"name":"invertPrice","outputs":[{"internalType":"bool","name":"","type":"bool"}],"stateMutability":"view","type":"function"},{"inputs":[],"name":"lastUpdateTimestamp","outputs":[{"internalType":"uint64","name":"","type":"uint64"}],"stateMutability":"view","type":"function"},{"inputs":[],"name":"latestValue","outputs":[{"internalType":"uint256","name":"","type":"uint256"}],"stateMutability":"view","type":"function"},{"inputs":[],"name":"owner","outputs":[{"internalType":"address","name":"","type":"address"}],"stateMutability":"view","type":"function"},{"inputs":[],"name":"pauseUpdates","outputs":[],"stateMutability":"nonpayable","type":"function"},{"inputs":[],"name":"poolAddress","outputs":[{"internalType":"address","name":"","type":"address"}],"stateMutability":"view","type":"function"},{"inputs":[],"name":"priceRecorderAddress","outputs":[{"internalType":"address","name":"","type":"address"}],"stateMutability":"view","type":"function"},{"inputs":[],"name":"read","outputs":[{"internalType":"uint256","name":"","type":"uint256"}],"stateMutability":"view","type":"function"},{"inputs":[],"name":"resumeUpdates","outputs":[],"stateMutability":"nonpayable","type":"function"},{"inputs":[],"name":"token0Decimals","outputs":[{"internalType":"uint8","name":"","type":"uint8"}],"stateMutability":"view","type":"function"},{"inputs":[],"name":"token1Decimals","outputs":[{"internalType":"uint8","name":"","type":"uint8"}],"stateMutability":"view","type":"function"},{"inputs":[],"name":"totalGasUsedForVerification","outputs":[{"internalType":"uint256","name":"","type":"uint256"}],"stateMutability":"view","type":"function"},{"inputs":[],"name":"totalProofsVerified","outputs":[{"internalType":"uint256","name":"","type":"uint256"}],"stateMutability":"view","type":"function"},{"inputs":[{"internalType":"address","name":"newOwner","type":"address"}],"name":"transferOwnership","outputs":[],"stateMutability":"nonpayable","type":"function"},{"inputs":[],"name":"updateCount","outputs":[{"internalType":"uint256","name":"","type":"uint256"}],"stateMutability":"view","type":"function"},{"inputs":[{"components":[{"internalType":"bytes32[]","name":"merkleProof","type":"bytes32[]"},{"components":[{"internalType":"bytes32","name":"attestationType","type":"bytes32"},{"internalType":"bytes32","name":"sourceId","type":"bytes32"},{"internalType":"uint64","name":"votingRound","type":"uint64"},{"internalType":"uint64","name":"lowestUsedTimestamp","type":"uint64"},{"components":[{"internalType":"bytes32","name":"transactionHash","type":"bytes32"},{"internalType":"uint16","name":"requiredConfirmations","type":"uint16"},{"internalType":"bool","name":"provideInput","type":"bool"},{"internalType":"bool","name":"listEvents","type":"bool"},{"internalType":"uint32[]","name":"logIndices","type":"uint32[]"}],"internalType":"struct IEVMTransaction.RequestBody","name":"requestBody","type":"tuple"},{"components":[{"internalType":"uint64","name":"blockNumber","type":"uint64"},{"internalType":"uint64","name":"timestamp","type":"uint64"},{"internalType":"address","name":"sourceAddress","type":"address"},{"internalType":"bool","name":"isDeployment","type":"bool"},{"internalType":"address","name":"receivingAddress","type":"address"},{"internalType":"uint256","name":"value","type":"uint256"},{"internalType":"bytes","name":"input","type":"bytes"},{"internalType":"uint8","name":"status","type":"uint8"},{"components":[{"internalType":"uint32","name":"logIndex","type":"uint32"},{"internalType":"address","name":"emitterAddress","type":"address"},{"internalType":"bytes32[]","name":"topics","type":"bytes32[]"},{"internalType":"bytes","name":"data","type":"bytes"},{"internalType":"bool","name":"removed","type":"bool"}],"internalType":"struct IEVMTransaction.Event[]","name":"events","type":"tuple[]"}],"internalType":"struct IEVMTransaction.ResponseBody","name":"responseBody","type":"tuple"}],"internalType":"struct IEVMTransaction.Response","name":"data","type":"tuple"}],"internalType":"struct IEVMTransaction.Proof","name":"_proof","type":"tuple"}],"name":"updateFromProof","outputs":[],"stateMutability":"nonpayable","type":"function"}],"evm":{"bytecode":{"linkReferences":{},"object":"6101606040523480156200001257600080fd5b5060405162002389380380620023898339810160408190526200003591620003bb565b6001600160a01b038716620000915760405162461bcd60e51b815260206004820152601860248201527f496e76616c6964207265636f726465722061646472657373000000000000000060448201526064015b60405180910390fd5b6001600160a01b038616620000e95760405162461bcd60e51b815260206004820152601460248201527f496e76616c696420706f6f6c2061646472657373000000000000000000000000604482015260640162000088565b6001600160a01b038416620001415760405162461bcd60e51b815260206004820152601360248201527f496e76616c696420464443206164647265737300000000000000000000000000604482015260640162000088565b60008360ff1611801562000159575060128360ff1611155b620001a75760405162461bcd60e51b815260206004820152601760248201527f496e76616c696420746f6b656e3020646563696d616c73000000000000000000604482015260640162000088565b60008260ff16118015620001bf575060128260ff1611155b6200020d5760405162461bcd60e51b815260206004820152601760248201527f496e76616c696420746f6b656e3120646563696d616c73000000000000000000604482015260640162000088565b600080546001600160a01b031916331790556001600160a01b0387811660a052861660c0526004805460ff1916600117905560ff8381166101005282166101205280151561014052620002608562000286565b6001600160581b0319166080525050506001600160a01b031660e052506200057e915050565b80516000908290158015906200029e57506014815111155b620002ec5760405162461bcd60e51b815260206004820152601360248201527f496e76616c6964206e616d65206c656e67746800000000000000000000000000604482015260640162000088565b602160f81b60005b82518110156200035d5760006200030d82600862000516565b6200031a90609862000536565b90508060ff168483815181106200033557620003356200054c565b016020015160f81c901b60581b92909217915080620003548162000562565b915050620002f4565b509392505050565b80516001600160a01b03811681146200037d57600080fd5b919050565b634e487b7160e01b600052604160045260246000fd5b805160ff811681146200037d57600080fd5b805180151581146200037d57600080fd5b600080600080600080600060e0888a031215620003d757600080fd5b620003e28862000365565b96506020620003f3818a0162000365565b60408a01519097506001600160401b03808211156200041157600080fd5b818b0191508b601f8301126200042657600080fd5b8151818111156200043b576200043b62000382565b604051601f8201601f19908116603f0116810190838211818310171562000466576200046662000382565b816040528281528e868487010111156200047f57600080fd5b600093505b82841015620004a3578484018601518185018701529285019262000484565b6000868483010152809a50505050505050620004c26060890162000365565b9350620004d26080890162000398565b9250620004e260a0890162000398565b9150620004f260c08901620003aa565b905092959891949750929550565b634e487b7160e01b600052601160045260246000fd5b808202811582820484141762000530576200053062000500565b92915050565b8181038181111562000530576200053062000500565b634e487b7160e01b600052603260045260246000fd5b60006001820162000577576200057762000500565b5060010190565b60805160a05160c05160e051610100516101205161014051611d7162000618600039600081816103960152610e510152600081816101630152610da40152600081816104000152610dc8015260006107cb015260008181610215015281816106b80152610c3e015260008181610434015281816106900152818161089d0152610b7e0152600081816102c1015261063b0152611d716000f3fe6080604052600436106101355760003560e01c80636747f3c6116100ab5780638da5cb5b1161006f5780638da5cb5b146103ce578063b31ac6e2146103ee578063b59efdeb14610422578063d246a2a314610456578063e6af35f01461046c578063f2fde38b1461048057600080fd5b80636747f3c61461032457806369b4ecc91461034e5780637bee4c251461036457806384e767bd146103845780638c0a57a8146103b857600080fd5b806323d60889116100fd57806323d608891461024f578063313ce56714610264578063349225f8146102805780634a643499146102a25780634ab5cc82146102eb57806357de26a41461030f57600080fd5b8063022710691461013a5780630b77884d14610151578063115416fe1461019c57806314bcec9f146101cb5780631755ff2114610203575b600080fd5b34801561014657600080fd5b5061014f6104a0565b005b34801561015d57600080fd5b506101857f000000000000000000000000000000000000000000000000000000000000000081565b60405160ff90911681526020015b60405180910390f35b6101a4610508565b6040805193845260009290920b60208401526001600160401b031690820152606001610193565b3480156101d757600080fd5b506002546101eb906001600160401b031681565b6040516001600160401b039091168152602001610193565b34801561020f57600080fd5b506102377f000000000000000000000000000000000000000000000000000000000000000081565b6040516001600160a01b039091168152602001610193565b34801561025b57600080fd5b5061014f61056e565b34801561027057600080fd5b5060405160068152602001610193565b34801561028c57600080fd5b506102956105d0565b6040516101939190610f34565b3480156102ae57600080fd5b506040516affffffffffffffffffffff197f0000000000000000000000000000000000000000000000000000000000000000168152602001610193565b3480156102f757600080fd5b5061030160015481565b604051908152602001610193565b34801561031b57600080fd5b5061030161071d565b34801561033057600080fd5b5060045461033e9060ff1681565b6040519015158152602001610193565b34801561035a57600080fd5b5061030160035481565b34801561037057600080fd5b5061014f61037f366004610ff6565b61076b565b34801561039057600080fd5b5061033e7f000000000000000000000000000000000000000000000000000000000000000081565b3480156103c457600080fd5b5061030160055481565b3480156103da57600080fd5b50600054610237906001600160a01b031681565b3480156103fa57600080fd5b506101857f000000000000000000000000000000000000000000000000000000000000000081565b34801561042e57600080fd5b506102377f000000000000000000000000000000000000000000000000000000000000000081565b34801561046257600080fd5b5061030160065481565b34801561047857600080fd5b506000610301565b34801561048c57600080fd5b5061014f61049b36600461105f565b610a8c565b6000546001600160a01b031633146104d35760405162461bcd60e51b81526004016104ca9061107c565b60405180910390fd5b6004805460ff191690556040517f4a4c785fe1c9642309071a07ac280989cd10624630e14194d12672c8f0fe661f90600090a1565b600080600080600154116105525760405162461bcd60e51b81526020600482015260116024820152704e6f206461746120617661696c61626c6560781b60448201526064016104ca565b50506001546002549092600692506001600160401b0390911690565b6000546001600160a01b031633146105985760405162461bcd60e51b81526004016104ca9061107c565b6004805460ff191660011790556040517f24b779da341973449740a5c61843c5dd3fcfaf5b667a7b67edcda18b45beba6990600090a1565b6040805161014081018252600080825260208201819052918101829052606081018290526080810182905260a0810182905260c0810182905260e08101829052610100810182905261012081019190915260408051610140810182526affffffffffffffffffffff197f0000000000000000000000000000000000000000000000000000000000000000168152600154602082015260069181018290526002546001600160401b0316606082015260035460808201526001600160a01b037f0000000000000000000000000000000000000000000000000000000000000000811660a08301527f00000000000000000000000000000000000000000000000000000000000000001660c082015260045460ff16151560e082015290546101008201906106fd57600061070d565b60065460055461070d91906110b5565b8152602001600654815250905090565b600080600154116107645760405162461bcd60e51b81526020600482015260116024820152704e6f206461746120617661696c61626c6560781b60448201526064016104ca565b5060015490565b60045460ff166107ae5760405162461bcd60e51b815260206004820152600e60248201526d155c19185d195cc81c185d5cd95960921b60448201526064016104ca565b60005a6040516358fbe9e160e01b81529091506001600160a01b037f000000000000000000000000000000000000000000000000000000000000000016906358fbe9e190610800908590600401611432565b602060405180830381865afa15801561081d573d6000803e3d6000fd5b505050506040513d601f19601f82011682018060405250810190610841919061159c565b6108815760405162461bcd60e51b815260206004820152601160248201527024b73b30b634b21023222190383937b7b360791b60448201526064016104ca565b600061089060208401846115b9565b61089990611a59565b90507f00000000000000000000000000000000000000000000000000000000000000006001600160a01b03168160a00151608001516001600160a01b03161461091d5760405162461bcd60e51b815260206004820152601660248201527557726f6e6720636f6e7472616374206164647265737360501b60448201526064016104ca565b8060a0015160e0015160ff1660011461096d5760405162461bcd60e51b8152602060048201526012602482015271151c985b9cd858dd1a5bdb8819985a5b195960721b60448201526064016104ca565b6000806109828360a001516101000151610b4e565b60018290556002805467ffffffffffffffff19166001600160401b0383161790556003805492945090925060006109b883611afb565b919050555060005a6109ca9086611b14565b905080600560008282546109de9190611b2d565b9091555050600680549060006109f383611afb565b9091555050604080516001600160401b0384168152436020820152339185917fcbb0a1964fded1543e1fc229a1bea0552bb873219986500cf7ea9d1a4506d736910160405180910390a3608084015151604080518581526001600160401b03851660208201527f20aafbdb02edecf8b1e8547d36a18bfa617d137f7556777a48b28d206bd6d4d4910160405180910390a2505050505050565b6000546001600160a01b03163314610ab65760405162461bcd60e51b81526004016104ca9061107c565b6001600160a01b038116610afe5760405162461bcd60e51b815260206004820152600f60248201526e496e76616c6964206164647265737360881b60448201526064016104ca565b600080546001600160a01b038381166001600160a01b0319831681178455604051919092169283917f8be0079c531659141344cd1fd0a4f28419497f9722a3daafe3b4186f6b6457e09190a35050565b6000806000805b8451811015610cfc576000858281518110610b7257610b72611b40565b602002602001015190507f00000000000000000000000000000000000000000000000000000000000000006001600160a01b031681602001516001600160a01b031614610bbf5750610cea565b6000816040015151118015610c1157507f17440ab048fe6c6cbd98dc862b13c09a99713ac93c0d806c9b2a2a384787935e8160400151600081518110610c0757610c07611b40565b6020026020010151145b15610ce85760008160400151600181518110610c2f57610c2f611b40565b602002602001015160001c90507f00000000000000000000000000000000000000000000000000000000000000006001600160a01b0316816001600160a01b031614610caa5760405162461bcd60e51b815260206004820152600a60248201526915dc9bdb99c81c1bdbdb60b21b60448201526064016104ca565b6000808360600151806020019051810190610cc59190611b56565b509550505050509150610cd782610d50565b9750955060019450610cfc92505050565b505b80610cf481611afb565b915050610b55565b5080610d4a5760405162461bcd60e51b815260206004820152601d60248201527f50726963655265636f72646564206576656e74206e6f7420666f756e6400000060448201526064016104ca565b50915091565b6000600160601b81610d6b6001600160a01b03851680611bf1565b610d7d90670de0b6b3a7640000611bf1565b90506000610d8b8380611bf1565b90506000610d9982846110b5565b90506000610ded60ff7f00000000000000000000000000000000000000000000000000000000000000008116907f000000000000000000000000000000000000000000000000000000000000000016611c08565b90506000811315610e1457610e0381600a611d13565b610e0d9083611bf1565b9150610e3e565b6000811215610e3e57610e2681611d1f565b610e3190600a611d13565b610e3b90836110b5565b91505b610e4d64e8d4a51000836110b5565b91507f00000000000000000000000000000000000000000000000000000000000000008015610e7c5750600082115b15610e9357610e908264e8d4a510006110b5565b91505b60008211610edc5760405162461bcd60e51b81526020600482015260166024820152755072696365206d75737420626520706f73697469766560501b60448201526064016104ca565b6001600160801b038210610f2a5760405162461bcd60e51b815260206004820152601560248201527450726963652065786365656473206d6178696d756d60581b60448201526064016104ca565b5095945050505050565b81516affffffffffffffffffffff191681526101408101602083015160208301526040830151610f69604084018260000b9052565b506060830151610f8460608401826001600160401b03169052565b506080830151608083015260a0830151610fa960a08401826001600160a01b03169052565b5060c0830151610fc460c08401826001600160a01b03169052565b5060e0830151610fd860e084018215159052565b50610100838101519083015261012092830151929091019190915290565b60006020828403121561100857600080fd5b81356001600160401b0381111561101e57600080fd5b82016040818503121561103057600080fd5b9392505050565b6001600160a01b038116811461104c57600080fd5b50565b803561105a81611037565b919050565b60006020828403121561107157600080fd5b813561103081611037565b6020808252600990820152682737ba1037bbb732b960b91b604082015260600190565b634e487b7160e01b600052601160045260246000fd5b6000826110d257634e487b7160e01b600052601260045260246000fd5b500490565b6000808335601e198436030181126110ee57600080fd5b83016020810192503590506001600160401b0381111561110d57600080fd5b8060051b360382131561111f57600080fd5b9250929050565b81835260006001600160fb1b0383111561113f57600080fd5b8260051b80836020870137939093016020019392505050565b80356001600160401b038116811461105a57600080fd5b60008235609e1983360301811261118557600080fd5b90910192915050565b803561ffff8116811461105a57600080fd5b801515811461104c57600080fd5b803561105a816111a0565b803563ffffffff8116811461105a57600080fd5b6000823561011e1983360301811261118557600080fd5b6000808335601e198436030181126111fb57600080fd5b83016020810192503590506001600160401b0381111561121a57600080fd5b80360382131561111f57600080fd5b81835281816020850137506000828201602090810191909152601f909101601f19169091010190565b803560ff8116811461105a57600080fd5b81835260006020808501808196508560051b810191508460005b87811015611337578284038952611294828861116f565b60a063ffffffff6112a4836111b9565b168652868201356112b481611037565b6001600160a01b03168688015260406112cf838201846110d7565b83838a01526112e1848a018284611126565b935050505060606112f4818401846111e4565b888403838a0152611306848284611229565b9350505050608080830135925061131c836111a0565b9115159590910194909452978401979084019060010161127d565b5091979650505050505050565b60006101206113638461135685611158565b6001600160401b03169052565b61136f60208401611158565b6001600160401b031660208501526113896040840161104f565b6001600160a01b031660408501526113a3606084016111ae565b151560608501526113b66080840161104f565b6001600160a01b0316608085015260a083810135908501526113db60c08401846111e4565b8260c08701526113ee8387018284611229565b925050506113fe60e08401611252565b60ff1660e0850152610100611415848201856110d7565b86840383880152611427848284611263565b979650505050505050565b6000602080835261144384856110d7565b604083860152611457606086018284611126565b9150508185013560be1986360301811261147057600080fd5b8581019050601f1985830301604086015280358252828101358383015261149960408201611158565b6001600160401b038082166040850152806114b660608501611158565b16606085015250506114cb608082018261116f565b60c060808401526101608301813560c085015261ffff6114ec86840161118e565b1660e08501526040820135611500816111a0565b15156101008501526060820135611516816111a0565b151561012085015261152b60808301836110d7565b60a061014087015291829052909150600061018085015b8382101561156d5763ffffffff611558846111b9565b16815291860191600191909101908601611542565b61157a60a08601866111cd565b965085810360a087015261158e8188611344565b9a9950505050505050505050565b6000602082840312156115ae57600080fd5b8151611030816111a0565b6000823560be198336030181126115cf57600080fd5b9190910192915050565b634e487b7160e01b600052604160045260246000fd5b60405160a081016001600160401b0381118282101715611611576116116115d9565b60405290565b60405161012081016001600160401b0381118282101715611611576116116115d9565b60405160c081016001600160401b0381118282101715611611576116116115d9565b604051601f8201601f191681016001600160401b0381118282101715611684576116846115d9565b604052919050565b60006001600160401b038211156116a5576116a56115d9565b5060051b60200190565b600060a082840312156116c157600080fd5b6116c96115ef565b90508135815260206116dc81840161118e565b8183015260408301356116ee816111a0565b60408301526060830135611701816111a0565b606083015260808301356001600160401b0381111561171f57600080fd5b8301601f8101851361173057600080fd5b803561174361173e8261168c565b61165c565b81815260059190911b8201830190838101908783111561176257600080fd5b928401925b8284101561178757611778846111b9565b82529284019290840190611767565b6080860152509295945050505050565b600082601f8301126117a857600080fd5b81356001600160401b038111156117c1576117c16115d9565b6117d4601f8201601f191660200161165c565b8181528460208386010111156117e957600080fd5b816020850160208301376000918101602001919091529392505050565b600082601f83011261181757600080fd5b8135602061182761173e8361168c565b82815260059290921b8401810191818101908684111561184657600080fd5b8286015b8481101561196d5780356001600160401b038082111561186957600080fd5b9088019060a0828b03601f1901121561188157600080fd5b6118896115ef565b6118948784016111b9565b81526040808401356118a581611037565b828901526060840135838111156118bc5760008081fd5b8401603f81018d136118ce5760008081fd5b888101356118de61173e8261168c565b81815260059190911b82018301908a8101908f8311156118fe5760008081fd5b928401925b8284101561191c5783358252928b0192908b0190611903565b808587015250505050506080808401358381111561193a5760008081fd5b6119488d8a83880101611797565b60608401525061195a60a085016111ae565b908201528552505091830191830161184a565b509695505050505050565b6000610120828403121561198b57600080fd5b611993611617565b905061199e82611158565b81526119ac60208301611158565b60208201526119bd6040830161104f565b60408201526119ce606083016111ae565b60608201526119df6080830161104f565b608082015260a082013560a082015260c08201356001600160401b0380821115611a0857600080fd5b611a1485838601611797565b60c0840152611a2560e08501611252565b60e084015261010091508184013581811115611a4057600080fd5b611a4c86828701611806565b8385015250505092915050565b600060c08236031215611a6b57600080fd5b611a7361163a565b8235815260208301356020820152611a8d60408401611158565b6040820152611a9e60608401611158565b606082015260808301356001600160401b0380821115611abd57600080fd5b611ac9368387016116af565b608084015260a0850135915080821115611ae257600080fd5b50611aef36828601611978565b60a08301525092915050565b600060018201611b0d57611b0d61109f565b5060010190565b81810381811115611b2757611b2761109f565b92915050565b80820180821115611b2757611b2761109f565b634e487b7160e01b600052603260045260246000fd5b600080600080600080600060e0888a031215611b7157600080fd5b8751611b7c81611037565b8097505060208801518060020b8114611b9457600080fd5b60408901519096506001600160801b0381168114611bb157600080fd5b6060890151909550611bc281611037565b6080890151909450611bd381611037565b8093505060a0880151915060c0880151905092959891949750929550565b8082028115828204841417611b2757611b2761109f565b8181036000831280158383131683831282161715611c2857611c2861109f565b5092915050565b600181815b80851115611c6a578160001904821115611c5057611c5061109f565b80851615611c5d57918102915b93841c9390800290611c34565b509250929050565b600082611c8157506001611b27565b81611c8e57506000611b27565b8160018114611ca45760028114611cae57611cca565b6001915050611b27565b60ff841115611cbf57611cbf61109f565b50506001821b611b27565b5060208310610133831016604e8410600b8410161715611ced575081810a611b27565b611cf78383611c2f565b8060001904821115611d0b57611d0b61109f565b029392505050565b60006110308383611c72565b6000600160ff1b8201611d3457611d3461109f565b506000039056fea2646970667358221220f798cf19486e304e8a9e208761cd53b5132b8e79e70ce0343781da6c5aa01a5564736f6c63430008130033","opcodes":"PUSH2 0x160 PUSH1 0x40 MSTORE CALLVALUE DUP1 ISZERO PUSH3 0x12 JUMPI PUSH1 0x0 DUP1 REVERT JUMPDEST POP PUSH1 0x40 MLOAD PUSH3 0x2389 CODESIZE SUB DUP1 PUSH3 0x2389 DUP4 CODECOPY DUP2 ADD PUSH1 0x40 DUP2 SWAP1 MSTORE PUSH3 0x35 SWAP2 PUSH3 0x3BB JUMP JUMPDEST PUSH1 0x1 PUSH1 0x1 PUSH1 0xA0 SHL SUB DUP8 AND PUSH3 0x91 JUMPI PUSH1 0x40 MLOAD PUSH3 0x461BCD PUSH1 0xE5 SHL DUP2 MSTORE PUSH1 0x20 PUSH1 0x4 DUP3 ADD MSTORE PUSH1 0x18 PUSH1 0x24 DUP3 ADD MSTORE PUSH32 0x496E76616C6964207265636F7264657220616464726573730000000000000000 PUSH1 0x44 DUP3 ADD MSTORE PUSH1 0x64 ADD JUMPDEST PUSH1 0x40 MLOAD DUP1 SWAP2 SUB SWAP1 REVERT JUMPDEST PUSH1 0x1 PUSH1 0x1 PUSH1 0xA0 SHL SUB DUP7 AND PUSH3 0xE9 JUMPI PUSH1 0x40 MLOAD PUSH3 0x461BCD PUSH1 0xE5 SHL DUP2 MSTORE PUSH1 0x20 PUSH1 0x4 DUP3 ADD MSTORE PUSH1 0x14 PUSH1 0x24 DUP3 ADD MSTORE PUSH32 0x496E76616C696420706F6F6C2061646472657373000000000000000000000000 PUSH1 0x44 DUP3 ADD MSTORE PUSH1 0x64 ADD PUSH3 0x88 JUMP JUMPDEST PUSH1 0x1 PUSH1 0x1 PUSH1 0xA0 SHL SUB DUP5 AND PUSH3 0x141 JUMPI PUSH1 0x40 MLOAD PUSH3 0x461BCD PUSH1 0xE5 SHL DUP2 MSTORE PUSH1 0x20 PUSH1 0x4 DUP3 ADD MSTORE PUSH1 0x13 PUSH1 0x24 DUP3 ADD MSTORE PUSH32 0x496E76616C696420464443206164647265737300000000000000000000000000 PUSH1 0x44 DUP3 ADD MSTORE PUSH1 0x64 ADD PUSH3 0x88 JUMP JUMPDEST PUSH1 0x0 DUP4 PUSH1 0xFF AND GT DUP1 ISZERO PUSH3 0x159 JUMPI POP PUSH1 0x12 DUP4 PUSH1 0xFF AND GT ISZERO JUMPDEST PUSH3 0x1A7 JUMPI PUSH1 0x40 MLOAD PUSH3 0x461BCD PUSH1 0xE5 SHL DUP2 MSTORE PUSH1 0x20 PUSH1 0x4 DUP3 ADD MSTORE PUSH1 0x17 PUSH1 0x24 DUP3 ADD MSTORE PUSH32 0x496E76616C696420746F6B656E3020646563696D616C73000000000000000000 PUSH1 0x44 DUP3 ADD MSTORE PUSH1 0x64 ADD PUSH3 0x88 JUMP JUMPDEST PUSH1 0x0 DUP3 PUSH1 0xFF AND GT DUP1 ISZERO PUSH3 0x1BF JUMPI POP PUSH1 0x12 DUP3 PUSH1 0xFF AND GT ISZERO JUMPDEST PUSH3 0x20D JUMPI PUSH1 0x40 MLOAD PUSH3 0x461BCD PUSH1 0xE5 SHL DUP2 MSTORE PUSH1 0x20 PUSH1 0x4 DUP3 ADD MSTORE PUSH1 0x17 PUSH1 0x24 DUP3 ADD MSTORE PUSH32 0x496E76616C696420746F6B656E3120646563696D616C73000000000000000000 PUSH1 0x44 DUP3 ADD MSTORE PUSH1 0x64 ADD PUSH3 0x88 JUMP JUMPDEST PUSH1 0x0 DUP1 SLOAD PUSH1 0x1 PUSH1 0x1 PUSH1 0xA0 SHL SUB NOT AND CALLER OR SWAP1 SSTORE PUSH1 0x1 PUSH1 0x1 PUSH1 0xA0 SHL SUB DUP8 DUP2 AND PUSH1 0xA0 MSTORE DUP7 AND PUSH1 0xC0 MSTORE PUSH1 0x4 DUP1 SLOAD PUSH1 0xFF NOT AND PUSH1 0x1 OR SWAP1 SSTORE PUSH1 0xFF DUP4 DUP2 AND PUSH2 0x100 MSTORE DUP3 AND PUSH2 0x120 MSTORE DUP1 ISZERO ISZERO PUSH2 0x140 MSTORE PUSH3 0x260 DUP6 PUSH3 0x286 JUMP JUMPDEST PUSH1 0x1 PUSH1 0x1 PUSH1 0x58 SHL SUB NOT AND PUSH1 0x80 MSTORE POP POP POP PUSH1 0x1 PUSH1 0x1 PUSH1 0xA0 SHL SUB AND PUSH1 0xE0 MSTORE POP PUSH3 0x57E SWAP2 POP POP JUMP JUMPDEST DUP1 MLOAD PUSH1 0x0 SWAP1 DUP3 SWAP1 ISZERO DUP1 ISZERO SWAP1 PUSH3 0x29E JUMPI POP PUSH1 0x14 DUP2 MLOAD GT ISZERO JUMPDEST PUSH3 0x2EC JUMPI PUSH1 0x40 MLOAD PUSH3 0x461BCD PUSH1 0xE5 SHL DUP2 MSTORE PUSH1 0x20 PUSH1 0x4 DUP3 ADD MSTORE PUSH1 0x13 PUSH1 0x24 DUP3 ADD MSTORE PUSH32 0x496E76616C6964206E616D65206C656E67746800000000000000000000000000 PUSH1 0x44 DUP3 ADD MSTORE PUSH1 0x64 ADD PUSH3 0x88 JUMP JUMPDEST PUSH1 0x21 PUSH1 0xF8 SHL PUSH1 0x0 JUMPDEST DUP3 MLOAD DUP2 LT ISZERO PUSH3 0x35D JUMPI PUSH1 0x0 PUSH3 0x30D DUP3 PUSH1 0x8 PUSH3 0x516 JUMP JUMPDEST PUSH3 0x31A SWAP1 PUSH1 0x98 PUSH3 0x536 JUMP JUMPDEST SWAP1 POP DUP1 PUSH1 0xFF AND DUP5 DUP4 DUP2 MLOAD DUP2 LT PUSH3 0x335 JUMPI PUSH3 0x335 PUSH3 0x54C JUMP JUMPDEST ADD PUSH1 0x20 ADD MLOAD PUSH1 0xF8 SHR SWAP1 SHL PUSH1 0x58 SHL SWAP3 SWAP1 SWAP3 OR SWAP2 POP DUP1 PUSH3 0x354 DUP2 PUSH3 0x562 JUMP JUMPDEST SWAP2 POP POP PUSH3 0x2F4 JUMP JUMPDEST POP SWAP4 SWAP3 POP POP POP JUMP JUMPDEST DUP1 MLOAD PUSH1 0x1 PUSH1 0x1 PUSH1 0xA0 SHL SUB DUP2 AND DUP2 EQ PUSH3 0x37D JUMPI PUSH1 0x0 DUP1 REVERT JUMPDEST SWAP2 SWAP1 POP JUMP JUMPDEST PUSH4 0x4E487B71 PUSH1 0xE0 SHL PUSH1 0x0 MSTORE PUSH1 0x41 PUSH1 0x4 MSTORE PUSH1 0x24 PUSH1 0x0 REVERT JUMPDEST DUP1 MLOAD PUSH1 0xFF DUP2 AND DUP2 EQ PUSH3 0x37D JUMPI PUSH1 0x0 DUP1 REVERT JUMPDEST DUP1 MLOAD DUP1 ISZERO ISZERO DUP2 EQ PUSH3 0x37D JUMPI PUSH1 0x0 DUP1 REVERT JUMPDEST PUSH1 0x0 DUP1 PUSH1 0x0 DUP1 PUSH1 0x0 DUP1 PUSH1 0x0 PUSH1 0xE0 DUP9 DUP11 SUB SLT ISZERO PUSH3 0x3D7 JUMPI PUSH1 0x0 DUP1 REVERT JUMPDEST PUSH3 0x3E2 DUP9 PUSH3 0x365 JUMP JUMPDEST SWAP7 POP PUSH1 0x20 PUSH3 0x3F3 DUP2 DUP11 ADD PUSH3 0x365 JUMP JUMPDEST PUSH1 0x40 DUP11 ADD MLOAD SWAP1 SWAP8 POP PUSH1 0x1 PUSH1 0x1 PUSH1 0x40 SHL SUB DUP1 DUP3 GT ISZERO PUSH3 0x411 JUMPI PUSH1 0x0 DUP1 REVERT JUMPDEST DUP2 DUP12 ADD SWAP2 POP DUP12 PUSH1 0x1F DUP4 ADD SLT PUSH3 0x426 JUMPI PUSH1 0x0 DUP1 REVERT JUMPDEST DUP2 MLOAD DUP2 DUP2 GT ISZERO PUSH3 0x43B JUMPI PUSH3 0x43B PUSH3 0x382 JUMP JUMPDEST PUSH1 0x40 MLOAD PUSH1 0x1F DUP3 ADD PUSH1 0x1F NOT SWAP1 DUP2 AND PUSH1 0x3F ADD AND DUP2 ADD SWAP1 DUP4 DUP3 GT DUP2 DUP4 LT OR ISZERO PUSH3 0x466 JUMPI PUSH3 0x466 PUSH3 0x382 JUMP JUMPDEST DUP2 PUSH1 0x40 MSTORE DUP3 DUP2 MSTORE DUP15 DUP7 DUP5 DUP8 ADD ADD GT ISZERO PUSH3 0x47F JUMPI PUSH1 0x0 DUP1 REVERT JUMPDEST PUSH1 0x0 SWAP4 POP JUMPDEST DUP3 DUP5 LT ISZERO PUSH3 0x4A3 JUMPI DUP5 DUP5 ADD DUP7 ADD MLOAD DUP2 DUP6 ADD DUP8 ADD MSTORE SWAP3 DUP6 ADD SWAP3 PUSH3 0x484 JUMP JUMPDEST PUSH1 0x0 DUP7 DUP5 DUP4 ADD ADD MSTORE DUP1 SWAP11 POP POP POP POP POP POP POP PUSH3 0x4C2 PUSH1 0x60 DUP10 ADD PUSH3 0x365 JUMP JUMPDEST SWAP4 POP PUSH3 0x4D2 PUSH1 0x80 DUP10 ADD PUSH3 0x398 JUMP JUMPDEST SWAP3 POP PUSH3 0x4E2 PUSH1 0xA0 DUP10 ADD PUSH3 0x398 JUMP JUMPDEST SWAP2 POP PUSH3 0x4F2 PUSH1 0xC0 DUP10 ADD PUSH3 0x3AA JUMP JUMPDEST SWAP1 POP SWAP3 SWAP6 SWAP9 SWAP2 SWAP5 SWAP8 POP SWAP3 SWAP6 POP JUMP JUMPDEST PUSH4 0x4E487B71 PUSH1 0xE0 SHL PUSH1 0x0 MSTORE PUSH1 0x11 PUSH1 0x4 MSTORE PUSH1 0x24 PUSH1 0x0 REVERT JUMPDEST DUP1 DUP3 MUL DUP2 ISZERO DUP3 DUP3 DIV DUP5 EQ OR PUSH3 0x530 JUMPI PUSH3 0x530 PUSH3 0x500 JUMP JUMPDEST SWAP3 SWAP2 POP POP JUMP JUMPDEST DUP2 DUP2 SUB DUP2 DUP2 GT ISZERO PUSH3 0x530 JUMPI PUSH3 0x530 PUSH3 0x500 JUMP JUMPDEST PUSH4 0x4E487B71 PUSH1 0xE0 SHL PUSH1 0x0 MSTORE PUSH1 0x32 PUSH1 0x4 MSTORE PUSH1 0x24 PUSH1 0x0 REVERT JUMPDEST PUSH1 0x0 PUSH1 0x1 DUP3 ADD PUSH3 0x577 JUMPI PUSH3 0x577 PUSH3 0x500 JUMP JUMPDEST POP PUSH1 0x1 ADD SWAP1 JUMP JUMPDEST PUSH1 0x80 MLOAD PUSH1 0xA0 MLOAD PUSH1 0xC0 MLOAD PUSH1 0xE0 MLOAD PUSH2 0x100 MLOAD PUSH2 0x120 MLOAD PUSH2 0x140 MLOAD PUSH2 0x1D71 PUSH3 0x618 PUSH1 0x0 CODECOPY PUSH1 0x0 DUP2 DUP2 PUSH2 0x396 ADD MSTORE PUSH2 0xE51 ADD MSTORE PUSH1 0x0 DUP2 DUP2 PUSH2 0x163 ADD MSTORE PUSH2 0xDA4 ADD MSTORE PUSH1 0x0 DUP2 DUP2 PUSH2 0x400 ADD MSTORE PUSH2 0xDC8 ADD MSTORE PUSH1 0x0 PUSH2 0x7CB ADD MSTORE PUSH1 0x0 DUP2 DUP2 PUSH2 0x215 ADD MSTORE DUP2 DUP2 PUSH2 0x6B8 ADD MSTORE PUSH2 0xC3E ADD MSTORE PUSH1 0x0 DUP2 DUP2 PUSH2 0x434 ADD MSTORE DUP2 DUP2 PUSH2 0x690 ADD MSTORE DUP2 DUP2 PUSH2 0x89D ADD MSTORE PUSH2 0xB7E ADD MSTORE PUSH1 0x0 DUP2 DUP2 PUSH2 0x2C1 ADD MSTORE PUSH2 0x63B ADD MSTORE PUSH2 0x1D71 PUSH1 0x0 RETURN INVALID PUSH1 0x80 PUSH1 0x40 MSTORE PUSH1 0x4 CALLDATASIZE LT PUSH2 0x135 JUMPI PUSH1 0x0 CALLDATALOAD PUSH1 0xE0 SHR DUP1 PUSH4 0x6747F3C6 GT PUSH2 0xAB JUMPI DUP1 PUSH4 0x8DA5CB5B GT PUSH2 0x6F JUMPI DUP1 PUSH4 0x8DA5CB5B EQ PUSH2 0x3CE JUMPI DUP1 PUSH4 0xB31AC6E2 EQ PUSH2 0x3EE JUMPI DUP1 PUSH4 0xB59EFDEB EQ PUSH2 0x422 JUMPI DUP1 PUSH4 0xD246A2A3 EQ PUSH2 0x456 JUMPI DUP1 PUSH4 0xE6AF35F0 EQ PUSH2 0x46C JUMPI DUP1 PUSH4 0xF2FDE38B EQ PUSH2 0x480 JUMPI PUSH1 0x0 DUP1 REVERT JUMPDEST DUP1 PUSH4 0x6747F3C6 EQ PUSH2 0x324 JUMPI DUP1 PUSH4 0x69B4ECC9 EQ PUSH2 0x34E JUMPI DUP1 PUSH4 0x7BEE4C25 EQ PUSH2 0x364 JUMPI DUP1 PUSH4 0x84E767BD EQ PUSH2 0x384 JUMPI DUP1 PUSH4 0x8C0A57A8 EQ PUSH2 0x3B8 JUMPI PUSH1 0x0 DUP1 REVERT JUMPDEST DUP1 PUSH4 0x23D60889 GT PUSH2 0xFD JUMPI DUP1 PUSH4 0x23D60889 EQ PUSH2 0x24F JUMPI DUP1 PUSH4 0x313CE567 EQ PUSH2 0x264 JUMPI DUP1 PUSH4 0x349225F8 EQ PUSH2 0x280 JUMPI DUP1 PUSH4 0x4A643499 EQ PUSH2 0x2A2 JUMPI DUP1 PUSH4 0x4AB5CC82 EQ PUSH2 0x2EB JUMPI DUP1 PUSH4 0x57DE26A4 EQ PUSH2 0x30F JUMPI PUSH1 0x0 DUP1 REVERT JUMPDEST DUP1 PUSH4 0x2271069 EQ PUSH2 0x13A JUMPI DUP1 PUSH4 0xB77884D EQ PUSH2 0x151 JUMPI DUP1 PUSH4 0x115416FE EQ PUSH2 0x19C JUMPI DUP1 PUSH4 0x14BCEC9F EQ PUSH2 0x1CB JUMPI DUP1 PUSH4 0x1755FF21 EQ PUSH2 0x203 JUMPI JUMPDEST PUSH1 0x0 DUP1 REVERT JUMPDEST CALLVALUE DUP1 ISZERO PUSH2 0x146 JUMPI PUSH1 0x0 DUP1 REVERT JUMPDEST POP PUSH2 0x14F PUSH2 0x4A0 JUMP JUMPDEST STOP JUMPDEST CALLVALUE DUP1 ISZERO PUSH2 0x15D JUMPI PUSH1 0x0 DUP1 REVERT JUMPDEST POP PUSH2 0x185 PUSH32 0x0 DUP2 JUMP JUMPDEST PUSH1 0x40 MLOAD PUSH1 0xFF SWAP1 SWAP2 AND DUP2 MSTORE PUSH1 0x20 ADD JUMPDEST PUSH1 0x40 MLOAD DUP1 SWAP2 SUB SWAP1 RETURN JUMPDEST PUSH2 0x1A4 PUSH2 0x508 JUMP JUMPDEST PUSH1 0x40 DUP1 MLOAD SWAP4 DUP5 MSTORE PUSH1 0x0 SWAP3 SWAP1 SWAP3 SIGNEXTEND PUSH1 0x20 DUP5 ADD MSTORE PUSH1 0x1 PUSH1 0x1 PUSH1 0x40 SHL SUB AND SWAP1 DUP3 ADD MSTORE PUSH1 0x60 ADD PUSH2 0x193 JUMP JUMPDEST CALLVALUE DUP1 ISZERO PUSH2 0x1D7 JUMPI PUSH1 0x0 DUP1 REVERT JUMPDEST POP PUSH1 0x2 SLOAD PUSH2 0x1EB SWAP1 PUSH1 0x1 PUSH1 0x1 PUSH1 0x40 SHL SUB AND DUP2 JUMP JUMPDEST PUSH1 0x40 MLOAD PUSH1 0x1 PUSH1 0x1 PUSH1 0x40 SHL SUB SWAP1 SWAP2 AND DUP2 MSTORE PUSH1 0x20 ADD PUSH2 0x193 JUMP JUMPDEST CALLVALUE DUP1 ISZERO PUSH2 0x20F JUMPI PUSH1 0x0 DUP1 REVERT JUMPDEST POP PUSH2 0x237 PUSH32 0x0 DUP2 JUMP JUMPDEST PUSH1 0x40 MLOAD PUSH1 0x1 PUSH1 0x1 PUSH1 0xA0 SHL SUB SWAP1 SWAP2 AND DUP2 MSTORE PUSH1 0x20 ADD PUSH2 0x193 JUMP JUMPDEST CALLVALUE DUP1 ISZERO PUSH2 0x25B JUMPI PUSH1 0x0 DUP1 REVERT JUMPDEST POP PUSH2 0x14F PUSH2 0x56E JUMP JUMPDEST CALLVALUE DUP1 ISZERO PUSH2 0x270 JUMPI PUSH1 0x0 DUP1 REVERT JUMPDEST POP PUSH1 0x40 MLOAD PUSH1 0x6 DUP2 MSTORE PUSH1 0x20 ADD PUSH2 0x193 JUMP JUMPDEST CALLVALUE DUP1 ISZERO PUSH2 0x28C JUMPI PUSH1 0x0 DUP1 REVERT JUMPDEST POP PUSH2 0x295 PUSH2 0x5D0 JUMP JUMPDEST PUSH1 0x40 MLOAD PUSH2 0x193 SWAP2 SWAP1 PUSH2 0xF34 JUMP JUMPDEST CALLVALUE DUP1 ISZERO PUSH2 0x2AE JUMPI PUSH1 0x0 DUP1 REVERT JUMPDEST POP PUSH1 0x40 MLOAD PUSH11 0xFFFFFFFFFFFFFFFFFFFFFF NOT PUSH32 0x0 AND DUP2 MSTORE PUSH1 0x20 ADD PUSH2 0x193 JUMP JUMPDEST CALLVALUE DUP1 ISZERO PUSH2 0x2F7 JUMPI PUSH1 0x0 DUP1 REVERT JUMPDEST POP PUSH2 0x301 PUSH1 0x1 SLOAD DUP2 JUMP JUMPDEST PUSH1 0x40 MLOAD SWAP1 DUP2 MSTORE PUSH1 0x20 ADD PUSH2 0x193 JUMP JUMPDEST CALLVALUE DUP1 ISZERO PUSH2 0x31B JUMPI PUSH1 0x0 DUP1 REVERT JUMPDEST POP PUSH2 0x301 PUSH2 0x71D JUMP JUMPDEST CALLVALUE DUP1 ISZERO PUSH2 0x330 JUMPI PUSH1 0x0 DUP1 REVERT JUMPDEST POP PUSH1 0x4 SLOAD PUSH2 0x33E SWAP1 PUSH1 0xFF AND DUP2 JUMP JUMPDEST PUSH1 0x40 MLOAD SWAP1 ISZERO ISZERO DUP2 MSTORE PUSH1 0x20 ADD PUSH2 0x193 JUMP JUMPDEST CALLVALUE DUP1 ISZERO PUSH2 0x35A JUMPI PUSH1 0x0 DUP1 REVERT JUMPDEST POP PUSH2 0x301 PUSH1 0x3 SLOAD DUP2 JUMP JUMPDEST CALLVALUE DUP1 ISZERO PUSH2 0x370 JUMPI PUSH1 0x0 DUP1 REVERT JUMPDEST POP PUSH2 0x14F PUSH2 0x37F CALLDATASIZE PUSH1 0x4 PUSH2 0xFF6 JUMP JUMPDEST PUSH2 0x76B JUMP JUMPDEST CALLVALUE DUP1 ISZERO PUSH2 0x390 JUMPI PUSH1 0x0 DUP1 REVERT JUMPDEST POP PUSH2 0x33E PUSH32 0x0 DUP2 JUMP JUMPDEST CALLVALUE DUP1 ISZERO PUSH2 0x3C4 JUMPI PUSH1 0x0 DUP1 REVERT JUMPDEST POP PUSH2 0x301 PUSH1 0x5 SLOAD DUP2 JUMP JUMPDEST CALLVALUE DUP1 ISZERO PUSH2 0x3DA JUMPI PUSH1 0x0 DUP1 REVERT JUMPDEST POP PUSH1 0x0 SLOAD PUSH2 0x237 SWAP1 PUSH1 0x1 PUSH1 0x1 PUSH1 0xA0 SHL SUB AND DUP2 JUMP JUMPDEST CALLVALUE DUP1 ISZERO PUSH2 0x3FA JUMPI PUSH1 0x0 DUP1 REVERT JUMPDEST POP PUSH2 0x185 PUSH32 0x0 DUP2 JUMP JUMPDEST CALLVALUE DUP1 ISZERO PUSH2 0x42E JUMPI PUSH1 0x0 DUP1 REVERT JUMPDEST POP PUSH2 0x237 PUSH32 0x0 DUP2 JUMP JUMPDEST CALLVALUE DUP1 ISZERO PUSH2 0x462 JUMPI PUSH1 0x0 DUP1 REVERT JUMPDEST POP PUSH2 0x301 PUSH1 0x6 SLOAD DUP2 JUMP JUMPDEST CALLVALUE DUP1 ISZERO PUSH2 0x478 JUMPI PUSH1 0x0 DUP1 REVERT JUMPDEST POP PUSH1 0x0 PUSH2 0x301 JUMP JUMPDEST CALLVALUE DUP1 ISZERO PUSH2 0x48C JUMPI PUSH1 0x0 DUP1 REVERT JUMPDEST POP PUSH2 0x14F PUSH2 0x49B CALLDATASIZE PUSH1 0x4 PUSH2 0x105F JUMP JUMPDEST PUSH2 0xA8C JUMP JUMPDEST PUSH1 0x0 SLOAD PUSH1 0x1 PUSH1 0x1 PUSH1 0xA0 SHL SUB AND CALLER EQ PUSH2 0x4D3 JUMPI PUSH1 0x40 MLOAD PUSH3 0x461BCD PUSH1 0xE5 SHL DUP2 MSTORE PUSH1 0x4 ADD PUSH2 0x4CA SWAP1 PUSH2 0x107C JUMP JUMPDEST PUSH1 0x40 MLOAD DUP1 SWAP2 SUB SWAP1 REVERT JUMPDEST PUSH1 0x4 DUP1 SLOAD PUSH1 0xFF NOT AND SWAP1 SSTORE PUSH1 0x40 MLOAD PUSH32 0x4A4C785FE1C9642309071A07AC280989CD10624630E14194D12672C8F0FE661F SWAP1 PUSH1 0x0 SWAP1 LOG1 JUMP JUMPDEST PUSH1 0x0 DUP1 PUSH1 0x0 DUP1 PUSH1 0x1 SLOAD GT PUSH2 0x552 JUMPI PUSH1 0x40 MLOAD PUSH3 0x461BCD PUSH1 0xE5 SHL DUP2 MSTORE PUSH1 0x20 PUSH1 0x4 DUP3 ADD MSTORE PUSH1 0x11 PUSH1 0x24 DUP3 ADD MSTORE PUSH17 0x4E6F206461746120617661696C61626C65 PUSH1 0x78 SHL PUSH1 0x44 DUP3 ADD MSTORE PUSH1 0x64 ADD PUSH2 0x4CA JUMP JUMPDEST POP POP PUSH1 0x1 SLOAD PUSH1 0x2 SLOAD SWAP1 SWAP3 PUSH1 0x6 SWAP3 POP PUSH1 0x1 PUSH1 0x1 PUSH1 0x40 SHL SUB SWAP1 SWAP2 AND SWAP1 JUMP JUMPDEST PUSH1 0x0 SLOAD PUSH1 0x1 PUSH1 0x1 PUSH1 0xA0 SHL SUB AND CALLER EQ PUSH2 0x598 JUMPI PUSH1 0x40 MLOAD PUSH3 0x461BCD PUSH1 0xE5 SHL DUP2 MSTORE PUSH1 0x4 ADD PUSH2 0x4CA SWAP1 PUSH2 0x107C JUMP JUMPDEST PUSH1 0x4 DUP1 SLOAD PUSH1 0xFF NOT AND PUSH1 0x1 OR SWAP1 SSTORE PUSH1 0x40 MLOAD PUSH32 0x24B779DA341973449740A5C61843C5DD3FCFAF5B667A7B67EDCDA18B45BEBA69 SWAP1 PUSH1 0x0 SWAP1 LOG1 JUMP JUMPDEST PUSH1 0x40 DUP1 MLOAD PUSH2 0x140 DUP2 ADD DUP3 MSTORE PUSH1 0x0 DUP1 DUP3 MSTORE PUSH1 0x20 DUP3 ADD DUP2 SWAP1 MSTORE SWAP2 DUP2 ADD DUP3 SWAP1 MSTORE PUSH1 0x60 DUP2 ADD DUP3 SWAP1 MSTORE PUSH1 0x80 DUP2 ADD DUP3 SWAP1 MSTORE PUSH1 0xA0 DUP2 ADD DUP3 SWAP1 MSTORE PUSH1 0xC0 DUP2 ADD DUP3 SWAP1 MSTORE PUSH1 0xE0 DUP2 ADD DUP3 SWAP1 MSTORE PUSH2 0x100 DUP2 ADD DUP3 SWAP1 MSTORE PUSH2 0x120 DUP2 ADD SWAP2 SWAP1 SWAP2 MSTORE PUSH1 0x40 DUP1 MLOAD PUSH2 0x140 DUP2 ADD DUP3 MSTORE PUSH11 0xFFFFFFFFFFFFFFFFFFFFFF NOT PUSH32 0x0 AND DUP2 MSTORE PUSH1 0x1 SLOAD PUSH1 0x20 DUP3 ADD MSTORE PUSH1 0x6 SWAP2 DUP2 ADD DUP3 SWAP1 MSTORE PUSH1 0x2 SLOAD PUSH1 0x1 PUSH1 0x1 PUSH1 0x40 SHL SUB AND PUSH1 0x60 DUP3 ADD MSTORE PUSH1 0x3 SLOAD PUSH1 0x80 DUP3 ADD MSTORE PUSH1 0x1 PUSH1 0x1 PUSH1 0xA0 SHL SUB PUSH32 0x0 DUP2 AND PUSH1 0xA0 DUP4 ADD MSTORE PUSH32 0x0 AND PUSH1 0xC0 DUP3 ADD MSTORE PUSH1 0x4 SLOAD PUSH1 0xFF AND ISZERO ISZERO PUSH1 0xE0 DUP3 ADD MSTORE SWAP1 SLOAD PUSH2 0x100 DUP3 ADD SWAP1 PUSH2 0x6FD JUMPI PUSH1 0x0 PUSH2 0x70D JUMP JUMPDEST PUSH1 0x6 SLOAD PUSH1 0x5 SLOAD PUSH2 0x70D SWAP2 SWAP1 PUSH2 0x10B5 JUMP JUMPDEST DUP2 MSTORE PUSH1 0x20 ADD PUSH1 0x6 SLOAD DUP2 MSTORE POP SWAP1 POP SWAP1 JUMP JUMPDEST PUSH1 0x0 DUP1 PUSH1 0x1 SLOAD GT PUSH2 0x764 JUMPI PUSH1 0x40 MLOAD PUSH3 0x461BCD PUSH1 0xE5 SHL DUP2 MSTORE PUSH1 0x20 PUSH1 0x4 DUP3 ADD MSTORE PUSH1 0x11 PUSH1 0x24 DUP3 ADD MSTORE PUSH17 0x4E6F206461746120617661696C61626C65 PUSH1 0x78 SHL PUSH1 0x44 DUP3 ADD MSTORE PUSH1 0x64 ADD PUSH2 0x4CA JUMP JUMPDEST POP PUSH1 0x1 SLOAD SWAP1 JUMP JUMPDEST PUSH1 0x4 SLOAD PUSH1 0xFF AND PUSH2 0x7AE JUMPI PUSH1 0x40 MLOAD PUSH3 0x461BCD PUSH1 0xE5 SHL DUP2 MSTORE PUSH1 0x20 PUSH1 0x4 DUP3 ADD MSTORE PUSH1 0xE PUSH1 0x24 DUP3 ADD MSTORE PUSH14 0x155C19185D195CC81C185D5CD959 PUSH1 0x92 SHL PUSH1 0x44 DUP3 ADD MSTORE PUSH1 0x64 ADD PUSH2 0x4CA JUMP JUMPDEST PUSH1 0x0 GAS PUSH1 0x40 MLOAD PUSH4 0x58FBE9E1 PUSH1 0xE0 SHL DUP2 MSTORE SWAP1 SWAP2 POP PUSH1 0x1 PUSH1 0x1 PUSH1 0xA0 SHL SUB PUSH32 0x0 AND SWAP1 PUSH4 0x58FBE9E1 SWAP1 PUSH2 0x800 SWAP1 DUP6 SWAP1 PUSH1 0x4 ADD PUSH2 0x1432 JUMP JUMPDEST PUSH1 0x20 PUSH1 0x40 MLOAD DUP1 DUP4 SUB DUP2 DUP7 GAS STATICCALL ISZERO DUP1 ISZERO PUSH2 0x81D JUMPI RETURNDATASIZE PUSH1 0x0 DUP1 RETURNDATACOPY RETURNDATASIZE PUSH1 0x0 REVERT JUMPDEST POP POP POP POP PUSH1 0x40 MLOAD RETURNDATASIZE PUSH1 0x1F NOT PUSH1 0x1F DUP3 ADD AND DUP3 ADD DUP1 PUSH1 0x40 MSTORE POP DUP2 ADD SWAP1 PUSH2 0x841 SWAP2 SWAP1 PUSH2 0x159C JUMP JUMPDEST PUSH2 0x881 JUMPI PUSH1 0x40 MLOAD PUSH3 0x461BCD PUSH1 0xE5 SHL DUP2 MSTORE PUSH1 0x20 PUSH1 0x4 DUP3 ADD MSTORE PUSH1 0x11 PUSH1 0x24 DUP3 ADD MSTORE PUSH17 0x24B73B30B634B21023222190383937B7B3 PUSH1 0x79 SHL PUSH1 0x44 DUP3 ADD MSTORE PUSH1 0x64 ADD PUSH2 0x4CA JUMP JUMPDEST PUSH1 0x0 PUSH2 0x890 PUSH1 0x20 DUP5 ADD DUP5 PUSH2 0x15B9 JUMP JUMPDEST PUSH2 0x899 SWAP1 PUSH2 0x1A59 JUMP JUMPDEST SWAP1 POP PUSH32 0x0 PUSH1 0x1 PUSH1 0x1 PUSH1 0xA0 SHL SUB AND DUP2 PUSH1 0xA0 ADD MLOAD PUSH1 0x80 ADD MLOAD PUSH1 0x1 PUSH1 0x1 PUSH1 0xA0 SHL SUB AND EQ PUSH2 0x91D JUMPI PUSH1 0x40 MLOAD PUSH3 0x461BCD PUSH1 0xE5 SHL DUP2 MSTORE PUSH1 0x20 PUSH1 0x4 DUP3 ADD MSTORE PUSH1 0x16 PUSH1 0x24 DUP3 ADD MSTORE PUSH22 0x57726F6E6720636F6E74726163742061646472657373 PUSH1 0x50 SHL PUSH1 0x44 DUP3 ADD MSTORE PUSH1 0x64 ADD PUSH2 0x4CA JUMP JUMPDEST DUP1 PUSH1 0xA0 ADD MLOAD PUSH1 0xE0 ADD MLOAD PUSH1 0xFF AND PUSH1 0x1 EQ PUSH2 0x96D JUMPI PUSH1 0x40 MLOAD PUSH3 0x461BCD PUSH1 0xE5 SHL DUP2 MSTORE PUSH1 0x20 PUSH1 0x4 DUP3 ADD MSTORE PUSH1 0x12 PUSH1 0x24 DUP3 ADD MSTORE PUSH18 0x151C985B9CD858DD1A5BDB8819985A5B1959 PUSH1 0x72 SHL PUSH1 0x44 DUP3 ADD MSTORE PUSH1 0x64 ADD PUSH2 0x4CA JUMP JUMPDEST PUSH1 0x0 DUP1 PUSH2 0x982 DUP4 PUSH1 0xA0 ADD MLOAD PUSH2 0x100 ADD MLOAD PUSH2 0xB4E JUMP JUMPDEST PUSH1 0x1 DUP3 SWAP1 SSTORE PUSH1 0x2 DUP1 SLOAD PUSH8 0xFFFFFFFFFFFFFFFF NOT AND PUSH1 0x1 PUSH1 0x1 PUSH1 0x40 SHL SUB DUP4 AND OR SWAP1 SSTORE PUSH1 0x3 DUP1 SLOAD SWAP3 SWAP5 POP SWAP1 SWAP3 POP PUSH1 0x0 PUSH2 0x9B8 DUP4 PUSH2 0x1AFB JUMP JUMPDEST SWAP2 SWAP1 POP SSTORE POP PUSH1 0x0 GAS PUSH2 0x9CA SWAP1 DUP7 PUSH2 0x1B14 JUMP JUMPDEST SWAP1 POP DUP1 PUSH1 0x5 PUSH1 0x0 DUP3 DUP3 SLOAD PUSH2 0x9DE SWAP2 SWAP1 PUSH2 0x1B2D JUMP JUMPDEST SWAP1 SWAP2 SSTORE POP POP PUSH1 0x6 DUP1 SLOAD SWAP1 PUSH1 0x0 PUSH2 0x9F3 DUP4 PUSH2 0x1AFB JUMP JUMPDEST SWAP1 SWAP2 SSTORE POP POP PUSH1 0x40 DUP1 MLOAD PUSH1 0x1 PUSH1 0x1 PUSH1 0x40 SHL SUB DUP5 AND DUP2 MSTORE NUMBER PUSH1 0x20 DUP3 ADD MSTORE CALLER SWAP2 DUP6 SWAP2 PUSH32 0xCBB0A1964FDED1543E1FC229A1BEA0552BB873219986500CF7EA9D1A4506D736 SWAP2 ADD PUSH1 0x40 MLOAD DUP1 SWAP2 SUB SWAP1 LOG3 PUSH1 0x80 DUP5 ADD MLOAD MLOAD PUSH1 0x40 DUP1 MLOAD DUP6 DUP2 MSTORE PUSH1 0x1 PUSH1 0x1 PUSH1 0x40 SHL SUB DUP6 AND PUSH1 0x20 DUP3 ADD MSTORE PUSH32 0x20AAFBDB02EDECF8B1E8547D36A18BFA617D137F7556777A48B28D206BD6D4D4 SWAP2 ADD PUSH1 0x40 MLOAD DUP1 SWAP2 SUB SWAP1 LOG2 POP POP POP POP POP POP JUMP JUMPDEST PUSH1 0x0 SLOAD PUSH1 0x1 PUSH1 0x1 PUSH1 0xA0 SHL SUB AND CALLER EQ PUSH2 0xAB6 JUMPI PUSH1 0x40 MLOAD PUSH3 0x461BCD PUSH1 0xE5 SHL DUP2 MSTORE PUSH1 0x4 ADD PUSH2 0x4CA SWAP1 PUSH2 0x107C JUMP JUMPDEST PUSH1 0x1 PUSH1 0x1 PUSH1 0xA0 SHL SUB DUP2 AND PUSH2 0xAFE JUMPI PUSH1 0x40 MLOAD PUSH3 0x461BCD PUSH1 0xE5 SHL DUP2 MSTORE PUSH1 0x20 PUSH1 0x4 DUP3 ADD MSTORE PUSH1 0xF PUSH1 0x24 DUP3 ADD MSTORE PUSH15 0x496E76616C69642061646472657373 PUSH1 0x88 SHL PUSH1 0x44 DUP3 ADD MSTORE PUSH1 0x64 ADD PUSH2 0x4CA JUMP JUMPDEST PUSH1 0x0 DUP1 SLOAD PUSH1 0x1 PUSH1 0x1 PUSH1 0xA0 SHL SUB DUP4 DUP2 AND PUSH1 0x1 PUSH1 0x1 PUSH1 0xA0 SHL SUB NOT DUP4 AND DUP2 OR DUP5 SSTORE PUSH1 0x40 MLOAD SWAP2 SWAP1 SWAP3 AND SWAP3 DUP4 SWAP2 PUSH32 0x8BE0079C531659141344CD1FD0A4F28419497F9722A3DAAFE3B4186F6B6457E0 SWAP2 SWAP1 LOG3 POP POP JUMP JUMPDEST PUSH1 0x0 DUP1 PUSH1 0x0 DUP1 JUMPDEST DUP5 MLOAD DUP2 LT ISZERO PUSH2 0xCFC JUMPI PUSH1 0x0 DUP6 DUP3 DUP2 MLOAD DUP2 LT PUSH2 0xB72 JUMPI PUSH2 0xB72 PUSH2 0x1B40 JUMP JUMPDEST PUSH1 0x20 MUL PUSH1 0x20 ADD ADD MLOAD SWAP1 POP PUSH32 0x0 PUSH1 0x1 PUSH1 0x1 PUSH1 0xA0 SHL SUB AND DUP2 PUSH1 0x20 ADD MLOAD PUSH1 0x1 PUSH1 0x1 PUSH1 0xA0 SHL SUB AND EQ PUSH2 0xBBF JUMPI POP PUSH2 0xCEA JUMP JUMPDEST PUSH1 0x0 DUP2 PUSH1 0x40 ADD MLOAD MLOAD GT DUP1 ISZERO PUSH2 0xC11 JUMPI POP PUSH32 0x17440AB048FE6C6CBD98DC862B13C09A99713AC93C0D806C9B2A2A384787935E DUP2 PUSH1 0x40 ADD MLOAD PUSH1 0x0 DUP2 MLOAD DUP2 LT PUSH2 0xC07 JUMPI PUSH2 0xC07 PUSH2 0x1B40 JUMP JUMPDEST PUSH1 0x20 MUL PUSH1 0x20 ADD ADD MLOAD EQ JUMPDEST ISZERO PUSH2 0xCE8 JUMPI PUSH1 0x0 DUP2 PUSH1 0x40 ADD MLOAD PUSH1 0x1 DUP2 MLOAD DUP2 LT PUSH2 0xC2F JUMPI PUSH2 0xC2F PUSH2 0x1B40 JUMP JUMPDEST PUSH1 0x20 MUL PUSH1 0x20 ADD ADD MLOAD PUSH1 0x0 SHR SWAP1 POP PUSH32 0x0 PUSH1 0x1 PUSH1 0x1 PUSH1 0xA0 SHL SUB AND DUP2 PUSH1 0x1 PUSH1 0x1 PUSH1 0xA0 SHL SUB AND EQ PUSH2 0xCAA JUMPI PUSH1 0x40 MLOAD PUSH3 0x461BCD PUSH1 0xE5 SHL DUP2 MSTORE PUSH1 0x20 PUSH1 0x4 DUP3 ADD MSTORE PUSH1 0xA PUSH1 0x24 DUP3 ADD MSTORE PUSH10 0x15DC9BDB99C81C1BDBDB PUSH1 0xB2 SHL PUSH1 0x44 DUP3 ADD MSTORE PUSH1 0x64 ADD PUSH2 0x4CA JUMP JUMPDEST PUSH1 0x0 DUP1 DUP4 PUSH1 0x60 ADD MLOAD DUP1 PUSH1 0x20 ADD SWAP1 MLOAD DUP2 ADD SWAP1 PUSH2 0xCC5 SWAP2 SWAP1 PUSH2 0x1B56 JUMP JUMPDEST POP SWAP6 POP POP POP POP POP SWAP2 POP PUSH2 0xCD7 DUP3 PUSH2 0xD50 JUMP JUMPDEST SWAP8 POP SWAP6 POP PUSH1 0x1 SWAP5 POP PUSH2 0xCFC SWAP3 POP POP POP JUMP JUMPDEST POP JUMPDEST DUP1 PUSH2 0xCF4 DUP2 PUSH2 0x1AFB JUMP JUMPDEST SWAP2 POP POP PUSH2 0xB55 JUMP JUMPDEST POP DUP1 PUSH2 0xD4A JUMPI PUSH1 0x40 MLOAD PUSH3 0x461BCD PUSH1 0xE5 SHL DUP2 MSTORE PUSH1 0x20 PUSH1 0x4 DUP3 ADD MSTORE PUSH1 0x1D PUSH1 0x24 DUP3 ADD MSTORE PUSH32 0x50726963655265636F72646564206576656E74206E6F7420666F756E64000000 PUSH1 0x44 DUP3 ADD MSTORE PUSH1 0x64 ADD PUSH2 0x4CA JUMP JUMPDEST POP SWAP2 POP SWAP2 JUMP JUMPDEST PUSH1 0x0 PUSH1 0x1 PUSH1 0x60 SHL DUP2 PUSH2 0xD6B PUSH1 0x1 PUSH1 0x1 PUSH1 0xA0 SHL SUB DUP6 AND DUP1 PUSH2 0x1BF1 JUMP JUMPDEST PUSH2 0xD7D SWAP1 PUSH8 0xDE0B6B3A7640000 PUSH2 0x1BF1 JUMP JUMPDEST SWAP1 POP PUSH1 0x0 PUSH2 0xD8B DUP4 DUP1 PUSH2 0x1BF1 JUMP JUMPDEST SWAP1 POP PUSH1 0x0 PUSH2 0xD99 DUP3 DUP5 PUSH2 0x10B5 JUMP JUMPDEST SWAP1 POP PUSH1 0x0 PUSH2 0xDED PUSH1 0xFF PUSH32 0x0 DUP2 AND SWAP1 PUSH32 0x0 AND PUSH2 0x1C08 JUMP JUMPDEST SWAP1 POP PUSH1 0x0 DUP2 SGT ISZERO PUSH2 0xE14 JUMPI PUSH2 0xE03 DUP2 PUSH1 0xA PUSH2 0x1D13 JUMP JUMPDEST PUSH2 0xE0D SWAP1 DUP4 PUSH2 0x1BF1 JUMP JUMPDEST SWAP2 POP PUSH2 0xE3E JUMP JUMPDEST PUSH1 0x0 DUP2 SLT ISZERO PUSH2 0xE3E JUMPI PUSH2 0xE26 DUP2 PUSH2 0x1D1F JUMP JUMPDEST PUSH2 0xE31 SWAP1 PUSH1 0xA PUSH2 0x1D13 JUMP JUMPDEST PUSH2 0xE3B SWAP1 DUP4 PUSH2 0x10B5 JUMP JUMPDEST SWAP2 POP JUMPDEST PUSH2 0xE4D PUSH5 0xE8D4A51000 DUP4 PUSH2 0x10B5 JUMP JUMPDEST SWAP2 POP PUSH32 0x0 DUP1 ISZERO PUSH2 0xE7C JUMPI POP PUSH1 0x0 DUP3 GT JUMPDEST ISZERO PUSH2 0xE93 JUMPI PUSH2 0xE90 DUP3 PUSH5 0xE8D4A51000 PUSH2 0x10B5 JUMP JUMPDEST SWAP2 POP JUMPDEST PUSH1 0x0 DUP3 GT PUSH2 0xEDC JUMPI PUSH1 0x40 MLOAD PUSH3 0x461BCD PUSH1 0xE5 SHL DUP2 MSTORE PUSH1 0x20 PUSH1 0x4 DUP3 ADD MSTORE PUSH1 0x16 PUSH1 0x24 DUP3 ADD MSTORE PUSH22 0x5072696365206D75737420626520706F736974697665 PUSH1 0x50 SHL PUSH1 0x44 DUP3 ADD MSTORE PUSH1 0x64 ADD PUSH2 0x4CA JUMP JUMPDEST PUSH1 0x1 PUSH1 0x1 PUSH1 0x80 SHL SUB DUP3 LT PUSH2 0xF2A JUMPI PUSH1 0x40 MLOAD PUSH3 0x461BCD PUSH1 0xE5 SHL DUP2 MSTORE PUSH1 0x20 PUSH1 0x4 DUP3 ADD MSTORE PUSH1 0x15 PUSH1 0x24 DUP3 ADD MSTORE PUSH21 0x50726963652065786365656473206D6178696D756D PUSH1 0x58 SHL PUSH1 0x44 DUP3 ADD MSTORE PUSH1 0x64 ADD PUSH2 0x4CA JUMP JUMPDEST POP SWAP6 SWAP5 POP POP POP POP POP JUMP JUMPDEST DUP2 MLOAD PUSH11 0xFFFFFFFFFFFFFFFFFFFFFF NOT AND DUP2 MSTORE PUSH2 0x140 DUP2 ADD PUSH1 0x20 DUP4 ADD MLOAD PUSH1 0x20 DUP4 ADD MSTORE PUSH1 0x40 DUP4 ADD MLOAD PUSH2 0xF69 PUSH1 0x40 DUP5 ADD DUP3 PUSH1 0x0 SIGNEXTEND SWAP1 MSTORE JUMP JUMPDEST POP PUSH1 0x60 DUP4 ADD MLOAD PUSH2 0xF84 PUSH1 0x60 DUP5 ADD DUP3 PUSH1 0x1 PUSH1 0x1 PUSH1 0x40 SHL SUB AND SWAP1 MSTORE JUMP JUMPDEST POP PUSH1 0x80 DUP4 ADD MLOAD PUSH1 0x80 DUP4 ADD MSTORE PUSH1 0xA0 DUP4 ADD MLOAD PUSH2 0xFA9 PUSH1 0xA0 DUP5 ADD DUP3 PUSH1 0x1 PUSH1 0x1 PUSH1 0xA0 SHL SUB AND SWAP1 MSTORE JUMP JUMPDEST POP PUSH1 0xC0 DUP4 ADD MLOAD PUSH2 0xFC4 PUSH1 0xC0 DUP5 ADD DUP3 PUSH1 0x1 PUSH1 0x1 PUSH1 0xA0 SHL SUB AND SWAP1 MSTORE JUMP JUMPDEST POP PUSH1 0xE0 DUP4 ADD MLOAD PUSH2 0xFD8 PUSH1 0xE0 DUP5 ADD DUP3 ISZERO ISZERO SWAP1 MSTORE JUMP JUMPDEST POP PUSH2 0x100 DUP4 DUP2 ADD MLOAD SWAP1 DUP4 ADD MSTORE PUSH2 0x120 SWAP3 DUP4 ADD MLOAD SWAP3 SWAP1 SWAP2 ADD SWAP2 SWAP1 SWAP2 MSTORE SWAP1 JUMP JUMPDEST PUSH1 0x0 PUSH1 0x20 DUP3 DUP5 SUB SLT ISZERO PUSH2 0x1008 JUMPI PUSH1 0x0 DUP1 REVERT JUMPDEST DUP2 CALLDATALOAD PUSH1 0x1 PUSH1 0x1 PUSH1 0x40 SHL SUB DUP2 GT ISZERO PUSH2 0x101E JUMPI PUSH1 0x0 DUP1 REVERT JUMPDEST DUP3 ADD PUSH1 0x40 DUP2 DUP6 SUB SLT ISZERO PUSH2 0x1030 JUMPI PUSH1 0x0 DUP1 REVERT JUMPDEST SWAP4 SWAP3 POP POP POP JUMP JUMPDEST PUSH1 0x1 PUSH1 0x1 PUSH1 0xA0 SHL SUB DUP2 AND DUP2 EQ PUSH2 0x104C JUMPI PUSH1 0x0 DUP1 REVERT JUMPDEST POP JUMP JUMPDEST DUP1 CALLDATALOAD PUSH2 0x105A DUP2 PUSH2 0x1037 JUMP JUMPDEST SWAP2 SWAP1 POP JUMP JUMPDEST PUSH1 0x0 PUSH1 0x20 DUP3 DUP5 SUB SLT ISZERO PUSH2 0x1071 JUMPI PUSH1 0x0 DUP1 REVERT JUMPDEST DUP2 CALLDATALOAD PUSH2 0x1030 DUP2 PUSH2 0x1037 JUMP JUMPDEST PUSH1 0x20 DUP1 DUP3 MSTORE PUSH1 0x9 SWAP1 DUP3 ADD MSTORE PUSH9 0x2737BA1037BBB732B9 PUSH1 0xB9 SHL PUSH1 0x40 DUP3 ADD MSTORE PUSH1 0x60 ADD SWAP1 JUMP JUMPDEST PUSH4 0x4E487B71 PUSH1 0xE0 SHL PUSH1 0x0 MSTORE PUSH1 0x11 PUSH1 0x4 MSTORE PUSH1 0x24 PUSH1 0x0 REVERT JUMPDEST PUSH1 0x0 DUP3 PUSH2 0x10D2 JUMPI PUSH4 0x4E487B71 PUSH1 0xE0 SHL PUSH1 0x0 MSTORE PUSH1 0x12 PUSH1 0x4 MSTORE PUSH1 0x24 PUSH1 0x0 REVERT JUMPDEST POP DIV SWAP1 JUMP JUMPDEST PUSH1 0x0 DUP1 DUP4 CALLDATALOAD PUSH1 0x1E NOT DUP5 CALLDATASIZE SUB ADD DUP2 SLT PUSH2 0x10EE JUMPI PUSH1 0x0 DUP1 REVERT JUMPDEST DUP4 ADD PUSH1 0x20 DUP2 ADD SWAP3 POP CALLDATALOAD SWAP1 POP PUSH1 0x1 PUSH1 0x1 PUSH1 0x40 SHL SUB DUP2 GT ISZERO PUSH2 0x110D JUMPI PUSH1 0x0 DUP1 REVERT JUMPDEST DUP1 PUSH1 0x5 SHL CALLDATASIZE SUB DUP3 SGT ISZERO PUSH2 0x111F JUMPI PUSH1 0x0 DUP1 REVERT JUMPDEST SWAP3 POP SWAP3 SWAP1 POP JUMP JUMPDEST DUP2 DUP4 MSTORE PUSH1 0x0 PUSH1 0x1 PUSH1 0x1 PUSH1 0xFB SHL SUB DUP4 GT ISZERO PUSH2 0x113F JUMPI PUSH1 0x0 DUP1 REVERT JUMPDEST DUP3 PUSH1 0x5 SHL DUP1 DUP4 PUSH1 0x20 DUP8 ADD CALLDATACOPY SWAP4 SWAP1 SWAP4 ADD PUSH1 0x20 ADD SWAP4 SWAP3 POP POP POP JUMP JUMPDEST DUP1 CALLDATALOAD PUSH1 0x1 PUSH1 0x1 PUSH1 0x40 SHL SUB DUP2 AND DUP2 EQ PUSH2 0x105A JUMPI PUSH1 0x0 DUP1 REVERT JUMPDEST PUSH1 0x0 DUP3 CALLDATALOAD PUSH1 0x9E NOT DUP4 CALLDATASIZE SUB ADD DUP2 SLT PUSH2 0x1185 JUMPI PUSH1 0x0 DUP1 REVERT JUMPDEST SWAP1 SWAP2 ADD SWAP3 SWAP2 POP POP JUMP JUMPDEST DUP1 CALLDATALOAD PUSH2 0xFFFF DUP2 AND DUP2 EQ PUSH2 0x105A JUMPI PUSH1 0x0 DUP1 REVERT JUMPDEST DUP1 ISZERO ISZERO DUP2 EQ PUSH2 0x104C JUMPI PUSH1 0x0 DUP1 REVERT JUMPDEST DUP1 CALLDATALOAD PUSH2 0x105A DUP2 PUSH2 0x11A0 JUMP JUMPDEST DUP1 CALLDATALOAD PUSH4 0xFFFFFFFF DUP2 AND DUP2 EQ PUSH2 0x105A JUMPI PUSH1 0x0 DUP1 REVERT JUMPDEST PUSH1 0x0 DUP3 CALLDATALOAD PUSH2 0x11E NOT DUP4 CALLDATASIZE SUB ADD DUP2 SLT PUSH2 0x1185 JUMPI PUSH1 0x0 DUP1 REVERT JUMPDEST PUSH1 0x0 DUP1 DUP4 CALLDATALOAD PUSH1 0x1E NOT DUP5 CALLDATASIZE SUB ADD DUP2 SLT PUSH2 0x11FB JUMPI PUSH1 0x0 DUP1 REVERT JUMPDEST DUP4 ADD PUSH1 0x20 DUP2 ADD SWAP3 POP CALLDATALOAD SWAP1 POP PUSH1 0x1 PUSH1 0x1 PUSH1 0x40 SHL SUB DUP2 GT ISZERO PUSH2 0x121A JUMPI PUSH1 0x0 DUP1 REVERT JUMPDEST DUP1 CALLDATASIZE SUB DUP3 SGT ISZERO PUSH2 0x111F JUMPI PUSH1 0x0 DUP1 REVERT JUMPDEST DUP2 DUP4 MSTORE DUP2 DUP2 PUSH1 0x20 DUP6 ADD CALLDATACOPY POP PUSH1 0x0 DUP3 DUP3 ADD PUSH1 0x20 SWAP1 DUP2 ADD SWAP2 SWAP1 SWAP2 MSTORE PUSH1 0x1F SWAP1 SWAP2 ADD PUSH1 0x1F NOT AND SWAP1 SWAP2 ADD ADD SWAP1 JUMP JUMPDEST DUP1 CALLDATALOAD PUSH1 0xFF DUP2 AND DUP2 EQ PUSH2 0x105A JUMPI PUSH1 0x0 DUP1 REVERT JUMPDEST DUP2 DUP4 MSTORE PUSH1 0x0 PUSH1 0x20 DUP1 DUP6 ADD DUP1 DUP2 SWAP7 POP DUP6 PUSH1 0x5 SHL DUP2 ADD SWAP2 POP DUP5 PUSH1 0x0 JUMPDEST DUP8 DUP2 LT ISZERO PUSH2 0x1337 JUMPI DUP3 DUP5 SUB DUP10 MSTORE PUSH2 0x1294 DUP3 DUP9 PUSH2 0x116F JUMP JUMPDEST PUSH1 0xA0 PUSH4 0xFFFFFFFF PUSH2 0x12A4 DUP4 PUSH2 0x11B9 JUMP JUMPDEST AND DUP7 MSTORE DUP7 DUP3 ADD CALLDATALOAD PUSH2 0x12B4 DUP2 PUSH2 0x1037 JUMP JUMPDEST PUSH1 0x1 PUSH1 0x1 PUSH1 0xA0 SHL SUB AND DUP7 DUP9 ADD MSTORE PUSH1 0x40 PUSH2 0x12CF DUP4 DUP3 ADD DUP5 PUSH2 0x10D7 JUMP JUMPDEST DUP4 DUP4 DUP11 ADD MSTORE PUSH2 0x12E1 DUP5 DUP11 ADD DUP3 DUP5 PUSH2 0x1126 JUMP JUMPDEST SWAP4 POP POP POP POP PUSH1 0x60 PUSH2 0x12F4 DUP2 DUP5 ADD DUP5 PUSH2 0x11E4 JUMP JUMPDEST DUP9 DUP5 SUB DUP4 DUP11 ADD MSTORE PUSH2 0x1306 DUP5 DUP3 DUP5 PUSH2 0x1229 JUMP JUMPDEST SWAP4 POP POP POP POP PUSH1 0x80 DUP1 DUP4 ADD CALLDATALOAD SWAP3 POP PUSH2 0x131C DUP4 PUSH2 0x11A0 JUMP JUMPDEST SWAP2 ISZERO ISZERO SWAP6 SWAP1 SWAP2 ADD SWAP5 SWAP1 SWAP5 MSTORE SWAP8 DUP5 ADD SWAP8 SWAP1 DUP5 ADD SWAP1 PUSH1 0x1 ADD PUSH2 0x127D JUMP JUMPDEST POP SWAP2 SWAP8 SWAP7 POP POP POP POP POP POP POP JUMP JUMPDEST PUSH1 0x0 PUSH2 0x120 PUSH2 0x1363 DUP5 PUSH2 0x1356 DUP6 PUSH2 0x1158 JUMP JUMPDEST PUSH1 0x1 PUSH1 0x1 PUSH1 0x40 SHL SUB AND SWAP1 MSTORE JUMP JUMPDEST PUSH2 0x136F PUSH1 0x20 DUP5 ADD PUSH2 0x1158 JUMP JUMPDEST PUSH1 0x1 PUSH1 0x1 PUSH1 0x40 SHL SUB AND PUSH1 0x20 DUP6 ADD MSTORE PUSH2 0x1389 PUSH1 0x40 DUP5 ADD PUSH2 0x104F JUMP JUMPDEST PUSH1 0x1 PUSH1 0x1 PUSH1 0xA0 SHL SUB AND PUSH1 0x40 DUP6 ADD MSTORE PUSH2 0x13A3 PUSH1 0x60 DUP5 ADD PUSH2 0x11AE JUMP JUMPDEST ISZERO ISZERO PUSH1 0x60 DUP6 ADD MSTORE PUSH2 0x13B6 PUSH1 0x80 DUP5 ADD PUSH2 0x104F JUMP JUMPDEST PUSH1 0x1 PUSH1 0x1 PUSH1 0xA0 SHL SUB AND PUSH1 0x80 DUP6 ADD MSTORE PUSH1 0xA0 DUP4 DUP2 ADD CALLDATALOAD SWAP1 DUP6 ADD MSTORE PUSH2 0x13DB PUSH1 0xC0 DUP5 ADD DUP5 PUSH2 0x11E4 JUMP JUMPDEST DUP3 PUSH1 0xC0 DUP8 ADD MSTORE PUSH2 0x13EE DUP4 DUP8 ADD DUP3 DUP5 PUSH2 0x1229 JUMP JUMPDEST SWAP3 POP POP POP PUSH2 0x13FE PUSH1 0xE0 DUP5 ADD PUSH2 0x1252 JUMP JUMPDEST PUSH1 0xFF AND PUSH1 0xE0 DUP6 ADD MSTORE PUSH2 0x100 PUSH2 0x1415 DUP5 DUP3 ADD DUP6 PUSH2 0x10D7 JUMP JUMPDEST DUP7 DUP5 SUB DUP4 DUP9 ADD MSTORE PUSH2 0x1427 DUP5 DUP3 DUP5 PUSH2 0x1263 JUMP JUMPDEST SWAP8 SWAP7 POP POP POP POP POP POP POP JUMP JUMPDEST PUSH1 0x0 PUSH1 0x20 DUP1 DUP4 MSTORE PUSH2 0x1443 DUP5 DUP6 PUSH2 0x10D7 JUMP JUMPDEST PUSH1 0x40 DUP4 DUP7 ADD MSTORE PUSH2 0x1457 PUSH1 0x60 DUP7 ADD DUP3 DUP5 PUSH2 0x1126 JUMP JUMPDEST SWAP2 POP POP DUP2 DUP6 ADD CALLDATALOAD PUSH1 0xBE NOT DUP7 CALLDATASIZE SUB ADD DUP2 SLT PUSH2 0x1470 JUMPI PUSH1 0x0 DUP1 REVERT JUMPDEST DUP6 DUP2 ADD SWAP1 POP PUSH1 0x1F NOT DUP6 DUP4 SUB ADD PUSH1 0x40 DUP7 ADD MSTORE DUP1 CALLDATALOAD DUP3 MSTORE DUP3 DUP2 ADD CALLDATALOAD DUP4 DUP4 ADD MSTORE PUSH2 0x1499 PUSH1 0x40 DUP3 ADD PUSH2 0x1158 JUMP JUMPDEST PUSH1 0x1 PUSH1 0x1 PUSH1 0x40 SHL SUB DUP1 DUP3 AND PUSH1 0x40 DUP6 ADD MSTORE DUP1 PUSH2 0x14B6 PUSH1 0x60 DUP6 ADD PUSH2 0x1158 JUMP JUMPDEST AND PUSH1 0x60 DUP6 ADD MSTORE POP POP PUSH2 0x14CB PUSH1 0x80 DUP3 ADD DUP3 PUSH2 0x116F JUMP JUMPDEST PUSH1 0xC0 PUSH1 0x80 DUP5 ADD MSTORE PUSH2 0x160 DUP4 ADD DUP2 CALLDATALOAD PUSH1 0xC0 DUP6 ADD MSTORE PUSH2 0xFFFF PUSH2 0x14EC DUP7 DUP5 ADD PUSH2 0x118E JUMP JUMPDEST AND PUSH1 0xE0 DUP6 ADD MSTORE PUSH1 0x40 DUP3 ADD CALLDATALOAD PUSH2 0x1500 DUP2 PUSH2 0x11A0 JUMP JUMPDEST ISZERO ISZERO PUSH2 0x100 DUP6 ADD MSTORE PUSH1 0x60 DUP3 ADD CALLDATALOAD PUSH2 0x1516 DUP2 PUSH2 0x11A0 JUMP JUMPDEST ISZERO ISZERO PUSH2 0x120 DUP6 ADD MSTORE PUSH2 0x152B PUSH1 0x80 DUP4 ADD DUP4 PUSH2 0x10D7 JUMP JUMPDEST PUSH1 0xA0 PUSH2 0x140 DUP8 ADD MSTORE SWAP2 DUP3 SWAP1 MSTORE SWAP1 SWAP2 POP PUSH1 0x0 PUSH2 0x180 DUP6 ADD JUMPDEST DUP4 DUP3 LT ISZERO PUSH2 0x156D JUMPI PUSH4 0xFFFFFFFF PUSH2 0x1558 DUP5 PUSH2 0x11B9 JUMP JUMPDEST AND DUP2 MSTORE SWAP2 DUP7 ADD SWAP2 PUSH1 0x1 SWAP2 SWAP1 SWAP2 ADD SWAP1 DUP7 ADD PUSH2 0x1542 JUMP JUMPDEST PUSH2 0x157A PUSH1 0xA0 DUP7 ADD DUP7 PUSH2 0x11CD JUMP JUMPDEST SWAP7 POP DUP6 DUP2 SUB PUSH1 0xA0 DUP8 ADD MSTORE PUSH2 0x158E DUP2 DUP9 PUSH2 0x1344 JUMP JUMPDEST SWAP11 SWAP10 POP POP POP POP POP POP POP POP POP POP JUMP JUMPDEST PUSH1 0x0 PUSH1 0x20 DUP3 DUP5 SUB SLT ISZERO PUSH2 0x15AE JUMPI PUSH1 0x0 DUP1 REVERT JUMPDEST DUP2 MLOAD PUSH2 0x1030 DUP2 PUSH2 0x11A0 JUMP JUMPDEST PUSH1 0x0 DUP3 CALLDATALOAD PUSH1 0xBE NOT DUP4 CALLDATASIZE SUB ADD DUP2 SLT PUSH2 0x15CF JUMPI PUSH1 0x0 DUP1 REVERT JUMPDEST SWAP2 SWAP1 SWAP2 ADD SWAP3 SWAP2 POP POP JUMP JUMPDEST PUSH4 0x4E487B71 PUSH1 0xE0 SHL PUSH1 0x0 MSTORE PUSH1 0x41 PUSH1 0x4 MSTORE PUSH1 0x24 PUSH1 0x0 REVERT JUMPDEST PUSH1 0x40 MLOAD PUSH1 0xA0 DUP2 ADD PUSH1 0x1 PUSH1 0x1 PUSH1 0x40 SHL SUB DUP2 GT DUP3 DUP3 LT OR ISZERO PUSH2 0x1611 JUMPI PUSH2 0x1611 PUSH2 0x15D9 JUMP JUMPDEST PUSH1 0x40 MSTORE SWAP1 JUMP JUMPDEST PUSH1 0x40 MLOAD PUSH2 0x120 DUP2 ADD PUSH1 0x1 PUSH1 0x1 PUSH1 0x40 SHL SUB DUP2 GT DUP3 DUP3 LT OR ISZERO PUSH2 0x1611 JUMPI PUSH2 0x1611 PUSH2 0x15D9 JUMP JUMPDEST PUSH1 0x40 MLOAD PUSH1 0xC0 DUP2 ADD PUSH1 0x1 PUSH1 0x1 PUSH1 0x40 SHL SUB DUP2 GT DUP3 DUP3 LT OR ISZERO PUSH2 0x1611 JUMPI PUSH2 0x1611 PUSH2 0x15D9 JUMP JUMPDEST PUSH1 0x40 MLOAD PUSH1 0x1F DUP3 ADD PUSH1 0x1F NOT AND DUP2 ADD PUSH1 0x1 PUSH1 0x1 PUSH1 0x40 SHL SUB DUP2 GT DUP3 DUP3 LT OR ISZERO PUSH2 0x1684 JUMPI PUSH2 0x1684 PUSH2 0x15D9 JUMP JUMPDEST PUSH1 0x40 MSTORE SWAP2 SWAP1 POP JUMP JUMPDEST PUSH1 0x0 PUSH1 0x1 PUSH1 0x1 PUSH1 0x40 SHL SUB DUP3 GT ISZERO PUSH2 0x16A5 JUMPI PUSH2 0x16A5 PUSH2 0x15D9 JUMP JUMPDEST POP PUSH1 0x5 SHL PUSH1 0x20 ADD SWAP1 JUMP JUMPDEST PUSH1 0x0 PUSH1 0xA0 DUP3 DUP5 SUB SLT ISZERO PUSH2 0x16C1 JUMPI PUSH1 0x0 DUP1 REVERT JUMPDEST PUSH2 0x16C9 PUSH2 0x15EF JUMP JUMPDEST SWAP1 POP DUP2 CALLDATALOAD DUP2 MSTORE PUSH1 0x20 PUSH2 0x16DC DUP2 DUP5 ADD PUSH2 0x118E JUMP JUMPDEST DUP2 DUP4 ADD MSTORE PUSH1 0x40 DUP4 ADD CALLDATALOAD PUSH2 0x16EE DUP2 PUSH2 0x11A0 JUMP JUMPDEST PUSH1 0x40 DUP4 ADD MSTORE PUSH1 0x60 DUP4 ADD CALLDATALOAD PUSH2 0x1701 DUP2 PUSH2 0x11A0 JUMP JUMPDEST PUSH1 0x60 DUP4 ADD MSTORE PUSH1 0x80 DUP4 ADD CALLDATALOAD PUSH1 0x1 PUSH1 0x1 PUSH1 0x40 SHL SUB DUP2 GT ISZERO PUSH2 0x171F JUMPI PUSH1 0x0 DUP1 REVERT JUMPDEST DUP4 ADD PUSH1 0x1F DUP2 ADD DUP6 SGT PUSH2 0x1730 JUMPI PUSH1 0x0 DUP1 REVERT JUMPDEST DUP1 CALLDATALOAD PUSH2 0x1743 PUSH2 0x173E DUP3 PUSH2 0x168C JUMP JUMPDEST PUSH2 0x165C JUMP JUMPDEST DUP2 DUP2 MSTORE PUSH1 0x5 SWAP2 SWAP1 SWAP2 SHL DUP3 ADD DUP4 ADD SWAP1 DUP4 DUP2 ADD SWAP1 DUP8 DUP4 GT ISZERO PUSH2 0x1762 JUMPI PUSH1 0x0 DUP1 REVERT JUMPDEST SWAP3 DUP5 ADD SWAP3 JUMPDEST DUP3 DUP5 LT ISZERO PUSH2 0x1787 JUMPI PUSH2 0x1778 DUP5 PUSH2 0x11B9 JUMP JUMPDEST DUP3 MSTORE SWAP3 DUP5 ADD SWAP3 SWAP1 DUP5 ADD SWAP1 PUSH2 0x1767 JUMP JUMPDEST PUSH1 0x80 DUP7 ADD MSTORE POP SWAP3 SWAP6 SWAP5 POP POP POP POP POP JUMP JUMPDEST PUSH1 0x0 DUP3 PUSH1 0x1F DUP4 ADD SLT PUSH2 0x17A8 JUMPI PUSH1 0x0 DUP1 REVERT JUMPDEST DUP2 CALLDATALOAD PUSH1 0x1 PUSH1 0x1 PUSH1 0x40 SHL SUB DUP2 GT ISZERO PUSH2 0x17C1 JUMPI PUSH2 0x17C1 PUSH2 0x15D9 JUMP JUMPDEST PUSH2 0x17D4 PUSH1 0x1F DUP3 ADD PUSH1 0x1F NOT AND PUSH1 0x20 ADD PUSH2 0x165C JUMP JUMPDEST DUP2 DUP2 MSTORE DUP5 PUSH1 0x20 DUP4 DUP7 ADD ADD GT ISZERO PUSH2 0x17E9 JUMPI PUSH1 0x0 DUP1 REVERT JUMPDEST DUP2 PUSH1 0x20 DUP6 ADD PUSH1 0x20 DUP4 ADD CALLDATACOPY PUSH1 0x0 SWAP2 DUP2 ADD PUSH1 0x20 ADD SWAP2 SWAP1 SWAP2 MSTORE SWAP4 SWAP3 POP POP POP JUMP JUMPDEST PUSH1 0x0 DUP3 PUSH1 0x1F DUP4 ADD SLT PUSH2 0x1817 JUMPI PUSH1 0x0 DUP1 REVERT JUMPDEST DUP2 CALLDATALOAD PUSH1 0x20 PUSH2 0x1827 PUSH2 0x173E DUP4 PUSH2 0x168C JUMP JUMPDEST DUP3 DUP2 MSTORE PUSH1 0x5 SWAP3 SWAP1 SWAP3 SHL DUP5 ADD DUP2 ADD SWAP2 DUP2 DUP2 ADD SWAP1 DUP7 DUP5 GT ISZERO PUSH2 0x1846 JUMPI PUSH1 0x0 DUP1 REVERT JUMPDEST DUP3 DUP7 ADD JUMPDEST DUP5 DUP2 LT ISZERO PUSH2 0x196D JUMPI DUP1 CALLDATALOAD PUSH1 0x1 PUSH1 0x1 PUSH1 0x40 SHL SUB DUP1 DUP3 GT ISZERO PUSH2 0x1869 JUMPI PUSH1 0x0 DUP1 REVERT JUMPDEST SWAP1 DUP9 ADD SWAP1 PUSH1 0xA0 DUP3 DUP12 SUB PUSH1 0x1F NOT ADD SLT ISZERO PUSH2 0x1881 JUMPI PUSH1 0x0 DUP1 REVERT JUMPDEST PUSH2 0x1889 PUSH2 0x15EF JUMP JUMPDEST PUSH2 0x1894 DUP8 DUP5 ADD PUSH2 0x11B9 JUMP JUMPDEST DUP2 MSTORE PUSH1 0x40 DUP1 DUP5 ADD CALLDATALOAD PUSH2 0x18A5 DUP2 PUSH2 0x1037 JUMP JUMPDEST DUP3 DUP10 ADD MSTORE PUSH1 0x60 DUP5 ADD CALLDATALOAD DUP4 DUP2 GT ISZERO PUSH2 0x18BC JUMPI PUSH1 0x0 DUP1 DUP2 REVERT JUMPDEST DUP5 ADD PUSH1 0x3F DUP2 ADD DUP14 SGT PUSH2 0x18CE JUMPI PUSH1 0x0 DUP1 DUP2 REVERT JUMPDEST DUP9 DUP2 ADD CALLDATALOAD PUSH2 0x18DE PUSH2 0x173E DUP3 PUSH2 0x168C JUMP JUMPDEST DUP2 DUP2 MSTORE PUSH1 0x5 SWAP2 SWAP1 SWAP2 SHL DUP3 ADD DUP4 ADD SWAP1 DUP11 DUP2 ADD SWAP1 DUP16 DUP4 GT ISZERO PUSH2 0x18FE JUMPI PUSH1 0x0 DUP1 DUP2 REVERT JUMPDEST SWAP3 DUP5 ADD SWAP3 JUMPDEST DUP3 DUP5 LT ISZERO PUSH2 0x191C JUMPI DUP4 CALLDATALOAD DUP3 MSTORE SWAP3 DUP12 ADD SWAP3 SWAP1 DUP12 ADD SWAP1 PUSH2 0x1903 JUMP JUMPDEST DUP1 DUP6 DUP8 ADD MSTORE POP POP POP POP POP PUSH1 0x80 DUP1 DUP5 ADD CALLDATALOAD DUP4 DUP2 GT ISZERO PUSH2 0x193A JUMPI PUSH1 0x0 DUP1 DUP2 REVERT JUMPDEST PUSH2 0x1948 DUP14 DUP11 DUP4 DUP9 ADD ADD PUSH2 0x1797 JUMP JUMPDEST PUSH1 0x60 DUP5 ADD MSTORE POP PUSH2 0x195A PUSH1 0xA0 DUP6 ADD PUSH2 0x11AE JUMP JUMPDEST SWAP1 DUP3 ADD MSTORE DUP6 MSTORE POP POP SWAP2 DUP4 ADD SWAP2 DUP4 ADD PUSH2 0x184A JUMP JUMPDEST POP SWAP7 SWAP6 POP POP POP POP POP POP JUMP JUMPDEST PUSH1 0x0 PUSH2 0x120 DUP3 DUP5 SUB SLT ISZERO PUSH2 0x198B JUMPI PUSH1 0x0 DUP1 REVERT JUMPDEST PUSH2 0x1993 PUSH2 0x1617 JUMP JUMPDEST SWAP1 POP PUSH2 0x199E DUP3 PUSH2 0x1158 JUMP JUMPDEST DUP2 MSTORE PUSH2 0x19AC PUSH1 0x20 DUP4 ADD PUSH2 0x1158 JUMP JUMPDEST PUSH1 0x20 DUP3 ADD MSTORE PUSH2 0x19BD PUSH1 0x40 DUP4 ADD PUSH2 0x104F JUMP JUMPDEST PUSH1 0x40 DUP3 ADD MSTORE PUSH2 0x19CE PUSH1 0x60 DUP4 ADD PUSH2 0x11AE JUMP JUMPDEST PUSH1 0x60 DUP3 ADD MSTORE PUSH2 0x19DF PUSH1 0x80 DUP4 ADD PUSH2 0x104F JUMP JUMPDEST PUSH1 0x80 DUP3 ADD MSTORE PUSH1 0xA0 DUP3 ADD CALLDATALOAD PUSH1 0xA0 DUP3 ADD MSTORE PUSH1 0xC0 DUP3 ADD CALLDATALOAD PUSH1 0x1 PUSH1 0x1 PUSH1 0x40 SHL SUB DUP1 DUP3 GT ISZERO PUSH2 0x1A08 JUMPI PUSH1 0x0 DUP1 REVERT JUMPDEST PUSH2 0x1A14 DUP6 DUP4 DUP7 ADD PUSH2 0x1797 JUMP JUMPDEST PUSH1 0xC0 DUP5 ADD MSTORE PUSH2 0x1A25 PUSH1 0xE0 DUP6 ADD PUSH2 0x1252 JUMP JUMPDEST PUSH1 0xE0 DUP5 ADD MSTORE PUSH2 0x100 SWAP2 POP DUP2 DUP5 ADD CALLDATALOAD DUP2 DUP2 GT ISZERO PUSH2 0x1A40 JUMPI PUSH1 0x0 DUP1 REVERT JUMPDEST PUSH2 0x1A4C DUP7 DUP3 DUP8 ADD PUSH2 0x1806 JUMP JUMPDEST DUP4 DUP6 ADD MSTORE POP POP POP SWAP3 SWAP2 POP POP JUMP JUMPDEST PUSH1 0x0 PUSH1 0xC0 DUP3 CALLDATASIZE SUB SLT ISZERO PUSH2 0x1A6B JUMPI PUSH1 0x0 DUP1 REVERT JUMPDEST PUSH2 0x1A73 PUSH2 0x163A JUMP JUMPDEST DUP3 CALLDATALOAD DUP2 MSTORE PUSH1 0x20 DUP4 ADD CALLDATALOAD PUSH1 0x20 DUP3 ADD MSTORE PUSH2 0x1A8D PUSH1 0x40 DUP5 ADD PUSH2 0x1158 JUMP JUMPDEST PUSH1 0x40 DUP3 ADD MSTORE PUSH2 0x1A9E PUSH1 0x60 DUP5 ADD PUSH2 0x1158 JUMP JUMPDEST PUSH1 0x60 DUP3 ADD MSTORE PUSH1 0x80 DUP4 ADD CALLDATALOAD PUSH1 0x1 PUSH1 0x1 PUSH1 0x40 SHL SUB DUP1 DUP3 GT ISZERO PUSH2 0x1ABD JUMPI PUSH1 0x0 DUP1 REVERT JUMPDEST PUSH2 0x1AC9 CALLDATASIZE DUP4 DUP8 ADD PUSH2 0x16AF JUMP JUMPDEST PUSH1 0x80 DUP5 ADD MSTORE PUSH1 0xA0 DUP6 ADD CALLDATALOAD SWAP2 POP DUP1 DUP3 GT ISZERO PUSH2 0x1AE2 JUMPI PUSH1 0x0 DUP1 REVERT JUMPDEST POP PUSH2 0x1AEF CALLDATASIZE DUP3 DUP7 ADD PUSH2 0x1978 JUMP JUMPDEST PUSH1 0xA0 DUP4 ADD MSTORE POP SWAP3 SWAP2 POP POP JUMP JUMPDEST PUSH1 0x0 PUSH1 0x1 DUP3 ADD PUSH2 0x1B0D JUMPI PUSH2 0x1B0D PUSH2 0x109F JUMP JUMPDEST POP PUSH1 0x1 ADD SWAP1 JUMP JUMPDEST DUP2 DUP2 SUB DUP2 DUP2 GT ISZERO PUSH2 0x1B27 JUMPI PUSH2 0x1B27 PUSH2 0x109F JUMP JUMPDEST SWAP3 SWAP2 POP POP JUMP JUMPDEST DUP1 DUP3 ADD DUP1 DUP3 GT ISZERO PUSH2 0x1B27 JUMPI PUSH2 0x1B27 PUSH2 0x109F JUMP JUMPDEST PUSH4 0x4E487B71 PUSH1 0xE0 SHL PUSH1 0x0 MSTORE PUSH1 0x32 PUSH1 0x4 MSTORE PUSH1 0x24 PUSH1 0x0 REVERT JUMPDEST PUSH1 0x0 DUP1 PUSH1 0x0 DUP1 PUSH1 0x0 DUP1 PUSH1 0x0 PUSH1 0xE0 DUP9 DUP11 SUB SLT ISZERO PUSH2 0x1B71 JUMPI PUSH1 0x0 DUP1 REVERT JUMPDEST DUP8 MLOAD PUSH2 0x1B7C DUP2 PUSH2 0x1037 JUMP JUMPDEST DUP1 SWAP8 POP POP PUSH1 0x20 DUP9 ADD MLOAD DUP1 PUSH1 0x2 SIGNEXTEND DUP2 EQ PUSH2 0x1B94 JUMPI PUSH1 0x0 DUP1 REVERT JUMPDEST PUSH1 0x40 DUP10 ADD MLOAD SWAP1 SWAP7 POP PUSH1 0x1 PUSH1 0x1 PUSH1 0x80 SHL SUB DUP2 AND DUP2 EQ PUSH2 0x1BB1 JUMPI PUSH1 0x0 DUP1 REVERT JUMPDEST PUSH1 0x60 DUP10 ADD MLOAD SWAP1 SWAP6 POP PUSH2 0x1BC2 DUP2 PUSH2 0x1037 JUMP JUMPDEST PUSH1 0x80 DUP10 ADD MLOAD SWAP1 SWAP5 POP PUSH2 0x1BD3 DUP2 PUSH2 0x1037 JUMP JUMPDEST DUP1 SWAP4 POP POP PUSH1 0xA0 DUP9 ADD MLOAD SWAP2 POP PUSH1 0xC0 DUP9 ADD MLOAD SWAP1 POP SWAP3 SWAP6 SWAP9 SWAP2 SWAP5 SWAP8 POP SWAP3 SWAP6 POP JUMP JUMPDEST DUP1 DUP3 MUL DUP2 ISZERO DUP3 DUP3 DIV DUP5 EQ OR PUSH2 0x1B27 JUMPI PUSH2 0x1B27 PUSH2 0x109F JUMP JUMPDEST DUP2 DUP2 SUB PUSH1 0x0 DUP4 SLT DUP1 ISZERO DUP4 DUP4 SGT AND DUP4 DUP4 SLT DUP3 AND OR ISZERO PUSH2 0x1C28 JUMPI PUSH2 0x1C28 PUSH2 0x109F JUMP JUMPDEST POP SWAP3 SWAP2 POP POP JUMP JUMPDEST PUSH1 0x1 DUP2 DUP2 JUMPDEST DUP1 DUP6 GT ISZERO PUSH2 0x1C6A JUMPI DUP2 PUSH1 0x0 NOT DIV DUP3 GT ISZERO PUSH2 0x1C50 JUMPI PUSH2 0x1C50 PUSH2 0x109F JUMP JUMPDEST DUP1 DUP6 AND ISZERO PUSH2 0x1C5D JUMPI SWAP2 DUP2 MUL SWAP2 JUMPDEST SWAP4 DUP5 SHR SWAP4 SWAP1 DUP1 MUL SWAP1 PUSH2 0x1C34 JUMP JUMPDEST POP SWAP3 POP SWAP3 SWAP1 POP JUMP JUMPDEST PUSH1 0x0 DUP3 PUSH2 0x1C81 JUMPI POP PUSH1 0x1 PUSH2 0x1B27 JUMP JUMPDEST DUP2 PUSH2 0x1C8E JUMPI POP PUSH1 0x0 PUSH2 0x1B27 JUMP JUMPDEST DUP2 PUSH1 0x1 DUP2 EQ PUSH2 0x1CA4 JUMPI PUSH1 0x2 DUP2 EQ PUSH2 0x1CAE JUMPI PUSH2 0x1CCA JUMP JUMPDEST PUSH1 0x1 SWAP2 POP POP PUSH2 0x1B27 JUMP JUMPDEST PUSH1 0xFF DUP5 GT ISZERO PUSH2 0x1CBF JUMPI PUSH2 0x1CBF PUSH2 0x109F JUMP JUMPDEST POP POP PUSH1 0x1 DUP3 SHL PUSH2 0x1B27 JUMP JUMPDEST POP PUSH1 0x20 DUP4 LT PUSH2 0x133 DUP4 LT AND PUSH1 0x4E DUP5 LT PUSH1 0xB DUP5 LT AND OR ISZERO PUSH2 0x1CED JUMPI POP DUP2 DUP2 EXP PUSH2 0x1B27 JUMP JUMPDEST PUSH2 0x1CF7 DUP4 DUP4 PUSH2 0x1C2F JUMP JUMPDEST DUP1 PUSH1 0x0 NOT DIV DUP3 GT ISZERO PUSH2 0x1D0B JUMPI PUSH2 0x1D0B PUSH2 0x109F JUMP JUMPDEST MUL SWAP4 SWAP3 POP POP POP JUMP JUMPDEST PUSH1 0x0 PUSH2 0x1030 DUP4 DUP4 PUSH2 0x1C72 JUMP JUMPDEST PUSH1 0x0 PUSH1 0x1 PUSH1 0xFF SHL DUP3 ADD PUSH2 0x1D34 JUMPI PUSH2 0x1D34 PUSH2 0x109F JUMP JUMPDEST POP PUSH1 0x0 SUB SWAP1 JUMP INVALID LOG2 PUSH5 0x6970667358 0x22 SLT KECCAK256 0xF7 SWAP9 0xCF NOT BASEFEE PUSH15 0x304E8A9E208761CD53B5132B8E79E7 0xC 0xE0 CALLVALUE CALLDATACOPY DUP2 0xDA PUSH13 0x5AA01A5564736F6C6343000813 STOP CALLER "},"methodIdentifiers":{"acceptingUpdates()":"6747f3c6","calculateFee()":"e6af35f0","decimals()":"313ce567","feedId()":"4a643499","getCurrentFeed()":"115416fe","getFeedInfo()":"349225f8","invertPrice()":"84e767bd","lastUpdateTimestamp()":"14bcec9f","latestValue()":"4ab5cc82","owner()":"8da5cb5b","pauseUpdates()":"02271069","poolAddress()":"1755ff21","priceRecorderAddress()":"b59efdeb","read()":"57de26a4","resumeUpdates()":"23d60889","token0Decimals()":"b31ac6e2","token1Decimals()":"0b77884d","totalGasUsedForVerification()":"8c0a57a8","totalProofsVerified()":"d246a2a3","transferOwnership(address)":"f2fde38b","updateCount()":"69b4ecc9","updateFromProof((bytes32[],(bytes32,bytes32,uint64,uint64,(bytes32,uint16,bool,bool,uint32[]),(uint64,uint64,address,bool,address,uint256,bytes,uint8,(uint32,address,bytes32[],bytes,bool)[]))))":"7bee4c25"}}}}}