{"contracts/PoolPriceCustomFeed.sol":{"PoolPriceCustomFeed":{"abi":[{"inputs":[{"internalType":"address","name":"_priceRecorder","type":"address"},{"internalType":"address","name":"_poolAddress","type":"address"},{"internalType":"string","name":"_feedName","type":"string"},{"internalType":"address","name":"_fdcVerificationAddress","type":"address"},{"internalType":"uint8","name":"_token0Decimals","type":"uint8"},{"internalType":"uint8","name":"_token1Decimals","type":"uint8"},{"internalType":"bool","name":"_invertPrice","type":"bool"}],"stateMutability":"nonpayable","type":"constructor"},{"anonymous":false,"inputs":[{"indexed":true,"internalType":"uint256","name":"value","type":"uint256"},{"indexed":false,"internalType":"uint64","name":"timestamp","type":"uint64"},{"indexed":false,"internalType":"uint256","name":"blockNumber","type":"uint256"},{"indexed":true,"internalType":"address","name":"updater","type":"address"}],"name":"FeedUpdated","type":"event"},{"anonymous":false,"inputs":[{"indexed":true,"internalType":"address","name":"previousOwner","type":"address"},{"indexed":true,"internalType":"address","name":"newOwner","type":"address"}],"name":"OwnershipTransferred","type":"event"},{"anonymous":false,"inputs":[{"indexed":true,"internalType":"bytes32","name":"transactionHash","type":"bytes32"},{"indexed":false,"internalType":"uint256","name":"value","type":"uint256"},{"indexed":false,"internalType":"uint64","name":"timestamp","type":"uint64"}],"name":"ProofVerified","type":"event"},{"anonymous":false,"inputs":[],"name":"UpdatesPaused","type":"event"},{"anonymous":false,"inputs":[],"name":"UpdatesResumed","type":"event"},{"inputs":[],"name":"acceptingUpdates","outputs":[{"internalType":"bool","name":"","type":"bool"}],"stateMutability":"view","type":"function"},{"inputs":[],"name":"calculateFee","outputs":[{"internalType":"uint256","name":"","type":"uint256"}],"stateMutability":"pure","type":"function"},{"inputs":[],"name":"decimals","outputs":[{"internalType":"int8","name":"","type":"int8"}],"stateMutability":"pure","type":"function"},{"inputs":[],"name":"feedId","outputs":[{"internalType":"bytes21","name":"","type":"bytes21"}],"stateMutability":"view","type":"function"},{"inputs":[],"name":"getCurrentFeed","outputs":[{"internalType":"uint256","name":"_value","type":"uint256"},{"internalType":"int8","name":"_decimals","type":"int8"},{"internalType":"uint64","name":"_timestamp","type":"uint64"}],"stateMutability":"payable","type":"function"},{"inputs":[],"name":"getFeedInfo","outputs":[{"components":[{"internalType":"bytes21","name":"feedId","type":"bytes21"},{"internalType":"uint256","name":"latestValue","type":"uint256"},{"internalType":"int8","name":"decimals","type":"int8"},{"internalType":"uint64","name":"lastUpdate","type":"uint64"},{"internalType":"uint256","name":"updateCount","type":"uint256"},{"internalType":"address","name":"priceRecorder","type":"address"},{"internalType":"address","name":"poolAddress","type":"address"},{"internalType":"bool","name":"acceptingUpdates","type":"bool"},{"internalType":"uint256","name":"avgGasPerUpdate","type":"uint256"},{"internalType":"uint256","name":"totalProofsVerified","type":"uint256"}],"internalType":"struct PoolPriceCustomFeed.FeedInfo","name":"info","type":"tuple"}],"stateMutability":"view","type":"function"},{"inputs":[],"name":"invertPrice","outputs":[{"internalType":"bool","name":"","type":"bool"}],"stateMutability":"view","type":"function"},{"inputs":[],"name":"lastUpdateTimestamp","outputs":[{"internalType":"uint64","name":"","type":"uint64"}],"stateMutability":"view","type":"function"},{"inputs":[],"name":"latestValue","outputs":[{"internalType":"uint256","name":"","type":"uint256"}],"stateMutability":"view","type":"function"},{"inputs":[],"name":"owner","outputs":[{"internalType":"address","name":"","type":"address"}],"stateMutability":"view","type":"function"},{"inputs":[],"name":"pauseUpdates","outputs":[],"stateMutability":"nonpayable","type":"function"},{"inputs":[],"name":"poolAddress","outputs":[{"internalType":"address","name":"","type":"address"}],"stateMutability":"view","type":"function"},{"inputs":[],"name":"priceRecorderAddress","outputs":[{"internalType":"address","name":"","type":"address"}],"stateMutability":"view","type":"function"},{"inputs":[],"name":"read","outputs":[{"internalType":"uint256","name":"","type":"uint256"}],"stateMutability":"view","type":"function"},{"inputs":[],"name":"resumeUpdates","outputs":[],"stateMutability":"nonpayable","type":"function"},{"inputs":[],"name":"token0Decimals","outputs":[{"internalType":"uint8","name":"","type":"uint8"}],"stateMutability":"view","type":"function"},{"inputs":[],"name":"token1Decimals","outputs":[{"internalType":"uint8","name":"","type":"uint8"}],"stateMutability":"view","type":"function"},{"inputs":[],"name":"totalGasUsedForVerification","outputs":[{"internalType":"uint256","name":"","type":"uint256"}],"stateMutability":"view","type":"function"},{"inputs":[],"name":"totalProofsVerified","outputs":[{"internalType":"uint256","name":"","type":"uint256"}],"stateMutability":"view","type":"function"},{"inputs":[{"internalType":"address","name":"newOwner","type":"address"}],"name":"transferOwnership","outputs":[],"stateMutability":"nonpayable","type":"function"},{"inputs":[],"name":"updateCount","outputs":[{"internalType":"uint256","name":"","type":"uint256"}],"stateMutability":"view","type":"function"},{"inputs":[{"components":[{"internalType":"bytes32[]","name":"merkleProof","type":"bytes32[]"},{"components":[{"internalType":"bytes32","name":"attestationType","type":"bytes32"},{"internalType":"bytes32","name":"sourceId","type":"bytes32"},{"internalType":"uint64","name":"votingRound","type":"uint64"},{"internalType":"uint64","name":"lowestUsedTimestamp","type":"uint64"},{"components":[{"internalType":"bytes32","name":"transactionHash","type":"bytes32"},{"internalType":"uint16","name":"requiredConfirmations","type":"uint16"},{"internalType":"bool","name":"provideInput","type":"bool"},{"internalType":"bool","name":"listEvents","type":"bool"},{"internalType":"uint32[]","name":"logIndices","type":"uint32[]"}],"internalType":"struct IEVMTransaction.RequestBody","name":"requestBody","type":"tuple"},{"components":[{"internalType":"uint64","name":"blockNumber","type":"uint64"},{"internalType":"uint64","name":"timestamp","type":"uint64"},{"internalType":"address","name":"sourceAddress","type":"address"},{"internalType":"bool","name":"isDeployment","type":"bool"},{"internalType":"address","name":"receivingAddress","type":"address"},{"internalType":"uint256","name":"value","type":"uint256"},{"internalType":"bytes","name":"input","type":"bytes"},{"internalType":"uint8","name":"status","type":"uint8"},{"components":[{"internalType":"uint32","name":"logIndex","type":"uint32"},{"internalType":"address","name":"emitterAddress","type":"address"},{"internalType":"bytes32[]","name":"topics","type":"bytes32[]"},{"internalType":"bytes","name":"data","type":"bytes"},{"internalType":"bool","name":"removed","type":"bool"}],"internalType":"struct IEVMTransaction.Event[]","name":"events","type":"tuple[]"}],"internalType":"struct IEVMTransaction.ResponseBody","name":"responseBody","type":"tuple"}],"internalType":"struct IEVMTransaction.Response","name":"data","type":"tuple"}],"internalType":"struct IEVMTransaction.Proof","name":"_proof","type":"tuple"}],"name":"updateFromProof","outputs":[],"stateMutability":"nonpayable","type":"function"}],"evm":{"bytecode":{"linkReferences":{},"object":"6101606040523480156200001257600080fd5b50604051620023b1380380620023b18339810160408190526200003591620003bb565b6001600160a01b038716620000915760405162461bcd60e51b815260206004820152601860248201527f496e76616c6964207265636f726465722061646472657373000000000000000060448201526064015b60405180910390fd5b6001600160a01b038616620000e95760405162461bcd60e51b815260206004820152601460248201527f496e76616c696420706f6f6c2061646472657373000000000000000000000000604482015260640162000088565b6001600160a01b038416620001415760405162461bcd60e51b815260206004820152601360248201527f496e76616c696420464443206164647265737300000000000000000000000000604482015260640162000088565b60008360ff1611801562000159575060128360ff1611155b620001a75760405162461bcd60e51b815260206004820152601760248201527f496e76616c696420746f6b656e3020646563696d616c73000000000000000000604482015260640162000088565b60008260ff16118015620001bf575060128260ff1611155b6200020d5760405162461bcd60e51b815260206004820152601760248201527f496e76616c696420746f6b656e3120646563696d616c73000000000000000000604482015260640162000088565b600080546001600160a01b031916331790556001600160a01b0387811660a052861660c0526004805460ff1916600117905560ff8381166101005282166101205280151561014052620002608562000286565b6001600160581b0319166080525050506001600160a01b031660e052506200057e915050565b80516000908290158015906200029e57506014815111155b620002ec5760405162461bcd60e51b815260206004820152601360248201527f496e76616c6964206e616d65206c656e67746800000000000000000000000000604482015260640162000088565b602160f81b60005b82518110156200035d5760006200030d82600862000516565b6200031a90609862000536565b90508060ff168483815181106200033557620003356200054c565b016020015160f81c901b60581b92909217915080620003548162000562565b915050620002f4565b509392505050565b80516001600160a01b03811681146200037d57600080fd5b919050565b634e487b7160e01b600052604160045260246000fd5b805160ff811681146200037d57600080fd5b805180151581146200037d57600080fd5b600080600080600080600060e0888a031215620003d757600080fd5b620003e28862000365565b96506020620003f3818a0162000365565b60408a01519097506001600160401b03808211156200041157600080fd5b818b0191508b601f8301126200042657600080fd5b8151818111156200043b576200043b62000382565b604051601f8201601f19908116603f0116810190838211818310171562000466576200046662000382565b816040528281528e868487010111156200047f57600080fd5b600093505b82841015620004a3578484018601518185018701529285019262000484565b6000868483010152809a50505050505050620004c26060890162000365565b9350620004d26080890162000398565b9250620004e260a0890162000398565b9150620004f260c08901620003aa565b905092959891949750929550565b634e487b7160e01b600052601160045260246000fd5b808202811582820484141762000530576200053062000500565b92915050565b8181038181111562000530576200053062000500565b634e487b7160e01b600052603260045260246000fd5b60006001820162000577576200057762000500565b5060010190565b60805160a05160c05160e051610100516101205161014051611d9962000618600039600081816103960152610e770152600081816101630152610dbc0152600081816104000152610de0015260006107cb015260008181610215015281816106b80152610c3e015260008181610434015281816106900152818161089d0152610b7e0152600081816102c1015261063b0152611d996000f3fe6080604052600436106101355760003560e01c80636747f3c6116100ab5780638da5cb5b1161006f5780638da5cb5b146103ce578063b31ac6e2146103ee578063b59efdeb14610422578063d246a2a314610456578063e6af35f01461046c578063f2fde38b1461048057600080fd5b80636747f3c61461032457806369b4ecc91461034e5780637bee4c251461036457806384e767bd146103845780638c0a57a8146103b857600080fd5b806323d60889116100fd57806323d608891461024f578063313ce56714610264578063349225f8146102805780634a643499146102a25780634ab5cc82146102eb57806357de26a41461030f57600080fd5b8063022710691461013a5780630b77884d14610151578063115416fe1461019c57806314bcec9f146101cb5780631755ff2114610203575b600080fd5b34801561014657600080fd5b5061014f6104a0565b005b34801561015d57600080fd5b506101857f000000000000000000000000000000000000000000000000000000000000000081565b60405160ff90911681526020015b60405180910390f35b6101a4610508565b6040805193845260009290920b60208401526001600160401b031690820152606001610193565b3480156101d757600080fd5b506002546101eb906001600160401b031681565b6040516001600160401b039091168152602001610193565b34801561020f57600080fd5b506102377f000000000000000000000000000000000000000000000000000000000000000081565b6040516001600160a01b039091168152602001610193565b34801561025b57600080fd5b5061014f61056e565b34801561027057600080fd5b5060405160068152602001610193565b34801561028c57600080fd5b506102956105d0565b6040516101939190610f5c565b3480156102ae57600080fd5b506040516affffffffffffffffffffff197f0000000000000000000000000000000000000000000000000000000000000000168152602001610193565b3480156102f757600080fd5b5061030160015481565b604051908152602001610193565b34801561031b57600080fd5b5061030161071d565b34801561033057600080fd5b5060045461033e9060ff1681565b6040519015158152602001610193565b34801561035a57600080fd5b5061030160035481565b34801561037057600080fd5b5061014f61037f36600461101e565b61076b565b34801561039057600080fd5b5061033e7f000000000000000000000000000000000000000000000000000000000000000081565b3480156103c457600080fd5b5061030160055481565b3480156103da57600080fd5b50600054610237906001600160a01b031681565b3480156103fa57600080fd5b506101857f000000000000000000000000000000000000000000000000000000000000000081565b34801561042e57600080fd5b506102377f000000000000000000000000000000000000000000000000000000000000000081565b34801561046257600080fd5b5061030160065481565b34801561047857600080fd5b506000610301565b34801561048c57600080fd5b5061014f61049b366004611087565b610a8c565b6000546001600160a01b031633146104d35760405162461bcd60e51b81526004016104ca906110a4565b60405180910390fd5b6004805460ff191690556040517f4a4c785fe1c9642309071a07ac280989cd10624630e14194d12672c8f0fe661f90600090a1565b600080600080600154116105525760405162461bcd60e51b81526020600482015260116024820152704e6f206461746120617661696c61626c6560781b60448201526064016104ca565b50506001546002549092600692506001600160401b0390911690565b6000546001600160a01b031633146105985760405162461bcd60e51b81526004016104ca906110a4565b6004805460ff191660011790556040517f24b779da341973449740a5c61843c5dd3fcfaf5b667a7b67edcda18b45beba6990600090a1565b6040805161014081018252600080825260208201819052918101829052606081018290526080810182905260a0810182905260c0810182905260e08101829052610100810182905261012081019190915260408051610140810182526affffffffffffffffffffff197f0000000000000000000000000000000000000000000000000000000000000000168152600154602082015260069181018290526002546001600160401b0316606082015260035460808201526001600160a01b037f0000000000000000000000000000000000000000000000000000000000000000811660a08301527f00000000000000000000000000000000000000000000000000000000000000001660c082015260045460ff16151560e082015290546101008201906106fd57600061070d565b60065460055461070d91906110dd565b8152602001600654815250905090565b600080600154116107645760405162461bcd60e51b81526020600482015260116024820152704e6f206461746120617661696c61626c6560781b60448201526064016104ca565b5060015490565b60045460ff166107ae5760405162461bcd60e51b815260206004820152600e60248201526d155c19185d195cc81c185d5cd95960921b60448201526064016104ca565b60005a6040516358fbe9e160e01b81529091506001600160a01b037f000000000000000000000000000000000000000000000000000000000000000016906358fbe9e19061080090859060040161145a565b602060405180830381865afa15801561081d573d6000803e3d6000fd5b505050506040513d601f19601f8201168201806040525081019061084191906115c4565b6108815760405162461bcd60e51b815260206004820152601160248201527024b73b30b634b21023222190383937b7b360791b60448201526064016104ca565b600061089060208401846115e1565b61089990611a81565b90507f00000000000000000000000000000000000000000000000000000000000000006001600160a01b03168160a00151608001516001600160a01b03161461091d5760405162461bcd60e51b815260206004820152601660248201527557726f6e6720636f6e7472616374206164647265737360501b60448201526064016104ca565b8060a0015160e0015160ff1660011461096d5760405162461bcd60e51b8152602060048201526012602482015271151c985b9cd858dd1a5bdb8819985a5b195960721b60448201526064016104ca565b6000806109828360a001516101000151610b4e565b60018290556002805467ffffffffffffffff19166001600160401b0383161790556003805492945090925060006109b883611b23565b919050555060005a6109ca9086611b3c565b905080600560008282546109de9190611b55565b9091555050600680549060006109f383611b23565b9091555050604080516001600160401b0384168152436020820152339185917fcbb0a1964fded1543e1fc229a1bea0552bb873219986500cf7ea9d1a4506d736910160405180910390a3608084015151604080518581526001600160401b03851660208201527f20aafbdb02edecf8b1e8547d36a18bfa617d137f7556777a48b28d206bd6d4d4910160405180910390a2505050505050565b6000546001600160a01b03163314610ab65760405162461bcd60e51b81526004016104ca906110a4565b6001600160a01b038116610afe5760405162461bcd60e51b815260206004820152600f60248201526e496e76616c6964206164647265737360881b60448201526064016104ca565b600080546001600160a01b038381166001600160a01b0319831681178455604051919092169283917f8be0079c531659141344cd1fd0a4f28419497f9722a3daafe3b4186f6b6457e09190a35050565b6000806000805b8451811015610cfc576000858281518110610b7257610b72611b68565b602002602001015190507f00000000000000000000000000000000000000000000000000000000000000006001600160a01b031681602001516001600160a01b031614610bbf5750610cea565b6000816040015151118015610c1157507f17440ab048fe6c6cbd98dc862b13c09a99713ac93c0d806c9b2a2a384787935e8160400151600081518110610c0757610c07611b68565b6020026020010151145b15610ce85760008160400151600181518110610c2f57610c2f611b68565b602002602001015160001c90507f00000000000000000000000000000000000000000000000000000000000000006001600160a01b0316816001600160a01b031614610caa5760405162461bcd60e51b815260206004820152600a60248201526915dc9bdb99c81c1bdbdb60b21b60448201526064016104ca565b6000808360600151806020019051810190610cc59190611b7e565b509550505050509150610cd782610d50565b9750955060019450610cfc92505050565b505b80610cf481611b23565b915050610b55565b5080610d4a5760405162461bcd60e51b815260206004820152601d60248201527f50726963655265636f72646564206576656e74206e6f7420666f756e6400000060448201526064016104ca565b50915091565b6000600160601b6001600160a01b0383168280600160801b831115610d9a576000610d7f600160401b856110dd565b9050610d8b8180611c19565b9250600160401b915050610db3565b610da48380611c19565b9150610db08480611c19565b90505b6000610e0560ff7f00000000000000000000000000000000000000000000000000000000000000008116907f000000000000000000000000000000000000000000000000000000000000000016611c30565b90506000808212610e3757610e1b826006611b55565b610e2690600a611d3b565b610e309085611c19565b9050610e67565b610e4484620f4240611c19565b9050610e4f82611d47565b610e5a90600a611d3b565b610e649084611c19565b92505b6000610e7384836110dd565b90507f00000000000000000000000000000000000000000000000000000000000000008015610ea25750600081115b15610eb957610eb68164e8d4a510006110dd565b90505b60008111610f025760405162461bcd60e51b81526020600482015260166024820152755072696365206d75737420626520706f73697469766560501b60448201526064016104ca565b6001600160801b038110610f505760405162461bcd60e51b815260206004820152601560248201527450726963652065786365656473206d6178696d756d60581b60448201526064016104ca565b98975050505050505050565b81516affffffffffffffffffffff191681526101408101602083015160208301526040830151610f91604084018260000b9052565b506060830151610fac60608401826001600160401b03169052565b506080830151608083015260a0830151610fd160a08401826001600160a01b03169052565b5060c0830151610fec60c08401826001600160a01b03169052565b5060e083015161100060e084018215159052565b50610100838101519083015261012092830151929091019190915290565b60006020828403121561103057600080fd5b81356001600160401b0381111561104657600080fd5b82016040818503121561105857600080fd5b9392505050565b6001600160a01b038116811461107457600080fd5b50565b80356110828161105f565b919050565b60006020828403121561109957600080fd5b81356110588161105f565b6020808252600990820152682737ba1037bbb732b960b91b604082015260600190565b634e487b7160e01b600052601160045260246000fd5b6000826110fa57634e487b7160e01b600052601260045260246000fd5b500490565b6000808335601e1984360301811261111657600080fd5b83016020810192503590506001600160401b0381111561113557600080fd5b8060051b360382131561114757600080fd5b9250929050565b81835260006001600160fb1b0383111561116757600080fd5b8260051b80836020870137939093016020019392505050565b80356001600160401b038116811461108257600080fd5b60008235609e198336030181126111ad57600080fd5b90910192915050565b803561ffff8116811461108257600080fd5b801515811461107457600080fd5b8035611082816111c8565b803563ffffffff8116811461108257600080fd5b6000823561011e198336030181126111ad57600080fd5b6000808335601e1984360301811261122357600080fd5b83016020810192503590506001600160401b0381111561124257600080fd5b80360382131561114757600080fd5b81835281816020850137506000828201602090810191909152601f909101601f19169091010190565b803560ff8116811461108257600080fd5b81835260006020808501808196508560051b810191508460005b8781101561135f5782840389526112bc8288611197565b60a063ffffffff6112cc836111e1565b168652868201356112dc8161105f565b6001600160a01b03168688015260406112f7838201846110ff565b83838a0152611309848a01828461114e565b9350505050606061131c8184018461120c565b888403838a015261132e848284611251565b93505050506080808301359250611344836111c8565b911515959091019490945297840197908401906001016112a5565b5091979650505050505050565b600061012061138b8461137e85611180565b6001600160401b03169052565b61139760208401611180565b6001600160401b031660208501526113b160408401611077565b6001600160a01b031660408501526113cb606084016111d6565b151560608501526113de60808401611077565b6001600160a01b0316608085015260a0838101359085015261140360c084018461120c565b8260c08701526114168387018284611251565b9250505061142660e0840161127a565b60ff1660e085015261010061143d848201856110ff565b8684038388015261144f84828461128b565b979650505050505050565b6000602080835261146b84856110ff565b60408386015261147f60608601828461114e565b9150508185013560be1986360301811261149857600080fd5b8581019050601f198583030160408601528035825282810135838301526114c160408201611180565b6001600160401b038082166040850152806114de60608501611180565b16606085015250506114f36080820182611197565b60c060808401526101608301813560c085015261ffff6115148684016111b6565b1660e08501526040820135611528816111c8565b1515610100850152606082013561153e816111c8565b151561012085015261155360808301836110ff565b60a061014087015291829052909150600061018085015b838210156115955763ffffffff611580846111e1565b1681529186019160019190910190860161156a565b6115a260a08601866111f5565b965085810360a08701526115b6818861136c565b9a9950505050505050505050565b6000602082840312156115d657600080fd5b8151611058816111c8565b6000823560be198336030181126115f757600080fd5b9190910192915050565b634e487b7160e01b600052604160045260246000fd5b60405160a081016001600160401b038111828210171561163957611639611601565b60405290565b60405161012081016001600160401b038111828210171561163957611639611601565b60405160c081016001600160401b038111828210171561163957611639611601565b604051601f8201601f191681016001600160401b03811182821017156116ac576116ac611601565b604052919050565b60006001600160401b038211156116cd576116cd611601565b5060051b60200190565b600060a082840312156116e957600080fd5b6116f1611617565b90508135815260206117048184016111b6565b818301526040830135611716816111c8565b60408301526060830135611729816111c8565b606083015260808301356001600160401b0381111561174757600080fd5b8301601f8101851361175857600080fd5b803561176b611766826116b4565b611684565b81815260059190911b8201830190838101908783111561178a57600080fd5b928401925b828410156117af576117a0846111e1565b8252928401929084019061178f565b6080860152509295945050505050565b600082601f8301126117d057600080fd5b81356001600160401b038111156117e9576117e9611601565b6117fc601f8201601f1916602001611684565b81815284602083860101111561181157600080fd5b816020850160208301376000918101602001919091529392505050565b600082601f83011261183f57600080fd5b8135602061184f611766836116b4565b82815260059290921b8401810191818101908684111561186e57600080fd5b8286015b848110156119955780356001600160401b038082111561189157600080fd5b9088019060a0828b03601f190112156118a957600080fd5b6118b1611617565b6118bc8784016111e1565b81526040808401356118cd8161105f565b828901526060840135838111156118e45760008081fd5b8401603f81018d136118f65760008081fd5b88810135611906611766826116b4565b81815260059190911b82018301908a8101908f8311156119265760008081fd5b928401925b828410156119445783358252928b0192908b019061192b565b80858701525050505050608080840135838111156119625760008081fd5b6119708d8a838801016117bf565b60608401525061198260a085016111d6565b9082015285525050918301918301611872565b509695505050505050565b600061012082840312156119b357600080fd5b6119bb61163f565b90506119c682611180565b81526119d460208301611180565b60208201526119e560408301611077565b60408201526119f6606083016111d6565b6060820152611a0760808301611077565b608082015260a082013560a082015260c08201356001600160401b0380821115611a3057600080fd5b611a3c858386016117bf565b60c0840152611a4d60e0850161127a565b60e084015261010091508184013581811115611a6857600080fd5b611a748682870161182e565b8385015250505092915050565b600060c08236031215611a9357600080fd5b611a9b611662565b8235815260208301356020820152611ab560408401611180565b6040820152611ac660608401611180565b606082015260808301356001600160401b0380821115611ae557600080fd5b611af1368387016116d7565b608084015260a0850135915080821115611b0a57600080fd5b50611b17368286016119a0565b60a08301525092915050565b600060018201611b3557611b356110c7565b5060010190565b81810381811115611b4f57611b4f6110c7565b92915050565b80820180821115611b4f57611b4f6110c7565b634e487b7160e01b600052603260045260246000fd5b600080600080600080600060e0888a031215611b9957600080fd5b8751611ba48161105f565b8097505060208801518060020b8114611bbc57600080fd5b60408901519096506001600160801b0381168114611bd957600080fd5b6060890151909550611bea8161105f565b6080890151909450611bfb8161105f565b8093505060a0880151915060c0880151905092959891949750929550565b8082028115828204841417611b4f57611b4f6110c7565b8181036000831280158383131683831282161715611c5057611c506110c7565b5092915050565b600181815b80851115611c92578160001904821115611c7857611c786110c7565b80851615611c8557918102915b93841c9390800290611c5c565b509250929050565b600082611ca957506001611b4f565b81611cb657506000611b4f565b8160018114611ccc5760028114611cd657611cf2565b6001915050611b4f565b60ff841115611ce757611ce76110c7565b50506001821b611b4f565b5060208310610133831016604e8410600b8410161715611d15575081810a611b4f565b611d1f8383611c57565b8060001904821115611d3357611d336110c7565b029392505050565b60006110588383611c9a565b6000600160ff1b8201611d5c57611d5c6110c7565b506000039056fea2646970667358221220b3a03ac4bd9331b586a2886270e4ca6236fe4a5a0c0de88d5bef1e534709d71564736f6c63430008130033","opcodes":"PUSH2 0x160 PUSH1 0x40 MSTORE CALLVALUE DUP1 ISZERO PUSH3 0x12 JUMPI PUSH1 0x0 DUP1 REVERT JUMPDEST POP PUSH1 0x40 MLOAD PUSH3 0x23B1 CODESIZE SUB DUP1 PUSH3 0x23B1 DUP4 CODECOPY DUP2 ADD PUSH1 0x40 DUP2 SWAP1 MSTORE PUSH3 0x35 SWAP2 PUSH3 0x3BB JUMP JUMPDEST PUSH1 0x1 PUSH1 0x1 PUSH1 0xA0 SHL SUB DUP8 AND PUSH3 0x91 JUMPI PUSH1 0x40 MLOAD PUSH3 0x461BCD PUSH1 0xE5 SHL DUP2 MSTORE PUSH1 0x20 PUSH1 0x4 DUP3 ADD MSTORE PUSH1 0x18 PUSH1 0x24 DUP3 ADD MSTORE PUSH32 0x496E76616C6964207265636F7264657220616464726573730000000000000000 PUSH1 0x44 DUP3 ADD MSTORE PUSH1 0x64 ADD JUMPDEST PUSH1 0x40 MLOAD DUP1 SWAP2 SUB SWAP1 REVERT JUMPDEST PUSH1 0x1 PUSH1 0x1 PUSH1 0xA0 SHL SUB DUP7 AND PUSH3 0xE9 JUMPI PUSH1 0x40 MLOAD PUSH3 0x461BCD PUSH1 0xE5 SHL DUP2 MSTORE PUSH1 0x20 PUSH1 0x4 DUP3 ADD MSTORE PUSH1 0x14 PUSH1 0x24 DUP3 ADD MSTORE PUSH32 0x496E76616C696420706F6F6C2061646472657373000000000000000000000000 PUSH1 0x44 DUP3 ADD MSTORE PUSH1 0x64 ADD PUSH3 0x88 JUMP JUMPDEST PUSH1 0x1 PUSH1 0x1 PUSH1 0xA0 SHL SUB DUP5 AND PUSH3 0x141 JUMPI PUSH1 0x40 MLOAD PUSH3 0x461BCD PUSH1 0xE5 SHL DUP2 MSTORE PUSH1 0x20 PUSH1 0x4 DUP3 ADD MSTORE PUSH1 0x13 PUSH1 0x24 DUP3 ADD MSTORE PUSH32 0x496E76616C696420464443206164647265737300000000000000000000000000 PUSH1 0x44 DUP3 ADD MSTORE PUSH1 0x64 ADD PUSH3 0x88 JUMP JUMPDEST PUSH1 0x0 DUP4 PUSH1 0xFF AND GT DUP1 ISZERO PUSH3 0x159 JUMPI POP PUSH1 0x12 DUP4 PUSH1 0xFF AND GT ISZERO JUMPDEST PUSH3 0x1A7 JUMPI PUSH1 0x40 MLOAD PUSH3 0x461BCD PUSH1 0xE5 SHL DUP2 MSTORE PUSH1 0x20 PUSH1 0x4 DUP3 ADD MSTORE PUSH1 0x17 PUSH1 0x24 DUP3 ADD MSTORE PUSH32 0x496E76616C696420746F6B656E3020646563696D616C73000000000000000000 PUSH1 0x44 DUP3 ADD MSTORE PUSH1 0x64 ADD PUSH3 0x88 JUMP JUMPDEST PUSH1 0x0 DUP3 PUSH1 0xFF AND GT DUP1 ISZERO PUSH3 0x1BF JUMPI POP PUSH1 0x12 DUP3 PUSH1 0xFF AND GT ISZERO JUMPDEST PUSH3 0x20D JUMPI PUSH1 0x40 MLOAD PUSH3 0x461BCD PUSH1 0xE5 SHL DUP2 MSTORE PUSH1 0x20 PUSH1 0x4 DUP3 ADD MSTORE PUSH1 0x17 PUSH1 0x24 DUP3 ADD MSTORE PUSH32 0x496E76616C696420746F6B656E3120646563696D616C73000000000000000000 PUSH1 0x44 DUP3 ADD MSTORE PUSH1 0x64 ADD PUSH3 0x88 JUMP JUMPDEST PUSH1 0x0 DUP1 SLOAD PUSH1 0x1 PUSH1 0x1 PUSH1 0xA0 SHL SUB NOT AND CALLER OR SWAP1 SSTORE PUSH1 0x1 PUSH1 0x1 PUSH1 0xA0 SHL SUB DUP8 DUP2 AND PUSH1 0xA0 MSTORE DUP7 AND PUSH1 0xC0 MSTORE PUSH1 0x4 DUP1 SLOAD PUSH1 0xFF NOT AND PUSH1 0x1 OR SWAP1 SSTORE PUSH1 0xFF DUP4 DUP2 AND PUSH2 0x100 MSTORE DUP3 AND PUSH2 0x120 MSTORE DUP1 ISZERO ISZERO PUSH2 0x140 MSTORE PUSH3 0x260 DUP6 PUSH3 0x286 JUMP JUMPDEST PUSH1 0x1 PUSH1 0x1 PUSH1 0x58 SHL SUB NOT AND PUSH1 0x80 MSTORE POP POP POP PUSH1 0x1 PUSH1 0x1 PUSH1 0xA0 SHL SUB AND PUSH1 0xE0 MSTORE POP PUSH3 0x57E SWAP2 POP POP JUMP JUMPDEST DUP1 MLOAD PUSH1 0x0 SWAP1 DUP3 SWAP1 ISZERO DUP1 ISZERO SWAP1 PUSH3 0x29E JUMPI POP PUSH1 0x14 DUP2 MLOAD GT ISZERO JUMPDEST PUSH3 0x2EC JUMPI PUSH1 0x40 MLOAD PUSH3 0x461BCD PUSH1 0xE5 SHL DUP2 MSTORE PUSH1 0x20 PUSH1 0x4 DUP3 ADD MSTORE PUSH1 0x13 PUSH1 0x24 DUP3 ADD MSTORE PUSH32 0x496E76616C6964206E616D65206C656E67746800000000000000000000000000 PUSH1 0x44 DUP3 ADD MSTORE PUSH1 0x64 ADD PUSH3 0x88 JUMP JUMPDEST PUSH1 0x21 PUSH1 0xF8 SHL PUSH1 0x0 JUMPDEST DUP3 MLOAD DUP2 LT ISZERO PUSH3 0x35D JUMPI PUSH1 0x0 PUSH3 0x30D DUP3 PUSH1 0x8 PUSH3 0x516 JUMP JUMPDEST PUSH3 0x31A SWAP1 PUSH1 0x98 PUSH3 0x536 JUMP JUMPDEST SWAP1 POP DUP1 PUSH1 0xFF AND DUP5 DUP4 DUP2 MLOAD DUP2 LT PUSH3 0x335 JUMPI PUSH3 0x335 PUSH3 0x54C JUMP JUMPDEST ADD PUSH1 0x20 ADD MLOAD PUSH1 0xF8 SHR SWAP1 SHL PUSH1 0x58 SHL SWAP3 SWAP1 SWAP3 OR SWAP2 POP DUP1 PUSH3 0x354 DUP2 PUSH3 0x562 JUMP JUMPDEST SWAP2 POP POP PUSH3 0x2F4 JUMP JUMPDEST POP SWAP4 SWAP3 POP POP POP JUMP JUMPDEST DUP1 MLOAD PUSH1 0x1 PUSH1 0x1 PUSH1 0xA0 SHL SUB DUP2 AND DUP2 EQ PUSH3 0x37D JUMPI PUSH1 0x0 DUP1 REVERT JUMPDEST SWAP2 SWAP1 POP JUMP JUMPDEST PUSH4 0x4E487B71 PUSH1 0xE0 SHL PUSH1 0x0 MSTORE PUSH1 0x41 PUSH1 0x4 MSTORE PUSH1 0x24 PUSH1 0x0 REVERT JUMPDEST DUP1 MLOAD PUSH1 0xFF DUP2 AND DUP2 EQ PUSH3 0x37D JUMPI PUSH1 0x0 DUP1 REVERT JUMPDEST DUP1 MLOAD DUP1 ISZERO ISZERO DUP2 EQ PUSH3 0x37D JUMPI PUSH1 0x0 DUP1 REVERT JUMPDEST PUSH1 0x0 DUP1 PUSH1 0x0 DUP1 PUSH1 0x0 DUP1 PUSH1 0x0 PUSH1 0xE0 DUP9 DUP11 SUB SLT ISZERO PUSH3 0x3D7 JUMPI PUSH1 0x0 DUP1 REVERT JUMPDEST PUSH3 0x3E2 DUP9 PUSH3 0x365 JUMP JUMPDEST SWAP7 POP PUSH1 0x20 PUSH3 0x3F3 DUP2 DUP11 ADD PUSH3 0x365 JUMP JUMPDEST PUSH1 0x40 DUP11 ADD MLOAD SWAP1 SWAP8 POP PUSH1 0x1 PUSH1 0x1 PUSH1 0x40 SHL SUB DUP1 DUP3 GT ISZERO PUSH3 0x411 JUMPI PUSH1 0x0 DUP1 REVERT JUMPDEST DUP2 DUP12 ADD SWAP2 POP DUP12 PUSH1 0x1F DUP4 ADD SLT PUSH3 0x426 JUMPI PUSH1 0x0 DUP1 REVERT JUMPDEST DUP2 MLOAD DUP2 DUP2 GT ISZERO PUSH3 0x43B JUMPI PUSH3 0x43B PUSH3 0x382 JUMP JUMPDEST PUSH1 0x40 MLOAD PUSH1 0x1F DUP3 ADD PUSH1 0x1F NOT SWAP1 DUP2 AND PUSH1 0x3F ADD AND DUP2 ADD SWAP1 DUP4 DUP3 GT DUP2 DUP4 LT OR ISZERO PUSH3 0x466 JUMPI PUSH3 0x466 PUSH3 0x382 JUMP JUMPDEST DUP2 PUSH1 0x40 MSTORE DUP3 DUP2 MSTORE DUP15 DUP7 DUP5 DUP8 ADD ADD GT ISZERO PUSH3 0x47F JUMPI PUSH1 0x0 DUP1 REVERT JUMPDEST PUSH1 0x0 SWAP4 POP JUMPDEST DUP3 DUP5 LT ISZERO PUSH3 0x4A3 JUMPI DUP5 DUP5 ADD DUP7 ADD MLOAD DUP2 DUP6 ADD DUP8 ADD MSTORE SWAP3 DUP6 ADD SWAP3 PUSH3 0x484 JUMP JUMPDEST PUSH1 0x0 DUP7 DUP5 DUP4 ADD ADD MSTORE DUP1 SWAP11 POP POP POP POP POP POP POP PUSH3 0x4C2 PUSH1 0x60 DUP10 ADD PUSH3 0x365 JUMP JUMPDEST SWAP4 POP PUSH3 0x4D2 PUSH1 0x80 DUP10 ADD PUSH3 0x398 JUMP JUMPDEST SWAP3 POP PUSH3 0x4E2 PUSH1 0xA0 DUP10 ADD PUSH3 0x398 JUMP JUMPDEST SWAP2 POP PUSH3 0x4F2 PUSH1 0xC0 DUP10 ADD PUSH3 0x3AA JUMP JUMPDEST SWAP1 POP SWAP3 SWAP6 SWAP9 SWAP2 SWAP5 SWAP8 POP SWAP3 SWAP6 POP JUMP JUMPDEST PUSH4 0x4E487B71 PUSH1 0xE0 SHL PUSH1 0x0 MSTORE PUSH1 0x11 PUSH1 0x4 MSTORE PUSH1 0x24 PUSH1 0x0 REVERT JUMPDEST DUP1 DUP3 MUL DUP2 ISZERO DUP3 DUP3 DIV DUP5 EQ OR PUSH3 0x530 JUMPI PUSH3 0x530 PUSH3 0x500 JUMP JUMPDEST SWAP3 SWAP2 POP POP JUMP JUMPDEST DUP2 DUP2 SUB DUP2 DUP2 GT ISZERO PUSH3 0x530 JUMPI PUSH3 0x530 PUSH3 0x500 JUMP JUMPDEST PUSH4 0x4E487B71 PUSH1 0xE0 SHL PUSH1 0x0 MSTORE PUSH1 0x32 PUSH1 0x4 MSTORE PUSH1 0x24 PUSH1 0x0 REVERT JUMPDEST PUSH1 0x0 PUSH1 0x1 DUP3 ADD PUSH3 0x577 JUMPI PUSH3 0x577 PUSH3 0x500 JUMP JUMPDEST POP PUSH1 0x1 ADD SWAP1 JUMP JUMPDEST PUSH1 0x80 MLOAD PUSH1 0xA0 MLOAD PUSH1 0xC0 MLOAD PUSH1 0xE0 MLOAD PUSH2 0x100 MLOAD PUSH2 0x120 MLOAD PUSH2 0x140 MLOAD PUSH2 0x1D99 PUSH3 0x618 PUSH1 0x0 CODECOPY PUSH1 0x0 DUP2 DUP2 PUSH2 0x396 ADD MSTORE PUSH2 0xE77 ADD MSTORE PUSH1 0x0 DUP2 DUP2 PUSH2 0x163 ADD MSTORE PUSH2 0xDBC ADD MSTORE PUSH1 0x0 DUP2 DUP2 PUSH2 0x400 ADD MSTORE PUSH2 0xDE0 ADD MSTORE PUSH1 0x0 PUSH2 0x7CB ADD MSTORE PUSH1 0x0 DUP2 DUP2 PUSH2 0x215 ADD MSTORE DUP2 DUP2 PUSH2 0x6B8 ADD MSTORE PUSH2 0xC3E ADD MSTORE PUSH1 0x0 DUP2 DUP2 PUSH2 0x434 ADD MSTORE DUP2 DUP2 PUSH2 0x690 ADD MSTORE DUP2 DUP2 PUSH2 0x89D ADD MSTORE PUSH2 0xB7E ADD MSTORE PUSH1 0x0 DUP2 DUP2 PUSH2 0x2C1 ADD MSTORE PUSH2 0x63B ADD MSTORE PUSH2 0x1D99 PUSH1 0x0 RETURN INVALID PUSH1 0x80 PUSH1 0x40 MSTORE PUSH1 0x4 CALLDATASIZE LT PUSH2 0x135 JUMPI PUSH1 0x0 CALLDATALOAD PUSH1 0xE0 SHR DUP1 PUSH4 0x6747F3C6 GT PUSH2 0xAB JUMPI DUP1 PUSH4 0x8DA5CB5B GT PUSH2 0x6F JUMPI DUP1 PUSH4 0x8DA5CB5B EQ PUSH2 0x3CE JUMPI DUP1 PUSH4 0xB31AC6E2 EQ PUSH2 0x3EE JUMPI DUP1 PUSH4 0xB59EFDEB EQ PUSH2 0x422 JUMPI DUP1 PUSH4 0xD246A2A3 EQ PUSH2 0x456 JUMPI DUP1 PUSH4 0xE6AF35F0 EQ PUSH2 0x46C JUMPI DUP1 PUSH4 0xF2FDE38B EQ PUSH2 0x480 JUMPI PUSH1 0x0 DUP1 REVERT JUMPDEST DUP1 PUSH4 0x6747F3C6 EQ PUSH2 0x324 JUMPI DUP1 PUSH4 0x69B4ECC9 EQ PUSH2 0x34E JUMPI DUP1 PUSH4 0x7BEE4C25 EQ PUSH2 0x364 JUMPI DUP1 PUSH4 0x84E767BD EQ PUSH2 0x384 JUMPI DUP1 PUSH4 0x8C0A57A8 EQ PUSH2 0x3B8 JUMPI PUSH1 0x0 DUP1 REVERT JUMPDEST DUP1 PUSH4 0x23D60889 GT PUSH2 0xFD JUMPI DUP1 PUSH4 0x23D60889 EQ PUSH2 0x24F JUMPI DUP1 PUSH4 0x313CE567 EQ PUSH2 0x264 JUMPI DUP1 PUSH4 0x349225F8 EQ PUSH2 0x280 JUMPI DUP1 PUSH4 0x4A643499 EQ PUSH2 0x2A2 JUMPI DUP1 PUSH4 0x4AB5CC82 EQ PUSH2 0x2EB JUMPI DUP1 PUSH4 0x57DE26A4 EQ PUSH2 0x30F JUMPI PUSH1 0x0 DUP1 REVERT JUMPDEST DUP1 PUSH4 0x2271069 EQ PUSH2 0x13A JUMPI DUP1 PUSH4 0xB77884D EQ PUSH2 0x151 JUMPI DUP1 PUSH4 0x115416FE EQ PUSH2 0x19C JUMPI DUP1 PUSH4 0x14BCEC9F EQ PUSH2 0x1CB JUMPI DUP1 PUSH4 0x1755FF21 EQ PUSH2 0x203 JUMPI JUMPDEST PUSH1 0x0 DUP1 REVERT JUMPDEST CALLVALUE DUP1 ISZERO PUSH2 0x146 JUMPI PUSH1 0x0 DUP1 REVERT JUMPDEST POP PUSH2 0x14F PUSH2 0x4A0 JUMP JUMPDEST STOP JUMPDEST CALLVALUE DUP1 ISZERO PUSH2 0x15D JUMPI PUSH1 0x0 DUP1 REVERT JUMPDEST POP PUSH2 0x185 PUSH32 0x0 DUP2 JUMP JUMPDEST PUSH1 0x40 MLOAD PUSH1 0xFF SWAP1 SWAP2 AND DUP2 MSTORE PUSH1 0x20 ADD JUMPDEST PUSH1 0x40 MLOAD DUP1 SWAP2 SUB SWAP1 RETURN JUMPDEST PUSH2 0x1A4 PUSH2 0x508 JUMP JUMPDEST PUSH1 0x40 DUP1 MLOAD SWAP4 DUP5 MSTORE PUSH1 0x0 SWAP3 SWAP1 SWAP3 SIGNEXTEND PUSH1 0x20 DUP5 ADD MSTORE PUSH1 0x1 PUSH1 0x1 PUSH1 0x40 SHL SUB AND SWAP1 DUP3 ADD MSTORE PUSH1 0x60 ADD PUSH2 0x193 JUMP JUMPDEST CALLVALUE DUP1 ISZERO PUSH2 0x1D7 JUMPI PUSH1 0x0 DUP1 REVERT JUMPDEST POP PUSH1 0x2 SLOAD PUSH2 0x1EB SWAP1 PUSH1 0x1 PUSH1 0x1 PUSH1 0x40 SHL SUB AND DUP2 JUMP JUMPDEST PUSH1 0x40 MLOAD PUSH1 0x1 PUSH1 0x1 PUSH1 0x40 SHL SUB SWAP1 SWAP2 AND DUP2 MSTORE PUSH1 0x20 ADD PUSH2 0x193 JUMP JUMPDEST CALLVALUE DUP1 ISZERO PUSH2 0x20F JUMPI PUSH1 0x0 DUP1 REVERT JUMPDEST POP PUSH2 0x237 PUSH32 0x0 DUP2 JUMP JUMPDEST PUSH1 0x40 MLOAD PUSH1 0x1 PUSH1 0x1 PUSH1 0xA0 SHL SUB SWAP1 SWAP2 AND DUP2 MSTORE PUSH1 0x20 ADD PUSH2 0x193 JUMP JUMPDEST CALLVALUE DUP1 ISZERO PUSH2 0x25B JUMPI PUSH1 0x0 DUP1 REVERT JUMPDEST POP PUSH2 0x14F PUSH2 0x56E JUMP JUMPDEST CALLVALUE DUP1 ISZERO PUSH2 0x270 JUMPI PUSH1 0x0 DUP1 REVERT JUMPDEST POP PUSH1 0x40 MLOAD PUSH1 0x6 DUP2 MSTORE PUSH1 0x20 ADD PUSH2 0x193 JUMP JUMPDEST CALLVALUE DUP1 ISZERO PUSH2 0x28C JUMPI PUSH1 0x0 DUP1 REVERT JUMPDEST POP PUSH2 0x295 PUSH2 0x5D0 JUMP JUMPDEST PUSH1 0x40 MLOAD PUSH2 0x193 SWAP2 SWAP1 PUSH2 0xF5C JUMP JUMPDEST CALLVALUE DUP1 ISZERO PUSH2 0x2AE JUMPI PUSH1 0x0 DUP1 REVERT JUMPDEST POP PUSH1 0x40 MLOAD PUSH11 0xFFFFFFFFFFFFFFFFFFFFFF NOT PUSH32 0x0 AND DUP2 MSTORE PUSH1 0x20 ADD PUSH2 0x193 JUMP JUMPDEST CALLVALUE DUP1 ISZERO PUSH2 0x2F7 JUMPI PUSH1 0x0 DUP1 REVERT JUMPDEST POP PUSH2 0x301 PUSH1 0x1 SLOAD DUP2 JUMP JUMPDEST PUSH1 0x40 MLOAD SWAP1 DUP2 MSTORE PUSH1 0x20 ADD PUSH2 0x193 JUMP JUMPDEST CALLVALUE DUP1 ISZERO PUSH2 0x31B JUMPI PUSH1 0x0 DUP1 REVERT JUMPDEST POP PUSH2 0x301 PUSH2 0x71D JUMP JUMPDEST CALLVALUE DUP1 ISZERO PUSH2 0x330 JUMPI PUSH1 0x0 DUP1 REVERT JUMPDEST POP PUSH1 0x4 SLOAD PUSH2 0x33E SWAP1 PUSH1 0xFF AND DUP2 JUMP JUMPDEST PUSH1 0x40 MLOAD SWAP1 ISZERO ISZERO DUP2 MSTORE PUSH1 0x20 ADD PUSH2 0x193 JUMP JUMPDEST CALLVALUE DUP1 ISZERO PUSH2 0x35A JUMPI PUSH1 0x0 DUP1 REVERT JUMPDEST POP PUSH2 0x301 PUSH1 0x3 SLOAD DUP2 JUMP JUMPDEST CALLVALUE DUP1 ISZERO PUSH2 0x370 JUMPI PUSH1 0x0 DUP1 REVERT JUMPDEST POP PUSH2 0x14F PUSH2 0x37F CALLDATASIZE PUSH1 0x4 PUSH2 0x101E JUMP JUMPDEST PUSH2 0x76B JUMP JUMPDEST CALLVALUE DUP1 ISZERO PUSH2 0x390 JUMPI PUSH1 0x0 DUP1 REVERT JUMPDEST POP PUSH2 0x33E PUSH32 0x0 DUP2 JUMP JUMPDEST CALLVALUE DUP1 ISZERO PUSH2 0x3C4 JUMPI PUSH1 0x0 DUP1 REVERT JUMPDEST POP PUSH2 0x301 PUSH1 0x5 SLOAD DUP2 JUMP JUMPDEST CALLVALUE DUP1 ISZERO PUSH2 0x3DA JUMPI PUSH1 0x0 DUP1 REVERT JUMPDEST POP PUSH1 0x0 SLOAD PUSH2 0x237 SWAP1 PUSH1 0x1 PUSH1 0x1 PUSH1 0xA0 SHL SUB AND DUP2 JUMP JUMPDEST CALLVALUE DUP1 ISZERO PUSH2 0x3FA JUMPI PUSH1 0x0 DUP1 REVERT JUMPDEST POP PUSH2 0x185 PUSH32 0x0 DUP2 JUMP JUMPDEST CALLVALUE DUP1 ISZERO PUSH2 0x42E JUMPI PUSH1 0x0 DUP1 REVERT JUMPDEST POP PUSH2 0x237 PUSH32 0x0 DUP2 JUMP JUMPDEST CALLVALUE DUP1 ISZERO PUSH2 0x462 JUMPI PUSH1 0x0 DUP1 REVERT JUMPDEST POP PUSH2 0x301 PUSH1 0x6 SLOAD DUP2 JUMP JUMPDEST CALLVALUE DUP1 ISZERO PUSH2 0x478 JUMPI PUSH1 0x0 DUP1 REVERT JUMPDEST POP PUSH1 0x0 PUSH2 0x301 JUMP JUMPDEST CALLVALUE DUP1 ISZERO PUSH2 0x48C JUMPI PUSH1 0x0 DUP1 REVERT JUMPDEST POP PUSH2 0x14F PUSH2 0x49B CALLDATASIZE PUSH1 0x4 PUSH2 0x1087 JUMP JUMPDEST PUSH2 0xA8C JUMP JUMPDEST PUSH1 0x0 SLOAD PUSH1 0x1 PUSH1 0x1 PUSH1 0xA0 SHL SUB AND CALLER EQ PUSH2 0x4D3 JUMPI PUSH1 0x40 MLOAD PUSH3 0x461BCD PUSH1 0xE5 SHL DUP2 MSTORE PUSH1 0x4 ADD PUSH2 0x4CA SWAP1 PUSH2 0x10A4 JUMP JUMPDEST PUSH1 0x40 MLOAD DUP1 SWAP2 SUB SWAP1 REVERT JUMPDEST PUSH1 0x4 DUP1 SLOAD PUSH1 0xFF NOT AND SWAP1 SSTORE PUSH1 0x40 MLOAD PUSH32 0x4A4C785FE1C9642309071A07AC280989CD10624630E14194D12672C8F0FE661F SWAP1 PUSH1 0x0 SWAP1 LOG1 JUMP JUMPDEST PUSH1 0x0 DUP1 PUSH1 0x0 DUP1 PUSH1 0x1 SLOAD GT PUSH2 0x552 JUMPI PUSH1 0x40 MLOAD PUSH3 0x461BCD PUSH1 0xE5 SHL DUP2 MSTORE PUSH1 0x20 PUSH1 0x4 DUP3 ADD MSTORE PUSH1 0x11 PUSH1 0x24 DUP3 ADD MSTORE PUSH17 0x4E6F206461746120617661696C61626C65 PUSH1 0x78 SHL PUSH1 0x44 DUP3 ADD MSTORE PUSH1 0x64 ADD PUSH2 0x4CA JUMP JUMPDEST POP POP PUSH1 0x1 SLOAD PUSH1 0x2 SLOAD SWAP1 SWAP3 PUSH1 0x6 SWAP3 POP PUSH1 0x1 PUSH1 0x1 PUSH1 0x40 SHL SUB SWAP1 SWAP2 AND SWAP1 JUMP JUMPDEST PUSH1 0x0 SLOAD PUSH1 0x1 PUSH1 0x1 PUSH1 0xA0 SHL SUB AND CALLER EQ PUSH2 0x598 JUMPI PUSH1 0x40 MLOAD PUSH3 0x461BCD PUSH1 0xE5 SHL DUP2 MSTORE PUSH1 0x4 ADD PUSH2 0x4CA SWAP1 PUSH2 0x10A4 JUMP JUMPDEST PUSH1 0x4 DUP1 SLOAD PUSH1 0xFF NOT AND PUSH1 0x1 OR SWAP1 SSTORE PUSH1 0x40 MLOAD PUSH32 0x24B779DA341973449740A5C61843C5DD3FCFAF5B667A7B67EDCDA18B45BEBA69 SWAP1 PUSH1 0x0 SWAP1 LOG1 JUMP JUMPDEST PUSH1 0x40 DUP1 MLOAD PUSH2 0x140 DUP2 ADD DUP3 MSTORE PUSH1 0x0 DUP1 DUP3 MSTORE PUSH1 0x20 DUP3 ADD DUP2 SWAP1 MSTORE SWAP2 DUP2 ADD DUP3 SWAP1 MSTORE PUSH1 0x60 DUP2 ADD DUP3 SWAP1 MSTORE PUSH1 0x80 DUP2 ADD DUP3 SWAP1 MSTORE PUSH1 0xA0 DUP2 ADD DUP3 SWAP1 MSTORE PUSH1 0xC0 DUP2 ADD DUP3 SWAP1 MSTORE PUSH1 0xE0 DUP2 ADD DUP3 SWAP1 MSTORE PUSH2 0x100 DUP2 ADD DUP3 SWAP1 MSTORE PUSH2 0x120 DUP2 ADD SWAP2 SWAP1 SWAP2 MSTORE PUSH1 0x40 DUP1 MLOAD PUSH2 0x140 DUP2 ADD DUP3 MSTORE PUSH11 0xFFFFFFFFFFFFFFFFFFFFFF NOT PUSH32 0x0 AND DUP2 MSTORE PUSH1 0x1 SLOAD PUSH1 0x20 DUP3 ADD MSTORE PUSH1 0x6 SWAP2 DUP2 ADD DUP3 SWAP1 MSTORE PUSH1 0x2 SLOAD PUSH1 0x1 PUSH1 0x1 PUSH1 0x40 SHL SUB AND PUSH1 0x60 DUP3 ADD MSTORE PUSH1 0x3 SLOAD PUSH1 0x80 DUP3 ADD MSTORE PUSH1 0x1 PUSH1 0x1 PUSH1 0xA0 SHL SUB PUSH32 0x0 DUP2 AND PUSH1 0xA0 DUP4 ADD MSTORE PUSH32 0x0 AND PUSH1 0xC0 DUP3 ADD MSTORE PUSH1 0x4 SLOAD PUSH1 0xFF AND ISZERO ISZERO PUSH1 0xE0 DUP3 ADD MSTORE SWAP1 SLOAD PUSH2 0x100 DUP3 ADD SWAP1 PUSH2 0x6FD JUMPI PUSH1 0x0 PUSH2 0x70D JUMP JUMPDEST PUSH1 0x6 SLOAD PUSH1 0x5 SLOAD PUSH2 0x70D SWAP2 SWAP1 PUSH2 0x10DD JUMP JUMPDEST DUP2 MSTORE PUSH1 0x20 ADD PUSH1 0x6 SLOAD DUP2 MSTORE POP SWAP1 POP SWAP1 JUMP JUMPDEST PUSH1 0x0 DUP1 PUSH1 0x1 SLOAD GT PUSH2 0x764 JUMPI PUSH1 0x40 MLOAD PUSH3 0x461BCD PUSH1 0xE5 SHL DUP2 MSTORE PUSH1 0x20 PUSH1 0x4 DUP3 ADD MSTORE PUSH1 0x11 PUSH1 0x24 DUP3 ADD MSTORE PUSH17 0x4E6F206461746120617661696C61626C65 PUSH1 0x78 SHL PUSH1 0x44 DUP3 ADD MSTORE PUSH1 0x64 ADD PUSH2 0x4CA JUMP JUMPDEST POP PUSH1 0x1 SLOAD SWAP1 JUMP JUMPDEST PUSH1 0x4 SLOAD PUSH1 0xFF AND PUSH2 0x7AE JUMPI PUSH1 0x40 MLOAD PUSH3 0x461BCD PUSH1 0xE5 SHL DUP2 MSTORE PUSH1 0x20 PUSH1 0x4 DUP3 ADD MSTORE PUSH1 0xE PUSH1 0x24 DUP3 ADD MSTORE PUSH14 0x155C19185D195CC81C185D5CD959 PUSH1 0x92 SHL PUSH1 0x44 DUP3 ADD MSTORE PUSH1 0x64 ADD PUSH2 0x4CA JUMP JUMPDEST PUSH1 0x0 GAS PUSH1 0x40 MLOAD PUSH4 0x58FBE9E1 PUSH1 0xE0 SHL DUP2 MSTORE SWAP1 SWAP2 POP PUSH1 0x1 PUSH1 0x1 PUSH1 0xA0 SHL SUB PUSH32 0x0 AND SWAP1 PUSH4 0x58FBE9E1 SWAP1 PUSH2 0x800 SWAP1 DUP6 SWAP1 PUSH1 0x4 ADD PUSH2 0x145A JUMP JUMPDEST PUSH1 0x20 PUSH1 0x40 MLOAD DUP1 DUP4 SUB DUP2 DUP7 GAS STATICCALL ISZERO DUP1 ISZERO PUSH2 0x81D JUMPI RETURNDATASIZE PUSH1 0x0 DUP1 RETURNDATACOPY RETURNDATASIZE PUSH1 0x0 REVERT JUMPDEST POP POP POP POP PUSH1 0x40 MLOAD RETURNDATASIZE PUSH1 0x1F NOT PUSH1 0x1F DUP3 ADD AND DUP3 ADD DUP1 PUSH1 0x40 MSTORE POP DUP2 ADD SWAP1 PUSH2 0x841 SWAP2 SWAP1 PUSH2 0x15C4 JUMP JUMPDEST PUSH2 0x881 JUMPI PUSH1 0x40 MLOAD PUSH3 0x461BCD PUSH1 0xE5 SHL DUP2 MSTORE PUSH1 0x20 PUSH1 0x4 DUP3 ADD MSTORE PUSH1 0x11 PUSH1 0x24 DUP3 ADD MSTORE PUSH17 0x24B73B30B634B21023222190383937B7B3 PUSH1 0x79 SHL PUSH1 0x44 DUP3 ADD MSTORE PUSH1 0x64 ADD PUSH2 0x4CA JUMP JUMPDEST PUSH1 0x0 PUSH2 0x890 PUSH1 0x20 DUP5 ADD DUP5 PUSH2 0x15E1 JUMP JUMPDEST PUSH2 0x899 SWAP1 PUSH2 0x1A81 JUMP JUMPDEST SWAP1 POP PUSH32 0x0 PUSH1 0x1 PUSH1 0x1 PUSH1 0xA0 SHL SUB AND DUP2 PUSH1 0xA0 ADD MLOAD PUSH1 0x80 ADD MLOAD PUSH1 0x1 PUSH1 0x1 PUSH1 0xA0 SHL SUB AND EQ PUSH2 0x91D JUMPI PUSH1 0x40 MLOAD PUSH3 0x461BCD PUSH1 0xE5 SHL DUP2 MSTORE PUSH1 0x20 PUSH1 0x4 DUP3 ADD MSTORE PUSH1 0x16 PUSH1 0x24 DUP3 ADD MSTORE PUSH22 0x57726F6E6720636F6E74726163742061646472657373 PUSH1 0x50 SHL PUSH1 0x44 DUP3 ADD MSTORE PUSH1 0x64 ADD PUSH2 0x4CA JUMP JUMPDEST DUP1 PUSH1 0xA0 ADD MLOAD PUSH1 0xE0 ADD MLOAD PUSH1 0xFF AND PUSH1 0x1 EQ PUSH2 0x96D JUMPI PUSH1 0x40 MLOAD PUSH3 0x461BCD PUSH1 0xE5 SHL DUP2 MSTORE PUSH1 0x20 PUSH1 0x4 DUP3 ADD MSTORE PUSH1 0x12 PUSH1 0x24 DUP3 ADD MSTORE PUSH18 0x151C985B9CD858DD1A5BDB8819985A5B1959 PUSH1 0x72 SHL PUSH1 0x44 DUP3 ADD MSTORE PUSH1 0x64 ADD PUSH2 0x4CA JUMP JUMPDEST PUSH1 0x0 DUP1 PUSH2 0x982 DUP4 PUSH1 0xA0 ADD MLOAD PUSH2 0x100 ADD MLOAD PUSH2 0xB4E JUMP JUMPDEST PUSH1 0x1 DUP3 SWAP1 SSTORE PUSH1 0x2 DUP1 SLOAD PUSH8 0xFFFFFFFFFFFFFFFF NOT AND PUSH1 0x1 PUSH1 0x1 PUSH1 0x40 SHL SUB DUP4 AND OR SWAP1 SSTORE PUSH1 0x3 DUP1 SLOAD SWAP3 SWAP5 POP SWAP1 SWAP3 POP PUSH1 0x0 PUSH2 0x9B8 DUP4 PUSH2 0x1B23 JUMP JUMPDEST SWAP2 SWAP1 POP SSTORE POP PUSH1 0x0 GAS PUSH2 0x9CA SWAP1 DUP7 PUSH2 0x1B3C JUMP JUMPDEST SWAP1 POP DUP1 PUSH1 0x5 PUSH1 0x0 DUP3 DUP3 SLOAD PUSH2 0x9DE SWAP2 SWAP1 PUSH2 0x1B55 JUMP JUMPDEST SWAP1 SWAP2 SSTORE POP POP PUSH1 0x6 DUP1 SLOAD SWAP1 PUSH1 0x0 PUSH2 0x9F3 DUP4 PUSH2 0x1B23 JUMP JUMPDEST SWAP1 SWAP2 SSTORE POP POP PUSH1 0x40 DUP1 MLOAD PUSH1 0x1 PUSH1 0x1 PUSH1 0x40 SHL SUB DUP5 AND DUP2 MSTORE NUMBER PUSH1 0x20 DUP3 ADD MSTORE CALLER SWAP2 DUP6 SWAP2 PUSH32 0xCBB0A1964FDED1543E1FC229A1BEA0552BB873219986500CF7EA9D1A4506D736 SWAP2 ADD PUSH1 0x40 MLOAD DUP1 SWAP2 SUB SWAP1 LOG3 PUSH1 0x80 DUP5 ADD MLOAD MLOAD PUSH1 0x40 DUP1 MLOAD DUP6 DUP2 MSTORE PUSH1 0x1 PUSH1 0x1 PUSH1 0x40 SHL SUB DUP6 AND PUSH1 0x20 DUP3 ADD MSTORE PUSH32 0x20AAFBDB02EDECF8B1E8547D36A18BFA617D137F7556777A48B28D206BD6D4D4 SWAP2 ADD PUSH1 0x40 MLOAD DUP1 SWAP2 SUB SWAP1 LOG2 POP POP POP POP POP POP JUMP JUMPDEST PUSH1 0x0 SLOAD PUSH1 0x1 PUSH1 0x1 PUSH1 0xA0 SHL SUB AND CALLER EQ PUSH2 0xAB6 JUMPI PUSH1 0x40 MLOAD PUSH3 0x461BCD PUSH1 0xE5 SHL DUP2 MSTORE PUSH1 0x4 ADD PUSH2 0x4CA SWAP1 PUSH2 0x10A4 JUMP JUMPDEST PUSH1 0x1 PUSH1 0x1 PUSH1 0xA0 SHL SUB DUP2 AND PUSH2 0xAFE JUMPI PUSH1 0x40 MLOAD PUSH3 0x461BCD PUSH1 0xE5 SHL DUP2 MSTORE PUSH1 0x20 PUSH1 0x4 DUP3 ADD MSTORE PUSH1 0xF PUSH1 0x24 DUP3 ADD MSTORE PUSH15 0x496E76616C69642061646472657373 PUSH1 0x88 SHL PUSH1 0x44 DUP3 ADD MSTORE PUSH1 0x64 ADD PUSH2 0x4CA JUMP JUMPDEST PUSH1 0x0 DUP1 SLOAD PUSH1 0x1 PUSH1 0x1 PUSH1 0xA0 SHL SUB DUP4 DUP2 AND PUSH1 0x1 PUSH1 0x1 PUSH1 0xA0 SHL SUB NOT DUP4 AND DUP2 OR DUP5 SSTORE PUSH1 0x40 MLOAD SWAP2 SWAP1 SWAP3 AND SWAP3 DUP4 SWAP2 PUSH32 0x8BE0079C531659141344CD1FD0A4F28419497F9722A3DAAFE3B4186F6B6457E0 SWAP2 SWAP1 LOG3 POP POP JUMP JUMPDEST PUSH1 0x0 DUP1 PUSH1 0x0 DUP1 JUMPDEST DUP5 MLOAD DUP2 LT ISZERO PUSH2 0xCFC JUMPI PUSH1 0x0 DUP6 DUP3 DUP2 MLOAD DUP2 LT PUSH2 0xB72 JUMPI PUSH2 0xB72 PUSH2 0x1B68 JUMP JUMPDEST PUSH1 0x20 MUL PUSH1 0x20 ADD ADD MLOAD SWAP1 POP PUSH32 0x0 PUSH1 0x1 PUSH1 0x1 PUSH1 0xA0 SHL SUB AND DUP2 PUSH1 0x20 ADD MLOAD PUSH1 0x1 PUSH1 0x1 PUSH1 0xA0 SHL SUB AND EQ PUSH2 0xBBF JUMPI POP PUSH2 0xCEA JUMP JUMPDEST PUSH1 0x0 DUP2 PUSH1 0x40 ADD MLOAD MLOAD GT DUP1 ISZERO PUSH2 0xC11 JUMPI POP PUSH32 0x17440AB048FE6C6CBD98DC862B13C09A99713AC93C0D806C9B2A2A384787935E DUP2 PUSH1 0x40 ADD MLOAD PUSH1 0x0 DUP2 MLOAD DUP2 LT PUSH2 0xC07 JUMPI PUSH2 0xC07 PUSH2 0x1B68 JUMP JUMPDEST PUSH1 0x20 MUL PUSH1 0x20 ADD ADD MLOAD EQ JUMPDEST ISZERO PUSH2 0xCE8 JUMPI PUSH1 0x0 DUP2 PUSH1 0x40 ADD MLOAD PUSH1 0x1 DUP2 MLOAD DUP2 LT PUSH2 0xC2F JUMPI PUSH2 0xC2F PUSH2 0x1B68 JUMP JUMPDEST PUSH1 0x20 MUL PUSH1 0x20 ADD ADD MLOAD PUSH1 0x0 SHR SWAP1 POP PUSH32 0x0 PUSH1 0x1 PUSH1 0x1 PUSH1 0xA0 SHL SUB AND DUP2 PUSH1 0x1 PUSH1 0x1 PUSH1 0xA0 SHL SUB AND EQ PUSH2 0xCAA JUMPI PUSH1 0x40 MLOAD PUSH3 0x461BCD PUSH1 0xE5 SHL DUP2 MSTORE PUSH1 0x20 PUSH1 0x4 DUP3 ADD MSTORE PUSH1 0xA PUSH1 0x24 DUP3 ADD MSTORE PUSH10 0x15DC9BDB99C81C1BDBDB PUSH1 0xB2 SHL PUSH1 0x44 DUP3 ADD MSTORE PUSH1 0x64 ADD PUSH2 0x4CA JUMP JUMPDEST PUSH1 0x0 DUP1 DUP4 PUSH1 0x60 ADD MLOAD DUP1 PUSH1 0x20 ADD SWAP1 MLOAD DUP2 ADD SWAP1 PUSH2 0xCC5 SWAP2 SWAP1 PUSH2 0x1B7E JUMP JUMPDEST POP SWAP6 POP POP POP POP POP SWAP2 POP PUSH2 0xCD7 DUP3 PUSH2 0xD50 JUMP JUMPDEST SWAP8 POP SWAP6 POP PUSH1 0x1 SWAP5 POP PUSH2 0xCFC SWAP3 POP POP POP JUMP JUMPDEST POP JUMPDEST DUP1 PUSH2 0xCF4 DUP2 PUSH2 0x1B23 JUMP JUMPDEST SWAP2 POP POP PUSH2 0xB55 JUMP JUMPDEST POP DUP1 PUSH2 0xD4A JUMPI PUSH1 0x40 MLOAD PUSH3 0x461BCD PUSH1 0xE5 SHL DUP2 MSTORE PUSH1 0x20 PUSH1 0x4 DUP3 ADD MSTORE PUSH1 0x1D PUSH1 0x24 DUP3 ADD MSTORE PUSH32 0x50726963655265636F72646564206576656E74206E6F7420666F756E64000000 PUSH1 0x44 DUP3 ADD MSTORE PUSH1 0x64 ADD PUSH2 0x4CA JUMP JUMPDEST POP SWAP2 POP SWAP2 JUMP JUMPDEST PUSH1 0x0 PUSH1 0x1 PUSH1 0x60 SHL PUSH1 0x1 PUSH1 0x1 PUSH1 0xA0 SHL SUB DUP4 AND DUP3 DUP1 PUSH1 0x1 PUSH1 0x80 SHL DUP4 GT ISZERO PUSH2 0xD9A JUMPI PUSH1 0x0 PUSH2 0xD7F PUSH1 0x1 PUSH1 0x40 SHL DUP6 PUSH2 0x10DD JUMP JUMPDEST SWAP1 POP PUSH2 0xD8B DUP2 DUP1 PUSH2 0x1C19 JUMP JUMPDEST SWAP3 POP PUSH1 0x1 PUSH1 0x40 SHL SWAP2 POP POP PUSH2 0xDB3 JUMP JUMPDEST PUSH2 0xDA4 DUP4 DUP1 PUSH2 0x1C19 JUMP JUMPDEST SWAP2 POP PUSH2 0xDB0 DUP5 DUP1 PUSH2 0x1C19 JUMP JUMPDEST SWAP1 POP JUMPDEST PUSH1 0x0 PUSH2 0xE05 PUSH1 0xFF PUSH32 0x0 DUP2 AND SWAP1 PUSH32 0x0 AND PUSH2 0x1C30 JUMP JUMPDEST SWAP1 POP PUSH1 0x0 DUP1 DUP3 SLT PUSH2 0xE37 JUMPI PUSH2 0xE1B DUP3 PUSH1 0x6 PUSH2 0x1B55 JUMP JUMPDEST PUSH2 0xE26 SWAP1 PUSH1 0xA PUSH2 0x1D3B JUMP JUMPDEST PUSH2 0xE30 SWAP1 DUP6 PUSH2 0x1C19 JUMP JUMPDEST SWAP1 POP PUSH2 0xE67 JUMP JUMPDEST PUSH2 0xE44 DUP5 PUSH3 0xF4240 PUSH2 0x1C19 JUMP JUMPDEST SWAP1 POP PUSH2 0xE4F DUP3 PUSH2 0x1D47 JUMP JUMPDEST PUSH2 0xE5A SWAP1 PUSH1 0xA PUSH2 0x1D3B JUMP JUMPDEST PUSH2 0xE64 SWAP1 DUP5 PUSH2 0x1C19 JUMP JUMPDEST SWAP3 POP JUMPDEST PUSH1 0x0 PUSH2 0xE73 DUP5 DUP4 PUSH2 0x10DD JUMP JUMPDEST SWAP1 POP PUSH32 0x0 DUP1 ISZERO PUSH2 0xEA2 JUMPI POP PUSH1 0x0 DUP2 GT JUMPDEST ISZERO PUSH2 0xEB9 JUMPI PUSH2 0xEB6 DUP2 PUSH5 0xE8D4A51000 PUSH2 0x10DD JUMP JUMPDEST SWAP1 POP JUMPDEST PUSH1 0x0 DUP2 GT PUSH2 0xF02 JUMPI PUSH1 0x40 MLOAD PUSH3 0x461BCD PUSH1 0xE5 SHL DUP2 MSTORE PUSH1 0x20 PUSH1 0x4 DUP3 ADD MSTORE PUSH1 0x16 PUSH1 0x24 DUP3 ADD MSTORE PUSH22 0x5072696365206D75737420626520706F736974697665 PUSH1 0x50 SHL PUSH1 0x44 DUP3 ADD MSTORE PUSH1 0x64 ADD PUSH2 0x4CA JUMP JUMPDEST PUSH1 0x1 PUSH1 0x1 PUSH1 0x80 SHL SUB DUP2 LT PUSH2 0xF50 JUMPI PUSH1 0x40 MLOAD PUSH3 0x461BCD PUSH1 0xE5 SHL DUP2 MSTORE PUSH1 0x20 PUSH1 0x4 DUP3 ADD MSTORE PUSH1 0x15 PUSH1 0x24 DUP3 ADD MSTORE PUSH21 0x50726963652065786365656473206D6178696D756D PUSH1 0x58 SHL PUSH1 0x44 DUP3 ADD MSTORE PUSH1 0x64 ADD PUSH2 0x4CA JUMP JUMPDEST SWAP9 SWAP8 POP POP POP POP POP POP POP POP JUMP JUMPDEST DUP2 MLOAD PUSH11 0xFFFFFFFFFFFFFFFFFFFFFF NOT AND DUP2 MSTORE PUSH2 0x140 DUP2 ADD PUSH1 0x20 DUP4 ADD MLOAD PUSH1 0x20 DUP4 ADD MSTORE PUSH1 0x40 DUP4 ADD MLOAD PUSH2 0xF91 PUSH1 0x40 DUP5 ADD DUP3 PUSH1 0x0 SIGNEXTEND SWAP1 MSTORE JUMP JUMPDEST POP PUSH1 0x60 DUP4 ADD MLOAD PUSH2 0xFAC PUSH1 0x60 DUP5 ADD DUP3 PUSH1 0x1 PUSH1 0x1 PUSH1 0x40 SHL SUB AND SWAP1 MSTORE JUMP JUMPDEST POP PUSH1 0x80 DUP4 ADD MLOAD PUSH1 0x80 DUP4 ADD MSTORE PUSH1 0xA0 DUP4 ADD MLOAD PUSH2 0xFD1 PUSH1 0xA0 DUP5 ADD DUP3 PUSH1 0x1 PUSH1 0x1 PUSH1 0xA0 SHL SUB AND SWAP1 MSTORE JUMP JUMPDEST POP PUSH1 0xC0 DUP4 ADD MLOAD PUSH2 0xFEC PUSH1 0xC0 DUP5 ADD DUP3 PUSH1 0x1 PUSH1 0x1 PUSH1 0xA0 SHL SUB AND SWAP1 MSTORE JUMP JUMPDEST POP PUSH1 0xE0 DUP4 ADD MLOAD PUSH2 0x1000 PUSH1 0xE0 DUP5 ADD DUP3 ISZERO ISZERO SWAP1 MSTORE JUMP JUMPDEST POP PUSH2 0x100 DUP4 DUP2 ADD MLOAD SWAP1 DUP4 ADD MSTORE PUSH2 0x120 SWAP3 DUP4 ADD MLOAD SWAP3 SWAP1 SWAP2 ADD SWAP2 SWAP1 SWAP2 MSTORE SWAP1 JUMP JUMPDEST PUSH1 0x0 PUSH1 0x20 DUP3 DUP5 SUB SLT ISZERO PUSH2 0x1030 JUMPI PUSH1 0x0 DUP1 REVERT JUMPDEST DUP2 CALLDATALOAD PUSH1 0x1 PUSH1 0x1 PUSH1 0x40 SHL SUB DUP2 GT ISZERO PUSH2 0x1046 JUMPI PUSH1 0x0 DUP1 REVERT JUMPDEST DUP3 ADD PUSH1 0x40 DUP2 DUP6 SUB SLT ISZERO PUSH2 0x1058 JUMPI PUSH1 0x0 DUP1 REVERT JUMPDEST SWAP4 SWAP3 POP POP POP JUMP JUMPDEST PUSH1 0x1 PUSH1 0x1 PUSH1 0xA0 SHL SUB DUP2 AND DUP2 EQ PUSH2 0x1074 JUMPI PUSH1 0x0 DUP1 REVERT JUMPDEST POP JUMP JUMPDEST DUP1 CALLDATALOAD PUSH2 0x1082 DUP2 PUSH2 0x105F JUMP JUMPDEST SWAP2 SWAP1 POP JUMP JUMPDEST PUSH1 0x0 PUSH1 0x20 DUP3 DUP5 SUB SLT ISZERO PUSH2 0x1099 JUMPI PUSH1 0x0 DUP1 REVERT JUMPDEST DUP2 CALLDATALOAD PUSH2 0x1058 DUP2 PUSH2 0x105F JUMP JUMPDEST PUSH1 0x20 DUP1 DUP3 MSTORE PUSH1 0x9 SWAP1 DUP3 ADD MSTORE PUSH9 0x2737BA1037BBB732B9 PUSH1 0xB9 SHL PUSH1 0x40 DUP3 ADD MSTORE PUSH1 0x60 ADD SWAP1 JUMP JUMPDEST PUSH4 0x4E487B71 PUSH1 0xE0 SHL PUSH1 0x0 MSTORE PUSH1 0x11 PUSH1 0x4 MSTORE PUSH1 0x24 PUSH1 0x0 REVERT JUMPDEST PUSH1 0x0 DUP3 PUSH2 0x10FA JUMPI PUSH4 0x4E487B71 PUSH1 0xE0 SHL PUSH1 0x0 MSTORE PUSH1 0x12 PUSH1 0x4 MSTORE PUSH1 0x24 PUSH1 0x0 REVERT JUMPDEST POP DIV SWAP1 JUMP JUMPDEST PUSH1 0x0 DUP1 DUP4 CALLDATALOAD PUSH1 0x1E NOT DUP5 CALLDATASIZE SUB ADD DUP2 SLT PUSH2 0x1116 JUMPI PUSH1 0x0 DUP1 REVERT JUMPDEST DUP4 ADD PUSH1 0x20 DUP2 ADD SWAP3 POP CALLDATALOAD SWAP1 POP PUSH1 0x1 PUSH1 0x1 PUSH1 0x40 SHL SUB DUP2 GT ISZERO PUSH2 0x1135 JUMPI PUSH1 0x0 DUP1 REVERT JUMPDEST DUP1 PUSH1 0x5 SHL CALLDATASIZE SUB DUP3 SGT ISZERO PUSH2 0x1147 JUMPI PUSH1 0x0 DUP1 REVERT JUMPDEST SWAP3 POP SWAP3 SWAP1 POP JUMP JUMPDEST DUP2 DUP4 MSTORE PUSH1 0x0 PUSH1 0x1 PUSH1 0x1 PUSH1 0xFB SHL SUB DUP4 GT ISZERO PUSH2 0x1167 JUMPI PUSH1 0x0 DUP1 REVERT JUMPDEST DUP3 PUSH1 0x5 SHL DUP1 DUP4 PUSH1 0x20 DUP8 ADD CALLDATACOPY SWAP4 SWAP1 SWAP4 ADD PUSH1 0x20 ADD SWAP4 SWAP3 POP POP POP JUMP JUMPDEST DUP1 CALLDATALOAD PUSH1 0x1 PUSH1 0x1 PUSH1 0x40 SHL SUB DUP2 AND DUP2 EQ PUSH2 0x1082 JUMPI PUSH1 0x0 DUP1 REVERT JUMPDEST PUSH1 0x0 DUP3 CALLDATALOAD PUSH1 0x9E NOT DUP4 CALLDATASIZE SUB ADD DUP2 SLT PUSH2 0x11AD JUMPI PUSH1 0x0 DUP1 REVERT JUMPDEST SWAP1 SWAP2 ADD SWAP3 SWAP2 POP POP JUMP JUMPDEST DUP1 CALLDATALOAD PUSH2 0xFFFF DUP2 AND DUP2 EQ PUSH2 0x1082 JUMPI PUSH1 0x0 DUP1 REVERT JUMPDEST DUP1 ISZERO ISZERO DUP2 EQ PUSH2 0x1074 JUMPI PUSH1 0x0 DUP1 REVERT JUMPDEST DUP1 CALLDATALOAD PUSH2 0x1082 DUP2 PUSH2 0x11C8 JUMP JUMPDEST DUP1 CALLDATALOAD PUSH4 0xFFFFFFFF DUP2 AND DUP2 EQ PUSH2 0x1082 JUMPI PUSH1 0x0 DUP1 REVERT JUMPDEST PUSH1 0x0 DUP3 CALLDATALOAD PUSH2 0x11E NOT DUP4 CALLDATASIZE SUB ADD DUP2 SLT PUSH2 0x11AD JUMPI PUSH1 0x0 DUP1 REVERT JUMPDEST PUSH1 0x0 DUP1 DUP4 CALLDATALOAD PUSH1 0x1E NOT DUP5 CALLDATASIZE SUB ADD DUP2 SLT PUSH2 0x1223 JUMPI PUSH1 0x0 DUP1 REVERT JUMPDEST DUP4 ADD PUSH1 0x20 DUP2 ADD SWAP3 POP CALLDATALOAD SWAP1 POP PUSH1 0x1 PUSH1 0x1 PUSH1 0x40 SHL SUB DUP2 GT ISZERO PUSH2 0x1242 JUMPI PUSH1 0x0 DUP1 REVERT JUMPDEST DUP1 CALLDATASIZE SUB DUP3 SGT ISZERO PUSH2 0x1147 JUMPI PUSH1 0x0 DUP1 REVERT JUMPDEST DUP2 DUP4 MSTORE DUP2 DUP2 PUSH1 0x20 DUP6 ADD CALLDATACOPY POP PUSH1 0x0 DUP3 DUP3 ADD PUSH1 0x20 SWAP1 DUP2 ADD SWAP2 SWAP1 SWAP2 MSTORE PUSH1 0x1F SWAP1 SWAP2 ADD PUSH1 0x1F NOT AND SWAP1 SWAP2 ADD ADD SWAP1 JUMP JUMPDEST DUP1 CALLDATALOAD PUSH1 0xFF DUP2 AND DUP2 EQ PUSH2 0x1082 JUMPI PUSH1 0x0 DUP1 REVERT JUMPDEST DUP2 DUP4 MSTORE PUSH1 0x0 PUSH1 0x20 DUP1 DUP6 ADD DUP1 DUP2 SWAP7 POP DUP6 PUSH1 0x5 SHL DUP2 ADD SWAP2 POP DUP5 PUSH1 0x0 JUMPDEST DUP8 DUP2 LT ISZERO PUSH2 0x135F JUMPI DUP3 DUP5 SUB DUP10 MSTORE PUSH2 0x12BC DUP3 DUP9 PUSH2 0x1197 JUMP JUMPDEST PUSH1 0xA0 PUSH4 0xFFFFFFFF PUSH2 0x12CC DUP4 PUSH2 0x11E1 JUMP JUMPDEST AND DUP7 MSTORE DUP7 DUP3 ADD CALLDATALOAD PUSH2 0x12DC DUP2 PUSH2 0x105F JUMP JUMPDEST PUSH1 0x1 PUSH1 0x1 PUSH1 0xA0 SHL SUB AND DUP7 DUP9 ADD MSTORE PUSH1 0x40 PUSH2 0x12F7 DUP4 DUP3 ADD DUP5 PUSH2 0x10FF JUMP JUMPDEST DUP4 DUP4 DUP11 ADD MSTORE PUSH2 0x1309 DUP5 DUP11 ADD DUP3 DUP5 PUSH2 0x114E JUMP JUMPDEST SWAP4 POP POP POP POP PUSH1 0x60 PUSH2 0x131C DUP2 DUP5 ADD DUP5 PUSH2 0x120C JUMP JUMPDEST DUP9 DUP5 SUB DUP4 DUP11 ADD MSTORE PUSH2 0x132E DUP5 DUP3 DUP5 PUSH2 0x1251 JUMP JUMPDEST SWAP4 POP POP POP POP PUSH1 0x80 DUP1 DUP4 ADD CALLDATALOAD SWAP3 POP PUSH2 0x1344 DUP4 PUSH2 0x11C8 JUMP JUMPDEST SWAP2 ISZERO ISZERO SWAP6 SWAP1 SWAP2 ADD SWAP5 SWAP1 SWAP5 MSTORE SWAP8 DUP5 ADD SWAP8 SWAP1 DUP5 ADD SWAP1 PUSH1 0x1 ADD PUSH2 0x12A5 JUMP JUMPDEST POP SWAP2 SWAP8 SWAP7 POP POP POP POP POP POP POP JUMP JUMPDEST PUSH1 0x0 PUSH2 0x120 PUSH2 0x138B DUP5 PUSH2 0x137E DUP6 PUSH2 0x1180 JUMP JUMPDEST PUSH1 0x1 PUSH1 0x1 PUSH1 0x40 SHL SUB AND SWAP1 MSTORE JUMP JUMPDEST PUSH2 0x1397 PUSH1 0x20 DUP5 ADD PUSH2 0x1180 JUMP JUMPDEST PUSH1 0x1 PUSH1 0x1 PUSH1 0x40 SHL SUB AND PUSH1 0x20 DUP6 ADD MSTORE PUSH2 0x13B1 PUSH1 0x40 DUP5 ADD PUSH2 0x1077 JUMP JUMPDEST PUSH1 0x1 PUSH1 0x1 PUSH1 0xA0 SHL SUB AND PUSH1 0x40 DUP6 ADD MSTORE PUSH2 0x13CB PUSH1 0x60 DUP5 ADD PUSH2 0x11D6 JUMP JUMPDEST ISZERO ISZERO PUSH1 0x60 DUP6 ADD MSTORE PUSH2 0x13DE PUSH1 0x80 DUP5 ADD PUSH2 0x1077 JUMP JUMPDEST PUSH1 0x1 PUSH1 0x1 PUSH1 0xA0 SHL SUB AND PUSH1 0x80 DUP6 ADD MSTORE PUSH1 0xA0 DUP4 DUP2 ADD CALLDATALOAD SWAP1 DUP6 ADD MSTORE PUSH2 0x1403 PUSH1 0xC0 DUP5 ADD DUP5 PUSH2 0x120C JUMP JUMPDEST DUP3 PUSH1 0xC0 DUP8 ADD MSTORE PUSH2 0x1416 DUP4 DUP8 ADD DUP3 DUP5 PUSH2 0x1251 JUMP JUMPDEST SWAP3 POP POP POP PUSH2 0x1426 PUSH1 0xE0 DUP5 ADD PUSH2 0x127A JUMP JUMPDEST PUSH1 0xFF AND PUSH1 0xE0 DUP6 ADD MSTORE PUSH2 0x100 PUSH2 0x143D DUP5 DUP3 ADD DUP6 PUSH2 0x10FF JUMP JUMPDEST DUP7 DUP5 SUB DUP4 DUP9 ADD MSTORE PUSH2 0x144F DUP5 DUP3 DUP5 PUSH2 0x128B JUMP JUMPDEST SWAP8 SWAP7 POP POP POP POP POP POP POP JUMP JUMPDEST PUSH1 0x0 PUSH1 0x20 DUP1 DUP4 MSTORE PUSH2 0x146B DUP5 DUP6 PUSH2 0x10FF JUMP JUMPDEST PUSH1 0x40 DUP4 DUP7 ADD MSTORE PUSH2 0x147F PUSH1 0x60 DUP7 ADD DUP3 DUP5 PUSH2 0x114E JUMP JUMPDEST SWAP2 POP POP DUP2 DUP6 ADD CALLDATALOAD PUSH1 0xBE NOT DUP7 CALLDATASIZE SUB ADD DUP2 SLT PUSH2 0x1498 JUMPI PUSH1 0x0 DUP1 REVERT JUMPDEST DUP6 DUP2 ADD SWAP1 POP PUSH1 0x1F NOT DUP6 DUP4 SUB ADD PUSH1 0x40 DUP7 ADD MSTORE DUP1 CALLDATALOAD DUP3 MSTORE DUP3 DUP2 ADD CALLDATALOAD DUP4 DUP4 ADD MSTORE PUSH2 0x14C1 PUSH1 0x40 DUP3 ADD PUSH2 0x1180 JUMP JUMPDEST PUSH1 0x1 PUSH1 0x1 PUSH1 0x40 SHL SUB DUP1 DUP3 AND PUSH1 0x40 DUP6 ADD MSTORE DUP1 PUSH2 0x14DE PUSH1 0x60 DUP6 ADD PUSH2 0x1180 JUMP JUMPDEST AND PUSH1 0x60 DUP6 ADD MSTORE POP POP PUSH2 0x14F3 PUSH1 0x80 DUP3 ADD DUP3 PUSH2 0x1197 JUMP JUMPDEST PUSH1 0xC0 PUSH1 0x80 DUP5 ADD MSTORE PUSH2 0x160 DUP4 ADD DUP2 CALLDATALOAD PUSH1 0xC0 DUP6 ADD MSTORE PUSH2 0xFFFF PUSH2 0x1514 DUP7 DUP5 ADD PUSH2 0x11B6 JUMP JUMPDEST AND PUSH1 0xE0 DUP6 ADD MSTORE PUSH1 0x40 DUP3 ADD CALLDATALOAD PUSH2 0x1528 DUP2 PUSH2 0x11C8 JUMP JUMPDEST ISZERO ISZERO PUSH2 0x100 DUP6 ADD MSTORE PUSH1 0x60 DUP3 ADD CALLDATALOAD PUSH2 0x153E DUP2 PUSH2 0x11C8 JUMP JUMPDEST ISZERO ISZERO PUSH2 0x120 DUP6 ADD MSTORE PUSH2 0x1553 PUSH1 0x80 DUP4 ADD DUP4 PUSH2 0x10FF JUMP JUMPDEST PUSH1 0xA0 PUSH2 0x140 DUP8 ADD MSTORE SWAP2 DUP3 SWAP1 MSTORE SWAP1 SWAP2 POP PUSH1 0x0 PUSH2 0x180 DUP6 ADD JUMPDEST DUP4 DUP3 LT ISZERO PUSH2 0x1595 JUMPI PUSH4 0xFFFFFFFF PUSH2 0x1580 DUP5 PUSH2 0x11E1 JUMP JUMPDEST AND DUP2 MSTORE SWAP2 DUP7 ADD SWAP2 PUSH1 0x1 SWAP2 SWAP1 SWAP2 ADD SWAP1 DUP7 ADD PUSH2 0x156A JUMP JUMPDEST PUSH2 0x15A2 PUSH1 0xA0 DUP7 ADD DUP7 PUSH2 0x11F5 JUMP JUMPDEST SWAP7 POP DUP6 DUP2 SUB PUSH1 0xA0 DUP8 ADD MSTORE PUSH2 0x15B6 DUP2 DUP9 PUSH2 0x136C JUMP JUMPDEST SWAP11 SWAP10 POP POP POP POP POP POP POP POP POP POP JUMP JUMPDEST PUSH1 0x0 PUSH1 0x20 DUP3 DUP5 SUB SLT ISZERO PUSH2 0x15D6 JUMPI PUSH1 0x0 DUP1 REVERT JUMPDEST DUP2 MLOAD PUSH2 0x1058 DUP2 PUSH2 0x11C8 JUMP JUMPDEST PUSH1 0x0 DUP3 CALLDATALOAD PUSH1 0xBE NOT DUP4 CALLDATASIZE SUB ADD DUP2 SLT PUSH2 0x15F7 JUMPI PUSH1 0x0 DUP1 REVERT JUMPDEST SWAP2 SWAP1 SWAP2 ADD SWAP3 SWAP2 POP POP JUMP JUMPDEST PUSH4 0x4E487B71 PUSH1 0xE0 SHL PUSH1 0x0 MSTORE PUSH1 0x41 PUSH1 0x4 MSTORE PUSH1 0x24 PUSH1 0x0 REVERT JUMPDEST PUSH1 0x40 MLOAD PUSH1 0xA0 DUP2 ADD PUSH1 0x1 PUSH1 0x1 PUSH1 0x40 SHL SUB DUP2 GT DUP3 DUP3 LT OR ISZERO PUSH2 0x1639 JUMPI PUSH2 0x1639 PUSH2 0x1601 JUMP JUMPDEST PUSH1 0x40 MSTORE SWAP1 JUMP JUMPDEST PUSH1 0x40 MLOAD PUSH2 0x120 DUP2 ADD PUSH1 0x1 PUSH1 0x1 PUSH1 0x40 SHL SUB DUP2 GT DUP3 DUP3 LT OR ISZERO PUSH2 0x1639 JUMPI PUSH2 0x1639 PUSH2 0x1601 JUMP JUMPDEST PUSH1 0x40 MLOAD PUSH1 0xC0 DUP2 ADD PUSH1 0x1 PUSH1 0x1 PUSH1 0x40 SHL SUB DUP2 GT DUP3 DUP3 LT OR ISZERO PUSH2 0x1639 JUMPI PUSH2 0x1639 PUSH2 0x1601 JUMP JUMPDEST PUSH1 0x40 MLOAD PUSH1 0x1F DUP3 ADD PUSH1 0x1F NOT AND DUP2 ADD PUSH1 0x1 PUSH1 0x1 PUSH1 0x40 SHL SUB DUP2 GT DUP3 DUP3 LT OR ISZERO PUSH2 0x16AC JUMPI PUSH2 0x16AC PUSH2 0x1601 JUMP JUMPDEST PUSH1 0x40 MSTORE SWAP2 SWAP1 POP JUMP JUMPDEST PUSH1 0x0 PUSH1 0x1 PUSH1 0x1 PUSH1 0x40 SHL SUB DUP3 GT ISZERO PUSH2 0x16CD JUMPI PUSH2 0x16CD PUSH2 0x1601 JUMP JUMPDEST POP PUSH1 0x5 SHL PUSH1 0x20 ADD SWAP1 JUMP JUMPDEST PUSH1 0x0 PUSH1 0xA0 DUP3 DUP5 SUB SLT ISZERO PUSH2 0x16E9 JUMPI PUSH1 0x0 DUP1 REVERT JUMPDEST PUSH2 0x16F1 PUSH2 0x1617 JUMP JUMPDEST SWAP1 POP DUP2 CALLDATALOAD DUP2 MSTORE PUSH1 0x20 PUSH2 0x1704 DUP2 DUP5 ADD PUSH2 0x11B6 JUMP JUMPDEST DUP2 DUP4 ADD MSTORE PUSH1 0x40 DUP4 ADD CALLDATALOAD PUSH2 0x1716 DUP2 PUSH2 0x11C8 JUMP JUMPDEST PUSH1 0x40 DUP4 ADD MSTORE PUSH1 0x60 DUP4 ADD CALLDATALOAD PUSH2 0x1729 DUP2 PUSH2 0x11C8 JUMP JUMPDEST PUSH1 0x60 DUP4 ADD MSTORE PUSH1 0x80 DUP4 ADD CALLDATALOAD PUSH1 0x1 PUSH1 0x1 PUSH1 0x40 SHL SUB DUP2 GT ISZERO PUSH2 0x1747 JUMPI PUSH1 0x0 DUP1 REVERT JUMPDEST DUP4 ADD PUSH1 0x1F DUP2 ADD DUP6 SGT PUSH2 0x1758 JUMPI PUSH1 0x0 DUP1 REVERT JUMPDEST DUP1 CALLDATALOAD PUSH2 0x176B PUSH2 0x1766 DUP3 PUSH2 0x16B4 JUMP JUMPDEST PUSH2 0x1684 JUMP JUMPDEST DUP2 DUP2 MSTORE PUSH1 0x5 SWAP2 SWAP1 SWAP2 SHL DUP3 ADD DUP4 ADD SWAP1 DUP4 DUP2 ADD SWAP1 DUP8 DUP4 GT ISZERO PUSH2 0x178A JUMPI PUSH1 0x0 DUP1 REVERT JUMPDEST SWAP3 DUP5 ADD SWAP3 JUMPDEST DUP3 DUP5 LT ISZERO PUSH2 0x17AF JUMPI PUSH2 0x17A0 DUP5 PUSH2 0x11E1 JUMP JUMPDEST DUP3 MSTORE SWAP3 DUP5 ADD SWAP3 SWAP1 DUP5 ADD SWAP1 PUSH2 0x178F JUMP JUMPDEST PUSH1 0x80 DUP7 ADD MSTORE POP SWAP3 SWAP6 SWAP5 POP POP POP POP POP JUMP JUMPDEST PUSH1 0x0 DUP3 PUSH1 0x1F DUP4 ADD SLT PUSH2 0x17D0 JUMPI PUSH1 0x0 DUP1 REVERT JUMPDEST DUP2 CALLDATALOAD PUSH1 0x1 PUSH1 0x1 PUSH1 0x40 SHL SUB DUP2 GT ISZERO PUSH2 0x17E9 JUMPI PUSH2 0x17E9 PUSH2 0x1601 JUMP JUMPDEST PUSH2 0x17FC PUSH1 0x1F DUP3 ADD PUSH1 0x1F NOT AND PUSH1 0x20 ADD PUSH2 0x1684 JUMP JUMPDEST DUP2 DUP2 MSTORE DUP5 PUSH1 0x20 DUP4 DUP7 ADD ADD GT ISZERO PUSH2 0x1811 JUMPI PUSH1 0x0 DUP1 REVERT JUMPDEST DUP2 PUSH1 0x20 DUP6 ADD PUSH1 0x20 DUP4 ADD CALLDATACOPY PUSH1 0x0 SWAP2 DUP2 ADD PUSH1 0x20 ADD SWAP2 SWAP1 SWAP2 MSTORE SWAP4 SWAP3 POP POP POP JUMP JUMPDEST PUSH1 0x0 DUP3 PUSH1 0x1F DUP4 ADD SLT PUSH2 0x183F JUMPI PUSH1 0x0 DUP1 REVERT JUMPDEST DUP2 CALLDATALOAD PUSH1 0x20 PUSH2 0x184F PUSH2 0x1766 DUP4 PUSH2 0x16B4 JUMP JUMPDEST DUP3 DUP2 MSTORE PUSH1 0x5 SWAP3 SWAP1 SWAP3 SHL DUP5 ADD DUP2 ADD SWAP2 DUP2 DUP2 ADD SWAP1 DUP7 DUP5 GT ISZERO PUSH2 0x186E JUMPI PUSH1 0x0 DUP1 REVERT JUMPDEST DUP3 DUP7 ADD JUMPDEST DUP5 DUP2 LT ISZERO PUSH2 0x1995 JUMPI DUP1 CALLDATALOAD PUSH1 0x1 PUSH1 0x1 PUSH1 0x40 SHL SUB DUP1 DUP3 GT ISZERO PUSH2 0x1891 JUMPI PUSH1 0x0 DUP1 REVERT JUMPDEST SWAP1 DUP9 ADD SWAP1 PUSH1 0xA0 DUP3 DUP12 SUB PUSH1 0x1F NOT ADD SLT ISZERO PUSH2 0x18A9 JUMPI PUSH1 0x0 DUP1 REVERT JUMPDEST PUSH2 0x18B1 PUSH2 0x1617 JUMP JUMPDEST PUSH2 0x18BC DUP8 DUP5 ADD PUSH2 0x11E1 JUMP JUMPDEST DUP2 MSTORE PUSH1 0x40 DUP1 DUP5 ADD CALLDATALOAD PUSH2 0x18CD DUP2 PUSH2 0x105F JUMP JUMPDEST DUP3 DUP10 ADD MSTORE PUSH1 0x60 DUP5 ADD CALLDATALOAD DUP4 DUP2 GT ISZERO PUSH2 0x18E4 JUMPI PUSH1 0x0 DUP1 DUP2 REVERT JUMPDEST DUP5 ADD PUSH1 0x3F DUP2 ADD DUP14 SGT PUSH2 0x18F6 JUMPI PUSH1 0x0 DUP1 DUP2 REVERT JUMPDEST DUP9 DUP2 ADD CALLDATALOAD PUSH2 0x1906 PUSH2 0x1766 DUP3 PUSH2 0x16B4 JUMP JUMPDEST DUP2 DUP2 MSTORE PUSH1 0x5 SWAP2 SWAP1 SWAP2 SHL DUP3 ADD DUP4 ADD SWAP1 DUP11 DUP2 ADD SWAP1 DUP16 DUP4 GT ISZERO PUSH2 0x1926 JUMPI PUSH1 0x0 DUP1 DUP2 REVERT JUMPDEST SWAP3 DUP5 ADD SWAP3 JUMPDEST DUP3 DUP5 LT ISZERO PUSH2 0x1944 JUMPI DUP4 CALLDATALOAD DUP3 MSTORE SWAP3 DUP12 ADD SWAP3 SWAP1 DUP12 ADD SWAP1 PUSH2 0x192B JUMP JUMPDEST DUP1 DUP6 DUP8 ADD MSTORE POP POP POP POP POP PUSH1 0x80 DUP1 DUP5 ADD CALLDATALOAD DUP4 DUP2 GT ISZERO PUSH2 0x1962 JUMPI PUSH1 0x0 DUP1 DUP2 REVERT JUMPDEST PUSH2 0x1970 DUP14 DUP11 DUP4 DUP9 ADD ADD PUSH2 0x17BF JUMP JUMPDEST PUSH1 0x60 DUP5 ADD MSTORE POP PUSH2 0x1982 PUSH1 0xA0 DUP6 ADD PUSH2 0x11D6 JUMP JUMPDEST SWAP1 DUP3 ADD MSTORE DUP6 MSTORE POP POP SWAP2 DUP4 ADD SWAP2 DUP4 ADD PUSH2 0x1872 JUMP JUMPDEST POP SWAP7 SWAP6 POP POP POP POP POP POP JUMP JUMPDEST PUSH1 0x0 PUSH2 0x120 DUP3 DUP5 SUB SLT ISZERO PUSH2 0x19B3 JUMPI PUSH1 0x0 DUP1 REVERT JUMPDEST PUSH2 0x19BB PUSH2 0x163F JUMP JUMPDEST SWAP1 POP PUSH2 0x19C6 DUP3 PUSH2 0x1180 JUMP JUMPDEST DUP2 MSTORE PUSH2 0x19D4 PUSH1 0x20 DUP4 ADD PUSH2 0x1180 JUMP JUMPDEST PUSH1 0x20 DUP3 ADD MSTORE PUSH2 0x19E5 PUSH1 0x40 DUP4 ADD PUSH2 0x1077 JUMP JUMPDEST PUSH1 0x40 DUP3 ADD MSTORE PUSH2 0x19F6 PUSH1 0x60 DUP4 ADD PUSH2 0x11D6 JUMP JUMPDEST PUSH1 0x60 DUP3 ADD MSTORE PUSH2 0x1A07 PUSH1 0x80 DUP4 ADD PUSH2 0x1077 JUMP JUMPDEST PUSH1 0x80 DUP3 ADD MSTORE PUSH1 0xA0 DUP3 ADD CALLDATALOAD PUSH1 0xA0 DUP3 ADD MSTORE PUSH1 0xC0 DUP3 ADD CALLDATALOAD PUSH1 0x1 PUSH1 0x1 PUSH1 0x40 SHL SUB DUP1 DUP3 GT ISZERO PUSH2 0x1A30 JUMPI PUSH1 0x0 DUP1 REVERT JUMPDEST PUSH2 0x1A3C DUP6 DUP4 DUP7 ADD PUSH2 0x17BF JUMP JUMPDEST PUSH1 0xC0 DUP5 ADD MSTORE PUSH2 0x1A4D PUSH1 0xE0 DUP6 ADD PUSH2 0x127A JUMP JUMPDEST PUSH1 0xE0 DUP5 ADD MSTORE PUSH2 0x100 SWAP2 POP DUP2 DUP5 ADD CALLDATALOAD DUP2 DUP2 GT ISZERO PUSH2 0x1A68 JUMPI PUSH1 0x0 DUP1 REVERT JUMPDEST PUSH2 0x1A74 DUP7 DUP3 DUP8 ADD PUSH2 0x182E JUMP JUMPDEST DUP4 DUP6 ADD MSTORE POP POP POP SWAP3 SWAP2 POP POP JUMP JUMPDEST PUSH1 0x0 PUSH1 0xC0 DUP3 CALLDATASIZE SUB SLT ISZERO PUSH2 0x1A93 JUMPI PUSH1 0x0 DUP1 REVERT JUMPDEST PUSH2 0x1A9B PUSH2 0x1662 JUMP JUMPDEST DUP3 CALLDATALOAD DUP2 MSTORE PUSH1 0x20 DUP4 ADD CALLDATALOAD PUSH1 0x20 DUP3 ADD MSTORE PUSH2 0x1AB5 PUSH1 0x40 DUP5 ADD PUSH2 0x1180 JUMP JUMPDEST PUSH1 0x40 DUP3 ADD MSTORE PUSH2 0x1AC6 PUSH1 0x60 DUP5 ADD PUSH2 0x1180 JUMP JUMPDEST PUSH1 0x60 DUP3 ADD MSTORE PUSH1 0x80 DUP4 ADD CALLDATALOAD PUSH1 0x1 PUSH1 0x1 PUSH1 0x40 SHL SUB DUP1 DUP3 GT ISZERO PUSH2 0x1AE5 JUMPI PUSH1 0x0 DUP1 REVERT JUMPDEST PUSH2 0x1AF1 CALLDATASIZE DUP4 DUP8 ADD PUSH2 0x16D7 JUMP JUMPDEST PUSH1 0x80 DUP5 ADD MSTORE PUSH1 0xA0 DUP6 ADD CALLDATALOAD SWAP2 POP DUP1 DUP3 GT ISZERO PUSH2 0x1B0A JUMPI PUSH1 0x0 DUP1 REVERT JUMPDEST POP PUSH2 0x1B17 CALLDATASIZE DUP3 DUP7 ADD PUSH2 0x19A0 JUMP JUMPDEST PUSH1 0xA0 DUP4 ADD MSTORE POP SWAP3 SWAP2 POP POP JUMP JUMPDEST PUSH1 0x0 PUSH1 0x1 DUP3 ADD PUSH2 0x1B35 JUMPI PUSH2 0x1B35 PUSH2 0x10C7 JUMP JUMPDEST POP PUSH1 0x1 ADD SWAP1 JUMP JUMPDEST DUP2 DUP2 SUB DUP2 DUP2 GT ISZERO PUSH2 0x1B4F JUMPI PUSH2 0x1B4F PUSH2 0x10C7 JUMP JUMPDEST SWAP3 SWAP2 POP POP JUMP JUMPDEST DUP1 DUP3 ADD DUP1 DUP3 GT ISZERO PUSH2 0x1B4F JUMPI PUSH2 0x1B4F PUSH2 0x10C7 JUMP JUMPDEST PUSH4 0x4E487B71 PUSH1 0xE0 SHL PUSH1 0x0 MSTORE PUSH1 0x32 PUSH1 0x4 MSTORE PUSH1 0x24 PUSH1 0x0 REVERT JUMPDEST PUSH1 0x0 DUP1 PUSH1 0x0 DUP1 PUSH1 0x0 DUP1 PUSH1 0x0 PUSH1 0xE0 DUP9 DUP11 SUB SLT ISZERO PUSH2 0x1B99 JUMPI PUSH1 0x0 DUP1 REVERT JUMPDEST DUP8 MLOAD PUSH2 0x1BA4 DUP2 PUSH2 0x105F JUMP JUMPDEST DUP1 SWAP8 POP POP PUSH1 0x20 DUP9 ADD MLOAD DUP1 PUSH1 0x2 SIGNEXTEND DUP2 EQ PUSH2 0x1BBC JUMPI PUSH1 0x0 DUP1 REVERT JUMPDEST PUSH1 0x40 DUP10 ADD MLOAD SWAP1 SWAP7 POP PUSH1 0x1 PUSH1 0x1 PUSH1 0x80 SHL SUB DUP2 AND DUP2 EQ PUSH2 0x1BD9 JUMPI PUSH1 0x0 DUP1 REVERT JUMPDEST PUSH1 0x60 DUP10 ADD MLOAD SWAP1 SWAP6 POP PUSH2 0x1BEA DUP2 PUSH2 0x105F JUMP JUMPDEST PUSH1 0x80 DUP10 ADD MLOAD SWAP1 SWAP5 POP PUSH2 0x1BFB DUP2 PUSH2 0x105F JUMP JUMPDEST DUP1 SWAP4 POP POP PUSH1 0xA0 DUP9 ADD MLOAD SWAP2 POP PUSH1 0xC0 DUP9 ADD MLOAD SWAP1 POP SWAP3 SWAP6 SWAP9 SWAP2 SWAP5 SWAP8 POP SWAP3 SWAP6 POP JUMP JUMPDEST DUP1 DUP3 MUL DUP2 ISZERO DUP3 DUP3 DIV DUP5 EQ OR PUSH2 0x1B4F JUMPI PUSH2 0x1B4F PUSH2 0x10C7 JUMP JUMPDEST DUP2 DUP2 SUB PUSH1 0x0 DUP4 SLT DUP1 ISZERO DUP4 DUP4 SGT AND DUP4 DUP4 SLT DUP3 AND OR ISZERO PUSH2 0x1C50 JUMPI PUSH2 0x1C50 PUSH2 0x10C7 JUMP JUMPDEST POP SWAP3 SWAP2 POP POP JUMP JUMPDEST PUSH1 0x1 DUP2 DUP2 JUMPDEST DUP1 DUP6 GT ISZERO PUSH2 0x1C92 JUMPI DUP2 PUSH1 0x0 NOT DIV DUP3 GT ISZERO PUSH2 0x1C78 JUMPI PUSH2 0x1C78 PUSH2 0x10C7 JUMP JUMPDEST DUP1 DUP6 AND ISZERO PUSH2 0x1C85 JUMPI SWAP2 DUP2 MUL SWAP2 JUMPDEST SWAP4 DUP5 SHR SWAP4 SWAP1 DUP1 MUL SWAP1 PUSH2 0x1C5C JUMP JUMPDEST POP SWAP3 POP SWAP3 SWAP1 POP JUMP JUMPDEST PUSH1 0x0 DUP3 PUSH2 0x1CA9 JUMPI POP PUSH1 0x1 PUSH2 0x1B4F JUMP JUMPDEST DUP2 PUSH2 0x1CB6 JUMPI POP PUSH1 0x0 PUSH2 0x1B4F JUMP JUMPDEST DUP2 PUSH1 0x1 DUP2 EQ PUSH2 0x1CCC JUMPI PUSH1 0x2 DUP2 EQ PUSH2 0x1CD6 JUMPI PUSH2 0x1CF2 JUMP JUMPDEST PUSH1 0x1 SWAP2 POP POP PUSH2 0x1B4F JUMP JUMPDEST PUSH1 0xFF DUP5 GT ISZERO PUSH2 0x1CE7 JUMPI PUSH2 0x1CE7 PUSH2 0x10C7 JUMP JUMPDEST POP POP PUSH1 0x1 DUP3 SHL PUSH2 0x1B4F JUMP JUMPDEST POP PUSH1 0x20 DUP4 LT PUSH2 0x133 DUP4 LT AND PUSH1 0x4E DUP5 LT PUSH1 0xB DUP5 LT AND OR ISZERO PUSH2 0x1D15 JUMPI POP DUP2 DUP2 EXP PUSH2 0x1B4F JUMP JUMPDEST PUSH2 0x1D1F DUP4 DUP4 PUSH2 0x1C57 JUMP JUMPDEST DUP1 PUSH1 0x0 NOT DIV DUP3 GT ISZERO PUSH2 0x1D33 JUMPI PUSH2 0x1D33 PUSH2 0x10C7 JUMP JUMPDEST MUL SWAP4 SWAP3 POP POP POP JUMP JUMPDEST PUSH1 0x0 PUSH2 0x1058 DUP4 DUP4 PUSH2 0x1C9A JUMP JUMPDEST PUSH1 0x0 PUSH1 0x1 PUSH1 0xFF SHL DUP3 ADD PUSH2 0x1D5C JUMPI PUSH2 0x1D5C PUSH2 0x10C7 JUMP JUMPDEST POP PUSH1 0x0 SUB SWAP1 JUMP INVALID LOG2 PUSH5 0x6970667358 0x22 SLT KECCAK256 0xB3 LOG0 GASPRICE 0xC4 0xBD SWAP4 BALANCE 0xB5 DUP7 LOG2 DUP9 PUSH3 0x70E4CA PUSH3 0x36FE4A GAS 0xC 0xD 0xE8 DUP14 JUMPDEST 0xEF 0x1E MSTORE8 SELFBALANCE MULMOD 0xD7 ISZERO PUSH5 0x736F6C6343 STOP ADDMOD SGT STOP CALLER "},"methodIdentifiers":{"acceptingUpdates()":"6747f3c6","calculateFee()":"e6af35f0","decimals()":"313ce567","feedId()":"4a643499","getCurrentFeed()":"115416fe","getFeedInfo()":"349225f8","invertPrice()":"84e767bd","lastUpdateTimestamp()":"14bcec9f","latestValue()":"4ab5cc82","owner()":"8da5cb5b","pauseUpdates()":"02271069","poolAddress()":"1755ff21","priceRecorderAddress()":"b59efdeb","read()":"57de26a4","resumeUpdates()":"23d60889","token0Decimals()":"b31ac6e2","token1Decimals()":"0b77884d","totalGasUsedForVerification()":"8c0a57a8","totalProofsVerified()":"d246a2a3","transferOwnership(address)":"f2fde38b","updateCount()":"69b4ecc9","updateFromProof((bytes32[],(bytes32,bytes32,uint64,uint64,(bytes32,uint16,bool,bool,uint32[]),(uint64,uint64,address,bool,address,uint256,bytes,uint8,(uint32,address,bytes32[],bytes,bool)[]))))":"7bee4c25"}}}}}