{"contracts/PoolPriceCustomFeed.sol":{"PoolPriceCustomFeed":{"abi":[{"inputs":[{"internalType":"address","name":"_priceRecorder","type":"address"},{"internalType":"address","name":"_poolAddress","type":"address"},{"internalType":"string","name":"_feedName","type":"string"},{"internalType":"address","name":"_fdcVerificationAddress","type":"address"},{"internalType":"uint8","name":"_token0Decimals","type":"uint8"},{"internalType":"uint8","name":"_token1Decimals","type":"uint8"},{"internalType":"bool","name":"_invertPrice","type":"bool"}],"stateMutability":"nonpayable","type":"constructor"},{"anonymous":false,"inputs":[{"indexed":true,"internalType":"uint256","name":"value","type":"uint256"},{"indexed":false,"internalType":"uint64","name":"timestamp","type":"uint64"},{"indexed":false,"internalType":"uint256","name":"blockNumber","type":"uint256"},{"indexed":true,"internalType":"address","name":"updater","type":"address"}],"name":"FeedUpdated","type":"event"},{"anonymous":false,"inputs":[{"indexed":true,"internalType":"address","name":"previousOwner","type":"address"},{"indexed":true,"internalType":"address","name":"newOwner","type":"address"}],"name":"OwnershipTransferred","type":"event"},{"anonymous":false,"inputs":[{"indexed":true,"internalType":"bytes32","name":"transactionHash","type":"bytes32"},{"indexed":false,"internalType":"uint256","name":"value","type":"uint256"},{"indexed":false,"internalType":"uint64","name":"timestamp","type":"uint64"}],"name":"ProofVerified","type":"event"},{"anonymous":false,"inputs":[],"name":"UpdatesPaused","type":"event"},{"anonymous":false,"inputs":[],"name":"UpdatesResumed","type":"event"},{"inputs":[],"name":"acceptingUpdates","outputs":[{"internalType":"bool","name":"","type":"bool"}],"stateMutability":"view","type":"function"},{"inputs":[],"name":"calculateFee","outputs":[{"internalType":"uint256","name":"","type":"uint256"}],"stateMutability":"pure","type":"function"},{"inputs":[],"name":"decimals","outputs":[{"internalType":"int8","name":"","type":"int8"}],"stateMutability":"pure","type":"function"},{"inputs":[],"name":"feedId","outputs":[{"internalType":"bytes21","name":"","type":"bytes21"}],"stateMutability":"view","type":"function"},{"inputs":[],"name":"getCurrentFeed","outputs":[{"internalType":"uint256","name":"_value","type":"uint256"},{"internalType":"int8","name":"_decimals","type":"int8"},{"internalType":"uint64","name":"_timestamp","type":"uint64"}],"stateMutability":"payable","type":"function"},{"inputs":[],"name":"getFeedInfo","outputs":[{"components":[{"internalType":"bytes21","name":"feedId","type":"bytes21"},{"internalType":"uint256","name":"latestValue","type":"uint256"},{"internalType":"int8","name":"decimals","type":"int8"},{"internalType":"uint64","name":"lastUpdate","type":"uint64"},{"internalType":"uint256","name":"updateCount","type":"uint256"},{"internalType":"address","name":"priceRecorder","type":"address"},{"internalType":"address","name":"poolAddress","type":"address"},{"internalType":"bool","name":"acceptingUpdates","type":"bool"},{"internalType":"uint256","name":"avgGasPerUpdate","type":"uint256"},{"internalType":"uint256","name":"totalProofsVerified","type":"uint256"}],"internalType":"struct PoolPriceCustomFeed.FeedInfo","name":"info","type":"tuple"}],"stateMutability":"view","type":"function"},{"inputs":[],"name":"invertPrice","outputs":[{"internalType":"bool","name":"","type":"bool"}],"stateMutability":"view","type":"function"},{"inputs":[],"name":"isNativeFeed","outputs":[{"internalType":"bool","name":"","type":"bool"}],"stateMutability":"view","type":"function"},{"inputs":[],"name":"lastUpdateTimestamp","outputs":[{"internalType":"uint64","name":"","type":"uint64"}],"stateMutability":"view","type":"function"},{"inputs":[],"name":"latestValue","outputs":[{"internalType":"uint256","name":"","type":"uint256"}],"stateMutability":"view","type":"function"},{"inputs":[],"name":"owner","outputs":[{"internalType":"address","name":"","type":"address"}],"stateMutability":"view","type":"function"},{"inputs":[],"name":"pauseUpdates","outputs":[],"stateMutability":"nonpayable","type":"function"},{"inputs":[],"name":"poolAddress","outputs":[{"internalType":"address","name":"","type":"address"}],"stateMutability":"view","type":"function"},{"inputs":[],"name":"priceRecorderAddress","outputs":[{"internalType":"address","name":"","type":"address"}],"stateMutability":"view","type":"function"},{"inputs":[],"name":"read","outputs":[{"internalType":"uint256","name":"","type":"uint256"}],"stateMutability":"view","type":"function"},{"inputs":[],"name":"resumeUpdates","outputs":[],"stateMutability":"nonpayable","type":"function"},{"inputs":[],"name":"token0Decimals","outputs":[{"internalType":"uint8","name":"","type":"uint8"}],"stateMutability":"view","type":"function"},{"inputs":[],"name":"token1Decimals","outputs":[{"internalType":"uint8","name":"","type":"uint8"}],"stateMutability":"view","type":"function"},{"inputs":[],"name":"totalGasUsedForVerification","outputs":[{"internalType":"uint256","name":"","type":"uint256"}],"stateMutability":"view","type":"function"},{"inputs":[],"name":"totalProofsVerified","outputs":[{"internalType":"uint256","name":"","type":"uint256"}],"stateMutability":"view","type":"function"},{"inputs":[{"internalType":"address","name":"newOwner","type":"address"}],"name":"transferOwnership","outputs":[],"stateMutability":"nonpayable","type":"function"},{"inputs":[],"name":"updateCount","outputs":[{"internalType":"uint256","name":"","type":"uint256"}],"stateMutability":"view","type":"function"},{"inputs":[],"name":"updateFromNativePool","outputs":[],"stateMutability":"nonpayable","type":"function"},{"inputs":[{"components":[{"internalType":"bytes32[]","name":"merkleProof","type":"bytes32[]"},{"components":[{"internalType":"bytes32","name":"attestationType","type":"bytes32"},{"internalType":"bytes32","name":"sourceId","type":"bytes32"},{"internalType":"uint64","name":"votingRound","type":"uint64"},{"internalType":"uint64","name":"lowestUsedTimestamp","type":"uint64"},{"components":[{"internalType":"bytes32","name":"transactionHash","type":"bytes32"},{"internalType":"uint16","name":"requiredConfirmations","type":"uint16"},{"internalType":"bool","name":"provideInput","type":"bool"},{"internalType":"bool","name":"listEvents","type":"bool"},{"internalType":"uint32[]","name":"logIndices","type":"uint32[]"}],"internalType":"struct IEVMTransaction.RequestBody","name":"requestBody","type":"tuple"},{"components":[{"internalType":"uint64","name":"blockNumber","type":"uint64"},{"internalType":"uint64","name":"timestamp","type":"uint64"},{"internalType":"address","name":"sourceAddress","type":"address"},{"internalType":"bool","name":"isDeployment","type":"bool"},{"internalType":"address","name":"receivingAddress","type":"address"},{"internalType":"uint256","name":"value","type":"uint256"},{"internalType":"bytes","name":"input","type":"bytes"},{"internalType":"uint8","name":"status","type":"uint8"},{"components":[{"internalType":"uint32","name":"logIndex","type":"uint32"},{"internalType":"address","name":"emitterAddress","type":"address"},{"internalType":"bytes32[]","name":"topics","type":"bytes32[]"},{"internalType":"bytes","name":"data","type":"bytes"},{"internalType":"bool","name":"removed","type":"bool"}],"internalType":"struct IEVMTransaction.Event[]","name":"events","type":"tuple[]"}],"internalType":"struct IEVMTransaction.ResponseBody","name":"responseBody","type":"tuple"}],"internalType":"struct IEVMTransaction.Response","name":"data","type":"tuple"}],"internalType":"struct IEVMTransaction.Proof","name":"_proof","type":"tuple"}],"name":"updateFromProof","outputs":[],"stateMutability":"nonpayable","type":"function"}],"evm":{"bytecode":{"linkReferences":{},"object":"6101806040523480156200001257600080fd5b5060405162002767380380620027678339810160408190526200003591620003c9565b6001600160a01b038616620000915760405162461bcd60e51b815260206004820152601460248201527f496e76616c696420706f6f6c206164647265737300000000000000000000000060448201526064015b60405180910390fd5b60008360ff16118015620000a9575060128360ff1611155b620000f75760405162461bcd60e51b815260206004820152601760248201527f496e76616c696420746f6b656e3020646563696d616c73000000000000000000604482015260640162000088565b60008260ff161180156200010f575060128260ff1611155b6200015d5760405162461bcd60e51b815260206004820152601760248201527f496e76616c696420746f6b656e3120646563696d616c73000000000000000000604482015260640162000088565b600080546001600160a01b031916331790556001600160a01b03878116801560e05260a052861660c0526004805460ff1916600117905560ff8381166101205282166101405280151561016052620001b58562000294565b6001600160581b03191660805260e0516200027a576001600160a01b038716620002225760405162461bcd60e51b815260206004820152601860248201527f496e76616c6964207265636f7264657220616464726573730000000000000000604482015260640162000088565b6001600160a01b0384166200027a5760405162461bcd60e51b815260206004820152601360248201527f496e76616c696420464443206164647265737300000000000000000000000000604482015260640162000088565b5050506001600160a01b031661010052506200058c915050565b8051600090829015801590620002ac57506014815111155b620002fa5760405162461bcd60e51b815260206004820152601360248201527f496e76616c6964206e616d65206c656e67746800000000000000000000000000604482015260640162000088565b602160f81b60005b82518110156200036b5760006200031b82600862000524565b6200032890609862000544565b90508060ff168483815181106200034357620003436200055a565b016020015160f81c901b60581b92909217915080620003628162000570565b91505062000302565b509392505050565b80516001600160a01b03811681146200038b57600080fd5b919050565b634e487b7160e01b600052604160045260246000fd5b805160ff811681146200038b57600080fd5b805180151581146200038b57600080fd5b600080600080600080600060e0888a031215620003e557600080fd5b620003f08862000373565b9650602062000401818a0162000373565b60408a01519097506001600160401b03808211156200041f57600080fd5b818b0191508b601f8301126200043457600080fd5b81518181111562000449576200044962000390565b604051601f8201601f19908116603f0116810190838211818310171562000474576200047462000390565b816040528281528e868487010111156200048d57600080fd5b600093505b82841015620004b1578484018601518185018701529285019262000492565b6000868483010152809a50505050505050620004d06060890162000373565b9350620004e060808901620003a6565b9250620004f060a08901620003a6565b91506200050060c08901620003b8565b905092959891949750929550565b634e487b7160e01b600052601160045260246000fd5b80820281158282048414176200053e576200053e6200050e565b92915050565b818103818111156200053e576200053e6200050e565b634e487b7160e01b600052603260045260246000fd5b6000600182016200058557620005856200050e565b5060010190565b60805160a05160c05160e0516101005161012051610140516101605161212162000646600039600081816103f50152610f530152600081816101790152610e9801526000818161045f0152610ebc01526000610aa90152600081816103a1015281816107cc01526109cf01526000818161022b01528181610717015281816108730152611128015260008181610493015281816106ef01528181610b7b01526110680152600081816102d7015261069a01526121216000f3fe60806040526004361061014b5760003560e01c80636747f3c6116100b65780638da5cb5b1161006f5780638da5cb5b1461042d578063b31ac6e21461044d578063b59efdeb14610481578063d246a2a3146104b5578063e6af35f0146104cb578063f2fde38b146104df57600080fd5b80636747f3c61461034f57806369b4ecc9146103795780636bdbe6b71461038f5780637bee4c25146103c357806384e767bd146103e35780638c0a57a81461041757600080fd5b8063313ce56711610108578063313ce5671461027a578063349225f8146102965780634a643499146102b85780634ab5cc821461030157806357de26a4146103255780635f9881a21461033a57600080fd5b806302271069146101505780630b77884d14610167578063115416fe146101b257806314bcec9f146101e15780631755ff211461021957806323d6088914610265575b600080fd5b34801561015c57600080fd5b506101656104ff565b005b34801561017357600080fd5b5061019b7f000000000000000000000000000000000000000000000000000000000000000081565b60405160ff90911681526020015b60405180910390f35b6101ba610567565b6040805193845260009290920b60208401526001600160401b0316908201526060016101a9565b3480156101ed57600080fd5b50600254610201906001600160401b031681565b6040516001600160401b0390911681526020016101a9565b34801561022557600080fd5b5061024d7f000000000000000000000000000000000000000000000000000000000000000081565b6040516001600160a01b0390911681526020016101a9565b34801561027157600080fd5b506101656105cd565b34801561028657600080fd5b50604051600681526020016101a9565b3480156102a257600080fd5b506102ab61062f565b6040516101a9919061123a565b3480156102c457600080fd5b506040516affffffffffffffffffffff197f00000000000000000000000000000000000000000000000000000000000000001681526020016101a9565b34801561030d57600080fd5b5061031760015481565b6040519081526020016101a9565b34801561033157600080fd5b5061031761077c565b34801561034657600080fd5b506101656107ca565b34801561035b57600080fd5b506004546103699060ff1681565b60405190151581526020016101a9565b34801561038557600080fd5b5061031760035481565b34801561039b57600080fd5b506103697f000000000000000000000000000000000000000000000000000000000000000081565b3480156103cf57600080fd5b506101656103de3660046112fc565b6109cd565b3480156103ef57600080fd5b506103697f000000000000000000000000000000000000000000000000000000000000000081565b34801561042357600080fd5b5061031760055481565b34801561043957600080fd5b5060005461024d906001600160a01b031681565b34801561045957600080fd5b5061019b7f000000000000000000000000000000000000000000000000000000000000000081565b34801561048d57600080fd5b5061024d7f000000000000000000000000000000000000000000000000000000000000000081565b3480156104c157600080fd5b5061031760065481565b3480156104d757600080fd5b506000610317565b3480156104eb57600080fd5b506101656104fa366004611365565b610d6a565b6000546001600160a01b031633146105325760405162461bcd60e51b815260040161052990611382565b60405180910390fd5b6004805460ff191690556040517f4a4c785fe1c9642309071a07ac280989cd10624630e14194d12672c8f0fe661f90600090a1565b600080600080600154116105b15760405162461bcd60e51b81526020600482015260116024820152704e6f206461746120617661696c61626c6560781b6044820152606401610529565b50506001546002549092600692506001600160401b0390911690565b6000546001600160a01b031633146105f75760405162461bcd60e51b815260040161052990611382565b6004805460ff191660011790556040517f24b779da341973449740a5c61843c5dd3fcfaf5b667a7b67edcda18b45beba6990600090a1565b6040805161014081018252600080825260208201819052918101829052606081018290526080810182905260a0810182905260c0810182905260e08101829052610100810182905261012081019190915260408051610140810182526affffffffffffffffffffff197f0000000000000000000000000000000000000000000000000000000000000000168152600154602082015260069181018290526002546001600160401b0316606082015260035460808201526001600160a01b037f0000000000000000000000000000000000000000000000000000000000000000811660a08301527f00000000000000000000000000000000000000000000000000000000000000001660c082015260045460ff16151560e0820152905461010082019061075c57600061076c565b60065460055461076c91906113bb565b8152602001600654815250905090565b600080600154116107c35760405162461bcd60e51b81526020600482015260116024820152704e6f206461746120617661696c61626c6560781b6044820152606401610529565b5060015490565b7f000000000000000000000000000000000000000000000000000000000000000061082b5760405162461bcd60e51b8152602060048201526011602482015270139bdd0818481b985d1a5d994819995959607a1b6044820152606401610529565b60045460ff1661086e5760405162461bcd60e51b815260206004820152600e60248201526d155c19185d195cc81c185d5cd95960921b6044820152606401610529565b6000807f00000000000000000000000000000000000000000000000000000000000000006001600160a01b0316633850c7bd6040518163ffffffff1660e01b815260040160e060405180830381865afa1580156108cf573d6000803e3d6000fd5b505050506040513d601f19601f820116820180604052508101906108f3919061141c565b965050505050509150806109375760405162461bcd60e51b815260206004820152600b60248201526a141bdbdb081b1bd8dad95960aa1b6044820152606401610529565b600061094283610e2c565b60018190556002805467ffffffffffffffff1916426001600160401b0381169190911790915560038054929350909190600061097d836114b4565b9091555050604080516001600160401b0383168152436020820152339184917fcbb0a1964fded1543e1fc229a1bea0552bb873219986500cf7ea9d1a4506d736910160405180910390a350505050565b7f000000000000000000000000000000000000000000000000000000000000000015610a495760405162461bcd60e51b815260206004820152602560248201527f4e617469766520666565643a207573652075706461746546726f6d4e6174697660448201526419541bdbdb60da1b6064820152608401610529565b60045460ff16610a8c5760405162461bcd60e51b815260206004820152600e60248201526d155c19185d195cc81c185d5cd95960921b6044820152606401610529565b60005a6040516358fbe9e160e01b81529091506001600160a01b037f000000000000000000000000000000000000000000000000000000000000000016906358fbe9e190610ade908590600401611802565b602060405180830381865afa158015610afb573d6000803e3d6000fd5b505050506040513d601f19601f82011682018060405250810190610b1f919061196e565b610b5f5760405162461bcd60e51b815260206004820152601160248201527024b73b30b634b21023222190383937b7b360791b6044820152606401610529565b6000610b6e602084018461198b565b610b7790611e2d565b90507f00000000000000000000000000000000000000000000000000000000000000006001600160a01b03168160a00151608001516001600160a01b031614610bfb5760405162461bcd60e51b815260206004820152601660248201527557726f6e6720636f6e7472616374206164647265737360501b6044820152606401610529565b8060a0015160e0015160ff16600114610c4b5760405162461bcd60e51b8152602060048201526012602482015271151c985b9cd858dd1a5bdb8819985a5b195960721b6044820152606401610529565b600080610c608360a001516101000151611038565b60018290556002805467ffffffffffffffff19166001600160401b038316179055600380549294509092506000610c96836114b4565b919050555060005a610ca89086611ecf565b90508060056000828254610cbc9190611ee8565b909155505060068054906000610cd1836114b4565b9091555050604080516001600160401b0384168152436020820152339185917fcbb0a1964fded1543e1fc229a1bea0552bb873219986500cf7ea9d1a4506d736910160405180910390a3608084015151604080518581526001600160401b03851660208201527f20aafbdb02edecf8b1e8547d36a18bfa617d137f7556777a48b28d206bd6d4d4910160405180910390a2505050505050565b6000546001600160a01b03163314610d945760405162461bcd60e51b815260040161052990611382565b6001600160a01b038116610ddc5760405162461bcd60e51b815260206004820152600f60248201526e496e76616c6964206164647265737360881b6044820152606401610529565b600080546001600160a01b038381166001600160a01b0319831681178455604051919092169283917f8be0079c531659141344cd1fd0a4f28419497f9722a3daafe3b4186f6b6457e09190a35050565b6000600160601b6001600160a01b0383168280600160801b831115610e76576000610e5b600160401b856113bb565b9050610e678180611efb565b9250600160401b915050610e8f565b610e808380611efb565b9150610e8c8480611efb565b90505b6000610ee160ff7f00000000000000000000000000000000000000000000000000000000000000008116907f000000000000000000000000000000000000000000000000000000000000000016611f12565b90506000808212610f1357610ef7826006611ee8565b610f0290600a61201d565b610f0c9085611efb565b9050610f43565b610f2084620f4240611efb565b9050610f2b82612029565b610f3690600a61201d565b610f409084611efb565b92505b6000610f4f84836113bb565b90507f00000000000000000000000000000000000000000000000000000000000000008015610f7e5750600081115b15610f9557610f928164e8d4a510006113bb565b90505b60008111610fde5760405162461bcd60e51b81526020600482015260166024820152755072696365206d75737420626520706f73697469766560501b6044820152606401610529565b6001600160801b03811061102c5760405162461bcd60e51b815260206004820152601560248201527450726963652065786365656473206d6178696d756d60581b6044820152606401610529565b98975050505050505050565b6000806000805b84518110156111e657600085828151811061105c5761105c612045565b602002602001015190507f00000000000000000000000000000000000000000000000000000000000000006001600160a01b031681602001516001600160a01b0316146110a957506111d4565b60008160400151511180156110fb57507f17440ab048fe6c6cbd98dc862b13c09a99713ac93c0d806c9b2a2a384787935e81604001516000815181106110f1576110f1612045565b6020026020010151145b156111d2576000816040015160018151811061111957611119612045565b602002602001015160001c90507f00000000000000000000000000000000000000000000000000000000000000006001600160a01b0316816001600160a01b0316146111945760405162461bcd60e51b815260206004820152600a60248201526915dc9bdb99c81c1bdbdb60b21b6044820152606401610529565b60008083606001518060200190518101906111af919061205b565b5095505050505091506111c182610e2c565b97509550600194506111e692505050565b505b806111de816114b4565b91505061103f565b50806112345760405162461bcd60e51b815260206004820152601d60248201527f50726963655265636f72646564206576656e74206e6f7420666f756e640000006044820152606401610529565b50915091565b81516affffffffffffffffffffff19168152610140810160208301516020830152604083015161126f604084018260000b9052565b50606083015161128a60608401826001600160401b03169052565b506080830151608083015260a08301516112af60a08401826001600160a01b03169052565b5060c08301516112ca60c08401826001600160a01b03169052565b5060e08301516112de60e084018215159052565b50610100838101519083015261012092830151929091019190915290565b60006020828403121561130e57600080fd5b81356001600160401b0381111561132457600080fd5b82016040818503121561133657600080fd5b9392505050565b6001600160a01b038116811461135257600080fd5b50565b80356113608161133d565b919050565b60006020828403121561137757600080fd5b81356113368161133d565b6020808252600990820152682737ba1037bbb732b960b91b604082015260600190565b634e487b7160e01b600052601160045260246000fd5b6000826113d857634e487b7160e01b600052601260045260246000fd5b500490565b8051600281900b811461136057600080fd5b61ffff8116811461135257600080fd5b60ff8116811461135257600080fd5b801515811461135257600080fd5b600080600080600080600060e0888a03121561143757600080fd5b87516114428161133d565b9650611450602089016113dd565b95506040880151611460816113ef565b6060890151909550611471816113ef565b6080890151909450611482816113ef565b60a0890151909350611493816113ff565b60c08901519092506114a48161140e565b8091505092959891949750929550565b6000600182016114c6576114c66113a5565b5060010190565b6000808335601e198436030181126114e457600080fd5b83016020810192503590506001600160401b0381111561150357600080fd5b8060051b360382131561151557600080fd5b9250929050565b81835260006001600160fb1b0383111561153557600080fd5b8260051b80836020870137939093016020019392505050565b80356001600160401b038116811461136057600080fd5b60008235609e1983360301811261157b57600080fd5b90910192915050565b80356113608161140e565b803563ffffffff8116811461136057600080fd5b6000823561011e1983360301811261157b57600080fd5b6000808335601e198436030181126115d157600080fd5b83016020810192503590506001600160401b038111156115f057600080fd5b80360382131561151557600080fd5b81835281816020850137506000828201602090810191909152601f909101601f19169091010190565b8035611360816113ff565b81835260006020808501808196508560051b810191508460005b878110156117075782840389526116648288611565565b60a063ffffffff6116748361158f565b168652868201356116848161133d565b6001600160a01b031686880152604061169f838201846114cd565b83838a01526116b1848a01828461151c565b935050505060606116c4818401846115ba565b888403838a01526116d68482846115ff565b935050505060808083013592506116ec8361140e565b9115159590910194909452978401979084019060010161164d565b5091979650505050505050565b6000610120611733846117268561154e565b6001600160401b03169052565b61173f6020840161154e565b6001600160401b0316602085015261175960408401611355565b6001600160a01b0316604085015261177360608401611584565b1515606085015261178660808401611355565b6001600160a01b0316608085015260a083810135908501526117ab60c08401846115ba565b8260c08701526117be83870182846115ff565b925050506117ce60e08401611628565b60ff1660e08501526101006117e5848201856114cd565b868403838801526117f7848284611633565b979650505050505050565b6000602080835261181384856114cd565b60408386015261182760608601828461151c565b9150508185013560be1986360301811261184057600080fd5b8581019050601f198583030160408601528035825282810135838301526118696040820161154e565b6001600160401b038082166040850152806118866060850161154e565b166060850152505061189b6080820182611565565b60c060808401526101608301813560c0850152848201356118bb816113ef565b61ffff1660e085015260408201356118d28161140e565b151561010085015260608201356118e88161140e565b15156101208501526118fd60808301836114cd565b60a061014087015291829052909150600061018085015b8382101561193f5763ffffffff61192a8461158f565b16815291860191600191909101908601611914565b61194c60a08601866115a3565b965085810360a08701526119608188611714565b9a9950505050505050505050565b60006020828403121561198057600080fd5b81516113368161140e565b6000823560be198336030181126119a157600080fd5b9190910192915050565b634e487b7160e01b600052604160045260246000fd5b60405160a081016001600160401b03811182821017156119e3576119e36119ab565b60405290565b60405161012081016001600160401b03811182821017156119e3576119e36119ab565b60405160c081016001600160401b03811182821017156119e3576119e36119ab565b604051601f8201601f191681016001600160401b0381118282101715611a5657611a566119ab565b604052919050565b60006001600160401b03821115611a7757611a776119ab565b5060051b60200190565b600060a08284031215611a9357600080fd5b611a9b6119c1565b905081358152602080830135611ab0816113ef565b828201526040830135611ac28161140e565b60408301526060830135611ad58161140e565b606083015260808301356001600160401b03811115611af357600080fd5b8301601f81018513611b0457600080fd5b8035611b17611b1282611a5e565b611a2e565b81815260059190911b82018301908381019087831115611b3657600080fd5b928401925b82841015611b5b57611b4c8461158f565b82529284019290840190611b3b565b6080860152509295945050505050565b600082601f830112611b7c57600080fd5b81356001600160401b03811115611b9557611b956119ab565b611ba8601f8201601f1916602001611a2e565b818152846020838601011115611bbd57600080fd5b816020850160208301376000918101602001919091529392505050565b600082601f830112611beb57600080fd5b81356020611bfb611b1283611a5e565b82815260059290921b84018101918181019086841115611c1a57600080fd5b8286015b84811015611d415780356001600160401b0380821115611c3d57600080fd5b9088019060a0828b03601f19011215611c5557600080fd5b611c5d6119c1565b611c6887840161158f565b8152604080840135611c798161133d565b82890152606084013583811115611c905760008081fd5b8401603f81018d13611ca25760008081fd5b88810135611cb2611b1282611a5e565b81815260059190911b82018301908a8101908f831115611cd25760008081fd5b928401925b82841015611cf05783358252928b0192908b0190611cd7565b8085870152505050505060808084013583811115611d0e5760008081fd5b611d1c8d8a83880101611b6b565b606084015250611d2e60a08501611584565b9082015285525050918301918301611c1e565b509695505050505050565b60006101208284031215611d5f57600080fd5b611d676119e9565b9050611d728261154e565b8152611d806020830161154e565b6020820152611d9160408301611355565b6040820152611da260608301611584565b6060820152611db360808301611355565b608082015260a082013560a082015260c08201356001600160401b0380821115611ddc57600080fd5b611de885838601611b6b565b60c0840152611df960e08501611628565b60e084015261010091508184013581811115611e1457600080fd5b611e2086828701611bda565b8385015250505092915050565b600060c08236031215611e3f57600080fd5b611e47611a0c565b8235815260208301356020820152611e616040840161154e565b6040820152611e726060840161154e565b606082015260808301356001600160401b0380821115611e9157600080fd5b611e9d36838701611a81565b608084015260a0850135915080821115611eb657600080fd5b50611ec336828601611d4c565b60a08301525092915050565b81810381811115611ee257611ee26113a5565b92915050565b80820180821115611ee257611ee26113a5565b8082028115828204841417611ee257611ee26113a5565b8181036000831280158383131683831282161715611f3257611f326113a5565b5092915050565b600181815b80851115611f74578160001904821115611f5a57611f5a6113a5565b80851615611f6757918102915b93841c9390800290611f3e565b509250929050565b600082611f8b57506001611ee2565b81611f9857506000611ee2565b8160018114611fae5760028114611fb857611fd4565b6001915050611ee2565b60ff841115611fc957611fc96113a5565b50506001821b611ee2565b5060208310610133831016604e8410600b8410161715611ff7575081810a611ee2565b6120018383611f39565b8060001904821115612015576120156113a5565b029392505050565b60006113368383611f7c565b6000600160ff1b820161203e5761203e6113a5565b5060000390565b634e487b7160e01b600052603260045260246000fd5b600080600080600080600060e0888a03121561207657600080fd5b87516120818161133d565b965061208f602089016113dd565b955060408801516001600160801b03811681146120ab57600080fd5b60608901519095506120bc8161133d565b60808901519094506120cd8161133d565b8093505060a0880151915060c088015190509295989194975092955056fea2646970667358221220ad7c761977e4105a2e1ecc511e667524c0407e45edc27d67ccfe1dc70948fad464736f6c63430008130033","opcodes":"PUSH2 0x180 PUSH1 0x40 MSTORE CALLVALUE DUP1 ISZERO PUSH3 0x12 JUMPI PUSH1 0x0 DUP1 REVERT JUMPDEST POP PUSH1 0x40 MLOAD PUSH3 0x2767 CODESIZE SUB DUP1 PUSH3 0x2767 DUP4 CODECOPY DUP2 ADD PUSH1 0x40 DUP2 SWAP1 MSTORE PUSH3 0x35 SWAP2 PUSH3 0x3C9 JUMP JUMPDEST PUSH1 0x1 PUSH1 0x1 PUSH1 0xA0 SHL SUB DUP7 AND PUSH3 0x91 JUMPI PUSH1 0x40 MLOAD PUSH3 0x461BCD PUSH1 0xE5 SHL DUP2 MSTORE PUSH1 0x20 PUSH1 0x4 DUP3 ADD MSTORE PUSH1 0x14 PUSH1 0x24 DUP3 ADD MSTORE PUSH32 0x496E76616C696420706F6F6C2061646472657373000000000000000000000000 PUSH1 0x44 DUP3 ADD MSTORE PUSH1 0x64 ADD JUMPDEST PUSH1 0x40 MLOAD DUP1 SWAP2 SUB SWAP1 REVERT JUMPDEST PUSH1 0x0 DUP4 PUSH1 0xFF AND GT DUP1 ISZERO PUSH3 0xA9 JUMPI POP PUSH1 0x12 DUP4 PUSH1 0xFF AND GT ISZERO JUMPDEST PUSH3 0xF7 JUMPI PUSH1 0x40 MLOAD PUSH3 0x461BCD PUSH1 0xE5 SHL DUP2 MSTORE PUSH1 0x20 PUSH1 0x4 DUP3 ADD MSTORE PUSH1 0x17 PUSH1 0x24 DUP3 ADD MSTORE PUSH32 0x496E76616C696420746F6B656E3020646563696D616C73000000000000000000 PUSH1 0x44 DUP3 ADD MSTORE PUSH1 0x64 ADD PUSH3 0x88 JUMP JUMPDEST PUSH1 0x0 DUP3 PUSH1 0xFF AND GT DUP1 ISZERO PUSH3 0x10F JUMPI POP PUSH1 0x12 DUP3 PUSH1 0xFF AND GT ISZERO JUMPDEST PUSH3 0x15D JUMPI PUSH1 0x40 MLOAD PUSH3 0x461BCD PUSH1 0xE5 SHL DUP2 MSTORE PUSH1 0x20 PUSH1 0x4 DUP3 ADD MSTORE PUSH1 0x17 PUSH1 0x24 DUP3 ADD MSTORE PUSH32 0x496E76616C696420746F6B656E3120646563696D616C73000000000000000000 PUSH1 0x44 DUP3 ADD MSTORE PUSH1 0x64 ADD PUSH3 0x88 JUMP JUMPDEST PUSH1 0x0 DUP1 SLOAD PUSH1 0x1 PUSH1 0x1 PUSH1 0xA0 SHL SUB NOT AND CALLER OR SWAP1 SSTORE PUSH1 0x1 PUSH1 0x1 PUSH1 0xA0 SHL SUB DUP8 DUP2 AND DUP1 ISZERO PUSH1 0xE0 MSTORE PUSH1 0xA0 MSTORE DUP7 AND PUSH1 0xC0 MSTORE PUSH1 0x4 DUP1 SLOAD PUSH1 0xFF NOT AND PUSH1 0x1 OR SWAP1 SSTORE PUSH1 0xFF DUP4 DUP2 AND PUSH2 0x120 MSTORE DUP3 AND PUSH2 0x140 MSTORE DUP1 ISZERO ISZERO PUSH2 0x160 MSTORE PUSH3 0x1B5 DUP6 PUSH3 0x294 JUMP JUMPDEST PUSH1 0x1 PUSH1 0x1 PUSH1 0x58 SHL SUB NOT AND PUSH1 0x80 MSTORE PUSH1 0xE0 MLOAD PUSH3 0x27A JUMPI PUSH1 0x1 PUSH1 0x1 PUSH1 0xA0 SHL SUB DUP8 AND PUSH3 0x222 JUMPI PUSH1 0x40 MLOAD PUSH3 0x461BCD PUSH1 0xE5 SHL DUP2 MSTORE PUSH1 0x20 PUSH1 0x4 DUP3 ADD MSTORE PUSH1 0x18 PUSH1 0x24 DUP3 ADD MSTORE PUSH32 0x496E76616C6964207265636F7264657220616464726573730000000000000000 PUSH1 0x44 DUP3 ADD MSTORE PUSH1 0x64 ADD PUSH3 0x88 JUMP JUMPDEST PUSH1 0x1 PUSH1 0x1 PUSH1 0xA0 SHL SUB DUP5 AND PUSH3 0x27A JUMPI PUSH1 0x40 MLOAD PUSH3 0x461BCD PUSH1 0xE5 SHL DUP2 MSTORE PUSH1 0x20 PUSH1 0x4 DUP3 ADD MSTORE PUSH1 0x13 PUSH1 0x24 DUP3 ADD MSTORE PUSH32 0x496E76616C696420464443206164647265737300000000000000000000000000 PUSH1 0x44 DUP3 ADD MSTORE PUSH1 0x64 ADD PUSH3 0x88 JUMP JUMPDEST POP POP POP PUSH1 0x1 PUSH1 0x1 PUSH1 0xA0 SHL SUB AND PUSH2 0x100 MSTORE POP PUSH3 0x58C SWAP2 POP POP JUMP JUMPDEST DUP1 MLOAD PUSH1 0x0 SWAP1 DUP3 SWAP1 ISZERO DUP1 ISZERO SWAP1 PUSH3 0x2AC JUMPI POP PUSH1 0x14 DUP2 MLOAD GT ISZERO JUMPDEST PUSH3 0x2FA JUMPI PUSH1 0x40 MLOAD PUSH3 0x461BCD PUSH1 0xE5 SHL DUP2 MSTORE PUSH1 0x20 PUSH1 0x4 DUP3 ADD MSTORE PUSH1 0x13 PUSH1 0x24 DUP3 ADD MSTORE PUSH32 0x496E76616C6964206E616D65206C656E67746800000000000000000000000000 PUSH1 0x44 DUP3 ADD MSTORE PUSH1 0x64 ADD PUSH3 0x88 JUMP JUMPDEST PUSH1 0x21 PUSH1 0xF8 SHL PUSH1 0x0 JUMPDEST DUP3 MLOAD DUP2 LT ISZERO PUSH3 0x36B JUMPI PUSH1 0x0 PUSH3 0x31B DUP3 PUSH1 0x8 PUSH3 0x524 JUMP JUMPDEST PUSH3 0x328 SWAP1 PUSH1 0x98 PUSH3 0x544 JUMP JUMPDEST SWAP1 POP DUP1 PUSH1 0xFF AND DUP5 DUP4 DUP2 MLOAD DUP2 LT PUSH3 0x343 JUMPI PUSH3 0x343 PUSH3 0x55A JUMP JUMPDEST ADD PUSH1 0x20 ADD MLOAD PUSH1 0xF8 SHR SWAP1 SHL PUSH1 0x58 SHL SWAP3 SWAP1 SWAP3 OR SWAP2 POP DUP1 PUSH3 0x362 DUP2 PUSH3 0x570 JUMP JUMPDEST SWAP2 POP POP PUSH3 0x302 JUMP JUMPDEST POP SWAP4 SWAP3 POP POP POP JUMP JUMPDEST DUP1 MLOAD PUSH1 0x1 PUSH1 0x1 PUSH1 0xA0 SHL SUB DUP2 AND DUP2 EQ PUSH3 0x38B JUMPI PUSH1 0x0 DUP1 REVERT JUMPDEST SWAP2 SWAP1 POP JUMP JUMPDEST PUSH4 0x4E487B71 PUSH1 0xE0 SHL PUSH1 0x0 MSTORE PUSH1 0x41 PUSH1 0x4 MSTORE PUSH1 0x24 PUSH1 0x0 REVERT JUMPDEST DUP1 MLOAD PUSH1 0xFF DUP2 AND DUP2 EQ PUSH3 0x38B JUMPI PUSH1 0x0 DUP1 REVERT JUMPDEST DUP1 MLOAD DUP1 ISZERO ISZERO DUP2 EQ PUSH3 0x38B JUMPI PUSH1 0x0 DUP1 REVERT JUMPDEST PUSH1 0x0 DUP1 PUSH1 0x0 DUP1 PUSH1 0x0 DUP1 PUSH1 0x0 PUSH1 0xE0 DUP9 DUP11 SUB SLT ISZERO PUSH3 0x3E5 JUMPI PUSH1 0x0 DUP1 REVERT JUMPDEST PUSH3 0x3F0 DUP9 PUSH3 0x373 JUMP JUMPDEST SWAP7 POP PUSH1 0x20 PUSH3 0x401 DUP2 DUP11 ADD PUSH3 0x373 JUMP JUMPDEST PUSH1 0x40 DUP11 ADD MLOAD SWAP1 SWAP8 POP PUSH1 0x1 PUSH1 0x1 PUSH1 0x40 SHL SUB DUP1 DUP3 GT ISZERO PUSH3 0x41F JUMPI PUSH1 0x0 DUP1 REVERT JUMPDEST DUP2 DUP12 ADD SWAP2 POP DUP12 PUSH1 0x1F DUP4 ADD SLT PUSH3 0x434 JUMPI PUSH1 0x0 DUP1 REVERT JUMPDEST DUP2 MLOAD DUP2 DUP2 GT ISZERO PUSH3 0x449 JUMPI PUSH3 0x449 PUSH3 0x390 JUMP JUMPDEST PUSH1 0x40 MLOAD PUSH1 0x1F DUP3 ADD PUSH1 0x1F NOT SWAP1 DUP2 AND PUSH1 0x3F ADD AND DUP2 ADD SWAP1 DUP4 DUP3 GT DUP2 DUP4 LT OR ISZERO PUSH3 0x474 JUMPI PUSH3 0x474 PUSH3 0x390 JUMP JUMPDEST DUP2 PUSH1 0x40 MSTORE DUP3 DUP2 MSTORE DUP15 DUP7 DUP5 DUP8 ADD ADD GT ISZERO PUSH3 0x48D JUMPI PUSH1 0x0 DUP1 REVERT JUMPDEST PUSH1 0x0 SWAP4 POP JUMPDEST DUP3 DUP5 LT ISZERO PUSH3 0x4B1 JUMPI DUP5 DUP5 ADD DUP7 ADD MLOAD DUP2 DUP6 ADD DUP8 ADD MSTORE SWAP3 DUP6 ADD SWAP3 PUSH3 0x492 JUMP JUMPDEST PUSH1 0x0 DUP7 DUP5 DUP4 ADD ADD MSTORE DUP1 SWAP11 POP POP POP POP POP POP POP PUSH3 0x4D0 PUSH1 0x60 DUP10 ADD PUSH3 0x373 JUMP JUMPDEST SWAP4 POP PUSH3 0x4E0 PUSH1 0x80 DUP10 ADD PUSH3 0x3A6 JUMP JUMPDEST SWAP3 POP PUSH3 0x4F0 PUSH1 0xA0 DUP10 ADD PUSH3 0x3A6 JUMP JUMPDEST SWAP2 POP PUSH3 0x500 PUSH1 0xC0 DUP10 ADD PUSH3 0x3B8 JUMP JUMPDEST SWAP1 POP SWAP3 SWAP6 SWAP9 SWAP2 SWAP5 SWAP8 POP SWAP3 SWAP6 POP JUMP JUMPDEST PUSH4 0x4E487B71 PUSH1 0xE0 SHL PUSH1 0x0 MSTORE PUSH1 0x11 PUSH1 0x4 MSTORE PUSH1 0x24 PUSH1 0x0 REVERT JUMPDEST DUP1 DUP3 MUL DUP2 ISZERO DUP3 DUP3 DIV DUP5 EQ OR PUSH3 0x53E JUMPI PUSH3 0x53E PUSH3 0x50E JUMP JUMPDEST SWAP3 SWAP2 POP POP JUMP JUMPDEST DUP2 DUP2 SUB DUP2 DUP2 GT ISZERO PUSH3 0x53E JUMPI PUSH3 0x53E PUSH3 0x50E JUMP JUMPDEST PUSH4 0x4E487B71 PUSH1 0xE0 SHL PUSH1 0x0 MSTORE PUSH1 0x32 PUSH1 0x4 MSTORE PUSH1 0x24 PUSH1 0x0 REVERT JUMPDEST PUSH1 0x0 PUSH1 0x1 DUP3 ADD PUSH3 0x585 JUMPI PUSH3 0x585 PUSH3 0x50E JUMP JUMPDEST POP PUSH1 0x1 ADD SWAP1 JUMP JUMPDEST PUSH1 0x80 MLOAD PUSH1 0xA0 MLOAD PUSH1 0xC0 MLOAD PUSH1 0xE0 MLOAD PUSH2 0x100 MLOAD PUSH2 0x120 MLOAD PUSH2 0x140 MLOAD PUSH2 0x160 MLOAD PUSH2 0x2121 PUSH3 0x646 PUSH1 0x0 CODECOPY PUSH1 0x0 DUP2 DUP2 PUSH2 0x3F5 ADD MSTORE PUSH2 0xF53 ADD MSTORE PUSH1 0x0 DUP2 DUP2 PUSH2 0x179 ADD MSTORE PUSH2 0xE98 ADD MSTORE PUSH1 0x0 DUP2 DUP2 PUSH2 0x45F ADD MSTORE PUSH2 0xEBC ADD MSTORE PUSH1 0x0 PUSH2 0xAA9 ADD MSTORE PUSH1 0x0 DUP2 DUP2 PUSH2 0x3A1 ADD MSTORE DUP2 DUP2 PUSH2 0x7CC ADD MSTORE PUSH2 0x9CF ADD MSTORE PUSH1 0x0 DUP2 DUP2 PUSH2 0x22B ADD MSTORE DUP2 DUP2 PUSH2 0x717 ADD MSTORE DUP2 DUP2 PUSH2 0x873 ADD MSTORE PUSH2 0x1128 ADD MSTORE PUSH1 0x0 DUP2 DUP2 PUSH2 0x493 ADD MSTORE DUP2 DUP2 PUSH2 0x6EF ADD MSTORE DUP2 DUP2 PUSH2 0xB7B ADD MSTORE PUSH2 0x1068 ADD MSTORE PUSH1 0x0 DUP2 DUP2 PUSH2 0x2D7 ADD MSTORE PUSH2 0x69A ADD MSTORE PUSH2 0x2121 PUSH1 0x0 RETURN INVALID PUSH1 0x80 PUSH1 0x40 MSTORE PUSH1 0x4 CALLDATASIZE LT PUSH2 0x14B JUMPI PUSH1 0x0 CALLDATALOAD PUSH1 0xE0 SHR DUP1 PUSH4 0x6747F3C6 GT PUSH2 0xB6 JUMPI DUP1 PUSH4 0x8DA5CB5B GT PUSH2 0x6F JUMPI DUP1 PUSH4 0x8DA5CB5B EQ PUSH2 0x42D JUMPI DUP1 PUSH4 0xB31AC6E2 EQ PUSH2 0x44D JUMPI DUP1 PUSH4 0xB59EFDEB EQ PUSH2 0x481 JUMPI DUP1 PUSH4 0xD246A2A3 EQ PUSH2 0x4B5 JUMPI DUP1 PUSH4 0xE6AF35F0 EQ PUSH2 0x4CB JUMPI DUP1 PUSH4 0xF2FDE38B EQ PUSH2 0x4DF JUMPI PUSH1 0x0 DUP1 REVERT JUMPDEST DUP1 PUSH4 0x6747F3C6 EQ PUSH2 0x34F JUMPI DUP1 PUSH4 0x69B4ECC9 EQ PUSH2 0x379 JUMPI DUP1 PUSH4 0x6BDBE6B7 EQ PUSH2 0x38F JUMPI DUP1 PUSH4 0x7BEE4C25 EQ PUSH2 0x3C3 JUMPI DUP1 PUSH4 0x84E767BD EQ PUSH2 0x3E3 JUMPI DUP1 PUSH4 0x8C0A57A8 EQ PUSH2 0x417 JUMPI PUSH1 0x0 DUP1 REVERT JUMPDEST DUP1 PUSH4 0x313CE567 GT PUSH2 0x108 JUMPI DUP1 PUSH4 0x313CE567 EQ PUSH2 0x27A JUMPI DUP1 PUSH4 0x349225F8 EQ PUSH2 0x296 JUMPI DUP1 PUSH4 0x4A643499 EQ PUSH2 0x2B8 JUMPI DUP1 PUSH4 0x4AB5CC82 EQ PUSH2 0x301 JUMPI DUP1 PUSH4 0x57DE26A4 EQ PUSH2 0x325 JUMPI DUP1 PUSH4 0x5F9881A2 EQ PUSH2 0x33A JUMPI PUSH1 0x0 DUP1 REVERT JUMPDEST DUP1 PUSH4 0x2271069 EQ PUSH2 0x150 JUMPI DUP1 PUSH4 0xB77884D EQ PUSH2 0x167 JUMPI DUP1 PUSH4 0x115416FE EQ PUSH2 0x1B2 JUMPI DUP1 PUSH4 0x14BCEC9F EQ PUSH2 0x1E1 JUMPI DUP1 PUSH4 0x1755FF21 EQ PUSH2 0x219 JUMPI DUP1 PUSH4 0x23D60889 EQ PUSH2 0x265 JUMPI JUMPDEST PUSH1 0x0 DUP1 REVERT JUMPDEST CALLVALUE DUP1 ISZERO PUSH2 0x15C JUMPI PUSH1 0x0 DUP1 REVERT JUMPDEST POP PUSH2 0x165 PUSH2 0x4FF JUMP JUMPDEST STOP JUMPDEST CALLVALUE DUP1 ISZERO PUSH2 0x173 JUMPI PUSH1 0x0 DUP1 REVERT JUMPDEST POP PUSH2 0x19B PUSH32 0x0 DUP2 JUMP JUMPDEST PUSH1 0x40 MLOAD PUSH1 0xFF SWAP1 SWAP2 AND DUP2 MSTORE PUSH1 0x20 ADD JUMPDEST PUSH1 0x40 MLOAD DUP1 SWAP2 SUB SWAP1 RETURN JUMPDEST PUSH2 0x1BA PUSH2 0x567 JUMP JUMPDEST PUSH1 0x40 DUP1 MLOAD SWAP4 DUP5 MSTORE PUSH1 0x0 SWAP3 SWAP1 SWAP3 SIGNEXTEND PUSH1 0x20 DUP5 ADD MSTORE PUSH1 0x1 PUSH1 0x1 PUSH1 0x40 SHL SUB AND SWAP1 DUP3 ADD MSTORE PUSH1 0x60 ADD PUSH2 0x1A9 JUMP JUMPDEST CALLVALUE DUP1 ISZERO PUSH2 0x1ED JUMPI PUSH1 0x0 DUP1 REVERT JUMPDEST POP PUSH1 0x2 SLOAD PUSH2 0x201 SWAP1 PUSH1 0x1 PUSH1 0x1 PUSH1 0x40 SHL SUB AND DUP2 JUMP JUMPDEST PUSH1 0x40 MLOAD PUSH1 0x1 PUSH1 0x1 PUSH1 0x40 SHL SUB SWAP1 SWAP2 AND DUP2 MSTORE PUSH1 0x20 ADD PUSH2 0x1A9 JUMP JUMPDEST CALLVALUE DUP1 ISZERO PUSH2 0x225 JUMPI PUSH1 0x0 DUP1 REVERT JUMPDEST POP PUSH2 0x24D PUSH32 0x0 DUP2 JUMP JUMPDEST PUSH1 0x40 MLOAD PUSH1 0x1 PUSH1 0x1 PUSH1 0xA0 SHL SUB SWAP1 SWAP2 AND DUP2 MSTORE PUSH1 0x20 ADD PUSH2 0x1A9 JUMP JUMPDEST CALLVALUE DUP1 ISZERO PUSH2 0x271 JUMPI PUSH1 0x0 DUP1 REVERT JUMPDEST POP PUSH2 0x165 PUSH2 0x5CD JUMP JUMPDEST CALLVALUE DUP1 ISZERO PUSH2 0x286 JUMPI PUSH1 0x0 DUP1 REVERT JUMPDEST POP PUSH1 0x40 MLOAD PUSH1 0x6 DUP2 MSTORE PUSH1 0x20 ADD PUSH2 0x1A9 JUMP JUMPDEST CALLVALUE DUP1 ISZERO PUSH2 0x2A2 JUMPI PUSH1 0x0 DUP1 REVERT JUMPDEST POP PUSH2 0x2AB PUSH2 0x62F JUMP JUMPDEST PUSH1 0x40 MLOAD PUSH2 0x1A9 SWAP2 SWAP1 PUSH2 0x123A JUMP JUMPDEST CALLVALUE DUP1 ISZERO PUSH2 0x2C4 JUMPI PUSH1 0x0 DUP1 REVERT JUMPDEST POP PUSH1 0x40 MLOAD PUSH11 0xFFFFFFFFFFFFFFFFFFFFFF NOT PUSH32 0x0 AND DUP2 MSTORE PUSH1 0x20 ADD PUSH2 0x1A9 JUMP JUMPDEST CALLVALUE DUP1 ISZERO PUSH2 0x30D JUMPI PUSH1 0x0 DUP1 REVERT JUMPDEST POP PUSH2 0x317 PUSH1 0x1 SLOAD DUP2 JUMP JUMPDEST PUSH1 0x40 MLOAD SWAP1 DUP2 MSTORE PUSH1 0x20 ADD PUSH2 0x1A9 JUMP JUMPDEST CALLVALUE DUP1 ISZERO PUSH2 0x331 JUMPI PUSH1 0x0 DUP1 REVERT JUMPDEST POP PUSH2 0x317 PUSH2 0x77C JUMP JUMPDEST CALLVALUE DUP1 ISZERO PUSH2 0x346 JUMPI PUSH1 0x0 DUP1 REVERT JUMPDEST POP PUSH2 0x165 PUSH2 0x7CA JUMP JUMPDEST CALLVALUE DUP1 ISZERO PUSH2 0x35B JUMPI PUSH1 0x0 DUP1 REVERT JUMPDEST POP PUSH1 0x4 SLOAD PUSH2 0x369 SWAP1 PUSH1 0xFF AND DUP2 JUMP JUMPDEST PUSH1 0x40 MLOAD SWAP1 ISZERO ISZERO DUP2 MSTORE PUSH1 0x20 ADD PUSH2 0x1A9 JUMP JUMPDEST CALLVALUE DUP1 ISZERO PUSH2 0x385 JUMPI PUSH1 0x0 DUP1 REVERT JUMPDEST POP PUSH2 0x317 PUSH1 0x3 SLOAD DUP2 JUMP JUMPDEST CALLVALUE DUP1 ISZERO PUSH2 0x39B JUMPI PUSH1 0x0 DUP1 REVERT JUMPDEST POP PUSH2 0x369 PUSH32 0x0 DUP2 JUMP JUMPDEST CALLVALUE DUP1 ISZERO PUSH2 0x3CF JUMPI PUSH1 0x0 DUP1 REVERT JUMPDEST POP PUSH2 0x165 PUSH2 0x3DE CALLDATASIZE PUSH1 0x4 PUSH2 0x12FC JUMP JUMPDEST PUSH2 0x9CD JUMP JUMPDEST CALLVALUE DUP1 ISZERO PUSH2 0x3EF JUMPI PUSH1 0x0 DUP1 REVERT JUMPDEST POP PUSH2 0x369 PUSH32 0x0 DUP2 JUMP JUMPDEST CALLVALUE DUP1 ISZERO PUSH2 0x423 JUMPI PUSH1 0x0 DUP1 REVERT JUMPDEST POP PUSH2 0x317 PUSH1 0x5 SLOAD DUP2 JUMP JUMPDEST CALLVALUE DUP1 ISZERO PUSH2 0x439 JUMPI PUSH1 0x0 DUP1 REVERT JUMPDEST POP PUSH1 0x0 SLOAD PUSH2 0x24D SWAP1 PUSH1 0x1 PUSH1 0x1 PUSH1 0xA0 SHL SUB AND DUP2 JUMP JUMPDEST CALLVALUE DUP1 ISZERO PUSH2 0x459 JUMPI PUSH1 0x0 DUP1 REVERT JUMPDEST POP PUSH2 0x19B PUSH32 0x0 DUP2 JUMP JUMPDEST CALLVALUE DUP1 ISZERO PUSH2 0x48D JUMPI PUSH1 0x0 DUP1 REVERT JUMPDEST POP PUSH2 0x24D PUSH32 0x0 DUP2 JUMP JUMPDEST CALLVALUE DUP1 ISZERO PUSH2 0x4C1 JUMPI PUSH1 0x0 DUP1 REVERT JUMPDEST POP PUSH2 0x317 PUSH1 0x6 SLOAD DUP2 JUMP JUMPDEST CALLVALUE DUP1 ISZERO PUSH2 0x4D7 JUMPI PUSH1 0x0 DUP1 REVERT JUMPDEST POP PUSH1 0x0 PUSH2 0x317 JUMP JUMPDEST CALLVALUE DUP1 ISZERO PUSH2 0x4EB JUMPI PUSH1 0x0 DUP1 REVERT JUMPDEST POP PUSH2 0x165 PUSH2 0x4FA CALLDATASIZE PUSH1 0x4 PUSH2 0x1365 JUMP JUMPDEST PUSH2 0xD6A JUMP JUMPDEST PUSH1 0x0 SLOAD PUSH1 0x1 PUSH1 0x1 PUSH1 0xA0 SHL SUB AND CALLER EQ PUSH2 0x532 JUMPI PUSH1 0x40 MLOAD PUSH3 0x461BCD PUSH1 0xE5 SHL DUP2 MSTORE PUSH1 0x4 ADD PUSH2 0x529 SWAP1 PUSH2 0x1382 JUMP JUMPDEST PUSH1 0x40 MLOAD DUP1 SWAP2 SUB SWAP1 REVERT JUMPDEST PUSH1 0x4 DUP1 SLOAD PUSH1 0xFF NOT AND SWAP1 SSTORE PUSH1 0x40 MLOAD PUSH32 0x4A4C785FE1C9642309071A07AC280989CD10624630E14194D12672C8F0FE661F SWAP1 PUSH1 0x0 SWAP1 LOG1 JUMP JUMPDEST PUSH1 0x0 DUP1 PUSH1 0x0 DUP1 PUSH1 0x1 SLOAD GT PUSH2 0x5B1 JUMPI PUSH1 0x40 MLOAD PUSH3 0x461BCD PUSH1 0xE5 SHL DUP2 MSTORE PUSH1 0x20 PUSH1 0x4 DUP3 ADD MSTORE PUSH1 0x11 PUSH1 0x24 DUP3 ADD MSTORE PUSH17 0x4E6F206461746120617661696C61626C65 PUSH1 0x78 SHL PUSH1 0x44 DUP3 ADD MSTORE PUSH1 0x64 ADD PUSH2 0x529 JUMP JUMPDEST POP POP PUSH1 0x1 SLOAD PUSH1 0x2 SLOAD SWAP1 SWAP3 PUSH1 0x6 SWAP3 POP PUSH1 0x1 PUSH1 0x1 PUSH1 0x40 SHL SUB SWAP1 SWAP2 AND SWAP1 JUMP JUMPDEST PUSH1 0x0 SLOAD PUSH1 0x1 PUSH1 0x1 PUSH1 0xA0 SHL SUB AND CALLER EQ PUSH2 0x5F7 JUMPI PUSH1 0x40 MLOAD PUSH3 0x461BCD PUSH1 0xE5 SHL DUP2 MSTORE PUSH1 0x4 ADD PUSH2 0x529 SWAP1 PUSH2 0x1382 JUMP JUMPDEST PUSH1 0x4 DUP1 SLOAD PUSH1 0xFF NOT AND PUSH1 0x1 OR SWAP1 SSTORE PUSH1 0x40 MLOAD PUSH32 0x24B779DA341973449740A5C61843C5DD3FCFAF5B667A7B67EDCDA18B45BEBA69 SWAP1 PUSH1 0x0 SWAP1 LOG1 JUMP JUMPDEST PUSH1 0x40 DUP1 MLOAD PUSH2 0x140 DUP2 ADD DUP3 MSTORE PUSH1 0x0 DUP1 DUP3 MSTORE PUSH1 0x20 DUP3 ADD DUP2 SWAP1 MSTORE SWAP2 DUP2 ADD DUP3 SWAP1 MSTORE PUSH1 0x60 DUP2 ADD DUP3 SWAP1 MSTORE PUSH1 0x80 DUP2 ADD DUP3 SWAP1 MSTORE PUSH1 0xA0 DUP2 ADD DUP3 SWAP1 MSTORE PUSH1 0xC0 DUP2 ADD DUP3 SWAP1 MSTORE PUSH1 0xE0 DUP2 ADD DUP3 SWAP1 MSTORE PUSH2 0x100 DUP2 ADD DUP3 SWAP1 MSTORE PUSH2 0x120 DUP2 ADD SWAP2 SWAP1 SWAP2 MSTORE PUSH1 0x40 DUP1 MLOAD PUSH2 0x140 DUP2 ADD DUP3 MSTORE PUSH11 0xFFFFFFFFFFFFFFFFFFFFFF NOT PUSH32 0x0 AND DUP2 MSTORE PUSH1 0x1 SLOAD PUSH1 0x20 DUP3 ADD MSTORE PUSH1 0x6 SWAP2 DUP2 ADD DUP3 SWAP1 MSTORE PUSH1 0x2 SLOAD PUSH1 0x1 PUSH1 0x1 PUSH1 0x40 SHL SUB AND PUSH1 0x60 DUP3 ADD MSTORE PUSH1 0x3 SLOAD PUSH1 0x80 DUP3 ADD MSTORE PUSH1 0x1 PUSH1 0x1 PUSH1 0xA0 SHL SUB PUSH32 0x0 DUP2 AND PUSH1 0xA0 DUP4 ADD MSTORE PUSH32 0x0 AND PUSH1 0xC0 DUP3 ADD MSTORE PUSH1 0x4 SLOAD PUSH1 0xFF AND ISZERO ISZERO PUSH1 0xE0 DUP3 ADD MSTORE SWAP1 SLOAD PUSH2 0x100 DUP3 ADD SWAP1 PUSH2 0x75C JUMPI PUSH1 0x0 PUSH2 0x76C JUMP JUMPDEST PUSH1 0x6 SLOAD PUSH1 0x5 SLOAD PUSH2 0x76C SWAP2 SWAP1 PUSH2 0x13BB JUMP JUMPDEST DUP2 MSTORE PUSH1 0x20 ADD PUSH1 0x6 SLOAD DUP2 MSTORE POP SWAP1 POP SWAP1 JUMP JUMPDEST PUSH1 0x0 DUP1 PUSH1 0x1 SLOAD GT PUSH2 0x7C3 JUMPI PUSH1 0x40 MLOAD PUSH3 0x461BCD PUSH1 0xE5 SHL DUP2 MSTORE PUSH1 0x20 PUSH1 0x4 DUP3 ADD MSTORE PUSH1 0x11 PUSH1 0x24 DUP3 ADD MSTORE PUSH17 0x4E6F206461746120617661696C61626C65 PUSH1 0x78 SHL PUSH1 0x44 DUP3 ADD MSTORE PUSH1 0x64 ADD PUSH2 0x529 JUMP JUMPDEST POP PUSH1 0x1 SLOAD SWAP1 JUMP JUMPDEST PUSH32 0x0 PUSH2 0x82B JUMPI PUSH1 0x40 MLOAD PUSH3 0x461BCD PUSH1 0xE5 SHL DUP2 MSTORE PUSH1 0x20 PUSH1 0x4 DUP3 ADD MSTORE PUSH1 0x11 PUSH1 0x24 DUP3 ADD MSTORE PUSH17 0x139BDD0818481B985D1A5D994819995959 PUSH1 0x7A SHL PUSH1 0x44 DUP3 ADD MSTORE PUSH1 0x64 ADD PUSH2 0x529 JUMP JUMPDEST PUSH1 0x4 SLOAD PUSH1 0xFF AND PUSH2 0x86E JUMPI PUSH1 0x40 MLOAD PUSH3 0x461BCD PUSH1 0xE5 SHL DUP2 MSTORE PUSH1 0x20 PUSH1 0x4 DUP3 ADD MSTORE PUSH1 0xE PUSH1 0x24 DUP3 ADD MSTORE PUSH14 0x155C19185D195CC81C185D5CD959 PUSH1 0x92 SHL PUSH1 0x44 DUP3 ADD MSTORE PUSH1 0x64 ADD PUSH2 0x529 JUMP JUMPDEST PUSH1 0x0 DUP1 PUSH32 0x0 PUSH1 0x1 PUSH1 0x1 PUSH1 0xA0 SHL SUB AND PUSH4 0x3850C7BD PUSH1 0x40 MLOAD DUP2 PUSH4 0xFFFFFFFF AND PUSH1 0xE0 SHL DUP2 MSTORE PUSH1 0x4 ADD PUSH1 0xE0 PUSH1 0x40 MLOAD DUP1 DUP4 SUB DUP2 DUP7 GAS STATICCALL ISZERO DUP1 ISZERO PUSH2 0x8CF JUMPI RETURNDATASIZE PUSH1 0x0 DUP1 RETURNDATACOPY RETURNDATASIZE PUSH1 0x0 REVERT JUMPDEST POP POP POP POP PUSH1 0x40 MLOAD RETURNDATASIZE PUSH1 0x1F NOT PUSH1 0x1F DUP3 ADD AND DUP3 ADD DUP1 PUSH1 0x40 MSTORE POP DUP2 ADD SWAP1 PUSH2 0x8F3 SWAP2 SWAP1 PUSH2 0x141C JUMP JUMPDEST SWAP7 POP POP POP POP POP POP SWAP2 POP DUP1 PUSH2 0x937 JUMPI PUSH1 0x40 MLOAD PUSH3 0x461BCD PUSH1 0xE5 SHL DUP2 MSTORE PUSH1 0x20 PUSH1 0x4 DUP3 ADD MSTORE PUSH1 0xB PUSH1 0x24 DUP3 ADD MSTORE PUSH11 0x141BDBDB081B1BD8DAD959 PUSH1 0xAA SHL PUSH1 0x44 DUP3 ADD MSTORE PUSH1 0x64 ADD PUSH2 0x529 JUMP JUMPDEST PUSH1 0x0 PUSH2 0x942 DUP4 PUSH2 0xE2C JUMP JUMPDEST PUSH1 0x1 DUP2 SWAP1 SSTORE PUSH1 0x2 DUP1 SLOAD PUSH8 0xFFFFFFFFFFFFFFFF NOT AND TIMESTAMP PUSH1 0x1 PUSH1 0x1 PUSH1 0x40 SHL SUB DUP2 AND SWAP2 SWAP1 SWAP2 OR SWAP1 SWAP2 SSTORE PUSH1 0x3 DUP1 SLOAD SWAP3 SWAP4 POP SWAP1 SWAP2 SWAP1 PUSH1 0x0 PUSH2 0x97D DUP4 PUSH2 0x14B4 JUMP JUMPDEST SWAP1 SWAP2 SSTORE POP POP PUSH1 0x40 DUP1 MLOAD PUSH1 0x1 PUSH1 0x1 PUSH1 0x40 SHL SUB DUP4 AND DUP2 MSTORE NUMBER PUSH1 0x20 DUP3 ADD MSTORE CALLER SWAP2 DUP5 SWAP2 PUSH32 0xCBB0A1964FDED1543E1FC229A1BEA0552BB873219986500CF7EA9D1A4506D736 SWAP2 ADD PUSH1 0x40 MLOAD DUP1 SWAP2 SUB SWAP1 LOG3 POP POP POP POP JUMP JUMPDEST PUSH32 0x0 ISZERO PUSH2 0xA49 JUMPI PUSH1 0x40 MLOAD PUSH3 0x461BCD PUSH1 0xE5 SHL DUP2 MSTORE PUSH1 0x20 PUSH1 0x4 DUP3 ADD MSTORE PUSH1 0x25 PUSH1 0x24 DUP3 ADD MSTORE PUSH32 0x4E617469766520666565643A207573652075706461746546726F6D4E61746976 PUSH1 0x44 DUP3 ADD MSTORE PUSH5 0x19541BDBDB PUSH1 0xDA SHL PUSH1 0x64 DUP3 ADD MSTORE PUSH1 0x84 ADD PUSH2 0x529 JUMP JUMPDEST PUSH1 0x4 SLOAD PUSH1 0xFF AND PUSH2 0xA8C JUMPI PUSH1 0x40 MLOAD PUSH3 0x461BCD PUSH1 0xE5 SHL DUP2 MSTORE PUSH1 0x20 PUSH1 0x4 DUP3 ADD MSTORE PUSH1 0xE PUSH1 0x24 DUP3 ADD MSTORE PUSH14 0x155C19185D195CC81C185D5CD959 PUSH1 0x92 SHL PUSH1 0x44 DUP3 ADD MSTORE PUSH1 0x64 ADD PUSH2 0x529 JUMP JUMPDEST PUSH1 0x0 GAS PUSH1 0x40 MLOAD PUSH4 0x58FBE9E1 PUSH1 0xE0 SHL DUP2 MSTORE SWAP1 SWAP2 POP PUSH1 0x1 PUSH1 0x1 PUSH1 0xA0 SHL SUB PUSH32 0x0 AND SWAP1 PUSH4 0x58FBE9E1 SWAP1 PUSH2 0xADE SWAP1 DUP6 SWAP1 PUSH1 0x4 ADD PUSH2 0x1802 JUMP JUMPDEST PUSH1 0x20 PUSH1 0x40 MLOAD DUP1 DUP4 SUB DUP2 DUP7 GAS STATICCALL ISZERO DUP1 ISZERO PUSH2 0xAFB JUMPI RETURNDATASIZE PUSH1 0x0 DUP1 RETURNDATACOPY RETURNDATASIZE PUSH1 0x0 REVERT JUMPDEST POP POP POP POP PUSH1 0x40 MLOAD RETURNDATASIZE PUSH1 0x1F NOT PUSH1 0x1F DUP3 ADD AND DUP3 ADD DUP1 PUSH1 0x40 MSTORE POP DUP2 ADD SWAP1 PUSH2 0xB1F SWAP2 SWAP1 PUSH2 0x196E JUMP JUMPDEST PUSH2 0xB5F JUMPI PUSH1 0x40 MLOAD PUSH3 0x461BCD PUSH1 0xE5 SHL DUP2 MSTORE PUSH1 0x20 PUSH1 0x4 DUP3 ADD MSTORE PUSH1 0x11 PUSH1 0x24 DUP3 ADD MSTORE PUSH17 0x24B73B30B634B21023222190383937B7B3 PUSH1 0x79 SHL PUSH1 0x44 DUP3 ADD MSTORE PUSH1 0x64 ADD PUSH2 0x529 JUMP JUMPDEST PUSH1 0x0 PUSH2 0xB6E PUSH1 0x20 DUP5 ADD DUP5 PUSH2 0x198B JUMP JUMPDEST PUSH2 0xB77 SWAP1 PUSH2 0x1E2D JUMP JUMPDEST SWAP1 POP PUSH32 0x0 PUSH1 0x1 PUSH1 0x1 PUSH1 0xA0 SHL SUB AND DUP2 PUSH1 0xA0 ADD MLOAD PUSH1 0x80 ADD MLOAD PUSH1 0x1 PUSH1 0x1 PUSH1 0xA0 SHL SUB AND EQ PUSH2 0xBFB JUMPI PUSH1 0x40 MLOAD PUSH3 0x461BCD PUSH1 0xE5 SHL DUP2 MSTORE PUSH1 0x20 PUSH1 0x4 DUP3 ADD MSTORE PUSH1 0x16 PUSH1 0x24 DUP3 ADD MSTORE PUSH22 0x57726F6E6720636F6E74726163742061646472657373 PUSH1 0x50 SHL PUSH1 0x44 DUP3 ADD MSTORE PUSH1 0x64 ADD PUSH2 0x529 JUMP JUMPDEST DUP1 PUSH1 0xA0 ADD MLOAD PUSH1 0xE0 ADD MLOAD PUSH1 0xFF AND PUSH1 0x1 EQ PUSH2 0xC4B JUMPI PUSH1 0x40 MLOAD PUSH3 0x461BCD PUSH1 0xE5 SHL DUP2 MSTORE PUSH1 0x20 PUSH1 0x4 DUP3 ADD MSTORE PUSH1 0x12 PUSH1 0x24 DUP3 ADD MSTORE PUSH18 0x151C985B9CD858DD1A5BDB8819985A5B1959 PUSH1 0x72 SHL PUSH1 0x44 DUP3 ADD MSTORE PUSH1 0x64 ADD PUSH2 0x529 JUMP JUMPDEST PUSH1 0x0 DUP1 PUSH2 0xC60 DUP4 PUSH1 0xA0 ADD MLOAD PUSH2 0x100 ADD MLOAD PUSH2 0x1038 JUMP JUMPDEST PUSH1 0x1 DUP3 SWAP1 SSTORE PUSH1 0x2 DUP1 SLOAD PUSH8 0xFFFFFFFFFFFFFFFF NOT AND PUSH1 0x1 PUSH1 0x1 PUSH1 0x40 SHL SUB DUP4 AND OR SWAP1 SSTORE PUSH1 0x3 DUP1 SLOAD SWAP3 SWAP5 POP SWAP1 SWAP3 POP PUSH1 0x0 PUSH2 0xC96 DUP4 PUSH2 0x14B4 JUMP JUMPDEST SWAP2 SWAP1 POP SSTORE POP PUSH1 0x0 GAS PUSH2 0xCA8 SWAP1 DUP7 PUSH2 0x1ECF JUMP JUMPDEST SWAP1 POP DUP1 PUSH1 0x5 PUSH1 0x0 DUP3 DUP3 SLOAD PUSH2 0xCBC SWAP2 SWAP1 PUSH2 0x1EE8 JUMP JUMPDEST SWAP1 SWAP2 SSTORE POP POP PUSH1 0x6 DUP1 SLOAD SWAP1 PUSH1 0x0 PUSH2 0xCD1 DUP4 PUSH2 0x14B4 JUMP JUMPDEST SWAP1 SWAP2 SSTORE POP POP PUSH1 0x40 DUP1 MLOAD PUSH1 0x1 PUSH1 0x1 PUSH1 0x40 SHL SUB DUP5 AND DUP2 MSTORE NUMBER PUSH1 0x20 DUP3 ADD MSTORE CALLER SWAP2 DUP6 SWAP2 PUSH32 0xCBB0A1964FDED1543E1FC229A1BEA0552BB873219986500CF7EA9D1A4506D736 SWAP2 ADD PUSH1 0x40 MLOAD DUP1 SWAP2 SUB SWAP1 LOG3 PUSH1 0x80 DUP5 ADD MLOAD MLOAD PUSH1 0x40 DUP1 MLOAD DUP6 DUP2 MSTORE PUSH1 0x1 PUSH1 0x1 PUSH1 0x40 SHL SUB DUP6 AND PUSH1 0x20 DUP3 ADD MSTORE PUSH32 0x20AAFBDB02EDECF8B1E8547D36A18BFA617D137F7556777A48B28D206BD6D4D4 SWAP2 ADD PUSH1 0x40 MLOAD DUP1 SWAP2 SUB SWAP1 LOG2 POP POP POP POP POP POP JUMP JUMPDEST PUSH1 0x0 SLOAD PUSH1 0x1 PUSH1 0x1 PUSH1 0xA0 SHL SUB AND CALLER EQ PUSH2 0xD94 JUMPI PUSH1 0x40 MLOAD PUSH3 0x461BCD PUSH1 0xE5 SHL DUP2 MSTORE PUSH1 0x4 ADD PUSH2 0x529 SWAP1 PUSH2 0x1382 JUMP JUMPDEST PUSH1 0x1 PUSH1 0x1 PUSH1 0xA0 SHL SUB DUP2 AND PUSH2 0xDDC JUMPI PUSH1 0x40 MLOAD PUSH3 0x461BCD PUSH1 0xE5 SHL DUP2 MSTORE PUSH1 0x20 PUSH1 0x4 DUP3 ADD MSTORE PUSH1 0xF PUSH1 0x24 DUP3 ADD MSTORE PUSH15 0x496E76616C69642061646472657373 PUSH1 0x88 SHL PUSH1 0x44 DUP3 ADD MSTORE PUSH1 0x64 ADD PUSH2 0x529 JUMP JUMPDEST PUSH1 0x0 DUP1 SLOAD PUSH1 0x1 PUSH1 0x1 PUSH1 0xA0 SHL SUB DUP4 DUP2 AND PUSH1 0x1 PUSH1 0x1 PUSH1 0xA0 SHL SUB NOT DUP4 AND DUP2 OR DUP5 SSTORE PUSH1 0x40 MLOAD SWAP2 SWAP1 SWAP3 AND SWAP3 DUP4 SWAP2 PUSH32 0x8BE0079C531659141344CD1FD0A4F28419497F9722A3DAAFE3B4186F6B6457E0 SWAP2 SWAP1 LOG3 POP POP JUMP JUMPDEST PUSH1 0x0 PUSH1 0x1 PUSH1 0x60 SHL PUSH1 0x1 PUSH1 0x1 PUSH1 0xA0 SHL SUB DUP4 AND DUP3 DUP1 PUSH1 0x1 PUSH1 0x80 SHL DUP4 GT ISZERO PUSH2 0xE76 JUMPI PUSH1 0x0 PUSH2 0xE5B PUSH1 0x1 PUSH1 0x40 SHL DUP6 PUSH2 0x13BB JUMP JUMPDEST SWAP1 POP PUSH2 0xE67 DUP2 DUP1 PUSH2 0x1EFB JUMP JUMPDEST SWAP3 POP PUSH1 0x1 PUSH1 0x40 SHL SWAP2 POP POP PUSH2 0xE8F JUMP JUMPDEST PUSH2 0xE80 DUP4 DUP1 PUSH2 0x1EFB JUMP JUMPDEST SWAP2 POP PUSH2 0xE8C DUP5 DUP1 PUSH2 0x1EFB JUMP JUMPDEST SWAP1 POP JUMPDEST PUSH1 0x0 PUSH2 0xEE1 PUSH1 0xFF PUSH32 0x0 DUP2 AND SWAP1 PUSH32 0x0 AND PUSH2 0x1F12 JUMP JUMPDEST SWAP1 POP PUSH1 0x0 DUP1 DUP3 SLT PUSH2 0xF13 JUMPI PUSH2 0xEF7 DUP3 PUSH1 0x6 PUSH2 0x1EE8 JUMP JUMPDEST PUSH2 0xF02 SWAP1 PUSH1 0xA PUSH2 0x201D JUMP JUMPDEST PUSH2 0xF0C SWAP1 DUP6 PUSH2 0x1EFB JUMP JUMPDEST SWAP1 POP PUSH2 0xF43 JUMP JUMPDEST PUSH2 0xF20 DUP5 PUSH3 0xF4240 PUSH2 0x1EFB JUMP JUMPDEST SWAP1 POP PUSH2 0xF2B DUP3 PUSH2 0x2029 JUMP JUMPDEST PUSH2 0xF36 SWAP1 PUSH1 0xA PUSH2 0x201D JUMP JUMPDEST PUSH2 0xF40 SWAP1 DUP5 PUSH2 0x1EFB JUMP JUMPDEST SWAP3 POP JUMPDEST PUSH1 0x0 PUSH2 0xF4F DUP5 DUP4 PUSH2 0x13BB JUMP JUMPDEST SWAP1 POP PUSH32 0x0 DUP1 ISZERO PUSH2 0xF7E JUMPI POP PUSH1 0x0 DUP2 GT JUMPDEST ISZERO PUSH2 0xF95 JUMPI PUSH2 0xF92 DUP2 PUSH5 0xE8D4A51000 PUSH2 0x13BB JUMP JUMPDEST SWAP1 POP JUMPDEST PUSH1 0x0 DUP2 GT PUSH2 0xFDE JUMPI PUSH1 0x40 MLOAD PUSH3 0x461BCD PUSH1 0xE5 SHL DUP2 MSTORE PUSH1 0x20 PUSH1 0x4 DUP3 ADD MSTORE PUSH1 0x16 PUSH1 0x24 DUP3 ADD MSTORE PUSH22 0x5072696365206D75737420626520706F736974697665 PUSH1 0x50 SHL PUSH1 0x44 DUP3 ADD MSTORE PUSH1 0x64 ADD PUSH2 0x529 JUMP JUMPDEST PUSH1 0x1 PUSH1 0x1 PUSH1 0x80 SHL SUB DUP2 LT PUSH2 0x102C JUMPI PUSH1 0x40 MLOAD PUSH3 0x461BCD PUSH1 0xE5 SHL DUP2 MSTORE PUSH1 0x20 PUSH1 0x4 DUP3 ADD MSTORE PUSH1 0x15 PUSH1 0x24 DUP3 ADD MSTORE PUSH21 0x50726963652065786365656473206D6178696D756D PUSH1 0x58 SHL PUSH1 0x44 DUP3 ADD MSTORE PUSH1 0x64 ADD PUSH2 0x529 JUMP JUMPDEST SWAP9 SWAP8 POP POP POP POP POP POP POP POP JUMP JUMPDEST PUSH1 0x0 DUP1 PUSH1 0x0 DUP1 JUMPDEST DUP5 MLOAD DUP2 LT ISZERO PUSH2 0x11E6 JUMPI PUSH1 0x0 DUP6 DUP3 DUP2 MLOAD DUP2 LT PUSH2 0x105C JUMPI PUSH2 0x105C PUSH2 0x2045 JUMP JUMPDEST PUSH1 0x20 MUL PUSH1 0x20 ADD ADD MLOAD SWAP1 POP PUSH32 0x0 PUSH1 0x1 PUSH1 0x1 PUSH1 0xA0 SHL SUB AND DUP2 PUSH1 0x20 ADD MLOAD PUSH1 0x1 PUSH1 0x1 PUSH1 0xA0 SHL SUB AND EQ PUSH2 0x10A9 JUMPI POP PUSH2 0x11D4 JUMP JUMPDEST PUSH1 0x0 DUP2 PUSH1 0x40 ADD MLOAD MLOAD GT DUP1 ISZERO PUSH2 0x10FB JUMPI POP PUSH32 0x17440AB048FE6C6CBD98DC862B13C09A99713AC93C0D806C9B2A2A384787935E DUP2 PUSH1 0x40 ADD MLOAD PUSH1 0x0 DUP2 MLOAD DUP2 LT PUSH2 0x10F1 JUMPI PUSH2 0x10F1 PUSH2 0x2045 JUMP JUMPDEST PUSH1 0x20 MUL PUSH1 0x20 ADD ADD MLOAD EQ JUMPDEST ISZERO PUSH2 0x11D2 JUMPI PUSH1 0x0 DUP2 PUSH1 0x40 ADD MLOAD PUSH1 0x1 DUP2 MLOAD DUP2 LT PUSH2 0x1119 JUMPI PUSH2 0x1119 PUSH2 0x2045 JUMP JUMPDEST PUSH1 0x20 MUL PUSH1 0x20 ADD ADD MLOAD PUSH1 0x0 SHR SWAP1 POP PUSH32 0x0 PUSH1 0x1 PUSH1 0x1 PUSH1 0xA0 SHL SUB AND DUP2 PUSH1 0x1 PUSH1 0x1 PUSH1 0xA0 SHL SUB AND EQ PUSH2 0x1194 JUMPI PUSH1 0x40 MLOAD PUSH3 0x461BCD PUSH1 0xE5 SHL DUP2 MSTORE PUSH1 0x20 PUSH1 0x4 DUP3 ADD MSTORE PUSH1 0xA PUSH1 0x24 DUP3 ADD MSTORE PUSH10 0x15DC9BDB99C81C1BDBDB PUSH1 0xB2 SHL PUSH1 0x44 DUP3 ADD MSTORE PUSH1 0x64 ADD PUSH2 0x529 JUMP JUMPDEST PUSH1 0x0 DUP1 DUP4 PUSH1 0x60 ADD MLOAD DUP1 PUSH1 0x20 ADD SWAP1 MLOAD DUP2 ADD SWAP1 PUSH2 0x11AF SWAP2 SWAP1 PUSH2 0x205B JUMP JUMPDEST POP SWAP6 POP POP POP POP POP SWAP2 POP PUSH2 0x11C1 DUP3 PUSH2 0xE2C JUMP JUMPDEST SWAP8 POP SWAP6 POP PUSH1 0x1 SWAP5 POP PUSH2 0x11E6 SWAP3 POP POP POP JUMP JUMPDEST POP JUMPDEST DUP1 PUSH2 0x11DE DUP2 PUSH2 0x14B4 JUMP JUMPDEST SWAP2 POP POP PUSH2 0x103F JUMP JUMPDEST POP DUP1 PUSH2 0x1234 JUMPI PUSH1 0x40 MLOAD PUSH3 0x461BCD PUSH1 0xE5 SHL DUP2 MSTORE PUSH1 0x20 PUSH1 0x4 DUP3 ADD MSTORE PUSH1 0x1D PUSH1 0x24 DUP3 ADD MSTORE PUSH32 0x50726963655265636F72646564206576656E74206E6F7420666F756E64000000 PUSH1 0x44 DUP3 ADD MSTORE PUSH1 0x64 ADD PUSH2 0x529 JUMP JUMPDEST POP SWAP2 POP SWAP2 JUMP JUMPDEST DUP2 MLOAD PUSH11 0xFFFFFFFFFFFFFFFFFFFFFF NOT AND DUP2 MSTORE PUSH2 0x140 DUP2 ADD PUSH1 0x20 DUP4 ADD MLOAD PUSH1 0x20 DUP4 ADD MSTORE PUSH1 0x40 DUP4 ADD MLOAD PUSH2 0x126F PUSH1 0x40 DUP5 ADD DUP3 PUSH1 0x0 SIGNEXTEND SWAP1 MSTORE JUMP JUMPDEST POP PUSH1 0x60 DUP4 ADD MLOAD PUSH2 0x128A PUSH1 0x60 DUP5 ADD DUP3 PUSH1 0x1 PUSH1 0x1 PUSH1 0x40 SHL SUB AND SWAP1 MSTORE JUMP JUMPDEST POP PUSH1 0x80 DUP4 ADD MLOAD PUSH1 0x80 DUP4 ADD MSTORE PUSH1 0xA0 DUP4 ADD MLOAD PUSH2 0x12AF PUSH1 0xA0 DUP5 ADD DUP3 PUSH1 0x1 PUSH1 0x1 PUSH1 0xA0 SHL SUB AND SWAP1 MSTORE JUMP JUMPDEST POP PUSH1 0xC0 DUP4 ADD MLOAD PUSH2 0x12CA PUSH1 0xC0 DUP5 ADD DUP3 PUSH1 0x1 PUSH1 0x1 PUSH1 0xA0 SHL SUB AND SWAP1 MSTORE JUMP JUMPDEST POP PUSH1 0xE0 DUP4 ADD MLOAD PUSH2 0x12DE PUSH1 0xE0 DUP5 ADD DUP3 ISZERO ISZERO SWAP1 MSTORE JUMP JUMPDEST POP PUSH2 0x100 DUP4 DUP2 ADD MLOAD SWAP1 DUP4 ADD MSTORE PUSH2 0x120 SWAP3 DUP4 ADD MLOAD SWAP3 SWAP1 SWAP2 ADD SWAP2 SWAP1 SWAP2 MSTORE SWAP1 JUMP JUMPDEST PUSH1 0x0 PUSH1 0x20 DUP3 DUP5 SUB SLT ISZERO PUSH2 0x130E JUMPI PUSH1 0x0 DUP1 REVERT JUMPDEST DUP2 CALLDATALOAD PUSH1 0x1 PUSH1 0x1 PUSH1 0x40 SHL SUB DUP2 GT ISZERO PUSH2 0x1324 JUMPI PUSH1 0x0 DUP1 REVERT JUMPDEST DUP3 ADD PUSH1 0x40 DUP2 DUP6 SUB SLT ISZERO PUSH2 0x1336 JUMPI PUSH1 0x0 DUP1 REVERT JUMPDEST SWAP4 SWAP3 POP POP POP JUMP JUMPDEST PUSH1 0x1 PUSH1 0x1 PUSH1 0xA0 SHL SUB DUP2 AND DUP2 EQ PUSH2 0x1352 JUMPI PUSH1 0x0 DUP1 REVERT JUMPDEST POP JUMP JUMPDEST DUP1 CALLDATALOAD PUSH2 0x1360 DUP2 PUSH2 0x133D JUMP JUMPDEST SWAP2 SWAP1 POP JUMP JUMPDEST PUSH1 0x0 PUSH1 0x20 DUP3 DUP5 SUB SLT ISZERO PUSH2 0x1377 JUMPI PUSH1 0x0 DUP1 REVERT JUMPDEST DUP2 CALLDATALOAD PUSH2 0x1336 DUP2 PUSH2 0x133D JUMP JUMPDEST PUSH1 0x20 DUP1 DUP3 MSTORE PUSH1 0x9 SWAP1 DUP3 ADD MSTORE PUSH9 0x2737BA1037BBB732B9 PUSH1 0xB9 SHL PUSH1 0x40 DUP3 ADD MSTORE PUSH1 0x60 ADD SWAP1 JUMP JUMPDEST PUSH4 0x4E487B71 PUSH1 0xE0 SHL PUSH1 0x0 MSTORE PUSH1 0x11 PUSH1 0x4 MSTORE PUSH1 0x24 PUSH1 0x0 REVERT JUMPDEST PUSH1 0x0 DUP3 PUSH2 0x13D8 JUMPI PUSH4 0x4E487B71 PUSH1 0xE0 SHL PUSH1 0x0 MSTORE PUSH1 0x12 PUSH1 0x4 MSTORE PUSH1 0x24 PUSH1 0x0 REVERT JUMPDEST POP DIV SWAP1 JUMP JUMPDEST DUP1 MLOAD PUSH1 0x2 DUP2 SWAP1 SIGNEXTEND DUP2 EQ PUSH2 0x1360 JUMPI PUSH1 0x0 DUP1 REVERT JUMPDEST PUSH2 0xFFFF DUP2 AND DUP2 EQ PUSH2 0x1352 JUMPI PUSH1 0x0 DUP1 REVERT JUMPDEST PUSH1 0xFF DUP2 AND DUP2 EQ PUSH2 0x1352 JUMPI PUSH1 0x0 DUP1 REVERT JUMPDEST DUP1 ISZERO ISZERO DUP2 EQ PUSH2 0x1352 JUMPI PUSH1 0x0 DUP1 REVERT JUMPDEST PUSH1 0x0 DUP1 PUSH1 0x0 DUP1 PUSH1 0x0 DUP1 PUSH1 0x0 PUSH1 0xE0 DUP9 DUP11 SUB SLT ISZERO PUSH2 0x1437 JUMPI PUSH1 0x0 DUP1 REVERT JUMPDEST DUP8 MLOAD PUSH2 0x1442 DUP2 PUSH2 0x133D JUMP JUMPDEST SWAP7 POP PUSH2 0x1450 PUSH1 0x20 DUP10 ADD PUSH2 0x13DD JUMP JUMPDEST SWAP6 POP PUSH1 0x40 DUP9 ADD MLOAD PUSH2 0x1460 DUP2 PUSH2 0x13EF JUMP JUMPDEST PUSH1 0x60 DUP10 ADD MLOAD SWAP1 SWAP6 POP PUSH2 0x1471 DUP2 PUSH2 0x13EF JUMP JUMPDEST PUSH1 0x80 DUP10 ADD MLOAD SWAP1 SWAP5 POP PUSH2 0x1482 DUP2 PUSH2 0x13EF JUMP JUMPDEST PUSH1 0xA0 DUP10 ADD MLOAD SWAP1 SWAP4 POP PUSH2 0x1493 DUP2 PUSH2 0x13FF JUMP JUMPDEST PUSH1 0xC0 DUP10 ADD MLOAD SWAP1 SWAP3 POP PUSH2 0x14A4 DUP2 PUSH2 0x140E JUMP JUMPDEST DUP1 SWAP2 POP POP SWAP3 SWAP6 SWAP9 SWAP2 SWAP5 SWAP8 POP SWAP3 SWAP6 POP JUMP JUMPDEST PUSH1 0x0 PUSH1 0x1 DUP3 ADD PUSH2 0x14C6 JUMPI PUSH2 0x14C6 PUSH2 0x13A5 JUMP JUMPDEST POP PUSH1 0x1 ADD SWAP1 JUMP JUMPDEST PUSH1 0x0 DUP1 DUP4 CALLDATALOAD PUSH1 0x1E NOT DUP5 CALLDATASIZE SUB ADD DUP2 SLT PUSH2 0x14E4 JUMPI PUSH1 0x0 DUP1 REVERT JUMPDEST DUP4 ADD PUSH1 0x20 DUP2 ADD SWAP3 POP CALLDATALOAD SWAP1 POP PUSH1 0x1 PUSH1 0x1 PUSH1 0x40 SHL SUB DUP2 GT ISZERO PUSH2 0x1503 JUMPI PUSH1 0x0 DUP1 REVERT JUMPDEST DUP1 PUSH1 0x5 SHL CALLDATASIZE SUB DUP3 SGT ISZERO PUSH2 0x1515 JUMPI PUSH1 0x0 DUP1 REVERT JUMPDEST SWAP3 POP SWAP3 SWAP1 POP JUMP JUMPDEST DUP2 DUP4 MSTORE PUSH1 0x0 PUSH1 0x1 PUSH1 0x1 PUSH1 0xFB SHL SUB DUP4 GT ISZERO PUSH2 0x1535 JUMPI PUSH1 0x0 DUP1 REVERT JUMPDEST DUP3 PUSH1 0x5 SHL DUP1 DUP4 PUSH1 0x20 DUP8 ADD CALLDATACOPY SWAP4 SWAP1 SWAP4 ADD PUSH1 0x20 ADD SWAP4 SWAP3 POP POP POP JUMP JUMPDEST DUP1 CALLDATALOAD PUSH1 0x1 PUSH1 0x1 PUSH1 0x40 SHL SUB DUP2 AND DUP2 EQ PUSH2 0x1360 JUMPI PUSH1 0x0 DUP1 REVERT JUMPDEST PUSH1 0x0 DUP3 CALLDATALOAD PUSH1 0x9E NOT DUP4 CALLDATASIZE SUB ADD DUP2 SLT PUSH2 0x157B JUMPI PUSH1 0x0 DUP1 REVERT JUMPDEST SWAP1 SWAP2 ADD SWAP3 SWAP2 POP POP JUMP JUMPDEST DUP1 CALLDATALOAD PUSH2 0x1360 DUP2 PUSH2 0x140E JUMP JUMPDEST DUP1 CALLDATALOAD PUSH4 0xFFFFFFFF DUP2 AND DUP2 EQ PUSH2 0x1360 JUMPI PUSH1 0x0 DUP1 REVERT JUMPDEST PUSH1 0x0 DUP3 CALLDATALOAD PUSH2 0x11E NOT DUP4 CALLDATASIZE SUB ADD DUP2 SLT PUSH2 0x157B JUMPI PUSH1 0x0 DUP1 REVERT JUMPDEST PUSH1 0x0 DUP1 DUP4 CALLDATALOAD PUSH1 0x1E NOT DUP5 CALLDATASIZE SUB ADD DUP2 SLT PUSH2 0x15D1 JUMPI PUSH1 0x0 DUP1 REVERT JUMPDEST DUP4 ADD PUSH1 0x20 DUP2 ADD SWAP3 POP CALLDATALOAD SWAP1 POP PUSH1 0x1 PUSH1 0x1 PUSH1 0x40 SHL SUB DUP2 GT ISZERO PUSH2 0x15F0 JUMPI PUSH1 0x0 DUP1 REVERT JUMPDEST DUP1 CALLDATASIZE SUB DUP3 SGT ISZERO PUSH2 0x1515 JUMPI PUSH1 0x0 DUP1 REVERT JUMPDEST DUP2 DUP4 MSTORE DUP2 DUP2 PUSH1 0x20 DUP6 ADD CALLDATACOPY POP PUSH1 0x0 DUP3 DUP3 ADD PUSH1 0x20 SWAP1 DUP2 ADD SWAP2 SWAP1 SWAP2 MSTORE PUSH1 0x1F SWAP1 SWAP2 ADD PUSH1 0x1F NOT AND SWAP1 SWAP2 ADD ADD SWAP1 JUMP JUMPDEST DUP1 CALLDATALOAD PUSH2 0x1360 DUP2 PUSH2 0x13FF JUMP JUMPDEST DUP2 DUP4 MSTORE PUSH1 0x0 PUSH1 0x20 DUP1 DUP6 ADD DUP1 DUP2 SWAP7 POP DUP6 PUSH1 0x5 SHL DUP2 ADD SWAP2 POP DUP5 PUSH1 0x0 JUMPDEST DUP8 DUP2 LT ISZERO PUSH2 0x1707 JUMPI DUP3 DUP5 SUB DUP10 MSTORE PUSH2 0x1664 DUP3 DUP9 PUSH2 0x1565 JUMP JUMPDEST PUSH1 0xA0 PUSH4 0xFFFFFFFF PUSH2 0x1674 DUP4 PUSH2 0x158F JUMP JUMPDEST AND DUP7 MSTORE DUP7 DUP3 ADD CALLDATALOAD PUSH2 0x1684 DUP2 PUSH2 0x133D JUMP JUMPDEST PUSH1 0x1 PUSH1 0x1 PUSH1 0xA0 SHL SUB AND DUP7 DUP9 ADD MSTORE PUSH1 0x40 PUSH2 0x169F DUP4 DUP3 ADD DUP5 PUSH2 0x14CD JUMP JUMPDEST DUP4 DUP4 DUP11 ADD MSTORE PUSH2 0x16B1 DUP5 DUP11 ADD DUP3 DUP5 PUSH2 0x151C JUMP JUMPDEST SWAP4 POP POP POP POP PUSH1 0x60 PUSH2 0x16C4 DUP2 DUP5 ADD DUP5 PUSH2 0x15BA JUMP JUMPDEST DUP9 DUP5 SUB DUP4 DUP11 ADD MSTORE PUSH2 0x16D6 DUP5 DUP3 DUP5 PUSH2 0x15FF JUMP JUMPDEST SWAP4 POP POP POP POP PUSH1 0x80 DUP1 DUP4 ADD CALLDATALOAD SWAP3 POP PUSH2 0x16EC DUP4 PUSH2 0x140E JUMP JUMPDEST SWAP2 ISZERO ISZERO SWAP6 SWAP1 SWAP2 ADD SWAP5 SWAP1 SWAP5 MSTORE SWAP8 DUP5 ADD SWAP8 SWAP1 DUP5 ADD SWAP1 PUSH1 0x1 ADD PUSH2 0x164D JUMP JUMPDEST POP SWAP2 SWAP8 SWAP7 POP POP POP POP POP POP POP JUMP JUMPDEST PUSH1 0x0 PUSH2 0x120 PUSH2 0x1733 DUP5 PUSH2 0x1726 DUP6 PUSH2 0x154E JUMP JUMPDEST PUSH1 0x1 PUSH1 0x1 PUSH1 0x40 SHL SUB AND SWAP1 MSTORE JUMP JUMPDEST PUSH2 0x173F PUSH1 0x20 DUP5 ADD PUSH2 0x154E JUMP JUMPDEST PUSH1 0x1 PUSH1 0x1 PUSH1 0x40 SHL SUB AND PUSH1 0x20 DUP6 ADD MSTORE PUSH2 0x1759 PUSH1 0x40 DUP5 ADD PUSH2 0x1355 JUMP JUMPDEST PUSH1 0x1 PUSH1 0x1 PUSH1 0xA0 SHL SUB AND PUSH1 0x40 DUP6 ADD MSTORE PUSH2 0x1773 PUSH1 0x60 DUP5 ADD PUSH2 0x1584 JUMP JUMPDEST ISZERO ISZERO PUSH1 0x60 DUP6 ADD MSTORE PUSH2 0x1786 PUSH1 0x80 DUP5 ADD PUSH2 0x1355 JUMP JUMPDEST PUSH1 0x1 PUSH1 0x1 PUSH1 0xA0 SHL SUB AND PUSH1 0x80 DUP6 ADD MSTORE PUSH1 0xA0 DUP4 DUP2 ADD CALLDATALOAD SWAP1 DUP6 ADD MSTORE PUSH2 0x17AB PUSH1 0xC0 DUP5 ADD DUP5 PUSH2 0x15BA JUMP JUMPDEST DUP3 PUSH1 0xC0 DUP8 ADD MSTORE PUSH2 0x17BE DUP4 DUP8 ADD DUP3 DUP5 PUSH2 0x15FF JUMP JUMPDEST SWAP3 POP POP POP PUSH2 0x17CE PUSH1 0xE0 DUP5 ADD PUSH2 0x1628 JUMP JUMPDEST PUSH1 0xFF AND PUSH1 0xE0 DUP6 ADD MSTORE PUSH2 0x100 PUSH2 0x17E5 DUP5 DUP3 ADD DUP6 PUSH2 0x14CD JUMP JUMPDEST DUP7 DUP5 SUB DUP4 DUP9 ADD MSTORE PUSH2 0x17F7 DUP5 DUP3 DUP5 PUSH2 0x1633 JUMP JUMPDEST SWAP8 SWAP7 POP POP POP POP POP POP POP JUMP JUMPDEST PUSH1 0x0 PUSH1 0x20 DUP1 DUP4 MSTORE PUSH2 0x1813 DUP5 DUP6 PUSH2 0x14CD JUMP JUMPDEST PUSH1 0x40 DUP4 DUP7 ADD MSTORE PUSH2 0x1827 PUSH1 0x60 DUP7 ADD DUP3 DUP5 PUSH2 0x151C JUMP JUMPDEST SWAP2 POP POP DUP2 DUP6 ADD CALLDATALOAD PUSH1 0xBE NOT DUP7 CALLDATASIZE SUB ADD DUP2 SLT PUSH2 0x1840 JUMPI PUSH1 0x0 DUP1 REVERT JUMPDEST DUP6 DUP2 ADD SWAP1 POP PUSH1 0x1F NOT DUP6 DUP4 SUB ADD PUSH1 0x40 DUP7 ADD MSTORE DUP1 CALLDATALOAD DUP3 MSTORE DUP3 DUP2 ADD CALLDATALOAD DUP4 DUP4 ADD MSTORE PUSH2 0x1869 PUSH1 0x40 DUP3 ADD PUSH2 0x154E JUMP JUMPDEST PUSH1 0x1 PUSH1 0x1 PUSH1 0x40 SHL SUB DUP1 DUP3 AND PUSH1 0x40 DUP6 ADD MSTORE DUP1 PUSH2 0x1886 PUSH1 0x60 DUP6 ADD PUSH2 0x154E JUMP JUMPDEST AND PUSH1 0x60 DUP6 ADD MSTORE POP POP PUSH2 0x189B PUSH1 0x80 DUP3 ADD DUP3 PUSH2 0x1565 JUMP JUMPDEST PUSH1 0xC0 PUSH1 0x80 DUP5 ADD MSTORE PUSH2 0x160 DUP4 ADD DUP2 CALLDATALOAD PUSH1 0xC0 DUP6 ADD MSTORE DUP5 DUP3 ADD CALLDATALOAD PUSH2 0x18BB DUP2 PUSH2 0x13EF JUMP JUMPDEST PUSH2 0xFFFF AND PUSH1 0xE0 DUP6 ADD MSTORE PUSH1 0x40 DUP3 ADD CALLDATALOAD PUSH2 0x18D2 DUP2 PUSH2 0x140E JUMP JUMPDEST ISZERO ISZERO PUSH2 0x100 DUP6 ADD MSTORE PUSH1 0x60 DUP3 ADD CALLDATALOAD PUSH2 0x18E8 DUP2 PUSH2 0x140E JUMP JUMPDEST ISZERO ISZERO PUSH2 0x120 DUP6 ADD MSTORE PUSH2 0x18FD PUSH1 0x80 DUP4 ADD DUP4 PUSH2 0x14CD JUMP JUMPDEST PUSH1 0xA0 PUSH2 0x140 DUP8 ADD MSTORE SWAP2 DUP3 SWAP1 MSTORE SWAP1 SWAP2 POP PUSH1 0x0 PUSH2 0x180 DUP6 ADD JUMPDEST DUP4 DUP3 LT ISZERO PUSH2 0x193F JUMPI PUSH4 0xFFFFFFFF PUSH2 0x192A DUP5 PUSH2 0x158F JUMP JUMPDEST AND DUP2 MSTORE SWAP2 DUP7 ADD SWAP2 PUSH1 0x1 SWAP2 SWAP1 SWAP2 ADD SWAP1 DUP7 ADD PUSH2 0x1914 JUMP JUMPDEST PUSH2 0x194C PUSH1 0xA0 DUP7 ADD DUP7 PUSH2 0x15A3 JUMP JUMPDEST SWAP7 POP DUP6 DUP2 SUB PUSH1 0xA0 DUP8 ADD MSTORE PUSH2 0x1960 DUP2 DUP9 PUSH2 0x1714 JUMP JUMPDEST SWAP11 SWAP10 POP POP POP POP POP POP POP POP POP POP JUMP JUMPDEST PUSH1 0x0 PUSH1 0x20 DUP3 DUP5 SUB SLT ISZERO PUSH2 0x1980 JUMPI PUSH1 0x0 DUP1 REVERT JUMPDEST DUP2 MLOAD PUSH2 0x1336 DUP2 PUSH2 0x140E JUMP JUMPDEST PUSH1 0x0 DUP3 CALLDATALOAD PUSH1 0xBE NOT DUP4 CALLDATASIZE SUB ADD DUP2 SLT PUSH2 0x19A1 JUMPI PUSH1 0x0 DUP1 REVERT JUMPDEST SWAP2 SWAP1 SWAP2 ADD SWAP3 SWAP2 POP POP JUMP JUMPDEST PUSH4 0x4E487B71 PUSH1 0xE0 SHL PUSH1 0x0 MSTORE PUSH1 0x41 PUSH1 0x4 MSTORE PUSH1 0x24 PUSH1 0x0 REVERT JUMPDEST PUSH1 0x40 MLOAD PUSH1 0xA0 DUP2 ADD PUSH1 0x1 PUSH1 0x1 PUSH1 0x40 SHL SUB DUP2 GT DUP3 DUP3 LT OR ISZERO PUSH2 0x19E3 JUMPI PUSH2 0x19E3 PUSH2 0x19AB JUMP JUMPDEST PUSH1 0x40 MSTORE SWAP1 JUMP JUMPDEST PUSH1 0x40 MLOAD PUSH2 0x120 DUP2 ADD PUSH1 0x1 PUSH1 0x1 PUSH1 0x40 SHL SUB DUP2 GT DUP3 DUP3 LT OR ISZERO PUSH2 0x19E3 JUMPI PUSH2 0x19E3 PUSH2 0x19AB JUMP JUMPDEST PUSH1 0x40 MLOAD PUSH1 0xC0 DUP2 ADD PUSH1 0x1 PUSH1 0x1 PUSH1 0x40 SHL SUB DUP2 GT DUP3 DUP3 LT OR ISZERO PUSH2 0x19E3 JUMPI PUSH2 0x19E3 PUSH2 0x19AB JUMP JUMPDEST PUSH1 0x40 MLOAD PUSH1 0x1F DUP3 ADD PUSH1 0x1F NOT AND DUP2 ADD PUSH1 0x1 PUSH1 0x1 PUSH1 0x40 SHL SUB DUP2 GT DUP3 DUP3 LT OR ISZERO PUSH2 0x1A56 JUMPI PUSH2 0x1A56 PUSH2 0x19AB JUMP JUMPDEST PUSH1 0x40 MSTORE SWAP2 SWAP1 POP JUMP JUMPDEST PUSH1 0x0 PUSH1 0x1 PUSH1 0x1 PUSH1 0x40 SHL SUB DUP3 GT ISZERO PUSH2 0x1A77 JUMPI PUSH2 0x1A77 PUSH2 0x19AB JUMP JUMPDEST POP PUSH1 0x5 SHL PUSH1 0x20 ADD SWAP1 JUMP JUMPDEST PUSH1 0x0 PUSH1 0xA0 DUP3 DUP5 SUB SLT ISZERO PUSH2 0x1A93 JUMPI PUSH1 0x0 DUP1 REVERT JUMPDEST PUSH2 0x1A9B PUSH2 0x19C1 JUMP JUMPDEST SWAP1 POP DUP2 CALLDATALOAD DUP2 MSTORE PUSH1 0x20 DUP1 DUP4 ADD CALLDATALOAD PUSH2 0x1AB0 DUP2 PUSH2 0x13EF JUMP JUMPDEST DUP3 DUP3 ADD MSTORE PUSH1 0x40 DUP4 ADD CALLDATALOAD PUSH2 0x1AC2 DUP2 PUSH2 0x140E JUMP JUMPDEST PUSH1 0x40 DUP4 ADD MSTORE PUSH1 0x60 DUP4 ADD CALLDATALOAD PUSH2 0x1AD5 DUP2 PUSH2 0x140E JUMP JUMPDEST PUSH1 0x60 DUP4 ADD MSTORE PUSH1 0x80 DUP4 ADD CALLDATALOAD PUSH1 0x1 PUSH1 0x1 PUSH1 0x40 SHL SUB DUP2 GT ISZERO PUSH2 0x1AF3 JUMPI PUSH1 0x0 DUP1 REVERT JUMPDEST DUP4 ADD PUSH1 0x1F DUP2 ADD DUP6 SGT PUSH2 0x1B04 JUMPI PUSH1 0x0 DUP1 REVERT JUMPDEST DUP1 CALLDATALOAD PUSH2 0x1B17 PUSH2 0x1B12 DUP3 PUSH2 0x1A5E JUMP JUMPDEST PUSH2 0x1A2E JUMP JUMPDEST DUP2 DUP2 MSTORE PUSH1 0x5 SWAP2 SWAP1 SWAP2 SHL DUP3 ADD DUP4 ADD SWAP1 DUP4 DUP2 ADD SWAP1 DUP8 DUP4 GT ISZERO PUSH2 0x1B36 JUMPI PUSH1 0x0 DUP1 REVERT JUMPDEST SWAP3 DUP5 ADD SWAP3 JUMPDEST DUP3 DUP5 LT ISZERO PUSH2 0x1B5B JUMPI PUSH2 0x1B4C DUP5 PUSH2 0x158F JUMP JUMPDEST DUP3 MSTORE SWAP3 DUP5 ADD SWAP3 SWAP1 DUP5 ADD SWAP1 PUSH2 0x1B3B JUMP JUMPDEST PUSH1 0x80 DUP7 ADD MSTORE POP SWAP3 SWAP6 SWAP5 POP POP POP POP POP JUMP JUMPDEST PUSH1 0x0 DUP3 PUSH1 0x1F DUP4 ADD SLT PUSH2 0x1B7C JUMPI PUSH1 0x0 DUP1 REVERT JUMPDEST DUP2 CALLDATALOAD PUSH1 0x1 PUSH1 0x1 PUSH1 0x40 SHL SUB DUP2 GT ISZERO PUSH2 0x1B95 JUMPI PUSH2 0x1B95 PUSH2 0x19AB JUMP JUMPDEST PUSH2 0x1BA8 PUSH1 0x1F DUP3 ADD PUSH1 0x1F NOT AND PUSH1 0x20 ADD PUSH2 0x1A2E JUMP JUMPDEST DUP2 DUP2 MSTORE DUP5 PUSH1 0x20 DUP4 DUP7 ADD ADD GT ISZERO PUSH2 0x1BBD JUMPI PUSH1 0x0 DUP1 REVERT JUMPDEST DUP2 PUSH1 0x20 DUP6 ADD PUSH1 0x20 DUP4 ADD CALLDATACOPY PUSH1 0x0 SWAP2 DUP2 ADD PUSH1 0x20 ADD SWAP2 SWAP1 SWAP2 MSTORE SWAP4 SWAP3 POP POP POP JUMP JUMPDEST PUSH1 0x0 DUP3 PUSH1 0x1F DUP4 ADD SLT PUSH2 0x1BEB JUMPI PUSH1 0x0 DUP1 REVERT JUMPDEST DUP2 CALLDATALOAD PUSH1 0x20 PUSH2 0x1BFB PUSH2 0x1B12 DUP4 PUSH2 0x1A5E JUMP JUMPDEST DUP3 DUP2 MSTORE PUSH1 0x5 SWAP3 SWAP1 SWAP3 SHL DUP5 ADD DUP2 ADD SWAP2 DUP2 DUP2 ADD SWAP1 DUP7 DUP5 GT ISZERO PUSH2 0x1C1A JUMPI PUSH1 0x0 DUP1 REVERT JUMPDEST DUP3 DUP7 ADD JUMPDEST DUP5 DUP2 LT ISZERO PUSH2 0x1D41 JUMPI DUP1 CALLDATALOAD PUSH1 0x1 PUSH1 0x1 PUSH1 0x40 SHL SUB DUP1 DUP3 GT ISZERO PUSH2 0x1C3D JUMPI PUSH1 0x0 DUP1 REVERT JUMPDEST SWAP1 DUP9 ADD SWAP1 PUSH1 0xA0 DUP3 DUP12 SUB PUSH1 0x1F NOT ADD SLT ISZERO PUSH2 0x1C55 JUMPI PUSH1 0x0 DUP1 REVERT JUMPDEST PUSH2 0x1C5D PUSH2 0x19C1 JUMP JUMPDEST PUSH2 0x1C68 DUP8 DUP5 ADD PUSH2 0x158F JUMP JUMPDEST DUP2 MSTORE PUSH1 0x40 DUP1 DUP5 ADD CALLDATALOAD PUSH2 0x1C79 DUP2 PUSH2 0x133D JUMP JUMPDEST DUP3 DUP10 ADD MSTORE PUSH1 0x60 DUP5 ADD CALLDATALOAD DUP4 DUP2 GT ISZERO PUSH2 0x1C90 JUMPI PUSH1 0x0 DUP1 DUP2 REVERT JUMPDEST DUP5 ADD PUSH1 0x3F DUP2 ADD DUP14 SGT PUSH2 0x1CA2 JUMPI PUSH1 0x0 DUP1 DUP2 REVERT JUMPDEST DUP9 DUP2 ADD CALLDATALOAD PUSH2 0x1CB2 PUSH2 0x1B12 DUP3 PUSH2 0x1A5E JUMP JUMPDEST DUP2 DUP2 MSTORE PUSH1 0x5 SWAP2 SWAP1 SWAP2 SHL DUP3 ADD DUP4 ADD SWAP1 DUP11 DUP2 ADD SWAP1 DUP16 DUP4 GT ISZERO PUSH2 0x1CD2 JUMPI PUSH1 0x0 DUP1 DUP2 REVERT JUMPDEST SWAP3 DUP5 ADD SWAP3 JUMPDEST DUP3 DUP5 LT ISZERO PUSH2 0x1CF0 JUMPI DUP4 CALLDATALOAD DUP3 MSTORE SWAP3 DUP12 ADD SWAP3 SWAP1 DUP12 ADD SWAP1 PUSH2 0x1CD7 JUMP JUMPDEST DUP1 DUP6 DUP8 ADD MSTORE POP POP POP POP POP PUSH1 0x80 DUP1 DUP5 ADD CALLDATALOAD DUP4 DUP2 GT ISZERO PUSH2 0x1D0E JUMPI PUSH1 0x0 DUP1 DUP2 REVERT JUMPDEST PUSH2 0x1D1C DUP14 DUP11 DUP4 DUP9 ADD ADD PUSH2 0x1B6B JUMP JUMPDEST PUSH1 0x60 DUP5 ADD MSTORE POP PUSH2 0x1D2E PUSH1 0xA0 DUP6 ADD PUSH2 0x1584 JUMP JUMPDEST SWAP1 DUP3 ADD MSTORE DUP6 MSTORE POP POP SWAP2 DUP4 ADD SWAP2 DUP4 ADD PUSH2 0x1C1E JUMP JUMPDEST POP SWAP7 SWAP6 POP POP POP POP POP POP JUMP JUMPDEST PUSH1 0x0 PUSH2 0x120 DUP3 DUP5 SUB SLT ISZERO PUSH2 0x1D5F JUMPI PUSH1 0x0 DUP1 REVERT JUMPDEST PUSH2 0x1D67 PUSH2 0x19E9 JUMP JUMPDEST SWAP1 POP PUSH2 0x1D72 DUP3 PUSH2 0x154E JUMP JUMPDEST DUP2 MSTORE PUSH2 0x1D80 PUSH1 0x20 DUP4 ADD PUSH2 0x154E JUMP JUMPDEST PUSH1 0x20 DUP3 ADD MSTORE PUSH2 0x1D91 PUSH1 0x40 DUP4 ADD PUSH2 0x1355 JUMP JUMPDEST PUSH1 0x40 DUP3 ADD MSTORE PUSH2 0x1DA2 PUSH1 0x60 DUP4 ADD PUSH2 0x1584 JUMP JUMPDEST PUSH1 0x60 DUP3 ADD MSTORE PUSH2 0x1DB3 PUSH1 0x80 DUP4 ADD PUSH2 0x1355 JUMP JUMPDEST PUSH1 0x80 DUP3 ADD MSTORE PUSH1 0xA0 DUP3 ADD CALLDATALOAD PUSH1 0xA0 DUP3 ADD MSTORE PUSH1 0xC0 DUP3 ADD CALLDATALOAD PUSH1 0x1 PUSH1 0x1 PUSH1 0x40 SHL SUB DUP1 DUP3 GT ISZERO PUSH2 0x1DDC JUMPI PUSH1 0x0 DUP1 REVERT JUMPDEST PUSH2 0x1DE8 DUP6 DUP4 DUP7 ADD PUSH2 0x1B6B JUMP JUMPDEST PUSH1 0xC0 DUP5 ADD MSTORE PUSH2 0x1DF9 PUSH1 0xE0 DUP6 ADD PUSH2 0x1628 JUMP JUMPDEST PUSH1 0xE0 DUP5 ADD MSTORE PUSH2 0x100 SWAP2 POP DUP2 DUP5 ADD CALLDATALOAD DUP2 DUP2 GT ISZERO PUSH2 0x1E14 JUMPI PUSH1 0x0 DUP1 REVERT JUMPDEST PUSH2 0x1E20 DUP7 DUP3 DUP8 ADD PUSH2 0x1BDA JUMP JUMPDEST DUP4 DUP6 ADD MSTORE POP POP POP SWAP3 SWAP2 POP POP JUMP JUMPDEST PUSH1 0x0 PUSH1 0xC0 DUP3 CALLDATASIZE SUB SLT ISZERO PUSH2 0x1E3F JUMPI PUSH1 0x0 DUP1 REVERT JUMPDEST PUSH2 0x1E47 PUSH2 0x1A0C JUMP JUMPDEST DUP3 CALLDATALOAD DUP2 MSTORE PUSH1 0x20 DUP4 ADD CALLDATALOAD PUSH1 0x20 DUP3 ADD MSTORE PUSH2 0x1E61 PUSH1 0x40 DUP5 ADD PUSH2 0x154E JUMP JUMPDEST PUSH1 0x40 DUP3 ADD MSTORE PUSH2 0x1E72 PUSH1 0x60 DUP5 ADD PUSH2 0x154E JUMP JUMPDEST PUSH1 0x60 DUP3 ADD MSTORE PUSH1 0x80 DUP4 ADD CALLDATALOAD PUSH1 0x1 PUSH1 0x1 PUSH1 0x40 SHL SUB DUP1 DUP3 GT ISZERO PUSH2 0x1E91 JUMPI PUSH1 0x0 DUP1 REVERT JUMPDEST PUSH2 0x1E9D CALLDATASIZE DUP4 DUP8 ADD PUSH2 0x1A81 JUMP JUMPDEST PUSH1 0x80 DUP5 ADD MSTORE PUSH1 0xA0 DUP6 ADD CALLDATALOAD SWAP2 POP DUP1 DUP3 GT ISZERO PUSH2 0x1EB6 JUMPI PUSH1 0x0 DUP1 REVERT JUMPDEST POP PUSH2 0x1EC3 CALLDATASIZE DUP3 DUP7 ADD PUSH2 0x1D4C JUMP JUMPDEST PUSH1 0xA0 DUP4 ADD MSTORE POP SWAP3 SWAP2 POP POP JUMP JUMPDEST DUP2 DUP2 SUB DUP2 DUP2 GT ISZERO PUSH2 0x1EE2 JUMPI PUSH2 0x1EE2 PUSH2 0x13A5 JUMP JUMPDEST SWAP3 SWAP2 POP POP JUMP JUMPDEST DUP1 DUP3 ADD DUP1 DUP3 GT ISZERO PUSH2 0x1EE2 JUMPI PUSH2 0x1EE2 PUSH2 0x13A5 JUMP JUMPDEST DUP1 DUP3 MUL DUP2 ISZERO DUP3 DUP3 DIV DUP5 EQ OR PUSH2 0x1EE2 JUMPI PUSH2 0x1EE2 PUSH2 0x13A5 JUMP JUMPDEST DUP2 DUP2 SUB PUSH1 0x0 DUP4 SLT DUP1 ISZERO DUP4 DUP4 SGT AND DUP4 DUP4 SLT DUP3 AND OR ISZERO PUSH2 0x1F32 JUMPI PUSH2 0x1F32 PUSH2 0x13A5 JUMP JUMPDEST POP SWAP3 SWAP2 POP POP JUMP JUMPDEST PUSH1 0x1 DUP2 DUP2 JUMPDEST DUP1 DUP6 GT ISZERO PUSH2 0x1F74 JUMPI DUP2 PUSH1 0x0 NOT DIV DUP3 GT ISZERO PUSH2 0x1F5A JUMPI PUSH2 0x1F5A PUSH2 0x13A5 JUMP JUMPDEST DUP1 DUP6 AND ISZERO PUSH2 0x1F67 JUMPI SWAP2 DUP2 MUL SWAP2 JUMPDEST SWAP4 DUP5 SHR SWAP4 SWAP1 DUP1 MUL SWAP1 PUSH2 0x1F3E JUMP JUMPDEST POP SWAP3 POP SWAP3 SWAP1 POP JUMP JUMPDEST PUSH1 0x0 DUP3 PUSH2 0x1F8B JUMPI POP PUSH1 0x1 PUSH2 0x1EE2 JUMP JUMPDEST DUP2 PUSH2 0x1F98 JUMPI POP PUSH1 0x0 PUSH2 0x1EE2 JUMP JUMPDEST DUP2 PUSH1 0x1 DUP2 EQ PUSH2 0x1FAE JUMPI PUSH1 0x2 DUP2 EQ PUSH2 0x1FB8 JUMPI PUSH2 0x1FD4 JUMP JUMPDEST PUSH1 0x1 SWAP2 POP POP PUSH2 0x1EE2 JUMP JUMPDEST PUSH1 0xFF DUP5 GT ISZERO PUSH2 0x1FC9 JUMPI PUSH2 0x1FC9 PUSH2 0x13A5 JUMP JUMPDEST POP POP PUSH1 0x1 DUP3 SHL PUSH2 0x1EE2 JUMP JUMPDEST POP PUSH1 0x20 DUP4 LT PUSH2 0x133 DUP4 LT AND PUSH1 0x4E DUP5 LT PUSH1 0xB DUP5 LT AND OR ISZERO PUSH2 0x1FF7 JUMPI POP DUP2 DUP2 EXP PUSH2 0x1EE2 JUMP JUMPDEST PUSH2 0x2001 DUP4 DUP4 PUSH2 0x1F39 JUMP JUMPDEST DUP1 PUSH1 0x0 NOT DIV DUP3 GT ISZERO PUSH2 0x2015 JUMPI PUSH2 0x2015 PUSH2 0x13A5 JUMP JUMPDEST MUL SWAP4 SWAP3 POP POP POP JUMP JUMPDEST PUSH1 0x0 PUSH2 0x1336 DUP4 DUP4 PUSH2 0x1F7C JUMP JUMPDEST PUSH1 0x0 PUSH1 0x1 PUSH1 0xFF SHL DUP3 ADD PUSH2 0x203E JUMPI PUSH2 0x203E PUSH2 0x13A5 JUMP JUMPDEST POP PUSH1 0x0 SUB SWAP1 JUMP JUMPDEST PUSH4 0x4E487B71 PUSH1 0xE0 SHL PUSH1 0x0 MSTORE PUSH1 0x32 PUSH1 0x4 MSTORE PUSH1 0x24 PUSH1 0x0 REVERT JUMPDEST PUSH1 0x0 DUP1 PUSH1 0x0 DUP1 PUSH1 0x0 DUP1 PUSH1 0x0 PUSH1 0xE0 DUP9 DUP11 SUB SLT ISZERO PUSH2 0x2076 JUMPI PUSH1 0x0 DUP1 REVERT JUMPDEST DUP8 MLOAD PUSH2 0x2081 DUP2 PUSH2 0x133D JUMP JUMPDEST SWAP7 POP PUSH2 0x208F PUSH1 0x20 DUP10 ADD PUSH2 0x13DD JUMP JUMPDEST SWAP6 POP PUSH1 0x40 DUP9 ADD MLOAD PUSH1 0x1 PUSH1 0x1 PUSH1 0x80 SHL SUB DUP2 AND DUP2 EQ PUSH2 0x20AB JUMPI PUSH1 0x0 DUP1 REVERT JUMPDEST PUSH1 0x60 DUP10 ADD MLOAD SWAP1 SWAP6 POP PUSH2 0x20BC DUP2 PUSH2 0x133D JUMP JUMPDEST PUSH1 0x80 DUP10 ADD MLOAD SWAP1 SWAP5 POP PUSH2 0x20CD DUP2 PUSH2 0x133D JUMP JUMPDEST DUP1 SWAP4 POP POP PUSH1 0xA0 DUP9 ADD MLOAD SWAP2 POP PUSH1 0xC0 DUP9 ADD MLOAD SWAP1 POP SWAP3 SWAP6 SWAP9 SWAP2 SWAP5 SWAP8 POP SWAP3 SWAP6 POP JUMP INVALID LOG2 PUSH5 0x6970667358 0x22 SLT KECCAK256 0xAD PUSH29 0x761977E4105A2E1ECC511E667524C0407E45EDC27D67CCFE1DC70948FA 0xD4 PUSH5 0x736F6C6343 STOP ADDMOD SGT STOP CALLER "},"methodIdentifiers":{"acceptingUpdates()":"6747f3c6","calculateFee()":"e6af35f0","decimals()":"313ce567","feedId()":"4a643499","getCurrentFeed()":"115416fe","getFeedInfo()":"349225f8","invertPrice()":"84e767bd","isNativeFeed()":"6bdbe6b7","lastUpdateTimestamp()":"14bcec9f","latestValue()":"4ab5cc82","owner()":"8da5cb5b","pauseUpdates()":"02271069","poolAddress()":"1755ff21","priceRecorderAddress()":"b59efdeb","read()":"57de26a4","resumeUpdates()":"23d60889","token0Decimals()":"b31ac6e2","token1Decimals()":"0b77884d","totalGasUsedForVerification()":"8c0a57a8","totalProofsVerified()":"d246a2a3","transferOwnership(address)":"f2fde38b","updateCount()":"69b4ecc9","updateFromNativePool()":"5f9881a2","updateFromProof((bytes32[],(bytes32,bytes32,uint64,uint64,(bytes32,uint16,bool,bool,uint32[]),(uint64,uint64,address,bool,address,uint256,bytes,uint8,(uint32,address,bytes32[],bytes,bool)[]))))":"7bee4c25"}}}}}