{"contracts/PriceRecorder.sol":{"PriceRecorder":{"abi":[{"inputs":[{"internalType":"uint256","name":"_initialInterval","type":"uint256"}],"stateMutability":"nonpayable","type":"constructor"},{"anonymous":false,"inputs":[{"indexed":true,"internalType":"address","name":"pool","type":"address"},{"indexed":false,"internalType":"string","name":"reason","type":"string"}],"name":"EmergencyPriceRecorded","type":"event"},{"anonymous":false,"inputs":[{"indexed":true,"internalType":"address","name":"previousOwner","type":"address"},{"indexed":true,"internalType":"address","name":"newOwner","type":"address"}],"name":"OwnershipTransferred","type":"event"},{"anonymous":false,"inputs":[{"indexed":true,"internalType":"address","name":"pool","type":"address"}],"name":"PoolDisabled","type":"event"},{"anonymous":false,"inputs":[{"indexed":true,"internalType":"address","name":"pool","type":"address"},{"indexed":false,"internalType":"address","name":"token0","type":"address"},{"indexed":false,"internalType":"address","name":"token1","type":"address"},{"indexed":false,"internalType":"uint24","name":"fee","type":"uint24"}],"name":"PoolEnabled","type":"event"},{"anonymous":false,"inputs":[{"indexed":true,"internalType":"address","name":"pool","type":"address"},{"indexed":false,"internalType":"uint160","name":"sqrtPriceX96","type":"uint160"},{"indexed":false,"internalType":"int24","name":"tick","type":"int24"},{"indexed":false,"internalType":"uint128","name":"liquidity","type":"uint128"},{"indexed":false,"internalType":"address","name":"token0","type":"address"},{"indexed":false,"internalType":"address","name":"token1","type":"address"},{"indexed":false,"internalType":"uint256","name":"timestamp","type":"uint256"},{"indexed":false,"internalType":"uint256","name":"blockNumber","type":"uint256"}],"name":"PriceRecorded","type":"event"},{"anonymous":false,"inputs":[{"indexed":false,"internalType":"bool","name":"isRecording","type":"bool"}],"name":"RecordingStatusChanged","type":"event"},{"anonymous":false,"inputs":[{"indexed":false,"internalType":"uint256","name":"oldInterval","type":"uint256"},{"indexed":false,"internalType":"uint256","name":"newInterval","type":"uint256"}],"name":"UpdateIntervalChanged","type":"event"},{"inputs":[{"internalType":"address","name":"pool","type":"address"}],"name":"canUpdate","outputs":[{"internalType":"bool","name":"","type":"bool"}],"stateMutability":"view","type":"function"},{"inputs":[{"internalType":"address","name":"pool","type":"address"}],"name":"disablePool","outputs":[],"stateMutability":"nonpayable","type":"function"},{"inputs":[{"internalType":"address","name":"pool","type":"address"},{"internalType":"string","name":"reason","type":"string"}],"name":"emergencyRecordPrice","outputs":[],"stateMutability":"nonpayable","type":"function"},{"inputs":[{"internalType":"address","name":"pool","type":"address"}],"name":"enablePool","outputs":[],"stateMutability":"nonpayable","type":"function"},{"inputs":[{"internalType":"address","name":"","type":"address"}],"name":"enabledPools","outputs":[{"internalType":"bool","name":"","type":"bool"}],"stateMutability":"view","type":"function"},{"inputs":[],"name":"getEnabledPools","outputs":[{"internalType":"address[]","name":"","type":"address[]"}],"stateMutability":"view","type":"function"},{"inputs":[],"name":"getPoolCount","outputs":[{"internalType":"uint256","name":"","type":"uint256"}],"stateMutability":"view","type":"function"},{"inputs":[{"internalType":"address","name":"pool","type":"address"}],"name":"getPoolInfo","outputs":[{"components":[{"internalType":"address","name":"token0","type":"address"},{"internalType":"address","name":"token1","type":"address"},{"internalType":"uint24","name":"fee","type":"uint24"},{"internalType":"uint256","name":"lastUpdate","type":"uint256"},{"internalType":"uint256","name":"updateCount","type":"uint256"}],"internalType":"struct PriceRecorder.PoolInfo","name":"","type":"tuple"}],"stateMutability":"view","type":"function"},{"inputs":[],"name":"isRecording","outputs":[{"internalType":"bool","name":"","type":"bool"}],"stateMutability":"view","type":"function"},{"inputs":[],"name":"owner","outputs":[{"internalType":"address","name":"","type":"address"}],"stateMutability":"view","type":"function"},{"inputs":[{"internalType":"address","name":"","type":"address"}],"name":"poolInfo","outputs":[{"internalType":"address","name":"token0","type":"address"},{"internalType":"address","name":"token1","type":"address"},{"internalType":"uint24","name":"fee","type":"uint24"},{"internalType":"uint256","name":"lastUpdate","type":"uint256"},{"internalType":"uint256","name":"updateCount","type":"uint256"}],"stateMutability":"view","type":"function"},{"inputs":[{"internalType":"uint256","name":"","type":"uint256"}],"name":"poolList","outputs":[{"internalType":"address","name":"","type":"address"}],"stateMutability":"view","type":"function"},{"inputs":[{"internalType":"address","name":"pool","type":"address"}],"name":"recordPrice","outputs":[],"stateMutability":"nonpayable","type":"function"},{"inputs":[{"internalType":"address[]","name":"pools","type":"address[]"}],"name":"recordPriceBatch","outputs":[],"stateMutability":"nonpayable","type":"function"},{"inputs":[{"internalType":"bool","name":"_isRecording","type":"bool"}],"name":"setRecording","outputs":[],"stateMutability":"nonpayable","type":"function"},{"inputs":[{"internalType":"uint256","name":"_newInterval","type":"uint256"}],"name":"setUpdateInterval","outputs":[],"stateMutability":"nonpayable","type":"function"},{"inputs":[{"internalType":"address","name":"pool","type":"address"}],"name":"timeUntilNextUpdate","outputs":[{"internalType":"uint256","name":"","type":"uint256"}],"stateMutability":"view","type":"function"},{"inputs":[{"internalType":"address","name":"newOwner","type":"address"}],"name":"transferOwnership","outputs":[],"stateMutability":"nonpayable","type":"function"},{"inputs":[],"name":"updateInterval","outputs":[{"internalType":"uint256","name":"","type":"uint256"}],"stateMutability":"view","type":"function"}],"evm":{"bytecode":{"linkReferences":{},"object":"608060405234801561001057600080fd5b506040516119f03803806119f083398101604081905261002f9161010f565b600081116100765760405162461bcd60e51b815260206004820152601060248201526f125b9d985b1a59081a5b9d195c9d985b60821b604482015260640160405180910390fd5b60008054600160a01b6001600160a81b03199091163360ff60a01b19161717905560018181556040519081527fde5c952c6b1d2d5a3d8f912363a2128960eed0e684d59657252227590f9d37bd9060200160405180910390a16040805160008152602081018390527f906b7c716abe77ce683d8fb36d3428d70d84ae296249efe4691b95ebe3242a88910160405180910390a150610128565b60006020828403121561012157600080fd5b5051919050565b6118b9806101376000396000f3fe608060405234801561001057600080fd5b50600436106101215760003560e01c80638da5cb5b116100ad578063d3f0672211610071578063d3f0672214610344578063dcaaa61b14610358578063e73872b91461036b578063f2fde38b1461037e578063fd2c80ae1461039157600080fd5b80638da5cb5b146102725780638eec5d70146102855780639a7b5f111461028d578063ab14c05a1461031c578063b2a68ca81461032f57600080fd5b806337011521116100f457806337011521146102055780635211e29b14610226578063595aeb50146102395780637124c6831461024c5780637a80dfd11461025f57600080fd5b806306bfa938146101265780630cb729dc1461019257806316873229146101a75780632a48235b146101da575b600080fd5b6101396101343660046114b7565b61039a565b604051610189919081516001600160a01b0390811682526020808401519091169082015260408083015162ffffff1690820152606080830151908201526080918201519181019190915260a00190565b60405180910390f35b6101a56101a03660046114d4565b61048a565b005b6101ca6101b53660046114b7565b60026020526000908152604090205460ff1681565b6040519015158152602001610189565b6101ed6101e8366004611559565b61053d565b6040516001600160a01b039091168152602001610189565b6102186102133660046114b7565b610567565b604051908152602001610189565b6101a5610234366004611572565b6105dd565b6101a56102473660046114b7565b61071c565b6101a561025a366004611559565b610c67565b6101a561026d3660046114b7565b610d6d565b6000546101ed906001600160a01b031681565b600454610218565b6102df61029b3660046114b7565b600360208190526000918252604090912080546001820154600283015492909301546001600160a01b039182169391821692600160a01b90920462ffffff16919085565b604080516001600160a01b03968716815295909416602086015262ffffff909216928401929092526060830191909152608082015260a001610189565b6101a561032a3660046115f5565b610e7a565b610337610f56565b6040516101899190611612565b6000546101ca90600160a01b900460ff1681565b6101a56103663660046114b7565b6110e8565b6101ca6103793660046114b7565b611193565b6101a561038c3660046114b7565b611205565b61021860015481565b6040805160a0810182526000808252602082018190529181018290526060810182905260808101919091526001600160a01b03828116600090815260036020526040902054166104245760405162461bcd60e51b815260206004820152601060248201526f141bdbdb081b995d995c88185919195960821b60448201526064015b60405180910390fd5b506001600160a01b03908116600090815260036020818152604092839020835160a081018552815486168152600182015495861692810192909252600160a01b90940462ffffff1692810192909252600283015460608301529190910154608082015290565b6000546001600160a01b031633146104b45760405162461bcd60e51b815260040161041b9061165f565b6001600160a01b03831660009081526002602052604090205460ff166104ec5760405162461bcd60e51b815260040161041b90611682565b6104f5836112c7565b826001600160a01b03167fb8e2a0e9d13a3554d3ed11ae641603e5e475c8d14f7ca0aa0b58bff31e5720b183836040516105309291906116ac565b60405180910390a2505050565b6004818154811061054d57600080fd5b6000918252602090912001546001600160a01b0316905081565b6001600160a01b03811660009081526002602052604081205460ff166105905750600019919050565b6001546001600160a01b03831660009081526003602052604081206002015490916105ba916116f1565b90508042106105cc5750600092915050565b6105d6428261170a565b9392505050565b600054600160a01b900460ff1661062c5760405162461bcd60e51b8152602060048201526013602482015272149958dbdc991a5b99c81a5cc81c185d5cd959606a1b604482015260640161041b565b603281111561066f5760405162461bcd60e51b815260206004820152600f60248201526e426174636820746f6f206c6172676560881b604482015260640161041b565b60005b8181101561071757600083838381811061068e5761068e61171d565b90506020020160208101906106a391906114b7565b6001600160a01b03811660009081526002602052604090205490915060ff1680156106f657506001546001600160a01b0382166000908152600360205260409020600201546106f291906116f1565b4210155b1561070457610704816112c7565b508061070f81611733565b915050610672565b505050565b6000546001600160a01b031633146107465760405162461bcd60e51b815260040161041b9061165f565b6001600160a01b03811661078e5760405162461bcd60e51b815260206004820152600f60248201526e496e76616c6964206164647265737360881b604482015260640161041b565b6001600160a01b03811660009081526002602052604090205460ff16156107e95760405162461bcd60e51b815260206004820152600f60248201526e105b1c9958591e48195b98589b1959608a1b604482015260640161041b565b806001600160a01b0316633850c7bd6040518163ffffffff1660e01b815260040160e060405180830381865afa925050508015610843575060408051601f3d908101601f1916820190925261084091810190611763565b60015b61088f5760405162461bcd60e51b815260206004820152601760248201527f496e76616c696420556e697377617020563320706f6f6c000000000000000000604482015260640161041b565b6000886001600160a01b0316630dfe16816040518163ffffffff1660e01b8152600401602060405180830381865afa1580156108cf573d6000803e3d6000fd5b505050506040513d601f19601f820116820180604052508101906108f39190611802565b90506000896001600160a01b031663d21220a76040518163ffffffff1660e01b8152600401602060405180830381865afa158015610935573d6000803e3d6000fd5b505050506040513d601f19601f820116820180604052508101906109599190611802565b905060008a6001600160a01b031663ddca3f436040518163ffffffff1660e01b8152600401602060405180830381865afa15801561099b573d6000803e3d6000fd5b505050506040513d601f19601f820116820180604052508101906109bf919061181f565b9050816001600160a01b0316836001600160a01b031603610a225760405162461bcd60e51b815260206004820152601860248201527f546f6b656e73206d75737420626520646966666572656e740000000000000000604482015260640161041b565b8062ffffff1660641480610a3c57508062ffffff166101f4145b80610a4d57508062ffffff16610bb8145b80610a5e57508062ffffff16612710145b610a9d5760405162461bcd60e51b815260206004820152601060248201526f24b73b30b634b2103332b2903a34b2b960811b604482015260640161041b565b6000805b600454811015610afd578c6001600160a01b031660048281548110610ac857610ac861171d565b6000918252602090912001546001600160a01b031603610aeb5760019150610afd565b80610af581611733565b915050610aa1565b506001600160a01b03808d166000818152600260208181526040808420805460ff19166001908117909155815160a0810183528b881681528a881681850190815262ffffff808c1683860190815260608401898152608085018a81529a8a526003978890529590982092518354908b166001600160a01b0319909116178355905192820180549751909116600160a01b026001600160b81b0319909716929098169190911794909417909555935190820155905191015580610c0557600480546001810182556000919091527f8a35acfbc15ff81a39ae7d344fd709f28e8600b4aa8c65c6b64bfe7fe36bd19b0180546001600160a01b0319166001600160a01b038e161790555b604080516001600160a01b038681168252858116602083015262ffffff8516828401529151918e16917fe37480f8ed71c7931548316ef5c479efa7f4c1d0600bf43339373b73c58a7bf49181900360600190a250505050505050505050505b50565b6000546001600160a01b03163314610c915760405162461bcd60e51b815260040161041b9061165f565b60008111610ce15760405162461bcd60e51b815260206004820152601960248201527f496e74657276616c206d75737420626520706f73697469766500000000000000604482015260640161041b565b62015180811115610d285760405162461bcd60e51b8152602060048201526011602482015270496e74657276616c20746f6f206c6f6e6760781b604482015260640161041b565b600180549082905560408051828152602081018490527f906b7c716abe77ce683d8fb36d3428d70d84ae296249efe4691b95ebe3242a88910160405180910390a15050565b600054600160a01b900460ff16610dbc5760405162461bcd60e51b8152602060048201526013602482015272149958dbdc991a5b99c81a5cc81c185d5cd959606a1b604482015260640161041b565b6001546001600160a01b0382166000908152600360205260409020600201548291610de6916116f1565b421015610e355760405162461bcd60e51b815260206004820152601b60248201527f55706461746520696e74657276616c206e6f7420656c61707365640000000000604482015260640161041b565b6001600160a01b03821660009081526002602052604090205460ff16610e6d5760405162461bcd60e51b815260040161041b90611682565b610e76826112c7565b5050565b6000546001600160a01b03163314610ea45760405162461bcd60e51b815260040161041b9061165f565b801515600060149054906101000a900460ff16151503610efe5760405162461bcd60e51b8152602060048201526015602482015274416c726561647920696e207468697320737461746560581b604482015260640161041b565b60008054821515600160a01b0260ff60a01b199091161790556040517fde5c952c6b1d2d5a3d8f912363a2128960eed0e684d59657252227590f9d37bd90610f4b90831515815260200190565b60405180910390a150565b60606000805b600454811015610fca576002600060048381548110610f7d57610f7d61171d565b60009182526020808320909101546001600160a01b0316835282019290925260400190205460ff1615610fb85781610fb481611733565b9250505b80610fc281611733565b915050610f5c565b5060008167ffffffffffffffff811115610fe657610fe6611844565b60405190808252806020026020018201604052801561100f578160200160208202803683370190505b5090506000805b6004548110156110df5760026000600483815481106110375761103761171d565b60009182526020808320909101546001600160a01b0316835282019290925260400190205460ff16156110cd57600481815481106110775761107761171d565b9060005260206000200160009054906101000a90046001600160a01b03168383815181106110a7576110a761171d565b6001600160a01b0390921660209283029190910190910152816110c981611733565b9250505b806110d781611733565b915050611016565b50909392505050565b6000546001600160a01b031633146111125760405162461bcd60e51b815260040161041b9061165f565b6001600160a01b03811660009081526002602052604090205460ff1661114a5760405162461bcd60e51b815260040161041b90611682565b6001600160a01b038116600081815260026020526040808220805460ff19169055517ff82ae9a5785e9b261d7e8bba20ced7516919ec7bdc4b18e7d916316f4991e5329190a250565b60008054600160a01b900460ff1615806111c657506001600160a01b03821660009081526002602052604090205460ff16155b156111d357506000919050565b6001546001600160a01b0383166000908152600360205260409020600201546111fc91906116f1565b42101592915050565b6000546001600160a01b0316331461122f5760405162461bcd60e51b815260040161041b9061165f565b6001600160a01b0381166112775760405162461bcd60e51b815260206004820152600f60248201526e496e76616c6964206164647265737360881b604482015260640161041b565b600080546001600160a01b038381166001600160a01b0319831681178455604051919092169283917f8be0079c531659141344cd1fd0a4f28419497f9722a3daafe3b4186f6b6457e09190a35050565b6000806000836001600160a01b0316633850c7bd6040518163ffffffff1660e01b815260040160e060405180830381865afa15801561130a573d6000803e3d6000fd5b505050506040513d601f19601f8201168201806040525081019061132e9190611763565b96505050505092509250806113765760405162461bcd60e51b815260206004820152600e60248201526d141bdbdb081a5cc81b1bd8dad95960921b604482015260640161041b565b6000846001600160a01b0316631a6865026040518163ffffffff1660e01b8152600401602060405180830381865afa1580156113b6573d6000803e3d6000fd5b505050506040513d601f19601f820116820180604052508101906113da919061185a565b6001600160a01b0380871660009081526003602081905260408220805460018201544260028401559282018054969750919590851694929092169261141e83611733565b9091555050604080516001600160a01b038981168252600289900b60208301526001600160801b03871682840152848116606083015283811660808301524260a08301524360c08301529151918a16917f17440ab048fe6c6cbd98dc862b13c09a99713ac93c0d806c9b2a2a384787935e9181900360e00190a25050505050505050565b6001600160a01b0381168114610c6457600080fd5b6000602082840312156114c957600080fd5b81356105d6816114a2565b6000806000604084860312156114e957600080fd5b83356114f4816114a2565b9250602084013567ffffffffffffffff8082111561151157600080fd5b818601915086601f83011261152557600080fd5b81358181111561153457600080fd5b87602082850101111561154657600080fd5b6020830194508093505050509250925092565b60006020828403121561156b57600080fd5b5035919050565b6000806020838503121561158557600080fd5b823567ffffffffffffffff8082111561159d57600080fd5b818501915085601f8301126115b157600080fd5b8135818111156115c057600080fd5b8660208260051b85010111156115d557600080fd5b60209290920196919550909350505050565b8015158114610c6457600080fd5b60006020828403121561160757600080fd5b81356105d6816115e7565b6020808252825182820181905260009190848201906040850190845b818110156116535783516001600160a01b03168352928401929184019160010161162e565b50909695505050505050565b6020808252600990820152682737ba1037bbb732b960b91b604082015260600190565b60208082526010908201526f141bdbdb081b9bdd08195b98589b195960821b604082015260600190565b60208152816020820152818360408301376000818301604090810191909152601f909201601f19160101919050565b634e487b7160e01b600052601160045260246000fd5b80820180821115611704576117046116db565b92915050565b81810381811115611704576117046116db565b634e487b7160e01b600052603260045260246000fd5b600060018201611745576117456116db565b5060010190565b805161ffff8116811461175e57600080fd5b919050565b600080600080600080600060e0888a03121561177e57600080fd5b8751611789816114a2565b8097505060208801518060020b81146117a157600080fd5b95506117af6040890161174c565b94506117bd6060890161174c565b93506117cb6080890161174c565b925060a088015160ff811681146117e157600080fd5b60c08901519092506117f2816115e7565b8091505092959891949750929550565b60006020828403121561181457600080fd5b81516105d6816114a2565b60006020828403121561183157600080fd5b815162ffffff811681146105d657600080fd5b634e487b7160e01b600052604160045260246000fd5b60006020828403121561186c57600080fd5b81516001600160801b03811681146105d657600080fdfea26469706673582212206c761d55e7fdb3139a5f1e84d4ae634fd1b1108cd8be45a92a6ed0d3e98b297b64736f6c63430008130033","opcodes":"PUSH1 0x80 PUSH1 0x40 MSTORE CALLVALUE DUP1 ISZERO PUSH2 0x10 JUMPI PUSH1 0x0 DUP1 REVERT JUMPDEST POP PUSH1 0x40 MLOAD PUSH2 0x19F0 CODESIZE SUB DUP1 PUSH2 0x19F0 DUP4 CODECOPY DUP2 ADD PUSH1 0x40 DUP2 SWAP1 MSTORE PUSH2 0x2F SWAP2 PUSH2 0x10F JUMP JUMPDEST PUSH1 0x0 DUP2 GT PUSH2 0x76 JUMPI PUSH1 0x40 MLOAD PUSH3 0x461BCD PUSH1 0xE5 SHL DUP2 MSTORE PUSH1 0x20 PUSH1 0x4 DUP3 ADD MSTORE PUSH1 0x10 PUSH1 0x24 DUP3 ADD MSTORE PUSH16 0x125B9D985B1A59081A5B9D195C9D985B PUSH1 0x82 SHL PUSH1 0x44 DUP3 ADD MSTORE PUSH1 0x64 ADD PUSH1 0x40 MLOAD DUP1 SWAP2 SUB SWAP1 REVERT JUMPDEST PUSH1 0x0 DUP1 SLOAD PUSH1 0x1 PUSH1 0xA0 SHL PUSH1 0x1 PUSH1 0x1 PUSH1 0xA8 SHL SUB NOT SWAP1 SWAP2 AND CALLER PUSH1 0xFF PUSH1 0xA0 SHL NOT AND OR OR SWAP1 SSTORE PUSH1 0x1 DUP2 DUP2 SSTORE PUSH1 0x40 MLOAD SWAP1 DUP2 MSTORE PUSH32 0xDE5C952C6B1D2D5A3D8F912363A2128960EED0E684D59657252227590F9D37BD SWAP1 PUSH1 0x20 ADD PUSH1 0x40 MLOAD DUP1 SWAP2 SUB SWAP1 LOG1 PUSH1 0x40 DUP1 MLOAD PUSH1 0x0 DUP2 MSTORE PUSH1 0x20 DUP2 ADD DUP4 SWAP1 MSTORE PUSH32 0x906B7C716ABE77CE683D8FB36D3428D70D84AE296249EFE4691B95EBE3242A88 SWAP2 ADD PUSH1 0x40 MLOAD DUP1 SWAP2 SUB SWAP1 LOG1 POP PUSH2 0x128 JUMP JUMPDEST PUSH1 0x0 PUSH1 0x20 DUP3 DUP5 SUB SLT ISZERO PUSH2 0x121 JUMPI PUSH1 0x0 DUP1 REVERT JUMPDEST POP MLOAD SWAP2 SWAP1 POP JUMP JUMPDEST PUSH2 0x18B9 DUP1 PUSH2 0x137 PUSH1 0x0 CODECOPY PUSH1 0x0 RETURN INVALID PUSH1 0x80 PUSH1 0x40 MSTORE CALLVALUE DUP1 ISZERO PUSH2 0x10 JUMPI PUSH1 0x0 DUP1 REVERT JUMPDEST POP PUSH1 0x4 CALLDATASIZE LT PUSH2 0x121 JUMPI PUSH1 0x0 CALLDATALOAD PUSH1 0xE0 SHR DUP1 PUSH4 0x8DA5CB5B GT PUSH2 0xAD JUMPI DUP1 PUSH4 0xD3F06722 GT PUSH2 0x71 JUMPI DUP1 PUSH4 0xD3F06722 EQ PUSH2 0x344 JUMPI DUP1 PUSH4 0xDCAAA61B EQ PUSH2 0x358 JUMPI DUP1 PUSH4 0xE73872B9 EQ PUSH2 0x36B JUMPI DUP1 PUSH4 0xF2FDE38B EQ PUSH2 0x37E JUMPI DUP1 PUSH4 0xFD2C80AE EQ PUSH2 0x391 JUMPI PUSH1 0x0 DUP1 REVERT JUMPDEST DUP1 PUSH4 0x8DA5CB5B EQ PUSH2 0x272 JUMPI DUP1 PUSH4 0x8EEC5D70 EQ PUSH2 0x285 JUMPI DUP1 PUSH4 0x9A7B5F11 EQ PUSH2 0x28D JUMPI DUP1 PUSH4 0xAB14C05A EQ PUSH2 0x31C JUMPI DUP1 PUSH4 0xB2A68CA8 EQ PUSH2 0x32F JUMPI PUSH1 0x0 DUP1 REVERT JUMPDEST DUP1 PUSH4 0x37011521 GT PUSH2 0xF4 JUMPI DUP1 PUSH4 0x37011521 EQ PUSH2 0x205 JUMPI DUP1 PUSH4 0x5211E29B EQ PUSH2 0x226 JUMPI DUP1 PUSH4 0x595AEB50 EQ PUSH2 0x239 JUMPI DUP1 PUSH4 0x7124C683 EQ PUSH2 0x24C JUMPI DUP1 PUSH4 0x7A80DFD1 EQ PUSH2 0x25F JUMPI PUSH1 0x0 DUP1 REVERT JUMPDEST DUP1 PUSH4 0x6BFA938 EQ PUSH2 0x126 JUMPI DUP1 PUSH4 0xCB729DC EQ PUSH2 0x192 JUMPI DUP1 PUSH4 0x16873229 EQ PUSH2 0x1A7 JUMPI DUP1 PUSH4 0x2A48235B EQ PUSH2 0x1DA JUMPI JUMPDEST PUSH1 0x0 DUP1 REVERT JUMPDEST PUSH2 0x139 PUSH2 0x134 CALLDATASIZE PUSH1 0x4 PUSH2 0x14B7 JUMP JUMPDEST PUSH2 0x39A JUMP JUMPDEST PUSH1 0x40 MLOAD PUSH2 0x189 SWAP2 SWAP1 DUP2 MLOAD PUSH1 0x1 PUSH1 0x1 PUSH1 0xA0 SHL SUB SWAP1 DUP2 AND DUP3 MSTORE PUSH1 0x20 DUP1 DUP5 ADD MLOAD SWAP1 SWAP2 AND SWAP1 DUP3 ADD MSTORE PUSH1 0x40 DUP1 DUP4 ADD MLOAD PUSH3 0xFFFFFF AND SWAP1 DUP3 ADD MSTORE PUSH1 0x60 DUP1 DUP4 ADD MLOAD SWAP1 DUP3 ADD MSTORE PUSH1 0x80 SWAP2 DUP3 ADD MLOAD SWAP2 DUP2 ADD SWAP2 SWAP1 SWAP2 MSTORE PUSH1 0xA0 ADD SWAP1 JUMP JUMPDEST PUSH1 0x40 MLOAD DUP1 SWAP2 SUB SWAP1 RETURN JUMPDEST PUSH2 0x1A5 PUSH2 0x1A0 CALLDATASIZE PUSH1 0x4 PUSH2 0x14D4 JUMP JUMPDEST PUSH2 0x48A JUMP JUMPDEST STOP JUMPDEST PUSH2 0x1CA PUSH2 0x1B5 CALLDATASIZE PUSH1 0x4 PUSH2 0x14B7 JUMP JUMPDEST PUSH1 0x2 PUSH1 0x20 MSTORE PUSH1 0x0 SWAP1 DUP2 MSTORE PUSH1 0x40 SWAP1 KECCAK256 SLOAD PUSH1 0xFF AND DUP2 JUMP JUMPDEST PUSH1 0x40 MLOAD SWAP1 ISZERO ISZERO DUP2 MSTORE PUSH1 0x20 ADD PUSH2 0x189 JUMP JUMPDEST PUSH2 0x1ED PUSH2 0x1E8 CALLDATASIZE PUSH1 0x4 PUSH2 0x1559 JUMP JUMPDEST PUSH2 0x53D JUMP JUMPDEST PUSH1 0x40 MLOAD PUSH1 0x1 PUSH1 0x1 PUSH1 0xA0 SHL SUB SWAP1 SWAP2 AND DUP2 MSTORE PUSH1 0x20 ADD PUSH2 0x189 JUMP JUMPDEST PUSH2 0x218 PUSH2 0x213 CALLDATASIZE PUSH1 0x4 PUSH2 0x14B7 JUMP JUMPDEST PUSH2 0x567 JUMP JUMPDEST PUSH1 0x40 MLOAD SWAP1 DUP2 MSTORE PUSH1 0x20 ADD PUSH2 0x189 JUMP JUMPDEST PUSH2 0x1A5 PUSH2 0x234 CALLDATASIZE PUSH1 0x4 PUSH2 0x1572 JUMP JUMPDEST PUSH2 0x5DD JUMP JUMPDEST PUSH2 0x1A5 PUSH2 0x247 CALLDATASIZE PUSH1 0x4 PUSH2 0x14B7 JUMP JUMPDEST PUSH2 0x71C JUMP JUMPDEST PUSH2 0x1A5 PUSH2 0x25A CALLDATASIZE PUSH1 0x4 PUSH2 0x1559 JUMP JUMPDEST PUSH2 0xC67 JUMP JUMPDEST PUSH2 0x1A5 PUSH2 0x26D CALLDATASIZE PUSH1 0x4 PUSH2 0x14B7 JUMP JUMPDEST PUSH2 0xD6D JUMP JUMPDEST PUSH1 0x0 SLOAD PUSH2 0x1ED SWAP1 PUSH1 0x1 PUSH1 0x1 PUSH1 0xA0 SHL SUB AND DUP2 JUMP JUMPDEST PUSH1 0x4 SLOAD PUSH2 0x218 JUMP JUMPDEST PUSH2 0x2DF PUSH2 0x29B CALLDATASIZE PUSH1 0x4 PUSH2 0x14B7 JUMP JUMPDEST PUSH1 0x3 PUSH1 0x20 DUP2 SWAP1 MSTORE PUSH1 0x0 SWAP2 DUP3 MSTORE PUSH1 0x40 SWAP1 SWAP2 KECCAK256 DUP1 SLOAD PUSH1 0x1 DUP3 ADD SLOAD PUSH1 0x2 DUP4 ADD SLOAD SWAP3 SWAP1 SWAP4 ADD SLOAD PUSH1 0x1 PUSH1 0x1 PUSH1 0xA0 SHL SUB SWAP2 DUP3 AND SWAP4 SWAP2 DUP3 AND SWAP3 PUSH1 0x1 PUSH1 0xA0 SHL SWAP1 SWAP3 DIV PUSH3 0xFFFFFF AND SWAP2 SWAP1 DUP6 JUMP JUMPDEST PUSH1 0x40 DUP1 MLOAD PUSH1 0x1 PUSH1 0x1 PUSH1 0xA0 SHL SUB SWAP7 DUP8 AND DUP2 MSTORE SWAP6 SWAP1 SWAP5 AND PUSH1 0x20 DUP7 ADD MSTORE PUSH3 0xFFFFFF SWAP1 SWAP3 AND SWAP3 DUP5 ADD SWAP3 SWAP1 SWAP3 MSTORE PUSH1 0x60 DUP4 ADD SWAP2 SWAP1 SWAP2 MSTORE PUSH1 0x80 DUP3 ADD MSTORE PUSH1 0xA0 ADD PUSH2 0x189 JUMP JUMPDEST PUSH2 0x1A5 PUSH2 0x32A CALLDATASIZE PUSH1 0x4 PUSH2 0x15F5 JUMP JUMPDEST PUSH2 0xE7A JUMP JUMPDEST PUSH2 0x337 PUSH2 0xF56 JUMP JUMPDEST PUSH1 0x40 MLOAD PUSH2 0x189 SWAP2 SWAP1 PUSH2 0x1612 JUMP JUMPDEST PUSH1 0x0 SLOAD PUSH2 0x1CA SWAP1 PUSH1 0x1 PUSH1 0xA0 SHL SWAP1 DIV PUSH1 0xFF AND DUP2 JUMP JUMPDEST PUSH2 0x1A5 PUSH2 0x366 CALLDATASIZE PUSH1 0x4 PUSH2 0x14B7 JUMP JUMPDEST PUSH2 0x10E8 JUMP JUMPDEST PUSH2 0x1CA PUSH2 0x379 CALLDATASIZE PUSH1 0x4 PUSH2 0x14B7 JUMP JUMPDEST PUSH2 0x1193 JUMP JUMPDEST PUSH2 0x1A5 PUSH2 0x38C CALLDATASIZE PUSH1 0x4 PUSH2 0x14B7 JUMP JUMPDEST PUSH2 0x1205 JUMP JUMPDEST PUSH2 0x218 PUSH1 0x1 SLOAD DUP2 JUMP JUMPDEST PUSH1 0x40 DUP1 MLOAD PUSH1 0xA0 DUP2 ADD DUP3 MSTORE PUSH1 0x0 DUP1 DUP3 MSTORE PUSH1 0x20 DUP3 ADD DUP2 SWAP1 MSTORE SWAP2 DUP2 ADD DUP3 SWAP1 MSTORE PUSH1 0x60 DUP2 ADD DUP3 SWAP1 MSTORE PUSH1 0x80 DUP2 ADD SWAP2 SWAP1 SWAP2 MSTORE PUSH1 0x1 PUSH1 0x1 PUSH1 0xA0 SHL SUB DUP3 DUP2 AND PUSH1 0x0 SWAP1 DUP2 MSTORE PUSH1 0x3 PUSH1 0x20 MSTORE PUSH1 0x40 SWAP1 KECCAK256 SLOAD AND PUSH2 0x424 JUMPI PUSH1 0x40 MLOAD PUSH3 0x461BCD PUSH1 0xE5 SHL DUP2 MSTORE PUSH1 0x20 PUSH1 0x4 DUP3 ADD MSTORE PUSH1 0x10 PUSH1 0x24 DUP3 ADD MSTORE PUSH16 0x141BDBDB081B995D995C881859191959 PUSH1 0x82 SHL PUSH1 0x44 DUP3 ADD MSTORE PUSH1 0x64 ADD JUMPDEST PUSH1 0x40 MLOAD DUP1 SWAP2 SUB SWAP1 REVERT JUMPDEST POP PUSH1 0x1 PUSH1 0x1 PUSH1 0xA0 SHL SUB SWAP1 DUP2 AND PUSH1 0x0 SWAP1 DUP2 MSTORE PUSH1 0x3 PUSH1 0x20 DUP2 DUP2 MSTORE PUSH1 0x40 SWAP3 DUP4 SWAP1 KECCAK256 DUP4 MLOAD PUSH1 0xA0 DUP2 ADD DUP6 MSTORE DUP2 SLOAD DUP7 AND DUP2 MSTORE PUSH1 0x1 DUP3 ADD SLOAD SWAP6 DUP7 AND SWAP3 DUP2 ADD SWAP3 SWAP1 SWAP3 MSTORE PUSH1 0x1 PUSH1 0xA0 SHL SWAP1 SWAP5 DIV PUSH3 0xFFFFFF AND SWAP3 DUP2 ADD SWAP3 SWAP1 SWAP3 MSTORE PUSH1 0x2 DUP4 ADD SLOAD PUSH1 0x60 DUP4 ADD MSTORE SWAP2 SWAP1 SWAP2 ADD SLOAD PUSH1 0x80 DUP3 ADD MSTORE SWAP1 JUMP JUMPDEST PUSH1 0x0 SLOAD PUSH1 0x1 PUSH1 0x1 PUSH1 0xA0 SHL SUB AND CALLER EQ PUSH2 0x4B4 JUMPI PUSH1 0x40 MLOAD PUSH3 0x461BCD PUSH1 0xE5 SHL DUP2 MSTORE PUSH1 0x4 ADD PUSH2 0x41B SWAP1 PUSH2 0x165F JUMP JUMPDEST PUSH1 0x1 PUSH1 0x1 PUSH1 0xA0 SHL SUB DUP4 AND PUSH1 0x0 SWAP1 DUP2 MSTORE PUSH1 0x2 PUSH1 0x20 MSTORE PUSH1 0x40 SWAP1 KECCAK256 SLOAD PUSH1 0xFF AND PUSH2 0x4EC JUMPI PUSH1 0x40 MLOAD PUSH3 0x461BCD PUSH1 0xE5 SHL DUP2 MSTORE PUSH1 0x4 ADD PUSH2 0x41B SWAP1 PUSH2 0x1682 JUMP JUMPDEST PUSH2 0x4F5 DUP4 PUSH2 0x12C7 JUMP JUMPDEST DUP3 PUSH1 0x1 PUSH1 0x1 PUSH1 0xA0 SHL SUB AND PUSH32 0xB8E2A0E9D13A3554D3ED11AE641603E5E475C8D14F7CA0AA0B58BFF31E5720B1 DUP4 DUP4 PUSH1 0x40 MLOAD PUSH2 0x530 SWAP3 SWAP2 SWAP1 PUSH2 0x16AC JUMP JUMPDEST PUSH1 0x40 MLOAD DUP1 SWAP2 SUB SWAP1 LOG2 POP POP POP JUMP JUMPDEST PUSH1 0x4 DUP2 DUP2 SLOAD DUP2 LT PUSH2 0x54D JUMPI PUSH1 0x0 DUP1 REVERT JUMPDEST PUSH1 0x0 SWAP2 DUP3 MSTORE PUSH1 0x20 SWAP1 SWAP2 KECCAK256 ADD SLOAD PUSH1 0x1 PUSH1 0x1 PUSH1 0xA0 SHL SUB AND SWAP1 POP DUP2 JUMP JUMPDEST PUSH1 0x1 PUSH1 0x1 PUSH1 0xA0 SHL SUB DUP2 AND PUSH1 0x0 SWAP1 DUP2 MSTORE PUSH1 0x2 PUSH1 0x20 MSTORE PUSH1 0x40 DUP2 KECCAK256 SLOAD PUSH1 0xFF AND PUSH2 0x590 JUMPI POP PUSH1 0x0 NOT SWAP2 SWAP1 POP JUMP JUMPDEST PUSH1 0x1 SLOAD PUSH1 0x1 PUSH1 0x1 PUSH1 0xA0 SHL SUB DUP4 AND PUSH1 0x0 SWAP1 DUP2 MSTORE PUSH1 0x3 PUSH1 0x20 MSTORE PUSH1 0x40 DUP2 KECCAK256 PUSH1 0x2 ADD SLOAD SWAP1 SWAP2 PUSH2 0x5BA SWAP2 PUSH2 0x16F1 JUMP JUMPDEST SWAP1 POP DUP1 TIMESTAMP LT PUSH2 0x5CC JUMPI POP PUSH1 0x0 SWAP3 SWAP2 POP POP JUMP JUMPDEST PUSH2 0x5D6 TIMESTAMP DUP3 PUSH2 0x170A JUMP JUMPDEST SWAP4 SWAP3 POP POP POP JUMP JUMPDEST PUSH1 0x0 SLOAD PUSH1 0x1 PUSH1 0xA0 SHL SWAP1 DIV PUSH1 0xFF AND PUSH2 0x62C JUMPI PUSH1 0x40 MLOAD PUSH3 0x461BCD PUSH1 0xE5 SHL DUP2 MSTORE PUSH1 0x20 PUSH1 0x4 DUP3 ADD MSTORE PUSH1 0x13 PUSH1 0x24 DUP3 ADD MSTORE PUSH19 0x149958DBDC991A5B99C81A5CC81C185D5CD959 PUSH1 0x6A SHL PUSH1 0x44 DUP3 ADD MSTORE PUSH1 0x64 ADD PUSH2 0x41B JUMP JUMPDEST PUSH1 0x32 DUP2 GT ISZERO PUSH2 0x66F JUMPI PUSH1 0x40 MLOAD PUSH3 0x461BCD PUSH1 0xE5 SHL DUP2 MSTORE PUSH1 0x20 PUSH1 0x4 DUP3 ADD MSTORE PUSH1 0xF PUSH1 0x24 DUP3 ADD MSTORE PUSH15 0x426174636820746F6F206C61726765 PUSH1 0x88 SHL PUSH1 0x44 DUP3 ADD MSTORE PUSH1 0x64 ADD PUSH2 0x41B JUMP JUMPDEST PUSH1 0x0 JUMPDEST DUP2 DUP2 LT ISZERO PUSH2 0x717 JUMPI PUSH1 0x0 DUP4 DUP4 DUP4 DUP2 DUP2 LT PUSH2 0x68E JUMPI PUSH2 0x68E PUSH2 0x171D JUMP JUMPDEST SWAP1 POP PUSH1 0x20 MUL ADD PUSH1 0x20 DUP2 ADD SWAP1 PUSH2 0x6A3 SWAP2 SWAP1 PUSH2 0x14B7 JUMP JUMPDEST PUSH1 0x1 PUSH1 0x1 PUSH1 0xA0 SHL SUB DUP2 AND PUSH1 0x0 SWAP1 DUP2 MSTORE PUSH1 0x2 PUSH1 0x20 MSTORE PUSH1 0x40 SWAP1 KECCAK256 SLOAD SWAP1 SWAP2 POP PUSH1 0xFF AND DUP1 ISZERO PUSH2 0x6F6 JUMPI POP PUSH1 0x1 SLOAD PUSH1 0x1 PUSH1 0x1 PUSH1 0xA0 SHL SUB DUP3 AND PUSH1 0x0 SWAP1 DUP2 MSTORE PUSH1 0x3 PUSH1 0x20 MSTORE PUSH1 0x40 SWAP1 KECCAK256 PUSH1 0x2 ADD SLOAD PUSH2 0x6F2 SWAP2 SWAP1 PUSH2 0x16F1 JUMP JUMPDEST TIMESTAMP LT ISZERO JUMPDEST ISZERO PUSH2 0x704 JUMPI PUSH2 0x704 DUP2 PUSH2 0x12C7 JUMP JUMPDEST POP DUP1 PUSH2 0x70F DUP2 PUSH2 0x1733 JUMP JUMPDEST SWAP2 POP POP PUSH2 0x672 JUMP JUMPDEST POP POP POP JUMP JUMPDEST PUSH1 0x0 SLOAD PUSH1 0x1 PUSH1 0x1 PUSH1 0xA0 SHL SUB AND CALLER EQ PUSH2 0x746 JUMPI PUSH1 0x40 MLOAD PUSH3 0x461BCD PUSH1 0xE5 SHL DUP2 MSTORE PUSH1 0x4 ADD PUSH2 0x41B SWAP1 PUSH2 0x165F JUMP JUMPDEST PUSH1 0x1 PUSH1 0x1 PUSH1 0xA0 SHL SUB DUP2 AND PUSH2 0x78E JUMPI PUSH1 0x40 MLOAD PUSH3 0x461BCD PUSH1 0xE5 SHL DUP2 MSTORE PUSH1 0x20 PUSH1 0x4 DUP3 ADD MSTORE PUSH1 0xF PUSH1 0x24 DUP3 ADD MSTORE PUSH15 0x496E76616C69642061646472657373 PUSH1 0x88 SHL PUSH1 0x44 DUP3 ADD MSTORE PUSH1 0x64 ADD PUSH2 0x41B JUMP JUMPDEST PUSH1 0x1 PUSH1 0x1 PUSH1 0xA0 SHL SUB DUP2 AND PUSH1 0x0 SWAP1 DUP2 MSTORE PUSH1 0x2 PUSH1 0x20 MSTORE PUSH1 0x40 SWAP1 KECCAK256 SLOAD PUSH1 0xFF AND ISZERO PUSH2 0x7E9 JUMPI PUSH1 0x40 MLOAD PUSH3 0x461BCD PUSH1 0xE5 SHL DUP2 MSTORE PUSH1 0x20 PUSH1 0x4 DUP3 ADD MSTORE PUSH1 0xF PUSH1 0x24 DUP3 ADD MSTORE PUSH15 0x105B1C9958591E48195B98589B1959 PUSH1 0x8A SHL PUSH1 0x44 DUP3 ADD MSTORE PUSH1 0x64 ADD PUSH2 0x41B JUMP JUMPDEST DUP1 PUSH1 0x1 PUSH1 0x1 PUSH1 0xA0 SHL SUB AND PUSH4 0x3850C7BD PUSH1 0x40 MLOAD DUP2 PUSH4 0xFFFFFFFF AND PUSH1 0xE0 SHL DUP2 MSTORE PUSH1 0x4 ADD PUSH1 0xE0 PUSH1 0x40 MLOAD DUP1 DUP4 SUB DUP2 DUP7 GAS STATICCALL SWAP3 POP POP POP DUP1 ISZERO PUSH2 0x843 JUMPI POP PUSH1 0x40 DUP1 MLOAD PUSH1 0x1F RETURNDATASIZE SWAP1 DUP2 ADD PUSH1 0x1F NOT AND DUP3 ADD SWAP1 SWAP3 MSTORE PUSH2 0x840 SWAP2 DUP2 ADD SWAP1 PUSH2 0x1763 JUMP JUMPDEST PUSH1 0x1 JUMPDEST PUSH2 0x88F JUMPI PUSH1 0x40 MLOAD PUSH3 0x461BCD PUSH1 0xE5 SHL DUP2 MSTORE PUSH1 0x20 PUSH1 0x4 DUP3 ADD MSTORE PUSH1 0x17 PUSH1 0x24 DUP3 ADD MSTORE PUSH32 0x496E76616C696420556E697377617020563320706F6F6C000000000000000000 PUSH1 0x44 DUP3 ADD MSTORE PUSH1 0x64 ADD PUSH2 0x41B JUMP JUMPDEST PUSH1 0x0 DUP9 PUSH1 0x1 PUSH1 0x1 PUSH1 0xA0 SHL SUB AND PUSH4 0xDFE1681 PUSH1 0x40 MLOAD DUP2 PUSH4 0xFFFFFFFF AND PUSH1 0xE0 SHL DUP2 MSTORE PUSH1 0x4 ADD PUSH1 0x20 PUSH1 0x40 MLOAD DUP1 DUP4 SUB DUP2 DUP7 GAS STATICCALL ISZERO DUP1 ISZERO PUSH2 0x8CF JUMPI RETURNDATASIZE PUSH1 0x0 DUP1 RETURNDATACOPY RETURNDATASIZE PUSH1 0x0 REVERT JUMPDEST POP POP POP POP PUSH1 0x40 MLOAD RETURNDATASIZE PUSH1 0x1F NOT PUSH1 0x1F DUP3 ADD AND DUP3 ADD DUP1 PUSH1 0x40 MSTORE POP DUP2 ADD SWAP1 PUSH2 0x8F3 SWAP2 SWAP1 PUSH2 0x1802 JUMP JUMPDEST SWAP1 POP PUSH1 0x0 DUP10 PUSH1 0x1 PUSH1 0x1 PUSH1 0xA0 SHL SUB AND PUSH4 0xD21220A7 PUSH1 0x40 MLOAD DUP2 PUSH4 0xFFFFFFFF AND PUSH1 0xE0 SHL DUP2 MSTORE PUSH1 0x4 ADD PUSH1 0x20 PUSH1 0x40 MLOAD DUP1 DUP4 SUB DUP2 DUP7 GAS STATICCALL ISZERO DUP1 ISZERO PUSH2 0x935 JUMPI RETURNDATASIZE PUSH1 0x0 DUP1 RETURNDATACOPY RETURNDATASIZE PUSH1 0x0 REVERT JUMPDEST POP POP POP POP PUSH1 0x40 MLOAD RETURNDATASIZE PUSH1 0x1F NOT PUSH1 0x1F DUP3 ADD AND DUP3 ADD DUP1 PUSH1 0x40 MSTORE POP DUP2 ADD SWAP1 PUSH2 0x959 SWAP2 SWAP1 PUSH2 0x1802 JUMP JUMPDEST SWAP1 POP PUSH1 0x0 DUP11 PUSH1 0x1 PUSH1 0x1 PUSH1 0xA0 SHL SUB AND PUSH4 0xDDCA3F43 PUSH1 0x40 MLOAD DUP2 PUSH4 0xFFFFFFFF AND PUSH1 0xE0 SHL DUP2 MSTORE PUSH1 0x4 ADD PUSH1 0x20 PUSH1 0x40 MLOAD DUP1 DUP4 SUB DUP2 DUP7 GAS STATICCALL ISZERO DUP1 ISZERO PUSH2 0x99B JUMPI RETURNDATASIZE PUSH1 0x0 DUP1 RETURNDATACOPY RETURNDATASIZE PUSH1 0x0 REVERT JUMPDEST POP POP POP POP PUSH1 0x40 MLOAD RETURNDATASIZE PUSH1 0x1F NOT PUSH1 0x1F DUP3 ADD AND DUP3 ADD DUP1 PUSH1 0x40 MSTORE POP DUP2 ADD SWAP1 PUSH2 0x9BF SWAP2 SWAP1 PUSH2 0x181F JUMP JUMPDEST SWAP1 POP DUP2 PUSH1 0x1 PUSH1 0x1 PUSH1 0xA0 SHL SUB AND DUP4 PUSH1 0x1 PUSH1 0x1 PUSH1 0xA0 SHL SUB AND SUB PUSH2 0xA22 JUMPI PUSH1 0x40 MLOAD PUSH3 0x461BCD PUSH1 0xE5 SHL DUP2 MSTORE PUSH1 0x20 PUSH1 0x4 DUP3 ADD MSTORE PUSH1 0x18 PUSH1 0x24 DUP3 ADD MSTORE PUSH32 0x546F6B656E73206D75737420626520646966666572656E740000000000000000 PUSH1 0x44 DUP3 ADD MSTORE PUSH1 0x64 ADD PUSH2 0x41B JUMP JUMPDEST DUP1 PUSH3 0xFFFFFF AND PUSH1 0x64 EQ DUP1 PUSH2 0xA3C JUMPI POP DUP1 PUSH3 0xFFFFFF AND PUSH2 0x1F4 EQ JUMPDEST DUP1 PUSH2 0xA4D JUMPI POP DUP1 PUSH3 0xFFFFFF AND PUSH2 0xBB8 EQ JUMPDEST DUP1 PUSH2 0xA5E JUMPI POP DUP1 PUSH3 0xFFFFFF AND PUSH2 0x2710 EQ JUMPDEST PUSH2 0xA9D JUMPI PUSH1 0x40 MLOAD PUSH3 0x461BCD PUSH1 0xE5 SHL DUP2 MSTORE PUSH1 0x20 PUSH1 0x4 DUP3 ADD MSTORE PUSH1 0x10 PUSH1 0x24 DUP3 ADD MSTORE PUSH16 0x24B73B30B634B2103332B2903A34B2B9 PUSH1 0x81 SHL PUSH1 0x44 DUP3 ADD MSTORE PUSH1 0x64 ADD PUSH2 0x41B JUMP JUMPDEST PUSH1 0x0 DUP1 JUMPDEST PUSH1 0x4 SLOAD DUP2 LT ISZERO PUSH2 0xAFD JUMPI DUP13 PUSH1 0x1 PUSH1 0x1 PUSH1 0xA0 SHL SUB AND PUSH1 0x4 DUP3 DUP2 SLOAD DUP2 LT PUSH2 0xAC8 JUMPI PUSH2 0xAC8 PUSH2 0x171D JUMP JUMPDEST PUSH1 0x0 SWAP2 DUP3 MSTORE PUSH1 0x20 SWAP1 SWAP2 KECCAK256 ADD SLOAD PUSH1 0x1 PUSH1 0x1 PUSH1 0xA0 SHL SUB AND SUB PUSH2 0xAEB JUMPI PUSH1 0x1 SWAP2 POP PUSH2 0xAFD JUMP JUMPDEST DUP1 PUSH2 0xAF5 DUP2 PUSH2 0x1733 JUMP JUMPDEST SWAP2 POP POP PUSH2 0xAA1 JUMP JUMPDEST POP PUSH1 0x1 PUSH1 0x1 PUSH1 0xA0 SHL SUB DUP1 DUP14 AND PUSH1 0x0 DUP2 DUP2 MSTORE PUSH1 0x2 PUSH1 0x20 DUP2 DUP2 MSTORE PUSH1 0x40 DUP1 DUP5 KECCAK256 DUP1 SLOAD PUSH1 0xFF NOT AND PUSH1 0x1 SWAP1 DUP2 OR SWAP1 SWAP2 SSTORE DUP2 MLOAD PUSH1 0xA0 DUP2 ADD DUP4 MSTORE DUP12 DUP9 AND DUP2 MSTORE DUP11 DUP9 AND DUP2 DUP6 ADD SWAP1 DUP2 MSTORE PUSH3 0xFFFFFF DUP1 DUP13 AND DUP4 DUP7 ADD SWAP1 DUP2 MSTORE PUSH1 0x60 DUP5 ADD DUP10 DUP2 MSTORE PUSH1 0x80 DUP6 ADD DUP11 DUP2 MSTORE SWAP11 DUP11 MSTORE PUSH1 0x3 SWAP8 DUP9 SWAP1 MSTORE SWAP6 SWAP1 SWAP9 KECCAK256 SWAP3 MLOAD DUP4 SLOAD SWAP1 DUP12 AND PUSH1 0x1 PUSH1 0x1 PUSH1 0xA0 SHL SUB NOT SWAP1 SWAP2 AND OR DUP4 SSTORE SWAP1 MLOAD SWAP3 DUP3 ADD DUP1 SLOAD SWAP8 MLOAD SWAP1 SWAP2 AND PUSH1 0x1 PUSH1 0xA0 SHL MUL PUSH1 0x1 PUSH1 0x1 PUSH1 0xB8 SHL SUB NOT SWAP1 SWAP8 AND SWAP3 SWAP1 SWAP9 AND SWAP2 SWAP1 SWAP2 OR SWAP5 SWAP1 SWAP5 OR SWAP1 SWAP6 SSTORE SWAP4 MLOAD SWAP1 DUP3 ADD SSTORE SWAP1 MLOAD SWAP2 ADD SSTORE DUP1 PUSH2 0xC05 JUMPI PUSH1 0x4 DUP1 SLOAD PUSH1 0x1 DUP2 ADD DUP3 SSTORE PUSH1 0x0 SWAP2 SWAP1 SWAP2 MSTORE PUSH32 0x8A35ACFBC15FF81A39AE7D344FD709F28E8600B4AA8C65C6B64BFE7FE36BD19B ADD DUP1 SLOAD PUSH1 0x1 PUSH1 0x1 PUSH1 0xA0 SHL SUB NOT AND PUSH1 0x1 PUSH1 0x1 PUSH1 0xA0 SHL SUB DUP15 AND OR SWAP1 SSTORE JUMPDEST PUSH1 0x40 DUP1 MLOAD PUSH1 0x1 PUSH1 0x1 PUSH1 0xA0 SHL SUB DUP7 DUP2 AND DUP3 MSTORE DUP6 DUP2 AND PUSH1 0x20 DUP4 ADD MSTORE PUSH3 0xFFFFFF DUP6 AND DUP3 DUP5 ADD MSTORE SWAP2 MLOAD SWAP2 DUP15 AND SWAP2 PUSH32 0xE37480F8ED71C7931548316EF5C479EFA7F4C1D0600BF43339373B73C58A7BF4 SWAP2 DUP2 SWAP1 SUB PUSH1 0x60 ADD SWAP1 LOG2 POP POP POP POP POP POP POP POP POP POP POP JUMPDEST POP JUMP JUMPDEST PUSH1 0x0 SLOAD PUSH1 0x1 PUSH1 0x1 PUSH1 0xA0 SHL SUB AND CALLER EQ PUSH2 0xC91 JUMPI PUSH1 0x40 MLOAD PUSH3 0x461BCD PUSH1 0xE5 SHL DUP2 MSTORE PUSH1 0x4 ADD PUSH2 0x41B SWAP1 PUSH2 0x165F JUMP JUMPDEST PUSH1 0x0 DUP2 GT PUSH2 0xCE1 JUMPI PUSH1 0x40 MLOAD PUSH3 0x461BCD PUSH1 0xE5 SHL DUP2 MSTORE PUSH1 0x20 PUSH1 0x4 DUP3 ADD MSTORE PUSH1 0x19 PUSH1 0x24 DUP3 ADD MSTORE PUSH32 0x496E74657276616C206D75737420626520706F73697469766500000000000000 PUSH1 0x44 DUP3 ADD MSTORE PUSH1 0x64 ADD PUSH2 0x41B JUMP JUMPDEST PUSH3 0x15180 DUP2 GT ISZERO PUSH2 0xD28 JUMPI PUSH1 0x40 MLOAD PUSH3 0x461BCD PUSH1 0xE5 SHL DUP2 MSTORE PUSH1 0x20 PUSH1 0x4 DUP3 ADD MSTORE PUSH1 0x11 PUSH1 0x24 DUP3 ADD MSTORE PUSH17 0x496E74657276616C20746F6F206C6F6E67 PUSH1 0x78 SHL PUSH1 0x44 DUP3 ADD MSTORE PUSH1 0x64 ADD PUSH2 0x41B JUMP JUMPDEST PUSH1 0x1 DUP1 SLOAD SWAP1 DUP3 SWAP1 SSTORE PUSH1 0x40 DUP1 MLOAD DUP3 DUP2 MSTORE PUSH1 0x20 DUP2 ADD DUP5 SWAP1 MSTORE PUSH32 0x906B7C716ABE77CE683D8FB36D3428D70D84AE296249EFE4691B95EBE3242A88 SWAP2 ADD PUSH1 0x40 MLOAD DUP1 SWAP2 SUB SWAP1 LOG1 POP POP JUMP JUMPDEST PUSH1 0x0 SLOAD PUSH1 0x1 PUSH1 0xA0 SHL SWAP1 DIV PUSH1 0xFF AND PUSH2 0xDBC JUMPI PUSH1 0x40 MLOAD PUSH3 0x461BCD PUSH1 0xE5 SHL DUP2 MSTORE PUSH1 0x20 PUSH1 0x4 DUP3 ADD MSTORE PUSH1 0x13 PUSH1 0x24 DUP3 ADD MSTORE PUSH19 0x149958DBDC991A5B99C81A5CC81C185D5CD959 PUSH1 0x6A SHL PUSH1 0x44 DUP3 ADD MSTORE PUSH1 0x64 ADD PUSH2 0x41B JUMP JUMPDEST PUSH1 0x1 SLOAD PUSH1 0x1 PUSH1 0x1 PUSH1 0xA0 SHL SUB DUP3 AND PUSH1 0x0 SWAP1 DUP2 MSTORE PUSH1 0x3 PUSH1 0x20 MSTORE PUSH1 0x40 SWAP1 KECCAK256 PUSH1 0x2 ADD SLOAD DUP3 SWAP2 PUSH2 0xDE6 SWAP2 PUSH2 0x16F1 JUMP JUMPDEST TIMESTAMP LT ISZERO PUSH2 0xE35 JUMPI PUSH1 0x40 MLOAD PUSH3 0x461BCD PUSH1 0xE5 SHL DUP2 MSTORE PUSH1 0x20 PUSH1 0x4 DUP3 ADD MSTORE PUSH1 0x1B PUSH1 0x24 DUP3 ADD MSTORE PUSH32 0x55706461746520696E74657276616C206E6F7420656C61707365640000000000 PUSH1 0x44 DUP3 ADD MSTORE PUSH1 0x64 ADD PUSH2 0x41B JUMP JUMPDEST PUSH1 0x1 PUSH1 0x1 PUSH1 0xA0 SHL SUB DUP3 AND PUSH1 0x0 SWAP1 DUP2 MSTORE PUSH1 0x2 PUSH1 0x20 MSTORE PUSH1 0x40 SWAP1 KECCAK256 SLOAD PUSH1 0xFF AND PUSH2 0xE6D JUMPI PUSH1 0x40 MLOAD PUSH3 0x461BCD PUSH1 0xE5 SHL DUP2 MSTORE PUSH1 0x4 ADD PUSH2 0x41B SWAP1 PUSH2 0x1682 JUMP JUMPDEST PUSH2 0xE76 DUP3 PUSH2 0x12C7 JUMP JUMPDEST POP POP JUMP JUMPDEST PUSH1 0x0 SLOAD PUSH1 0x1 PUSH1 0x1 PUSH1 0xA0 SHL SUB AND CALLER EQ PUSH2 0xEA4 JUMPI PUSH1 0x40 MLOAD PUSH3 0x461BCD PUSH1 0xE5 SHL DUP2 MSTORE PUSH1 0x4 ADD PUSH2 0x41B SWAP1 PUSH2 0x165F JUMP JUMPDEST DUP1 ISZERO ISZERO PUSH1 0x0 PUSH1 0x14 SWAP1 SLOAD SWAP1 PUSH2 0x100 EXP SWAP1 DIV PUSH1 0xFF AND ISZERO ISZERO SUB PUSH2 0xEFE JUMPI PUSH1 0x40 MLOAD PUSH3 0x461BCD PUSH1 0xE5 SHL DUP2 MSTORE PUSH1 0x20 PUSH1 0x4 DUP3 ADD MSTORE PUSH1 0x15 PUSH1 0x24 DUP3 ADD MSTORE PUSH21 0x416C726561647920696E2074686973207374617465 PUSH1 0x58 SHL PUSH1 0x44 DUP3 ADD MSTORE PUSH1 0x64 ADD PUSH2 0x41B JUMP JUMPDEST PUSH1 0x0 DUP1 SLOAD DUP3 ISZERO ISZERO PUSH1 0x1 PUSH1 0xA0 SHL MUL PUSH1 0xFF PUSH1 0xA0 SHL NOT SWAP1 SWAP2 AND OR SWAP1 SSTORE PUSH1 0x40 MLOAD PUSH32 0xDE5C952C6B1D2D5A3D8F912363A2128960EED0E684D59657252227590F9D37BD SWAP1 PUSH2 0xF4B SWAP1 DUP4 ISZERO ISZERO DUP2 MSTORE PUSH1 0x20 ADD SWAP1 JUMP JUMPDEST PUSH1 0x40 MLOAD DUP1 SWAP2 SUB SWAP1 LOG1 POP JUMP JUMPDEST PUSH1 0x60 PUSH1 0x0 DUP1 JUMPDEST PUSH1 0x4 SLOAD DUP2 LT ISZERO PUSH2 0xFCA JUMPI PUSH1 0x2 PUSH1 0x0 PUSH1 0x4 DUP4 DUP2 SLOAD DUP2 LT PUSH2 0xF7D JUMPI PUSH2 0xF7D PUSH2 0x171D JUMP JUMPDEST PUSH1 0x0 SWAP2 DUP3 MSTORE PUSH1 0x20 DUP1 DUP4 KECCAK256 SWAP1 SWAP2 ADD SLOAD PUSH1 0x1 PUSH1 0x1 PUSH1 0xA0 SHL SUB AND DUP4 MSTORE DUP3 ADD SWAP3 SWAP1 SWAP3 MSTORE PUSH1 0x40 ADD SWAP1 KECCAK256 SLOAD PUSH1 0xFF AND ISZERO PUSH2 0xFB8 JUMPI DUP2 PUSH2 0xFB4 DUP2 PUSH2 0x1733 JUMP JUMPDEST SWAP3 POP POP JUMPDEST DUP1 PUSH2 0xFC2 DUP2 PUSH2 0x1733 JUMP JUMPDEST SWAP2 POP POP PUSH2 0xF5C JUMP JUMPDEST POP PUSH1 0x0 DUP2 PUSH8 0xFFFFFFFFFFFFFFFF DUP2 GT ISZERO PUSH2 0xFE6 JUMPI PUSH2 0xFE6 PUSH2 0x1844 JUMP JUMPDEST PUSH1 0x40 MLOAD SWAP1 DUP1 DUP3 MSTORE DUP1 PUSH1 0x20 MUL PUSH1 0x20 ADD DUP3 ADD PUSH1 0x40 MSTORE DUP1 ISZERO PUSH2 0x100F JUMPI DUP2 PUSH1 0x20 ADD PUSH1 0x20 DUP3 MUL DUP1 CALLDATASIZE DUP4 CALLDATACOPY ADD SWAP1 POP JUMPDEST POP SWAP1 POP PUSH1 0x0 DUP1 JUMPDEST PUSH1 0x4 SLOAD DUP2 LT ISZERO PUSH2 0x10DF JUMPI PUSH1 0x2 PUSH1 0x0 PUSH1 0x4 DUP4 DUP2 SLOAD DUP2 LT PUSH2 0x1037 JUMPI PUSH2 0x1037 PUSH2 0x171D JUMP JUMPDEST PUSH1 0x0 SWAP2 DUP3 MSTORE PUSH1 0x20 DUP1 DUP4 KECCAK256 SWAP1 SWAP2 ADD SLOAD PUSH1 0x1 PUSH1 0x1 PUSH1 0xA0 SHL SUB AND DUP4 MSTORE DUP3 ADD SWAP3 SWAP1 SWAP3 MSTORE PUSH1 0x40 ADD SWAP1 KECCAK256 SLOAD PUSH1 0xFF AND ISZERO PUSH2 0x10CD JUMPI PUSH1 0x4 DUP2 DUP2 SLOAD DUP2 LT PUSH2 0x1077 JUMPI PUSH2 0x1077 PUSH2 0x171D JUMP JUMPDEST SWAP1 PUSH1 0x0 MSTORE PUSH1 0x20 PUSH1 0x0 KECCAK256 ADD PUSH1 0x0 SWAP1 SLOAD SWAP1 PUSH2 0x100 EXP SWAP1 DIV PUSH1 0x1 PUSH1 0x1 PUSH1 0xA0 SHL SUB AND DUP4 DUP4 DUP2 MLOAD DUP2 LT PUSH2 0x10A7 JUMPI PUSH2 0x10A7 PUSH2 0x171D JUMP JUMPDEST PUSH1 0x1 PUSH1 0x1 PUSH1 0xA0 SHL SUB SWAP1 SWAP3 AND PUSH1 0x20 SWAP3 DUP4 MUL SWAP2 SWAP1 SWAP2 ADD SWAP1 SWAP2 ADD MSTORE DUP2 PUSH2 0x10C9 DUP2 PUSH2 0x1733 JUMP JUMPDEST SWAP3 POP POP JUMPDEST DUP1 PUSH2 0x10D7 DUP2 PUSH2 0x1733 JUMP JUMPDEST SWAP2 POP POP PUSH2 0x1016 JUMP JUMPDEST POP SWAP1 SWAP4 SWAP3 POP POP POP JUMP JUMPDEST PUSH1 0x0 SLOAD PUSH1 0x1 PUSH1 0x1 PUSH1 0xA0 SHL SUB AND CALLER EQ PUSH2 0x1112 JUMPI PUSH1 0x40 MLOAD PUSH3 0x461BCD PUSH1 0xE5 SHL DUP2 MSTORE PUSH1 0x4 ADD PUSH2 0x41B SWAP1 PUSH2 0x165F JUMP JUMPDEST PUSH1 0x1 PUSH1 0x1 PUSH1 0xA0 SHL SUB DUP2 AND PUSH1 0x0 SWAP1 DUP2 MSTORE PUSH1 0x2 PUSH1 0x20 MSTORE PUSH1 0x40 SWAP1 KECCAK256 SLOAD PUSH1 0xFF AND PUSH2 0x114A JUMPI PUSH1 0x40 MLOAD PUSH3 0x461BCD PUSH1 0xE5 SHL DUP2 MSTORE PUSH1 0x4 ADD PUSH2 0x41B SWAP1 PUSH2 0x1682 JUMP JUMPDEST PUSH1 0x1 PUSH1 0x1 PUSH1 0xA0 SHL SUB DUP2 AND PUSH1 0x0 DUP2 DUP2 MSTORE PUSH1 0x2 PUSH1 0x20 MSTORE PUSH1 0x40 DUP1 DUP3 KECCAK256 DUP1 SLOAD PUSH1 0xFF NOT AND SWAP1 SSTORE MLOAD PUSH32 0xF82AE9A5785E9B261D7E8BBA20CED7516919EC7BDC4B18E7D916316F4991E532 SWAP2 SWAP1 LOG2 POP JUMP JUMPDEST PUSH1 0x0 DUP1 SLOAD PUSH1 0x1 PUSH1 0xA0 SHL SWAP1 DIV PUSH1 0xFF AND ISZERO DUP1 PUSH2 0x11C6 JUMPI POP PUSH1 0x1 PUSH1 0x1 PUSH1 0xA0 SHL SUB DUP3 AND PUSH1 0x0 SWAP1 DUP2 MSTORE PUSH1 0x2 PUSH1 0x20 MSTORE PUSH1 0x40 SWAP1 KECCAK256 SLOAD PUSH1 0xFF AND ISZERO JUMPDEST ISZERO PUSH2 0x11D3 JUMPI POP PUSH1 0x0 SWAP2 SWAP1 POP JUMP JUMPDEST PUSH1 0x1 SLOAD PUSH1 0x1 PUSH1 0x1 PUSH1 0xA0 SHL SUB DUP4 AND PUSH1 0x0 SWAP1 DUP2 MSTORE PUSH1 0x3 PUSH1 0x20 MSTORE PUSH1 0x40 SWAP1 KECCAK256 PUSH1 0x2 ADD SLOAD PUSH2 0x11FC SWAP2 SWAP1 PUSH2 0x16F1 JUMP JUMPDEST TIMESTAMP LT ISZERO SWAP3 SWAP2 POP POP JUMP JUMPDEST PUSH1 0x0 SLOAD PUSH1 0x1 PUSH1 0x1 PUSH1 0xA0 SHL SUB AND CALLER EQ PUSH2 0x122F JUMPI PUSH1 0x40 MLOAD PUSH3 0x461BCD PUSH1 0xE5 SHL DUP2 MSTORE PUSH1 0x4 ADD PUSH2 0x41B SWAP1 PUSH2 0x165F JUMP JUMPDEST PUSH1 0x1 PUSH1 0x1 PUSH1 0xA0 SHL SUB DUP2 AND PUSH2 0x1277 JUMPI PUSH1 0x40 MLOAD PUSH3 0x461BCD PUSH1 0xE5 SHL DUP2 MSTORE PUSH1 0x20 PUSH1 0x4 DUP3 ADD MSTORE PUSH1 0xF PUSH1 0x24 DUP3 ADD MSTORE PUSH15 0x496E76616C69642061646472657373 PUSH1 0x88 SHL PUSH1 0x44 DUP3 ADD MSTORE PUSH1 0x64 ADD PUSH2 0x41B JUMP JUMPDEST PUSH1 0x0 DUP1 SLOAD PUSH1 0x1 PUSH1 0x1 PUSH1 0xA0 SHL SUB DUP4 DUP2 AND PUSH1 0x1 PUSH1 0x1 PUSH1 0xA0 SHL SUB NOT DUP4 AND DUP2 OR DUP5 SSTORE PUSH1 0x40 MLOAD SWAP2 SWAP1 SWAP3 AND SWAP3 DUP4 SWAP2 PUSH32 0x8BE0079C531659141344CD1FD0A4F28419497F9722A3DAAFE3B4186F6B6457E0 SWAP2 SWAP1 LOG3 POP POP JUMP JUMPDEST PUSH1 0x0 DUP1 PUSH1 0x0 DUP4 PUSH1 0x1 PUSH1 0x1 PUSH1 0xA0 SHL SUB AND PUSH4 0x3850C7BD PUSH1 0x40 MLOAD DUP2 PUSH4 0xFFFFFFFF AND PUSH1 0xE0 SHL DUP2 MSTORE PUSH1 0x4 ADD PUSH1 0xE0 PUSH1 0x40 MLOAD DUP1 DUP4 SUB DUP2 DUP7 GAS STATICCALL ISZERO DUP1 ISZERO PUSH2 0x130A JUMPI RETURNDATASIZE PUSH1 0x0 DUP1 RETURNDATACOPY RETURNDATASIZE PUSH1 0x0 REVERT JUMPDEST POP POP POP POP PUSH1 0x40 MLOAD RETURNDATASIZE PUSH1 0x1F NOT PUSH1 0x1F DUP3 ADD AND DUP3 ADD DUP1 PUSH1 0x40 MSTORE POP DUP2 ADD SWAP1 PUSH2 0x132E SWAP2 SWAP1 PUSH2 0x1763 JUMP JUMPDEST SWAP7 POP POP POP POP POP SWAP3 POP SWAP3 POP DUP1 PUSH2 0x1376 JUMPI PUSH1 0x40 MLOAD PUSH3 0x461BCD PUSH1 0xE5 SHL DUP2 MSTORE PUSH1 0x20 PUSH1 0x4 DUP3 ADD MSTORE PUSH1 0xE PUSH1 0x24 DUP3 ADD MSTORE PUSH14 0x141BDBDB081A5CC81B1BD8DAD959 PUSH1 0x92 SHL PUSH1 0x44 DUP3 ADD MSTORE PUSH1 0x64 ADD PUSH2 0x41B JUMP JUMPDEST PUSH1 0x0 DUP5 PUSH1 0x1 PUSH1 0x1 PUSH1 0xA0 SHL SUB AND PUSH4 0x1A686502 PUSH1 0x40 MLOAD DUP2 PUSH4 0xFFFFFFFF AND PUSH1 0xE0 SHL DUP2 MSTORE PUSH1 0x4 ADD PUSH1 0x20 PUSH1 0x40 MLOAD DUP1 DUP4 SUB DUP2 DUP7 GAS STATICCALL ISZERO DUP1 ISZERO PUSH2 0x13B6 JUMPI RETURNDATASIZE PUSH1 0x0 DUP1 RETURNDATACOPY RETURNDATASIZE PUSH1 0x0 REVERT JUMPDEST POP POP POP POP PUSH1 0x40 MLOAD RETURNDATASIZE PUSH1 0x1F NOT PUSH1 0x1F DUP3 ADD AND DUP3 ADD DUP1 PUSH1 0x40 MSTORE POP DUP2 ADD SWAP1 PUSH2 0x13DA SWAP2 SWAP1 PUSH2 0x185A JUMP JUMPDEST PUSH1 0x1 PUSH1 0x1 PUSH1 0xA0 SHL SUB DUP1 DUP8 AND PUSH1 0x0 SWAP1 DUP2 MSTORE PUSH1 0x3 PUSH1 0x20 DUP2 SWAP1 MSTORE PUSH1 0x40 DUP3 KECCAK256 DUP1 SLOAD PUSH1 0x1 DUP3 ADD SLOAD TIMESTAMP PUSH1 0x2 DUP5 ADD SSTORE SWAP3 DUP3 ADD DUP1 SLOAD SWAP7 SWAP8 POP SWAP2 SWAP6 SWAP1 DUP6 AND SWAP5 SWAP3 SWAP1 SWAP3 AND SWAP3 PUSH2 0x141E DUP4 PUSH2 0x1733 JUMP JUMPDEST SWAP1 SWAP2 SSTORE POP POP PUSH1 0x40 DUP1 MLOAD PUSH1 0x1 PUSH1 0x1 PUSH1 0xA0 SHL SUB DUP10 DUP2 AND DUP3 MSTORE PUSH1 0x2 DUP10 SWAP1 SIGNEXTEND PUSH1 0x20 DUP4 ADD MSTORE PUSH1 0x1 PUSH1 0x1 PUSH1 0x80 SHL SUB DUP8 AND DUP3 DUP5 ADD MSTORE DUP5 DUP2 AND PUSH1 0x60 DUP4 ADD MSTORE DUP4 DUP2 AND PUSH1 0x80 DUP4 ADD MSTORE TIMESTAMP PUSH1 0xA0 DUP4 ADD MSTORE NUMBER PUSH1 0xC0 DUP4 ADD MSTORE SWAP2 MLOAD SWAP2 DUP11 AND SWAP2 PUSH32 0x17440AB048FE6C6CBD98DC862B13C09A99713AC93C0D806C9B2A2A384787935E SWAP2 DUP2 SWAP1 SUB PUSH1 0xE0 ADD SWAP1 LOG2 POP POP POP POP POP POP POP POP JUMP JUMPDEST PUSH1 0x1 PUSH1 0x1 PUSH1 0xA0 SHL SUB DUP2 AND DUP2 EQ PUSH2 0xC64 JUMPI PUSH1 0x0 DUP1 REVERT JUMPDEST PUSH1 0x0 PUSH1 0x20 DUP3 DUP5 SUB SLT ISZERO PUSH2 0x14C9 JUMPI PUSH1 0x0 DUP1 REVERT JUMPDEST DUP2 CALLDATALOAD PUSH2 0x5D6 DUP2 PUSH2 0x14A2 JUMP JUMPDEST PUSH1 0x0 DUP1 PUSH1 0x0 PUSH1 0x40 DUP5 DUP7 SUB SLT ISZERO PUSH2 0x14E9 JUMPI PUSH1 0x0 DUP1 REVERT JUMPDEST DUP4 CALLDATALOAD PUSH2 0x14F4 DUP2 PUSH2 0x14A2 JUMP JUMPDEST SWAP3 POP PUSH1 0x20 DUP5 ADD CALLDATALOAD PUSH8 0xFFFFFFFFFFFFFFFF DUP1 DUP3 GT ISZERO PUSH2 0x1511 JUMPI PUSH1 0x0 DUP1 REVERT JUMPDEST DUP2 DUP7 ADD SWAP2 POP DUP7 PUSH1 0x1F DUP4 ADD SLT PUSH2 0x1525 JUMPI PUSH1 0x0 DUP1 REVERT JUMPDEST DUP2 CALLDATALOAD DUP2 DUP2 GT ISZERO PUSH2 0x1534 JUMPI PUSH1 0x0 DUP1 REVERT JUMPDEST DUP8 PUSH1 0x20 DUP3 DUP6 ADD ADD GT ISZERO PUSH2 0x1546 JUMPI PUSH1 0x0 DUP1 REVERT JUMPDEST PUSH1 0x20 DUP4 ADD SWAP5 POP DUP1 SWAP4 POP POP POP POP SWAP3 POP SWAP3 POP SWAP3 JUMP JUMPDEST PUSH1 0x0 PUSH1 0x20 DUP3 DUP5 SUB SLT ISZERO PUSH2 0x156B JUMPI PUSH1 0x0 DUP1 REVERT JUMPDEST POP CALLDATALOAD SWAP2 SWAP1 POP JUMP JUMPDEST PUSH1 0x0 DUP1 PUSH1 0x20 DUP4 DUP6 SUB SLT ISZERO PUSH2 0x1585 JUMPI PUSH1 0x0 DUP1 REVERT JUMPDEST DUP3 CALLDATALOAD PUSH8 0xFFFFFFFFFFFFFFFF DUP1 DUP3 GT ISZERO PUSH2 0x159D JUMPI PUSH1 0x0 DUP1 REVERT JUMPDEST DUP2 DUP6 ADD SWAP2 POP DUP6 PUSH1 0x1F DUP4 ADD SLT PUSH2 0x15B1 JUMPI PUSH1 0x0 DUP1 REVERT JUMPDEST DUP2 CALLDATALOAD DUP2 DUP2 GT ISZERO PUSH2 0x15C0 JUMPI PUSH1 0x0 DUP1 REVERT JUMPDEST DUP7 PUSH1 0x20 DUP3 PUSH1 0x5 SHL DUP6 ADD ADD GT ISZERO PUSH2 0x15D5 JUMPI PUSH1 0x0 DUP1 REVERT JUMPDEST PUSH1 0x20 SWAP3 SWAP1 SWAP3 ADD SWAP7 SWAP2 SWAP6 POP SWAP1 SWAP4 POP POP POP POP JUMP JUMPDEST DUP1 ISZERO ISZERO DUP2 EQ PUSH2 0xC64 JUMPI PUSH1 0x0 DUP1 REVERT JUMPDEST PUSH1 0x0 PUSH1 0x20 DUP3 DUP5 SUB SLT ISZERO PUSH2 0x1607 JUMPI PUSH1 0x0 DUP1 REVERT JUMPDEST DUP2 CALLDATALOAD PUSH2 0x5D6 DUP2 PUSH2 0x15E7 JUMP JUMPDEST PUSH1 0x20 DUP1 DUP3 MSTORE DUP3 MLOAD DUP3 DUP3 ADD DUP2 SWAP1 MSTORE PUSH1 0x0 SWAP2 SWAP1 DUP5 DUP3 ADD SWAP1 PUSH1 0x40 DUP6 ADD SWAP1 DUP5 JUMPDEST DUP2 DUP2 LT ISZERO PUSH2 0x1653 JUMPI DUP4 MLOAD PUSH1 0x1 PUSH1 0x1 PUSH1 0xA0 SHL SUB AND DUP4 MSTORE SWAP3 DUP5 ADD SWAP3 SWAP2 DUP5 ADD SWAP2 PUSH1 0x1 ADD PUSH2 0x162E JUMP JUMPDEST POP SWAP1 SWAP7 SWAP6 POP POP POP POP POP POP JUMP JUMPDEST PUSH1 0x20 DUP1 DUP3 MSTORE PUSH1 0x9 SWAP1 DUP3 ADD MSTORE PUSH9 0x2737BA1037BBB732B9 PUSH1 0xB9 SHL PUSH1 0x40 DUP3 ADD MSTORE PUSH1 0x60 ADD SWAP1 JUMP JUMPDEST PUSH1 0x20 DUP1 DUP3 MSTORE PUSH1 0x10 SWAP1 DUP3 ADD MSTORE PUSH16 0x141BDBDB081B9BDD08195B98589B1959 PUSH1 0x82 SHL PUSH1 0x40 DUP3 ADD MSTORE PUSH1 0x60 ADD SWAP1 JUMP JUMPDEST PUSH1 0x20 DUP2 MSTORE DUP2 PUSH1 0x20 DUP3 ADD MSTORE DUP2 DUP4 PUSH1 0x40 DUP4 ADD CALLDATACOPY PUSH1 0x0 DUP2 DUP4 ADD PUSH1 0x40 SWAP1 DUP2 ADD SWAP2 SWAP1 SWAP2 MSTORE PUSH1 0x1F SWAP1 SWAP3 ADD PUSH1 0x1F NOT AND ADD ADD SWAP2 SWAP1 POP JUMP JUMPDEST PUSH4 0x4E487B71 PUSH1 0xE0 SHL PUSH1 0x0 MSTORE PUSH1 0x11 PUSH1 0x4 MSTORE PUSH1 0x24 PUSH1 0x0 REVERT JUMPDEST DUP1 DUP3 ADD DUP1 DUP3 GT ISZERO PUSH2 0x1704 JUMPI PUSH2 0x1704 PUSH2 0x16DB JUMP JUMPDEST SWAP3 SWAP2 POP POP JUMP JUMPDEST DUP2 DUP2 SUB DUP2 DUP2 GT ISZERO PUSH2 0x1704 JUMPI PUSH2 0x1704 PUSH2 0x16DB JUMP JUMPDEST PUSH4 0x4E487B71 PUSH1 0xE0 SHL PUSH1 0x0 MSTORE PUSH1 0x32 PUSH1 0x4 MSTORE PUSH1 0x24 PUSH1 0x0 REVERT JUMPDEST PUSH1 0x0 PUSH1 0x1 DUP3 ADD PUSH2 0x1745 JUMPI PUSH2 0x1745 PUSH2 0x16DB JUMP JUMPDEST POP PUSH1 0x1 ADD SWAP1 JUMP JUMPDEST DUP1 MLOAD PUSH2 0xFFFF DUP2 AND DUP2 EQ PUSH2 0x175E JUMPI PUSH1 0x0 DUP1 REVERT JUMPDEST SWAP2 SWAP1 POP JUMP JUMPDEST PUSH1 0x0 DUP1 PUSH1 0x0 DUP1 PUSH1 0x0 DUP1 PUSH1 0x0 PUSH1 0xE0 DUP9 DUP11 SUB SLT ISZERO PUSH2 0x177E JUMPI PUSH1 0x0 DUP1 REVERT JUMPDEST DUP8 MLOAD PUSH2 0x1789 DUP2 PUSH2 0x14A2 JUMP JUMPDEST DUP1 SWAP8 POP POP PUSH1 0x20 DUP9 ADD MLOAD DUP1 PUSH1 0x2 SIGNEXTEND DUP2 EQ PUSH2 0x17A1 JUMPI PUSH1 0x0 DUP1 REVERT JUMPDEST SWAP6 POP PUSH2 0x17AF PUSH1 0x40 DUP10 ADD PUSH2 0x174C JUMP JUMPDEST SWAP5 POP PUSH2 0x17BD PUSH1 0x60 DUP10 ADD PUSH2 0x174C JUMP JUMPDEST SWAP4 POP PUSH2 0x17CB PUSH1 0x80 DUP10 ADD PUSH2 0x174C JUMP JUMPDEST SWAP3 POP PUSH1 0xA0 DUP9 ADD MLOAD PUSH1 0xFF DUP2 AND DUP2 EQ PUSH2 0x17E1 JUMPI PUSH1 0x0 DUP1 REVERT JUMPDEST PUSH1 0xC0 DUP10 ADD MLOAD SWAP1 SWAP3 POP PUSH2 0x17F2 DUP2 PUSH2 0x15E7 JUMP JUMPDEST DUP1 SWAP2 POP POP SWAP3 SWAP6 SWAP9 SWAP2 SWAP5 SWAP8 POP SWAP3 SWAP6 POP JUMP JUMPDEST PUSH1 0x0 PUSH1 0x20 DUP3 DUP5 SUB SLT ISZERO PUSH2 0x1814 JUMPI PUSH1 0x0 DUP1 REVERT JUMPDEST DUP2 MLOAD PUSH2 0x5D6 DUP2 PUSH2 0x14A2 JUMP JUMPDEST PUSH1 0x0 PUSH1 0x20 DUP3 DUP5 SUB SLT ISZERO PUSH2 0x1831 JUMPI PUSH1 0x0 DUP1 REVERT JUMPDEST DUP2 MLOAD PUSH3 0xFFFFFF DUP2 AND DUP2 EQ PUSH2 0x5D6 JUMPI PUSH1 0x0 DUP1 REVERT JUMPDEST PUSH4 0x4E487B71 PUSH1 0xE0 SHL PUSH1 0x0 MSTORE PUSH1 0x41 PUSH1 0x4 MSTORE PUSH1 0x24 PUSH1 0x0 REVERT JUMPDEST PUSH1 0x0 PUSH1 0x20 DUP3 DUP5 SUB SLT ISZERO PUSH2 0x186C JUMPI PUSH1 0x0 DUP1 REVERT JUMPDEST DUP2 MLOAD PUSH1 0x1 PUSH1 0x1 PUSH1 0x80 SHL SUB DUP2 AND DUP2 EQ PUSH2 0x5D6 JUMPI PUSH1 0x0 DUP1 REVERT INVALID LOG2 PUSH5 0x6970667358 0x22 SLT KECCAK256 PUSH13 0x761D55E7FDB3139A5F1E84D4AE PUSH4 0x4FD1B110 DUP13 0xD8 0xBE GASLIMIT 0xA9 0x2A PUSH15 0xD0D3E98B297B64736F6C6343000813 STOP CALLER "},"methodIdentifiers":{"canUpdate(address)":"e73872b9","disablePool(address)":"dcaaa61b","emergencyRecordPrice(address,string)":"0cb729dc","enablePool(address)":"595aeb50","enabledPools(address)":"16873229","getEnabledPools()":"b2a68ca8","getPoolCount()":"8eec5d70","getPoolInfo(address)":"06bfa938","isRecording()":"d3f06722","owner()":"8da5cb5b","poolInfo(address)":"9a7b5f11","poolList(uint256)":"2a48235b","recordPrice(address)":"7a80dfd1","recordPriceBatch(address[])":"5211e29b","setRecording(bool)":"ab14c05a","setUpdateInterval(uint256)":"7124c683","timeUntilNextUpdate(address)":"37011521","transferOwnership(address)":"f2fde38b","updateInterval()":"fd2c80ae"}}}}}