{"contracts/CrossChainPoolPriceCustomFeed.sol":{"CrossChainPoolPriceCustomFeed":{"abi":[{"inputs":[{"internalType":"address","name":"_priceRelay","type":"address"},{"internalType":"uint256","name":"_sourceChainId","type":"uint256"},{"internalType":"address","name":"_poolAddress","type":"address"},{"internalType":"string","name":"_feedName","type":"string"},{"internalType":"address","name":"_fdcVerificationAddress","type":"address"},{"internalType":"uint8","name":"_token0Decimals","type":"uint8"},{"internalType":"uint8","name":"_token1Decimals","type":"uint8"},{"internalType":"bool","name":"_invertPrice","type":"bool"}],"stateMutability":"nonpayable","type":"constructor"},{"anonymous":false,"inputs":[{"indexed":true,"internalType":"uint256","name":"value","type":"uint256"},{"indexed":false,"internalType":"uint64","name":"timestamp","type":"uint64"},{"indexed":false,"internalType":"uint256","name":"blockNumber","type":"uint256"},{"indexed":true,"internalType":"address","name":"updater","type":"address"}],"name":"FeedUpdated","type":"event"},{"anonymous":false,"inputs":[{"indexed":true,"internalType":"address","name":"previousOwner","type":"address"},{"indexed":true,"internalType":"address","name":"newOwner","type":"address"}],"name":"OwnershipTransferred","type":"event"},{"anonymous":false,"inputs":[{"indexed":true,"internalType":"bytes32","name":"transactionHash","type":"bytes32"},{"indexed":false,"internalType":"uint256","name":"value","type":"uint256"},{"indexed":false,"internalType":"uint64","name":"timestamp","type":"uint64"}],"name":"ProofVerified","type":"event"},{"anonymous":false,"inputs":[],"name":"UpdatesPaused","type":"event"},{"anonymous":false,"inputs":[],"name":"UpdatesResumed","type":"event"},{"inputs":[],"name":"acceptingUpdates","outputs":[{"internalType":"bool","name":"","type":"bool"}],"stateMutability":"view","type":"function"},{"inputs":[],"name":"calculateFee","outputs":[{"internalType":"uint256","name":"","type":"uint256"}],"stateMutability":"pure","type":"function"},{"inputs":[],"name":"decimals","outputs":[{"internalType":"int8","name":"","type":"int8"}],"stateMutability":"pure","type":"function"},{"inputs":[],"name":"feedId","outputs":[{"internalType":"bytes21","name":"","type":"bytes21"}],"stateMutability":"view","type":"function"},{"inputs":[],"name":"getCurrentFeed","outputs":[{"internalType":"uint256","name":"_value","type":"uint256"},{"internalType":"int8","name":"_decimals","type":"int8"},{"internalType":"uint64","name":"_timestamp","type":"uint64"}],"stateMutability":"payable","type":"function"},{"inputs":[],"name":"getFeedInfo","outputs":[{"components":[{"internalType":"bytes21","name":"feedId","type":"bytes21"},{"internalType":"uint256","name":"latestValue","type":"uint256"},{"internalType":"int8","name":"decimals","type":"int8"},{"internalType":"uint64","name":"lastUpdate","type":"uint64"},{"internalType":"uint256","name":"updateCount","type":"uint256"},{"internalType":"address","name":"priceRelay","type":"address"},{"internalType":"uint256","name":"sourceChainId","type":"uint256"},{"internalType":"address","name":"poolAddress","type":"address"},{"internalType":"bool","name":"acceptingUpdates","type":"bool"},{"internalType":"uint256","name":"avgGasPerUpdate","type":"uint256"},{"internalType":"uint256","name":"totalProofsVerified","type":"uint256"}],"internalType":"struct CrossChainPoolPriceCustomFeed.FeedInfo","name":"info","type":"tuple"}],"stateMutability":"view","type":"function"},{"inputs":[],"name":"invertPrice","outputs":[{"internalType":"bool","name":"","type":"bool"}],"stateMutability":"view","type":"function"},{"inputs":[],"name":"lastUpdateTimestamp","outputs":[{"internalType":"uint64","name":"","type":"uint64"}],"stateMutability":"view","type":"function"},{"inputs":[],"name":"latestValue","outputs":[{"internalType":"uint256","name":"","type":"uint256"}],"stateMutability":"view","type":"function"},{"inputs":[],"name":"owner","outputs":[{"internalType":"address","name":"","type":"address"}],"stateMutability":"view","type":"function"},{"inputs":[],"name":"pauseUpdates","outputs":[],"stateMutability":"nonpayable","type":"function"},{"inputs":[],"name":"poolAddress","outputs":[{"internalType":"address","name":"","type":"address"}],"stateMutability":"view","type":"function"},{"inputs":[],"name":"priceRelayAddress","outputs":[{"internalType":"address","name":"","type":"address"}],"stateMutability":"view","type":"function"},{"inputs":[],"name":"read","outputs":[{"internalType":"uint256","name":"","type":"uint256"}],"stateMutability":"view","type":"function"},{"inputs":[],"name":"resumeUpdates","outputs":[],"stateMutability":"nonpayable","type":"function"},{"inputs":[],"name":"sourceChainId","outputs":[{"internalType":"uint256","name":"","type":"uint256"}],"stateMutability":"view","type":"function"},{"inputs":[],"name":"token0Decimals","outputs":[{"internalType":"uint8","name":"","type":"uint8"}],"stateMutability":"view","type":"function"},{"inputs":[],"name":"token1Decimals","outputs":[{"internalType":"uint8","name":"","type":"uint8"}],"stateMutability":"view","type":"function"},{"inputs":[],"name":"totalGasUsedForVerification","outputs":[{"internalType":"uint256","name":"","type":"uint256"}],"stateMutability":"view","type":"function"},{"inputs":[],"name":"totalProofsVerified","outputs":[{"internalType":"uint256","name":"","type":"uint256"}],"stateMutability":"view","type":"function"},{"inputs":[{"internalType":"address","name":"newOwner","type":"address"}],"name":"transferOwnership","outputs":[],"stateMutability":"nonpayable","type":"function"},{"inputs":[],"name":"updateCount","outputs":[{"internalType":"uint256","name":"","type":"uint256"}],"stateMutability":"view","type":"function"},{"inputs":[{"components":[{"internalType":"bytes32[]","name":"merkleProof","type":"bytes32[]"},{"components":[{"internalType":"bytes32","name":"attestationType","type":"bytes32"},{"internalType":"bytes32","name":"sourceId","type":"bytes32"},{"internalType":"uint64","name":"votingRound","type":"uint64"},{"internalType":"uint64","name":"lowestUsedTimestamp","type":"uint64"},{"components":[{"internalType":"bytes32","name":"transactionHash","type":"bytes32"},{"internalType":"uint16","name":"requiredConfirmations","type":"uint16"},{"internalType":"bool","name":"provideInput","type":"bool"},{"internalType":"bool","name":"listEvents","type":"bool"},{"internalType":"uint32[]","name":"logIndices","type":"uint32[]"}],"internalType":"struct IEVMTransaction.RequestBody","name":"requestBody","type":"tuple"},{"components":[{"internalType":"uint64","name":"blockNumber","type":"uint64"},{"internalType":"uint64","name":"timestamp","type":"uint64"},{"internalType":"address","name":"sourceAddress","type":"address"},{"internalType":"bool","name":"isDeployment","type":"bool"},{"internalType":"address","name":"receivingAddress","type":"address"},{"internalType":"uint256","name":"value","type":"uint256"},{"internalType":"bytes","name":"input","type":"bytes"},{"internalType":"uint8","name":"status","type":"uint8"},{"components":[{"internalType":"uint32","name":"logIndex","type":"uint32"},{"internalType":"address","name":"emitterAddress","type":"address"},{"internalType":"bytes32[]","name":"topics","type":"bytes32[]"},{"internalType":"bytes","name":"data","type":"bytes"},{"internalType":"bool","name":"removed","type":"bool"}],"internalType":"struct IEVMTransaction.Event[]","name":"events","type":"tuple[]"}],"internalType":"struct IEVMTransaction.ResponseBody","name":"responseBody","type":"tuple"}],"internalType":"struct IEVMTransaction.Response","name":"data","type":"tuple"}],"internalType":"struct IEVMTransaction.Proof","name":"_proof","type":"tuple"}],"name":"updateFromProof","outputs":[],"stateMutability":"nonpayable","type":"function"}],"evm":{"bytecode":{"linkReferences":{},"object":"6101806040523480156200001257600080fd5b506040516200259038038062002590833981016040819052620000359162000414565b6001600160a01b038816620000915760405162461bcd60e51b815260206004820152601560248201527f496e76616c69642072656c61792061646472657373000000000000000000000060448201526064015b60405180910390fd5b60008711620000e35760405162461bcd60e51b815260206004820152601460248201527f496e76616c696420736f7572636520636861696e000000000000000000000000604482015260640162000088565b6001600160a01b0386166200013b5760405162461bcd60e51b815260206004820152601460248201527f496e76616c696420706f6f6c2061646472657373000000000000000000000000604482015260640162000088565b6001600160a01b038416620001935760405162461bcd60e51b815260206004820152601360248201527f496e76616c696420464443206164647265737300000000000000000000000000604482015260640162000088565b60008360ff16118015620001ab575060128360ff1611155b620001f95760405162461bcd60e51b815260206004820152601760248201527f496e76616c696420746f6b656e3020646563696d616c73000000000000000000604482015260640162000088565b60008260ff1611801562000211575060128260ff1611155b6200025f5760405162461bcd60e51b815260206004820152601760248201527f496e76616c696420746f6b656e3120646563696d616c73000000000000000000604482015260640162000088565b600080546001600160a01b031916331790556001600160a01b0388811660a05260c0889052861660e0526004805460ff1916600117905560ff8381166101205282166101405280151561016052620002b785620002df565b6001600160581b0319166080525050506001600160a01b03166101005250620005e192505050565b8051600090829015801590620002f757506014815111155b620003455760405162461bcd60e51b815260206004820152601360248201527f496e76616c6964206e616d65206c656e67746800000000000000000000000000604482015260640162000088565b602160f81b60005b8251811015620003b65760006200036682600862000579565b6200037390609862000599565b90508060ff168483815181106200038e576200038e620005af565b016020015160f81c901b60581b92909217915080620003ad81620005c5565b9150506200034d565b509392505050565b80516001600160a01b0381168114620003d657600080fd5b919050565b634e487b7160e01b600052604160045260246000fd5b805160ff81168114620003d657600080fd5b80518015158114620003d657600080fd5b600080600080600080600080610100898b0312156200043257600080fd5b6200043d89620003be565b97506020808a015197506200045560408b01620003be565b60608b01519097506001600160401b03808211156200047357600080fd5b818c0191508c601f8301126200048857600080fd5b8151818111156200049d576200049d620003db565b604051601f8201601f19908116603f01168101908382118183101715620004c857620004c8620003db565b816040528281528f86848701011115620004e157600080fd5b600093505b82841015620005055784840186015181850187015292850192620004e6565b6000868483010152809a505050505050506200052460808a01620003be565b93506200053460a08a01620003f1565b92506200054460c08a01620003f1565b91506200055460e08a0162000403565b90509295985092959890939650565b634e487b7160e01b600052601160045260246000fd5b808202811582820484141762000593576200059362000563565b92915050565b8181038181111562000593576200059362000563565b634e487b7160e01b600052603260045260246000fd5b600060018201620005da57620005da62000563565b5060010190565b60805160a05160c05160e05161010051610120516101405161016051611efc62000694600039600081816104090152610fb901526000818161016e0152610efe0152600081816104730152610f2201526000610839015260008181610262015281816107250152610d7d015260008181610220015281816106ff0152610d19015260008181610375015281816106d70152818161090b0152610bec01526000818161030e01526106820152611efc6000f3fe6080604052600436106101405760003560e01c806357de26a4116100b65780638c0a57a81161006f5780638c0a57a81461042b5780638da5cb5b14610441578063b31ac6e214610461578063d246a2a314610495578063e6af35f0146104ab578063f2fde38b146104bf57600080fd5b806357de26a41461034e57806359488a44146103635780636747f3c61461039757806369b4ecc9146103c15780637bee4c25146103d757806384e767bd146103f757600080fd5b80631755ff21116101085780631755ff211461025057806323d608891461029c578063313ce567146102b1578063349225f8146102cd5780634a643499146102ef5780634ab5cc821461033857600080fd5b806302271069146101455780630b77884d1461015c578063115416fe146101a757806314bcec9f146101d65780631544298e1461020e575b600080fd5b34801561015157600080fd5b5061015a6104df565b005b34801561016857600080fd5b506101907f000000000000000000000000000000000000000000000000000000000000000081565b60405160ff90911681526020015b60405180910390f35b6101af610547565b6040805193845260009290920b60208401526001600160401b03169082015260600161019e565b3480156101e257600080fd5b506002546101f6906001600160401b031681565b6040516001600160401b03909116815260200161019e565b34801561021a57600080fd5b506102427f000000000000000000000000000000000000000000000000000000000000000081565b60405190815260200161019e565b34801561025c57600080fd5b506102847f000000000000000000000000000000000000000000000000000000000000000081565b6040516001600160a01b03909116815260200161019e565b3480156102a857600080fd5b5061015a6105ad565b3480156102bd57600080fd5b506040516006815260200161019e565b3480156102d957600080fd5b506102e261060f565b60405161019e919061109e565b3480156102fb57600080fd5b506040516affffffffffffffffffffff197f000000000000000000000000000000000000000000000000000000000000000016815260200161019e565b34801561034457600080fd5b5061024260015481565b34801561035a57600080fd5b5061024261078b565b34801561036f57600080fd5b506102847f000000000000000000000000000000000000000000000000000000000000000081565b3480156103a357600080fd5b506004546103b19060ff1681565b604051901515815260200161019e565b3480156103cd57600080fd5b5061024260035481565b3480156103e357600080fd5b5061015a6103f2366004611163565b6107d9565b34801561040357600080fd5b506103b17f000000000000000000000000000000000000000000000000000000000000000081565b34801561043757600080fd5b5061024260055481565b34801561044d57600080fd5b50600054610284906001600160a01b031681565b34801561046d57600080fd5b506101907f000000000000000000000000000000000000000000000000000000000000000081565b3480156104a157600080fd5b5061024260065481565b3480156104b757600080fd5b506000610242565b3480156104cb57600080fd5b5061015a6104da3660046111cc565b610afa565b6000546001600160a01b031633146105125760405162461bcd60e51b8152600401610509906111e9565b60405180910390fd5b6004805460ff191690556040517f4a4c785fe1c9642309071a07ac280989cd10624630e14194d12672c8f0fe661f90600090a1565b600080600080600154116105915760405162461bcd60e51b81526020600482015260116024820152704e6f206461746120617661696c61626c6560781b6044820152606401610509565b50506001546002549092600692506001600160401b0390911690565b6000546001600160a01b031633146105d75760405162461bcd60e51b8152600401610509906111e9565b6004805460ff191660011790556040517f24b779da341973449740a5c61843c5dd3fcfaf5b667a7b67edcda18b45beba6990600090a1565b6040805161016081018252600080825260208201819052918101829052606081018290526080810182905260a0810182905260c0810182905260e081018290526101008101829052610120810182905261014081019190915260408051610160810182526affffffffffffffffffffff197f0000000000000000000000000000000000000000000000000000000000000000168152600154602082015260069181018290526002546001600160401b0316606082015260035460808201526001600160a01b037f0000000000000000000000000000000000000000000000000000000000000000811660a08301527f000000000000000000000000000000000000000000000000000000000000000060c08301527f00000000000000000000000000000000000000000000000000000000000000001660e082015260045460ff161515610100820152905461012082019061076b57600061077b565b60065460055461077b9190611222565b8152602001600654815250905090565b600080600154116107d25760405162461bcd60e51b81526020600482015260116024820152704e6f206461746120617661696c61626c6560781b6044820152606401610509565b5060015490565b60045460ff1661081c5760405162461bcd60e51b815260206004820152600e60248201526d155c19185d195cc81c185d5cd95960921b6044820152606401610509565b60005a6040516358fbe9e160e01b81529091506001600160a01b037f000000000000000000000000000000000000000000000000000000000000000016906358fbe9e19061086e90859060040161159f565b602060405180830381865afa15801561088b573d6000803e3d6000fd5b505050506040513d601f19601f820116820180604052508101906108af9190611709565b6108ef5760405162461bcd60e51b815260206004820152601160248201527024b73b30b634b21023222190383937b7b360791b6044820152606401610509565b60006108fe6020840184611726565b61090790611bc6565b90507f00000000000000000000000000000000000000000000000000000000000000006001600160a01b03168160a00151608001516001600160a01b03161461098b5760405162461bcd60e51b815260206004820152601660248201527557726f6e6720636f6e7472616374206164647265737360501b6044820152606401610509565b8060a0015160e0015160ff166001146109db5760405162461bcd60e51b8152602060048201526012602482015271151c985b9cd858dd1a5bdb8819985a5b195960721b6044820152606401610509565b6000806109f08360a001516101000151610bbc565b60018290556002805467ffffffffffffffff19166001600160401b038316179055600380549294509092506000610a2683611c68565b919050555060005a610a389086611c81565b90508060056000828254610a4c9190611c9a565b909155505060068054906000610a6183611c68565b9091555050604080516001600160401b0384168152436020820152339185917fcbb0a1964fded1543e1fc229a1bea0552bb873219986500cf7ea9d1a4506d736910160405180910390a3608084015151604080518581526001600160401b03851660208201527f20aafbdb02edecf8b1e8547d36a18bfa617d137f7556777a48b28d206bd6d4d4910160405180910390a2505050505050565b6000546001600160a01b03163314610b245760405162461bcd60e51b8152600401610509906111e9565b6001600160a01b038116610b6c5760405162461bcd60e51b815260206004820152600f60248201526e496e76616c6964206164647265737360881b6044820152606401610509565b600080546001600160a01b038381166001600160a01b0319831681178455604051919092169283917f8be0079c531659141344cd1fd0a4f28419497f9722a3daafe3b4186f6b6457e09190a35050565b6000806000805b8451811015610e3e576000858281518110610be057610be0611cad565b602002602001015190507f00000000000000000000000000000000000000000000000000000000000000006001600160a01b031681602001516001600160a01b031614610c2d5750610e2c565b6000816040015151118015610c7f57507f75c79671c8187d029ada1a8f8cacf6af122360061d5f3e78d2eb1f00871946f28160400151600081518110610c7557610c75611cad565b6020026020010151145b15610e2a5760038160400151511015610ccb5760405162461bcd60e51b815260206004820152600e60248201526d496e76616c696420746f7069637360901b6044820152606401610509565b60008160400151600181518110610ce457610ce4611cad565b602002602001015160001c905060008260400151600281518110610d0a57610d0a611cad565b602002602001015160001c90507f00000000000000000000000000000000000000000000000000000000000000008214610d7b5760405162461bcd60e51b81526020600482015260126024820152712bb937b7339039b7bab931b29031b430b4b760711b6044820152606401610509565b7f00000000000000000000000000000000000000000000000000000000000000006001600160a01b0316816001600160a01b031614610de95760405162461bcd60e51b815260206004820152600a60248201526915dc9bdb99c81c1bdbdb60b21b6044820152606401610509565b6000808460600151806020019051810190610e049190611cce565b5050509550505050509150610e1882610e92565b9850965060019550610e3e9350505050565b505b80610e3681611c68565b915050610bc3565b5080610e8c5760405162461bcd60e51b815260206004820152601c60248201527f507269636552656c61796564206576656e74206e6f7420666f756e64000000006044820152606401610509565b50915091565b6000600160601b6001600160a01b0383168280600160801b831115610edc576000610ec1600160401b85611222565b9050610ecd8180611d7c565b9250600160401b915050610ef5565b610ee68380611d7c565b9150610ef28480611d7c565b90505b6000610f4760ff7f00000000000000000000000000000000000000000000000000000000000000008116907f000000000000000000000000000000000000000000000000000000000000000016611d93565b90506000808212610f7957610f5d826006611c9a565b610f6890600a611e9e565b610f729085611d7c565b9050610fa9565b610f8684620f4240611d7c565b9050610f9182611eaa565b610f9c90600a611e9e565b610fa69084611d7c565b92505b6000610fb58483611222565b90507f00000000000000000000000000000000000000000000000000000000000000008015610fe45750600081115b15610ffb57610ff88164e8d4a51000611222565b90505b600081116110445760405162461bcd60e51b81526020600482015260166024820152755072696365206d75737420626520706f73697469766560501b6044820152606401610509565b6001600160801b0381106110925760405162461bcd60e51b815260206004820152601560248201527450726963652065786365656473206d6178696d756d60581b6044820152606401610509565b98975050505050505050565b81516affffffffffffffffffffff1916815261016081016020830151602083015260408301516110d3604084018260000b9052565b5060608301516110ee60608401826001600160401b03169052565b506080830151608083015260a083015161111360a08401826001600160a01b03169052565b5060c083015160c083015260e083015161113860e08401826001600160a01b03169052565b5061010083810151151590830152610120808401519083015261014092830151929091019190915290565b60006020828403121561117557600080fd5b81356001600160401b0381111561118b57600080fd5b82016040818503121561119d57600080fd5b9392505050565b6001600160a01b03811681146111b957600080fd5b50565b80356111c7816111a4565b919050565b6000602082840312156111de57600080fd5b813561119d816111a4565b6020808252600990820152682737ba1037bbb732b960b91b604082015260600190565b634e487b7160e01b600052601160045260246000fd5b60008261123f57634e487b7160e01b600052601260045260246000fd5b500490565b6000808335601e1984360301811261125b57600080fd5b83016020810192503590506001600160401b0381111561127a57600080fd5b8060051b360382131561128c57600080fd5b9250929050565b81835260006001600160fb1b038311156112ac57600080fd5b8260051b80836020870137939093016020019392505050565b80356001600160401b03811681146111c757600080fd5b60008235609e198336030181126112f257600080fd5b90910192915050565b803561ffff811681146111c757600080fd5b80151581146111b957600080fd5b80356111c78161130d565b803563ffffffff811681146111c757600080fd5b6000823561011e198336030181126112f257600080fd5b6000808335601e1984360301811261136857600080fd5b83016020810192503590506001600160401b0381111561138757600080fd5b80360382131561128c57600080fd5b81835281816020850137506000828201602090810191909152601f909101601f19169091010190565b803560ff811681146111c757600080fd5b81835260006020808501808196508560051b810191508460005b878110156114a457828403895261140182886112dc565b60a063ffffffff61141183611326565b16865286820135611421816111a4565b6001600160a01b031686880152604061143c83820184611244565b83838a015261144e848a018284611293565b9350505050606061146181840184611351565b888403838a0152611473848284611396565b935050505060808083013592506114898361130d565b911515959091019490945297840197908401906001016113ea565b5091979650505050505050565b60006101206114d0846114c3856112c5565b6001600160401b03169052565b6114dc602084016112c5565b6001600160401b031660208501526114f6604084016111bc565b6001600160a01b031660408501526115106060840161131b565b15156060850152611523608084016111bc565b6001600160a01b0316608085015260a0838101359085015261154860c0840184611351565b8260c087015261155b8387018284611396565b9250505061156b60e084016113bf565b60ff1660e085015261010061158284820185611244565b868403838801526115948482846113d0565b979650505050505050565b600060208083526115b08485611244565b6040838601526115c4606086018284611293565b9150508185013560be198636030181126115dd57600080fd5b8581019050601f19858303016040860152803582528281013583830152611606604082016112c5565b6001600160401b03808216604085015280611623606085016112c5565b166060850152505061163860808201826112dc565b60c060808401526101608301813560c085015261ffff6116598684016112fb565b1660e0850152604082013561166d8161130d565b151561010085015260608201356116838161130d565b15156101208501526116986080830183611244565b60a061014087015291829052909150600061018085015b838210156116da5763ffffffff6116c584611326565b168152918601916001919091019086016116af565b6116e760a086018661133a565b965085810360a08701526116fb81886114b1565b9a9950505050505050505050565b60006020828403121561171b57600080fd5b815161119d8161130d565b6000823560be1983360301811261173c57600080fd5b9190910192915050565b634e487b7160e01b600052604160045260246000fd5b60405160a081016001600160401b038111828210171561177e5761177e611746565b60405290565b60405161012081016001600160401b038111828210171561177e5761177e611746565b60405160c081016001600160401b038111828210171561177e5761177e611746565b604051601f8201601f191681016001600160401b03811182821017156117f1576117f1611746565b604052919050565b60006001600160401b0382111561181257611812611746565b5060051b60200190565b600060a0828403121561182e57600080fd5b61183661175c565b90508135815260206118498184016112fb565b81830152604083013561185b8161130d565b6040830152606083013561186e8161130d565b606083015260808301356001600160401b0381111561188c57600080fd5b8301601f8101851361189d57600080fd5b80356118b06118ab826117f9565b6117c9565b81815260059190911b820183019083810190878311156118cf57600080fd5b928401925b828410156118f4576118e584611326565b825292840192908401906118d4565b6080860152509295945050505050565b600082601f83011261191557600080fd5b81356001600160401b0381111561192e5761192e611746565b611941601f8201601f19166020016117c9565b81815284602083860101111561195657600080fd5b816020850160208301376000918101602001919091529392505050565b600082601f83011261198457600080fd5b813560206119946118ab836117f9565b82815260059290921b840181019181810190868411156119b357600080fd5b8286015b84811015611ada5780356001600160401b03808211156119d657600080fd5b9088019060a0828b03601f190112156119ee57600080fd5b6119f661175c565b611a01878401611326565b8152604080840135611a12816111a4565b82890152606084013583811115611a295760008081fd5b8401603f81018d13611a3b5760008081fd5b88810135611a4b6118ab826117f9565b81815260059190911b82018301908a8101908f831115611a6b5760008081fd5b928401925b82841015611a895783358252928b0192908b0190611a70565b8085870152505050505060808084013583811115611aa75760008081fd5b611ab58d8a83880101611904565b606084015250611ac760a0850161131b565b90820152855250509183019183016119b7565b509695505050505050565b60006101208284031215611af857600080fd5b611b00611784565b9050611b0b826112c5565b8152611b19602083016112c5565b6020820152611b2a604083016111bc565b6040820152611b3b6060830161131b565b6060820152611b4c608083016111bc565b608082015260a082013560a082015260c08201356001600160401b0380821115611b7557600080fd5b611b8185838601611904565b60c0840152611b9260e085016113bf565b60e084015261010091508184013581811115611bad57600080fd5b611bb986828701611973565b8385015250505092915050565b600060c08236031215611bd857600080fd5b611be06117a7565b8235815260208301356020820152611bfa604084016112c5565b6040820152611c0b606084016112c5565b606082015260808301356001600160401b0380821115611c2a57600080fd5b611c363683870161181c565b608084015260a0850135915080821115611c4f57600080fd5b50611c5c36828601611ae5565b60a08301525092915050565b600060018201611c7a57611c7a61120c565b5060010190565b81810381811115611c9457611c9461120c565b92915050565b80820180821115611c9457611c9461120c565b634e487b7160e01b600052603260045260246000fd5b80516111c7816111a4565b60008060008060008060008060006101208a8c031215611ced57600080fd5b8951611cf8816111a4565b8099505060208a01518060020b8114611d1057600080fd5b60408b01519098506001600160801b0381168114611d2d57600080fd5b9650611d3b60608b01611cc3565b9550611d4960808b01611cc3565b945060a08a0151935060c08a0151925060e08a01519150611d6d6101008b01611cc3565b90509295985092959850929598565b8082028115828204841417611c9457611c9461120c565b8181036000831280158383131683831282161715611db357611db361120c565b5092915050565b600181815b80851115611df5578160001904821115611ddb57611ddb61120c565b80851615611de857918102915b93841c9390800290611dbf565b509250929050565b600082611e0c57506001611c94565b81611e1957506000611c94565b8160018114611e2f5760028114611e3957611e55565b6001915050611c94565b60ff841115611e4a57611e4a61120c565b50506001821b611c94565b5060208310610133831016604e8410600b8410161715611e78575081810a611c94565b611e828383611dba565b8060001904821115611e9657611e9661120c565b029392505050565b600061119d8383611dfd565b6000600160ff1b8201611ebf57611ebf61120c565b506000039056fea26469706673582212208377254376916e18ef9cbaa1facd842cdc979e6c3bc2c7a8eb2b3c3297bfe55b64736f6c63430008130033","opcodes":"PUSH2 0x180 PUSH1 0x40 MSTORE CALLVALUE DUP1 ISZERO PUSH3 0x12 JUMPI PUSH1 0x0 DUP1 REVERT JUMPDEST POP PUSH1 0x40 MLOAD PUSH3 0x2590 CODESIZE SUB DUP1 PUSH3 0x2590 DUP4 CODECOPY DUP2 ADD PUSH1 0x40 DUP2 SWAP1 MSTORE PUSH3 0x35 SWAP2 PUSH3 0x414 JUMP JUMPDEST PUSH1 0x1 PUSH1 0x1 PUSH1 0xA0 SHL SUB DUP9 AND PUSH3 0x91 JUMPI PUSH1 0x40 MLOAD PUSH3 0x461BCD PUSH1 0xE5 SHL DUP2 MSTORE PUSH1 0x20 PUSH1 0x4 DUP3 ADD MSTORE PUSH1 0x15 PUSH1 0x24 DUP3 ADD MSTORE PUSH32 0x496E76616C69642072656C617920616464726573730000000000000000000000 PUSH1 0x44 DUP3 ADD MSTORE PUSH1 0x64 ADD JUMPDEST PUSH1 0x40 MLOAD DUP1 SWAP2 SUB SWAP1 REVERT JUMPDEST PUSH1 0x0 DUP8 GT PUSH3 0xE3 JUMPI PUSH1 0x40 MLOAD PUSH3 0x461BCD PUSH1 0xE5 SHL DUP2 MSTORE PUSH1 0x20 PUSH1 0x4 DUP3 ADD MSTORE PUSH1 0x14 PUSH1 0x24 DUP3 ADD MSTORE PUSH32 0x496E76616C696420736F7572636520636861696E000000000000000000000000 PUSH1 0x44 DUP3 ADD MSTORE PUSH1 0x64 ADD PUSH3 0x88 JUMP JUMPDEST PUSH1 0x1 PUSH1 0x1 PUSH1 0xA0 SHL SUB DUP7 AND PUSH3 0x13B JUMPI PUSH1 0x40 MLOAD PUSH3 0x461BCD PUSH1 0xE5 SHL DUP2 MSTORE PUSH1 0x20 PUSH1 0x4 DUP3 ADD MSTORE PUSH1 0x14 PUSH1 0x24 DUP3 ADD MSTORE PUSH32 0x496E76616C696420706F6F6C2061646472657373000000000000000000000000 PUSH1 0x44 DUP3 ADD MSTORE PUSH1 0x64 ADD PUSH3 0x88 JUMP JUMPDEST PUSH1 0x1 PUSH1 0x1 PUSH1 0xA0 SHL SUB DUP5 AND PUSH3 0x193 JUMPI PUSH1 0x40 MLOAD PUSH3 0x461BCD PUSH1 0xE5 SHL DUP2 MSTORE PUSH1 0x20 PUSH1 0x4 DUP3 ADD MSTORE PUSH1 0x13 PUSH1 0x24 DUP3 ADD MSTORE PUSH32 0x496E76616C696420464443206164647265737300000000000000000000000000 PUSH1 0x44 DUP3 ADD MSTORE PUSH1 0x64 ADD PUSH3 0x88 JUMP JUMPDEST PUSH1 0x0 DUP4 PUSH1 0xFF AND GT DUP1 ISZERO PUSH3 0x1AB JUMPI POP PUSH1 0x12 DUP4 PUSH1 0xFF AND GT ISZERO JUMPDEST PUSH3 0x1F9 JUMPI PUSH1 0x40 MLOAD PUSH3 0x461BCD PUSH1 0xE5 SHL DUP2 MSTORE PUSH1 0x20 PUSH1 0x4 DUP3 ADD MSTORE PUSH1 0x17 PUSH1 0x24 DUP3 ADD MSTORE PUSH32 0x496E76616C696420746F6B656E3020646563696D616C73000000000000000000 PUSH1 0x44 DUP3 ADD MSTORE PUSH1 0x64 ADD PUSH3 0x88 JUMP JUMPDEST PUSH1 0x0 DUP3 PUSH1 0xFF AND GT DUP1 ISZERO PUSH3 0x211 JUMPI POP PUSH1 0x12 DUP3 PUSH1 0xFF AND GT ISZERO JUMPDEST PUSH3 0x25F JUMPI PUSH1 0x40 MLOAD PUSH3 0x461BCD PUSH1 0xE5 SHL DUP2 MSTORE PUSH1 0x20 PUSH1 0x4 DUP3 ADD MSTORE PUSH1 0x17 PUSH1 0x24 DUP3 ADD MSTORE PUSH32 0x496E76616C696420746F6B656E3120646563696D616C73000000000000000000 PUSH1 0x44 DUP3 ADD MSTORE PUSH1 0x64 ADD PUSH3 0x88 JUMP JUMPDEST PUSH1 0x0 DUP1 SLOAD PUSH1 0x1 PUSH1 0x1 PUSH1 0xA0 SHL SUB NOT AND CALLER OR SWAP1 SSTORE PUSH1 0x1 PUSH1 0x1 PUSH1 0xA0 SHL SUB DUP9 DUP2 AND PUSH1 0xA0 MSTORE PUSH1 0xC0 DUP9 SWAP1 MSTORE DUP7 AND PUSH1 0xE0 MSTORE PUSH1 0x4 DUP1 SLOAD PUSH1 0xFF NOT AND PUSH1 0x1 OR SWAP1 SSTORE PUSH1 0xFF DUP4 DUP2 AND PUSH2 0x120 MSTORE DUP3 AND PUSH2 0x140 MSTORE DUP1 ISZERO ISZERO PUSH2 0x160 MSTORE PUSH3 0x2B7 DUP6 PUSH3 0x2DF JUMP JUMPDEST PUSH1 0x1 PUSH1 0x1 PUSH1 0x58 SHL SUB NOT AND PUSH1 0x80 MSTORE POP POP POP PUSH1 0x1 PUSH1 0x1 PUSH1 0xA0 SHL SUB AND PUSH2 0x100 MSTORE POP PUSH3 0x5E1 SWAP3 POP POP POP JUMP JUMPDEST DUP1 MLOAD PUSH1 0x0 SWAP1 DUP3 SWAP1 ISZERO DUP1 ISZERO SWAP1 PUSH3 0x2F7 JUMPI POP PUSH1 0x14 DUP2 MLOAD GT ISZERO JUMPDEST PUSH3 0x345 JUMPI PUSH1 0x40 MLOAD PUSH3 0x461BCD PUSH1 0xE5 SHL DUP2 MSTORE PUSH1 0x20 PUSH1 0x4 DUP3 ADD MSTORE PUSH1 0x13 PUSH1 0x24 DUP3 ADD MSTORE PUSH32 0x496E76616C6964206E616D65206C656E67746800000000000000000000000000 PUSH1 0x44 DUP3 ADD MSTORE PUSH1 0x64 ADD PUSH3 0x88 JUMP JUMPDEST PUSH1 0x21 PUSH1 0xF8 SHL PUSH1 0x0 JUMPDEST DUP3 MLOAD DUP2 LT ISZERO PUSH3 0x3B6 JUMPI PUSH1 0x0 PUSH3 0x366 DUP3 PUSH1 0x8 PUSH3 0x579 JUMP JUMPDEST PUSH3 0x373 SWAP1 PUSH1 0x98 PUSH3 0x599 JUMP JUMPDEST SWAP1 POP DUP1 PUSH1 0xFF AND DUP5 DUP4 DUP2 MLOAD DUP2 LT PUSH3 0x38E JUMPI PUSH3 0x38E PUSH3 0x5AF JUMP JUMPDEST ADD PUSH1 0x20 ADD MLOAD PUSH1 0xF8 SHR SWAP1 SHL PUSH1 0x58 SHL SWAP3 SWAP1 SWAP3 OR SWAP2 POP DUP1 PUSH3 0x3AD DUP2 PUSH3 0x5C5 JUMP JUMPDEST SWAP2 POP POP PUSH3 0x34D JUMP JUMPDEST POP SWAP4 SWAP3 POP POP POP JUMP JUMPDEST DUP1 MLOAD PUSH1 0x1 PUSH1 0x1 PUSH1 0xA0 SHL SUB DUP2 AND DUP2 EQ PUSH3 0x3D6 JUMPI PUSH1 0x0 DUP1 REVERT JUMPDEST SWAP2 SWAP1 POP JUMP JUMPDEST PUSH4 0x4E487B71 PUSH1 0xE0 SHL PUSH1 0x0 MSTORE PUSH1 0x41 PUSH1 0x4 MSTORE PUSH1 0x24 PUSH1 0x0 REVERT JUMPDEST DUP1 MLOAD PUSH1 0xFF DUP2 AND DUP2 EQ PUSH3 0x3D6 JUMPI PUSH1 0x0 DUP1 REVERT JUMPDEST DUP1 MLOAD DUP1 ISZERO ISZERO DUP2 EQ PUSH3 0x3D6 JUMPI PUSH1 0x0 DUP1 REVERT JUMPDEST PUSH1 0x0 DUP1 PUSH1 0x0 DUP1 PUSH1 0x0 DUP1 PUSH1 0x0 DUP1 PUSH2 0x100 DUP10 DUP12 SUB SLT ISZERO PUSH3 0x432 JUMPI PUSH1 0x0 DUP1 REVERT JUMPDEST PUSH3 0x43D DUP10 PUSH3 0x3BE JUMP JUMPDEST SWAP8 POP PUSH1 0x20 DUP1 DUP11 ADD MLOAD SWAP8 POP PUSH3 0x455 PUSH1 0x40 DUP12 ADD PUSH3 0x3BE JUMP JUMPDEST PUSH1 0x60 DUP12 ADD MLOAD SWAP1 SWAP8 POP PUSH1 0x1 PUSH1 0x1 PUSH1 0x40 SHL SUB DUP1 DUP3 GT ISZERO PUSH3 0x473 JUMPI PUSH1 0x0 DUP1 REVERT JUMPDEST DUP2 DUP13 ADD SWAP2 POP DUP13 PUSH1 0x1F DUP4 ADD SLT PUSH3 0x488 JUMPI PUSH1 0x0 DUP1 REVERT JUMPDEST DUP2 MLOAD DUP2 DUP2 GT ISZERO PUSH3 0x49D JUMPI PUSH3 0x49D PUSH3 0x3DB JUMP JUMPDEST PUSH1 0x40 MLOAD PUSH1 0x1F DUP3 ADD PUSH1 0x1F NOT SWAP1 DUP2 AND PUSH1 0x3F ADD AND DUP2 ADD SWAP1 DUP4 DUP3 GT DUP2 DUP4 LT OR ISZERO PUSH3 0x4C8 JUMPI PUSH3 0x4C8 PUSH3 0x3DB JUMP JUMPDEST DUP2 PUSH1 0x40 MSTORE DUP3 DUP2 MSTORE DUP16 DUP7 DUP5 DUP8 ADD ADD GT ISZERO PUSH3 0x4E1 JUMPI PUSH1 0x0 DUP1 REVERT JUMPDEST PUSH1 0x0 SWAP4 POP JUMPDEST DUP3 DUP5 LT ISZERO PUSH3 0x505 JUMPI DUP5 DUP5 ADD DUP7 ADD MLOAD DUP2 DUP6 ADD DUP8 ADD MSTORE SWAP3 DUP6 ADD SWAP3 PUSH3 0x4E6 JUMP JUMPDEST PUSH1 0x0 DUP7 DUP5 DUP4 ADD ADD MSTORE DUP1 SWAP11 POP POP POP POP POP POP POP PUSH3 0x524 PUSH1 0x80 DUP11 ADD PUSH3 0x3BE JUMP JUMPDEST SWAP4 POP PUSH3 0x534 PUSH1 0xA0 DUP11 ADD PUSH3 0x3F1 JUMP JUMPDEST SWAP3 POP PUSH3 0x544 PUSH1 0xC0 DUP11 ADD PUSH3 0x3F1 JUMP JUMPDEST SWAP2 POP PUSH3 0x554 PUSH1 0xE0 DUP11 ADD PUSH3 0x403 JUMP JUMPDEST SWAP1 POP SWAP3 SWAP6 SWAP9 POP SWAP3 SWAP6 SWAP9 SWAP1 SWAP4 SWAP7 POP JUMP JUMPDEST PUSH4 0x4E487B71 PUSH1 0xE0 SHL PUSH1 0x0 MSTORE PUSH1 0x11 PUSH1 0x4 MSTORE PUSH1 0x24 PUSH1 0x0 REVERT JUMPDEST DUP1 DUP3 MUL DUP2 ISZERO DUP3 DUP3 DIV DUP5 EQ OR PUSH3 0x593 JUMPI PUSH3 0x593 PUSH3 0x563 JUMP JUMPDEST SWAP3 SWAP2 POP POP JUMP JUMPDEST DUP2 DUP2 SUB DUP2 DUP2 GT ISZERO PUSH3 0x593 JUMPI PUSH3 0x593 PUSH3 0x563 JUMP JUMPDEST PUSH4 0x4E487B71 PUSH1 0xE0 SHL PUSH1 0x0 MSTORE PUSH1 0x32 PUSH1 0x4 MSTORE PUSH1 0x24 PUSH1 0x0 REVERT JUMPDEST PUSH1 0x0 PUSH1 0x1 DUP3 ADD PUSH3 0x5DA JUMPI PUSH3 0x5DA PUSH3 0x563 JUMP JUMPDEST POP PUSH1 0x1 ADD SWAP1 JUMP JUMPDEST PUSH1 0x80 MLOAD PUSH1 0xA0 MLOAD PUSH1 0xC0 MLOAD PUSH1 0xE0 MLOAD PUSH2 0x100 MLOAD PUSH2 0x120 MLOAD PUSH2 0x140 MLOAD PUSH2 0x160 MLOAD PUSH2 0x1EFC PUSH3 0x694 PUSH1 0x0 CODECOPY PUSH1 0x0 DUP2 DUP2 PUSH2 0x409 ADD MSTORE PUSH2 0xFB9 ADD MSTORE PUSH1 0x0 DUP2 DUP2 PUSH2 0x16E ADD MSTORE PUSH2 0xEFE ADD MSTORE PUSH1 0x0 DUP2 DUP2 PUSH2 0x473 ADD MSTORE PUSH2 0xF22 ADD MSTORE PUSH1 0x0 PUSH2 0x839 ADD MSTORE PUSH1 0x0 DUP2 DUP2 PUSH2 0x262 ADD MSTORE DUP2 DUP2 PUSH2 0x725 ADD MSTORE PUSH2 0xD7D ADD MSTORE PUSH1 0x0 DUP2 DUP2 PUSH2 0x220 ADD MSTORE DUP2 DUP2 PUSH2 0x6FF ADD MSTORE PUSH2 0xD19 ADD MSTORE PUSH1 0x0 DUP2 DUP2 PUSH2 0x375 ADD MSTORE DUP2 DUP2 PUSH2 0x6D7 ADD MSTORE DUP2 DUP2 PUSH2 0x90B ADD MSTORE PUSH2 0xBEC ADD MSTORE PUSH1 0x0 DUP2 DUP2 PUSH2 0x30E ADD MSTORE PUSH2 0x682 ADD MSTORE PUSH2 0x1EFC PUSH1 0x0 RETURN INVALID PUSH1 0x80 PUSH1 0x40 MSTORE PUSH1 0x4 CALLDATASIZE LT PUSH2 0x140 JUMPI PUSH1 0x0 CALLDATALOAD PUSH1 0xE0 SHR DUP1 PUSH4 0x57DE26A4 GT PUSH2 0xB6 JUMPI DUP1 PUSH4 0x8C0A57A8 GT PUSH2 0x6F JUMPI DUP1 PUSH4 0x8C0A57A8 EQ PUSH2 0x42B JUMPI DUP1 PUSH4 0x8DA5CB5B EQ PUSH2 0x441 JUMPI DUP1 PUSH4 0xB31AC6E2 EQ PUSH2 0x461 JUMPI DUP1 PUSH4 0xD246A2A3 EQ PUSH2 0x495 JUMPI DUP1 PUSH4 0xE6AF35F0 EQ PUSH2 0x4AB JUMPI DUP1 PUSH4 0xF2FDE38B EQ PUSH2 0x4BF JUMPI PUSH1 0x0 DUP1 REVERT JUMPDEST DUP1 PUSH4 0x57DE26A4 EQ PUSH2 0x34E JUMPI DUP1 PUSH4 0x59488A44 EQ PUSH2 0x363 JUMPI DUP1 PUSH4 0x6747F3C6 EQ PUSH2 0x397 JUMPI DUP1 PUSH4 0x69B4ECC9 EQ PUSH2 0x3C1 JUMPI DUP1 PUSH4 0x7BEE4C25 EQ PUSH2 0x3D7 JUMPI DUP1 PUSH4 0x84E767BD EQ PUSH2 0x3F7 JUMPI PUSH1 0x0 DUP1 REVERT JUMPDEST DUP1 PUSH4 0x1755FF21 GT PUSH2 0x108 JUMPI DUP1 PUSH4 0x1755FF21 EQ PUSH2 0x250 JUMPI DUP1 PUSH4 0x23D60889 EQ PUSH2 0x29C JUMPI DUP1 PUSH4 0x313CE567 EQ PUSH2 0x2B1 JUMPI DUP1 PUSH4 0x349225F8 EQ PUSH2 0x2CD JUMPI DUP1 PUSH4 0x4A643499 EQ PUSH2 0x2EF JUMPI DUP1 PUSH4 0x4AB5CC82 EQ PUSH2 0x338 JUMPI PUSH1 0x0 DUP1 REVERT JUMPDEST DUP1 PUSH4 0x2271069 EQ PUSH2 0x145 JUMPI DUP1 PUSH4 0xB77884D EQ PUSH2 0x15C JUMPI DUP1 PUSH4 0x115416FE EQ PUSH2 0x1A7 JUMPI DUP1 PUSH4 0x14BCEC9F EQ PUSH2 0x1D6 JUMPI DUP1 PUSH4 0x1544298E EQ PUSH2 0x20E JUMPI JUMPDEST PUSH1 0x0 DUP1 REVERT JUMPDEST CALLVALUE DUP1 ISZERO PUSH2 0x151 JUMPI PUSH1 0x0 DUP1 REVERT JUMPDEST POP PUSH2 0x15A PUSH2 0x4DF JUMP JUMPDEST STOP JUMPDEST CALLVALUE DUP1 ISZERO PUSH2 0x168 JUMPI PUSH1 0x0 DUP1 REVERT JUMPDEST POP PUSH2 0x190 PUSH32 0x0 DUP2 JUMP JUMPDEST PUSH1 0x40 MLOAD PUSH1 0xFF SWAP1 SWAP2 AND DUP2 MSTORE PUSH1 0x20 ADD JUMPDEST PUSH1 0x40 MLOAD DUP1 SWAP2 SUB SWAP1 RETURN JUMPDEST PUSH2 0x1AF PUSH2 0x547 JUMP JUMPDEST PUSH1 0x40 DUP1 MLOAD SWAP4 DUP5 MSTORE PUSH1 0x0 SWAP3 SWAP1 SWAP3 SIGNEXTEND PUSH1 0x20 DUP5 ADD MSTORE PUSH1 0x1 PUSH1 0x1 PUSH1 0x40 SHL SUB AND SWAP1 DUP3 ADD MSTORE PUSH1 0x60 ADD PUSH2 0x19E JUMP JUMPDEST CALLVALUE DUP1 ISZERO PUSH2 0x1E2 JUMPI PUSH1 0x0 DUP1 REVERT JUMPDEST POP PUSH1 0x2 SLOAD PUSH2 0x1F6 SWAP1 PUSH1 0x1 PUSH1 0x1 PUSH1 0x40 SHL SUB AND DUP2 JUMP JUMPDEST PUSH1 0x40 MLOAD PUSH1 0x1 PUSH1 0x1 PUSH1 0x40 SHL SUB SWAP1 SWAP2 AND DUP2 MSTORE PUSH1 0x20 ADD PUSH2 0x19E JUMP JUMPDEST CALLVALUE DUP1 ISZERO PUSH2 0x21A JUMPI PUSH1 0x0 DUP1 REVERT JUMPDEST POP PUSH2 0x242 PUSH32 0x0 DUP2 JUMP JUMPDEST PUSH1 0x40 MLOAD SWAP1 DUP2 MSTORE PUSH1 0x20 ADD PUSH2 0x19E JUMP JUMPDEST CALLVALUE DUP1 ISZERO PUSH2 0x25C JUMPI PUSH1 0x0 DUP1 REVERT JUMPDEST POP PUSH2 0x284 PUSH32 0x0 DUP2 JUMP JUMPDEST PUSH1 0x40 MLOAD PUSH1 0x1 PUSH1 0x1 PUSH1 0xA0 SHL SUB SWAP1 SWAP2 AND DUP2 MSTORE PUSH1 0x20 ADD PUSH2 0x19E JUMP JUMPDEST CALLVALUE DUP1 ISZERO PUSH2 0x2A8 JUMPI PUSH1 0x0 DUP1 REVERT JUMPDEST POP PUSH2 0x15A PUSH2 0x5AD JUMP JUMPDEST CALLVALUE DUP1 ISZERO PUSH2 0x2BD JUMPI PUSH1 0x0 DUP1 REVERT JUMPDEST POP PUSH1 0x40 MLOAD PUSH1 0x6 DUP2 MSTORE PUSH1 0x20 ADD PUSH2 0x19E JUMP JUMPDEST CALLVALUE DUP1 ISZERO PUSH2 0x2D9 JUMPI PUSH1 0x0 DUP1 REVERT JUMPDEST POP PUSH2 0x2E2 PUSH2 0x60F JUMP JUMPDEST PUSH1 0x40 MLOAD PUSH2 0x19E SWAP2 SWAP1 PUSH2 0x109E JUMP JUMPDEST CALLVALUE DUP1 ISZERO PUSH2 0x2FB JUMPI PUSH1 0x0 DUP1 REVERT JUMPDEST POP PUSH1 0x40 MLOAD PUSH11 0xFFFFFFFFFFFFFFFFFFFFFF NOT PUSH32 0x0 AND DUP2 MSTORE PUSH1 0x20 ADD PUSH2 0x19E JUMP JUMPDEST CALLVALUE DUP1 ISZERO PUSH2 0x344 JUMPI PUSH1 0x0 DUP1 REVERT JUMPDEST POP PUSH2 0x242 PUSH1 0x1 SLOAD DUP2 JUMP JUMPDEST CALLVALUE DUP1 ISZERO PUSH2 0x35A JUMPI PUSH1 0x0 DUP1 REVERT JUMPDEST POP PUSH2 0x242 PUSH2 0x78B JUMP JUMPDEST CALLVALUE DUP1 ISZERO PUSH2 0x36F JUMPI PUSH1 0x0 DUP1 REVERT JUMPDEST POP PUSH2 0x284 PUSH32 0x0 DUP2 JUMP JUMPDEST CALLVALUE DUP1 ISZERO PUSH2 0x3A3 JUMPI PUSH1 0x0 DUP1 REVERT JUMPDEST POP PUSH1 0x4 SLOAD PUSH2 0x3B1 SWAP1 PUSH1 0xFF AND DUP2 JUMP JUMPDEST PUSH1 0x40 MLOAD SWAP1 ISZERO ISZERO DUP2 MSTORE PUSH1 0x20 ADD PUSH2 0x19E JUMP JUMPDEST CALLVALUE DUP1 ISZERO PUSH2 0x3CD JUMPI PUSH1 0x0 DUP1 REVERT JUMPDEST POP PUSH2 0x242 PUSH1 0x3 SLOAD DUP2 JUMP JUMPDEST CALLVALUE DUP1 ISZERO PUSH2 0x3E3 JUMPI PUSH1 0x0 DUP1 REVERT JUMPDEST POP PUSH2 0x15A PUSH2 0x3F2 CALLDATASIZE PUSH1 0x4 PUSH2 0x1163 JUMP JUMPDEST PUSH2 0x7D9 JUMP JUMPDEST CALLVALUE DUP1 ISZERO PUSH2 0x403 JUMPI PUSH1 0x0 DUP1 REVERT JUMPDEST POP PUSH2 0x3B1 PUSH32 0x0 DUP2 JUMP JUMPDEST CALLVALUE DUP1 ISZERO PUSH2 0x437 JUMPI PUSH1 0x0 DUP1 REVERT JUMPDEST POP PUSH2 0x242 PUSH1 0x5 SLOAD DUP2 JUMP JUMPDEST CALLVALUE DUP1 ISZERO PUSH2 0x44D JUMPI PUSH1 0x0 DUP1 REVERT JUMPDEST POP PUSH1 0x0 SLOAD PUSH2 0x284 SWAP1 PUSH1 0x1 PUSH1 0x1 PUSH1 0xA0 SHL SUB AND DUP2 JUMP JUMPDEST CALLVALUE DUP1 ISZERO PUSH2 0x46D JUMPI PUSH1 0x0 DUP1 REVERT JUMPDEST POP PUSH2 0x190 PUSH32 0x0 DUP2 JUMP JUMPDEST CALLVALUE DUP1 ISZERO PUSH2 0x4A1 JUMPI PUSH1 0x0 DUP1 REVERT JUMPDEST POP PUSH2 0x242 PUSH1 0x6 SLOAD DUP2 JUMP JUMPDEST CALLVALUE DUP1 ISZERO PUSH2 0x4B7 JUMPI PUSH1 0x0 DUP1 REVERT JUMPDEST POP PUSH1 0x0 PUSH2 0x242 JUMP JUMPDEST CALLVALUE DUP1 ISZERO PUSH2 0x4CB JUMPI PUSH1 0x0 DUP1 REVERT JUMPDEST POP PUSH2 0x15A PUSH2 0x4DA CALLDATASIZE PUSH1 0x4 PUSH2 0x11CC JUMP JUMPDEST PUSH2 0xAFA JUMP JUMPDEST PUSH1 0x0 SLOAD PUSH1 0x1 PUSH1 0x1 PUSH1 0xA0 SHL SUB AND CALLER EQ PUSH2 0x512 JUMPI PUSH1 0x40 MLOAD PUSH3 0x461BCD PUSH1 0xE5 SHL DUP2 MSTORE PUSH1 0x4 ADD PUSH2 0x509 SWAP1 PUSH2 0x11E9 JUMP JUMPDEST PUSH1 0x40 MLOAD DUP1 SWAP2 SUB SWAP1 REVERT JUMPDEST PUSH1 0x4 DUP1 SLOAD PUSH1 0xFF NOT AND SWAP1 SSTORE PUSH1 0x40 MLOAD PUSH32 0x4A4C785FE1C9642309071A07AC280989CD10624630E14194D12672C8F0FE661F SWAP1 PUSH1 0x0 SWAP1 LOG1 JUMP JUMPDEST PUSH1 0x0 DUP1 PUSH1 0x0 DUP1 PUSH1 0x1 SLOAD GT PUSH2 0x591 JUMPI PUSH1 0x40 MLOAD PUSH3 0x461BCD PUSH1 0xE5 SHL DUP2 MSTORE PUSH1 0x20 PUSH1 0x4 DUP3 ADD MSTORE PUSH1 0x11 PUSH1 0x24 DUP3 ADD MSTORE PUSH17 0x4E6F206461746120617661696C61626C65 PUSH1 0x78 SHL PUSH1 0x44 DUP3 ADD MSTORE PUSH1 0x64 ADD PUSH2 0x509 JUMP JUMPDEST POP POP PUSH1 0x1 SLOAD PUSH1 0x2 SLOAD SWAP1 SWAP3 PUSH1 0x6 SWAP3 POP PUSH1 0x1 PUSH1 0x1 PUSH1 0x40 SHL SUB SWAP1 SWAP2 AND SWAP1 JUMP JUMPDEST PUSH1 0x0 SLOAD PUSH1 0x1 PUSH1 0x1 PUSH1 0xA0 SHL SUB AND CALLER EQ PUSH2 0x5D7 JUMPI PUSH1 0x40 MLOAD PUSH3 0x461BCD PUSH1 0xE5 SHL DUP2 MSTORE PUSH1 0x4 ADD PUSH2 0x509 SWAP1 PUSH2 0x11E9 JUMP JUMPDEST PUSH1 0x4 DUP1 SLOAD PUSH1 0xFF NOT AND PUSH1 0x1 OR SWAP1 SSTORE PUSH1 0x40 MLOAD PUSH32 0x24B779DA341973449740A5C61843C5DD3FCFAF5B667A7B67EDCDA18B45BEBA69 SWAP1 PUSH1 0x0 SWAP1 LOG1 JUMP JUMPDEST PUSH1 0x40 DUP1 MLOAD PUSH2 0x160 DUP2 ADD DUP3 MSTORE PUSH1 0x0 DUP1 DUP3 MSTORE PUSH1 0x20 DUP3 ADD DUP2 SWAP1 MSTORE SWAP2 DUP2 ADD DUP3 SWAP1 MSTORE PUSH1 0x60 DUP2 ADD DUP3 SWAP1 MSTORE PUSH1 0x80 DUP2 ADD DUP3 SWAP1 MSTORE PUSH1 0xA0 DUP2 ADD DUP3 SWAP1 MSTORE PUSH1 0xC0 DUP2 ADD DUP3 SWAP1 MSTORE PUSH1 0xE0 DUP2 ADD DUP3 SWAP1 MSTORE PUSH2 0x100 DUP2 ADD DUP3 SWAP1 MSTORE PUSH2 0x120 DUP2 ADD DUP3 SWAP1 MSTORE PUSH2 0x140 DUP2 ADD SWAP2 SWAP1 SWAP2 MSTORE PUSH1 0x40 DUP1 MLOAD PUSH2 0x160 DUP2 ADD DUP3 MSTORE PUSH11 0xFFFFFFFFFFFFFFFFFFFFFF NOT PUSH32 0x0 AND DUP2 MSTORE PUSH1 0x1 SLOAD PUSH1 0x20 DUP3 ADD MSTORE PUSH1 0x6 SWAP2 DUP2 ADD DUP3 SWAP1 MSTORE PUSH1 0x2 SLOAD PUSH1 0x1 PUSH1 0x1 PUSH1 0x40 SHL SUB AND PUSH1 0x60 DUP3 ADD MSTORE PUSH1 0x3 SLOAD PUSH1 0x80 DUP3 ADD MSTORE PUSH1 0x1 PUSH1 0x1 PUSH1 0xA0 SHL SUB PUSH32 0x0 DUP2 AND PUSH1 0xA0 DUP4 ADD MSTORE PUSH32 0x0 PUSH1 0xC0 DUP4 ADD MSTORE PUSH32 0x0 AND PUSH1 0xE0 DUP3 ADD MSTORE PUSH1 0x4 SLOAD PUSH1 0xFF AND ISZERO ISZERO PUSH2 0x100 DUP3 ADD MSTORE SWAP1 SLOAD PUSH2 0x120 DUP3 ADD SWAP1 PUSH2 0x76B JUMPI PUSH1 0x0 PUSH2 0x77B JUMP JUMPDEST PUSH1 0x6 SLOAD PUSH1 0x5 SLOAD PUSH2 0x77B SWAP2 SWAP1 PUSH2 0x1222 JUMP JUMPDEST DUP2 MSTORE PUSH1 0x20 ADD PUSH1 0x6 SLOAD DUP2 MSTORE POP SWAP1 POP SWAP1 JUMP JUMPDEST PUSH1 0x0 DUP1 PUSH1 0x1 SLOAD GT PUSH2 0x7D2 JUMPI PUSH1 0x40 MLOAD PUSH3 0x461BCD PUSH1 0xE5 SHL DUP2 MSTORE PUSH1 0x20 PUSH1 0x4 DUP3 ADD MSTORE PUSH1 0x11 PUSH1 0x24 DUP3 ADD MSTORE PUSH17 0x4E6F206461746120617661696C61626C65 PUSH1 0x78 SHL PUSH1 0x44 DUP3 ADD MSTORE PUSH1 0x64 ADD PUSH2 0x509 JUMP JUMPDEST POP PUSH1 0x1 SLOAD SWAP1 JUMP JUMPDEST PUSH1 0x4 SLOAD PUSH1 0xFF AND PUSH2 0x81C JUMPI PUSH1 0x40 MLOAD PUSH3 0x461BCD PUSH1 0xE5 SHL DUP2 MSTORE PUSH1 0x20 PUSH1 0x4 DUP3 ADD MSTORE PUSH1 0xE PUSH1 0x24 DUP3 ADD MSTORE PUSH14 0x155C19185D195CC81C185D5CD959 PUSH1 0x92 SHL PUSH1 0x44 DUP3 ADD MSTORE PUSH1 0x64 ADD PUSH2 0x509 JUMP JUMPDEST PUSH1 0x0 GAS PUSH1 0x40 MLOAD PUSH4 0x58FBE9E1 PUSH1 0xE0 SHL DUP2 MSTORE SWAP1 SWAP2 POP PUSH1 0x1 PUSH1 0x1 PUSH1 0xA0 SHL SUB PUSH32 0x0 AND SWAP1 PUSH4 0x58FBE9E1 SWAP1 PUSH2 0x86E SWAP1 DUP6 SWAP1 PUSH1 0x4 ADD PUSH2 0x159F JUMP JUMPDEST PUSH1 0x20 PUSH1 0x40 MLOAD DUP1 DUP4 SUB DUP2 DUP7 GAS STATICCALL ISZERO DUP1 ISZERO PUSH2 0x88B JUMPI RETURNDATASIZE PUSH1 0x0 DUP1 RETURNDATACOPY RETURNDATASIZE PUSH1 0x0 REVERT JUMPDEST POP POP POP POP PUSH1 0x40 MLOAD RETURNDATASIZE PUSH1 0x1F NOT PUSH1 0x1F DUP3 ADD AND DUP3 ADD DUP1 PUSH1 0x40 MSTORE POP DUP2 ADD SWAP1 PUSH2 0x8AF SWAP2 SWAP1 PUSH2 0x1709 JUMP JUMPDEST PUSH2 0x8EF JUMPI PUSH1 0x40 MLOAD PUSH3 0x461BCD PUSH1 0xE5 SHL DUP2 MSTORE PUSH1 0x20 PUSH1 0x4 DUP3 ADD MSTORE PUSH1 0x11 PUSH1 0x24 DUP3 ADD MSTORE PUSH17 0x24B73B30B634B21023222190383937B7B3 PUSH1 0x79 SHL PUSH1 0x44 DUP3 ADD MSTORE PUSH1 0x64 ADD PUSH2 0x509 JUMP JUMPDEST PUSH1 0x0 PUSH2 0x8FE PUSH1 0x20 DUP5 ADD DUP5 PUSH2 0x1726 JUMP JUMPDEST PUSH2 0x907 SWAP1 PUSH2 0x1BC6 JUMP JUMPDEST SWAP1 POP PUSH32 0x0 PUSH1 0x1 PUSH1 0x1 PUSH1 0xA0 SHL SUB AND DUP2 PUSH1 0xA0 ADD MLOAD PUSH1 0x80 ADD MLOAD PUSH1 0x1 PUSH1 0x1 PUSH1 0xA0 SHL SUB AND EQ PUSH2 0x98B JUMPI PUSH1 0x40 MLOAD PUSH3 0x461BCD PUSH1 0xE5 SHL DUP2 MSTORE PUSH1 0x20 PUSH1 0x4 DUP3 ADD MSTORE PUSH1 0x16 PUSH1 0x24 DUP3 ADD MSTORE PUSH22 0x57726F6E6720636F6E74726163742061646472657373 PUSH1 0x50 SHL PUSH1 0x44 DUP3 ADD MSTORE PUSH1 0x64 ADD PUSH2 0x509 JUMP JUMPDEST DUP1 PUSH1 0xA0 ADD MLOAD PUSH1 0xE0 ADD MLOAD PUSH1 0xFF AND PUSH1 0x1 EQ PUSH2 0x9DB JUMPI PUSH1 0x40 MLOAD PUSH3 0x461BCD PUSH1 0xE5 SHL DUP2 MSTORE PUSH1 0x20 PUSH1 0x4 DUP3 ADD MSTORE PUSH1 0x12 PUSH1 0x24 DUP3 ADD MSTORE PUSH18 0x151C985B9CD858DD1A5BDB8819985A5B1959 PUSH1 0x72 SHL PUSH1 0x44 DUP3 ADD MSTORE PUSH1 0x64 ADD PUSH2 0x509 JUMP JUMPDEST PUSH1 0x0 DUP1 PUSH2 0x9F0 DUP4 PUSH1 0xA0 ADD MLOAD PUSH2 0x100 ADD MLOAD PUSH2 0xBBC JUMP JUMPDEST PUSH1 0x1 DUP3 SWAP1 SSTORE PUSH1 0x2 DUP1 SLOAD PUSH8 0xFFFFFFFFFFFFFFFF NOT AND PUSH1 0x1 PUSH1 0x1 PUSH1 0x40 SHL SUB DUP4 AND OR SWAP1 SSTORE PUSH1 0x3 DUP1 SLOAD SWAP3 SWAP5 POP SWAP1 SWAP3 POP PUSH1 0x0 PUSH2 0xA26 DUP4 PUSH2 0x1C68 JUMP JUMPDEST SWAP2 SWAP1 POP SSTORE POP PUSH1 0x0 GAS PUSH2 0xA38 SWAP1 DUP7 PUSH2 0x1C81 JUMP JUMPDEST SWAP1 POP DUP1 PUSH1 0x5 PUSH1 0x0 DUP3 DUP3 SLOAD PUSH2 0xA4C SWAP2 SWAP1 PUSH2 0x1C9A JUMP JUMPDEST SWAP1 SWAP2 SSTORE POP POP PUSH1 0x6 DUP1 SLOAD SWAP1 PUSH1 0x0 PUSH2 0xA61 DUP4 PUSH2 0x1C68 JUMP JUMPDEST SWAP1 SWAP2 SSTORE POP POP PUSH1 0x40 DUP1 MLOAD PUSH1 0x1 PUSH1 0x1 PUSH1 0x40 SHL SUB DUP5 AND DUP2 MSTORE NUMBER PUSH1 0x20 DUP3 ADD MSTORE CALLER SWAP2 DUP6 SWAP2 PUSH32 0xCBB0A1964FDED1543E1FC229A1BEA0552BB873219986500CF7EA9D1A4506D736 SWAP2 ADD PUSH1 0x40 MLOAD DUP1 SWAP2 SUB SWAP1 LOG3 PUSH1 0x80 DUP5 ADD MLOAD MLOAD PUSH1 0x40 DUP1 MLOAD DUP6 DUP2 MSTORE PUSH1 0x1 PUSH1 0x1 PUSH1 0x40 SHL SUB DUP6 AND PUSH1 0x20 DUP3 ADD MSTORE PUSH32 0x20AAFBDB02EDECF8B1E8547D36A18BFA617D137F7556777A48B28D206BD6D4D4 SWAP2 ADD PUSH1 0x40 MLOAD DUP1 SWAP2 SUB SWAP1 LOG2 POP POP POP POP POP POP JUMP JUMPDEST PUSH1 0x0 SLOAD PUSH1 0x1 PUSH1 0x1 PUSH1 0xA0 SHL SUB AND CALLER EQ PUSH2 0xB24 JUMPI PUSH1 0x40 MLOAD PUSH3 0x461BCD PUSH1 0xE5 SHL DUP2 MSTORE PUSH1 0x4 ADD PUSH2 0x509 SWAP1 PUSH2 0x11E9 JUMP JUMPDEST PUSH1 0x1 PUSH1 0x1 PUSH1 0xA0 SHL SUB DUP2 AND PUSH2 0xB6C JUMPI PUSH1 0x40 MLOAD PUSH3 0x461BCD PUSH1 0xE5 SHL DUP2 MSTORE PUSH1 0x20 PUSH1 0x4 DUP3 ADD MSTORE PUSH1 0xF PUSH1 0x24 DUP3 ADD MSTORE PUSH15 0x496E76616C69642061646472657373 PUSH1 0x88 SHL PUSH1 0x44 DUP3 ADD MSTORE PUSH1 0x64 ADD PUSH2 0x509 JUMP JUMPDEST PUSH1 0x0 DUP1 SLOAD PUSH1 0x1 PUSH1 0x1 PUSH1 0xA0 SHL SUB DUP4 DUP2 AND PUSH1 0x1 PUSH1 0x1 PUSH1 0xA0 SHL SUB NOT DUP4 AND DUP2 OR DUP5 SSTORE PUSH1 0x40 MLOAD SWAP2 SWAP1 SWAP3 AND SWAP3 DUP4 SWAP2 PUSH32 0x8BE0079C531659141344CD1FD0A4F28419497F9722A3DAAFE3B4186F6B6457E0 SWAP2 SWAP1 LOG3 POP POP JUMP JUMPDEST PUSH1 0x0 DUP1 PUSH1 0x0 DUP1 JUMPDEST DUP5 MLOAD DUP2 LT ISZERO PUSH2 0xE3E JUMPI PUSH1 0x0 DUP6 DUP3 DUP2 MLOAD DUP2 LT PUSH2 0xBE0 JUMPI PUSH2 0xBE0 PUSH2 0x1CAD JUMP JUMPDEST PUSH1 0x20 MUL PUSH1 0x20 ADD ADD MLOAD SWAP1 POP PUSH32 0x0 PUSH1 0x1 PUSH1 0x1 PUSH1 0xA0 SHL SUB AND DUP2 PUSH1 0x20 ADD MLOAD PUSH1 0x1 PUSH1 0x1 PUSH1 0xA0 SHL SUB AND EQ PUSH2 0xC2D JUMPI POP PUSH2 0xE2C JUMP JUMPDEST PUSH1 0x0 DUP2 PUSH1 0x40 ADD MLOAD MLOAD GT DUP1 ISZERO PUSH2 0xC7F JUMPI POP PUSH32 0x75C79671C8187D029ADA1A8F8CACF6AF122360061D5F3E78D2EB1F00871946F2 DUP2 PUSH1 0x40 ADD MLOAD PUSH1 0x0 DUP2 MLOAD DUP2 LT PUSH2 0xC75 JUMPI PUSH2 0xC75 PUSH2 0x1CAD JUMP JUMPDEST PUSH1 0x20 MUL PUSH1 0x20 ADD ADD MLOAD EQ JUMPDEST ISZERO PUSH2 0xE2A JUMPI PUSH1 0x3 DUP2 PUSH1 0x40 ADD MLOAD MLOAD LT ISZERO PUSH2 0xCCB JUMPI PUSH1 0x40 MLOAD PUSH3 0x461BCD PUSH1 0xE5 SHL DUP2 MSTORE PUSH1 0x20 PUSH1 0x4 DUP3 ADD MSTORE PUSH1 0xE PUSH1 0x24 DUP3 ADD MSTORE PUSH14 0x496E76616C696420746F70696373 PUSH1 0x90 SHL PUSH1 0x44 DUP3 ADD MSTORE PUSH1 0x64 ADD PUSH2 0x509 JUMP JUMPDEST PUSH1 0x0 DUP2 PUSH1 0x40 ADD MLOAD PUSH1 0x1 DUP2 MLOAD DUP2 LT PUSH2 0xCE4 JUMPI PUSH2 0xCE4 PUSH2 0x1CAD JUMP JUMPDEST PUSH1 0x20 MUL PUSH1 0x20 ADD ADD MLOAD PUSH1 0x0 SHR SWAP1 POP PUSH1 0x0 DUP3 PUSH1 0x40 ADD MLOAD PUSH1 0x2 DUP2 MLOAD DUP2 LT PUSH2 0xD0A JUMPI PUSH2 0xD0A PUSH2 0x1CAD JUMP JUMPDEST PUSH1 0x20 MUL PUSH1 0x20 ADD ADD MLOAD PUSH1 0x0 SHR SWAP1 POP PUSH32 0x0 DUP3 EQ PUSH2 0xD7B JUMPI PUSH1 0x40 MLOAD PUSH3 0x461BCD PUSH1 0xE5 SHL DUP2 MSTORE PUSH1 0x20 PUSH1 0x4 DUP3 ADD MSTORE PUSH1 0x12 PUSH1 0x24 DUP3 ADD MSTORE PUSH18 0x2BB937B7339039B7BAB931B29031B430B4B7 PUSH1 0x71 SHL PUSH1 0x44 DUP3 ADD MSTORE PUSH1 0x64 ADD PUSH2 0x509 JUMP JUMPDEST PUSH32 0x0 PUSH1 0x1 PUSH1 0x1 PUSH1 0xA0 SHL SUB AND DUP2 PUSH1 0x1 PUSH1 0x1 PUSH1 0xA0 SHL SUB AND EQ PUSH2 0xDE9 JUMPI PUSH1 0x40 MLOAD PUSH3 0x461BCD PUSH1 0xE5 SHL DUP2 MSTORE PUSH1 0x20 PUSH1 0x4 DUP3 ADD MSTORE PUSH1 0xA PUSH1 0x24 DUP3 ADD MSTORE PUSH10 0x15DC9BDB99C81C1BDBDB PUSH1 0xB2 SHL PUSH1 0x44 DUP3 ADD MSTORE PUSH1 0x64 ADD PUSH2 0x509 JUMP JUMPDEST PUSH1 0x0 DUP1 DUP5 PUSH1 0x60 ADD MLOAD DUP1 PUSH1 0x20 ADD SWAP1 MLOAD DUP2 ADD SWAP1 PUSH2 0xE04 SWAP2 SWAP1 PUSH2 0x1CCE JUMP JUMPDEST POP POP POP SWAP6 POP POP POP POP POP SWAP2 POP PUSH2 0xE18 DUP3 PUSH2 0xE92 JUMP JUMPDEST SWAP9 POP SWAP7 POP PUSH1 0x1 SWAP6 POP PUSH2 0xE3E SWAP4 POP POP POP POP JUMP JUMPDEST POP JUMPDEST DUP1 PUSH2 0xE36 DUP2 PUSH2 0x1C68 JUMP JUMPDEST SWAP2 POP POP PUSH2 0xBC3 JUMP JUMPDEST POP DUP1 PUSH2 0xE8C JUMPI PUSH1 0x40 MLOAD PUSH3 0x461BCD PUSH1 0xE5 SHL DUP2 MSTORE PUSH1 0x20 PUSH1 0x4 DUP3 ADD MSTORE PUSH1 0x1C PUSH1 0x24 DUP3 ADD MSTORE PUSH32 0x507269636552656C61796564206576656E74206E6F7420666F756E6400000000 PUSH1 0x44 DUP3 ADD MSTORE PUSH1 0x64 ADD PUSH2 0x509 JUMP JUMPDEST POP SWAP2 POP SWAP2 JUMP JUMPDEST PUSH1 0x0 PUSH1 0x1 PUSH1 0x60 SHL PUSH1 0x1 PUSH1 0x1 PUSH1 0xA0 SHL SUB DUP4 AND DUP3 DUP1 PUSH1 0x1 PUSH1 0x80 SHL DUP4 GT ISZERO PUSH2 0xEDC JUMPI PUSH1 0x0 PUSH2 0xEC1 PUSH1 0x1 PUSH1 0x40 SHL DUP6 PUSH2 0x1222 JUMP JUMPDEST SWAP1 POP PUSH2 0xECD DUP2 DUP1 PUSH2 0x1D7C JUMP JUMPDEST SWAP3 POP PUSH1 0x1 PUSH1 0x40 SHL SWAP2 POP POP PUSH2 0xEF5 JUMP JUMPDEST PUSH2 0xEE6 DUP4 DUP1 PUSH2 0x1D7C JUMP JUMPDEST SWAP2 POP PUSH2 0xEF2 DUP5 DUP1 PUSH2 0x1D7C JUMP JUMPDEST SWAP1 POP JUMPDEST PUSH1 0x0 PUSH2 0xF47 PUSH1 0xFF PUSH32 0x0 DUP2 AND SWAP1 PUSH32 0x0 AND PUSH2 0x1D93 JUMP JUMPDEST SWAP1 POP PUSH1 0x0 DUP1 DUP3 SLT PUSH2 0xF79 JUMPI PUSH2 0xF5D DUP3 PUSH1 0x6 PUSH2 0x1C9A JUMP JUMPDEST PUSH2 0xF68 SWAP1 PUSH1 0xA PUSH2 0x1E9E JUMP JUMPDEST PUSH2 0xF72 SWAP1 DUP6 PUSH2 0x1D7C JUMP JUMPDEST SWAP1 POP PUSH2 0xFA9 JUMP JUMPDEST PUSH2 0xF86 DUP5 PUSH3 0xF4240 PUSH2 0x1D7C JUMP JUMPDEST SWAP1 POP PUSH2 0xF91 DUP3 PUSH2 0x1EAA JUMP JUMPDEST PUSH2 0xF9C SWAP1 PUSH1 0xA PUSH2 0x1E9E JUMP JUMPDEST PUSH2 0xFA6 SWAP1 DUP5 PUSH2 0x1D7C JUMP JUMPDEST SWAP3 POP JUMPDEST PUSH1 0x0 PUSH2 0xFB5 DUP5 DUP4 PUSH2 0x1222 JUMP JUMPDEST SWAP1 POP PUSH32 0x0 DUP1 ISZERO PUSH2 0xFE4 JUMPI POP PUSH1 0x0 DUP2 GT JUMPDEST ISZERO PUSH2 0xFFB JUMPI PUSH2 0xFF8 DUP2 PUSH5 0xE8D4A51000 PUSH2 0x1222 JUMP JUMPDEST SWAP1 POP JUMPDEST PUSH1 0x0 DUP2 GT PUSH2 0x1044 JUMPI PUSH1 0x40 MLOAD PUSH3 0x461BCD PUSH1 0xE5 SHL DUP2 MSTORE PUSH1 0x20 PUSH1 0x4 DUP3 ADD MSTORE PUSH1 0x16 PUSH1 0x24 DUP3 ADD MSTORE PUSH22 0x5072696365206D75737420626520706F736974697665 PUSH1 0x50 SHL PUSH1 0x44 DUP3 ADD MSTORE PUSH1 0x64 ADD PUSH2 0x509 JUMP JUMPDEST PUSH1 0x1 PUSH1 0x1 PUSH1 0x80 SHL SUB DUP2 LT PUSH2 0x1092 JUMPI PUSH1 0x40 MLOAD PUSH3 0x461BCD PUSH1 0xE5 SHL DUP2 MSTORE PUSH1 0x20 PUSH1 0x4 DUP3 ADD MSTORE PUSH1 0x15 PUSH1 0x24 DUP3 ADD MSTORE PUSH21 0x50726963652065786365656473206D6178696D756D PUSH1 0x58 SHL PUSH1 0x44 DUP3 ADD MSTORE PUSH1 0x64 ADD PUSH2 0x509 JUMP JUMPDEST SWAP9 SWAP8 POP POP POP POP POP POP POP POP JUMP JUMPDEST DUP2 MLOAD PUSH11 0xFFFFFFFFFFFFFFFFFFFFFF NOT AND DUP2 MSTORE PUSH2 0x160 DUP2 ADD PUSH1 0x20 DUP4 ADD MLOAD PUSH1 0x20 DUP4 ADD MSTORE PUSH1 0x40 DUP4 ADD MLOAD PUSH2 0x10D3 PUSH1 0x40 DUP5 ADD DUP3 PUSH1 0x0 SIGNEXTEND SWAP1 MSTORE JUMP JUMPDEST POP PUSH1 0x60 DUP4 ADD MLOAD PUSH2 0x10EE PUSH1 0x60 DUP5 ADD DUP3 PUSH1 0x1 PUSH1 0x1 PUSH1 0x40 SHL SUB AND SWAP1 MSTORE JUMP JUMPDEST POP PUSH1 0x80 DUP4 ADD MLOAD PUSH1 0x80 DUP4 ADD MSTORE PUSH1 0xA0 DUP4 ADD MLOAD PUSH2 0x1113 PUSH1 0xA0 DUP5 ADD DUP3 PUSH1 0x1 PUSH1 0x1 PUSH1 0xA0 SHL SUB AND SWAP1 MSTORE JUMP JUMPDEST POP PUSH1 0xC0 DUP4 ADD MLOAD PUSH1 0xC0 DUP4 ADD MSTORE PUSH1 0xE0 DUP4 ADD MLOAD PUSH2 0x1138 PUSH1 0xE0 DUP5 ADD DUP3 PUSH1 0x1 PUSH1 0x1 PUSH1 0xA0 SHL SUB AND SWAP1 MSTORE JUMP JUMPDEST POP PUSH2 0x100 DUP4 DUP2 ADD MLOAD ISZERO ISZERO SWAP1 DUP4 ADD MSTORE PUSH2 0x120 DUP1 DUP5 ADD MLOAD SWAP1 DUP4 ADD MSTORE PUSH2 0x140 SWAP3 DUP4 ADD MLOAD SWAP3 SWAP1 SWAP2 ADD SWAP2 SWAP1 SWAP2 MSTORE SWAP1 JUMP JUMPDEST PUSH1 0x0 PUSH1 0x20 DUP3 DUP5 SUB SLT ISZERO PUSH2 0x1175 JUMPI PUSH1 0x0 DUP1 REVERT JUMPDEST DUP2 CALLDATALOAD PUSH1 0x1 PUSH1 0x1 PUSH1 0x40 SHL SUB DUP2 GT ISZERO PUSH2 0x118B JUMPI PUSH1 0x0 DUP1 REVERT JUMPDEST DUP3 ADD PUSH1 0x40 DUP2 DUP6 SUB SLT ISZERO PUSH2 0x119D JUMPI PUSH1 0x0 DUP1 REVERT JUMPDEST SWAP4 SWAP3 POP POP POP JUMP JUMPDEST PUSH1 0x1 PUSH1 0x1 PUSH1 0xA0 SHL SUB DUP2 AND DUP2 EQ PUSH2 0x11B9 JUMPI PUSH1 0x0 DUP1 REVERT JUMPDEST POP JUMP JUMPDEST DUP1 CALLDATALOAD PUSH2 0x11C7 DUP2 PUSH2 0x11A4 JUMP JUMPDEST SWAP2 SWAP1 POP JUMP JUMPDEST PUSH1 0x0 PUSH1 0x20 DUP3 DUP5 SUB SLT ISZERO PUSH2 0x11DE JUMPI PUSH1 0x0 DUP1 REVERT JUMPDEST DUP2 CALLDATALOAD PUSH2 0x119D DUP2 PUSH2 0x11A4 JUMP JUMPDEST PUSH1 0x20 DUP1 DUP3 MSTORE PUSH1 0x9 SWAP1 DUP3 ADD MSTORE PUSH9 0x2737BA1037BBB732B9 PUSH1 0xB9 SHL PUSH1 0x40 DUP3 ADD MSTORE PUSH1 0x60 ADD SWAP1 JUMP JUMPDEST PUSH4 0x4E487B71 PUSH1 0xE0 SHL PUSH1 0x0 MSTORE PUSH1 0x11 PUSH1 0x4 MSTORE PUSH1 0x24 PUSH1 0x0 REVERT JUMPDEST PUSH1 0x0 DUP3 PUSH2 0x123F JUMPI PUSH4 0x4E487B71 PUSH1 0xE0 SHL PUSH1 0x0 MSTORE PUSH1 0x12 PUSH1 0x4 MSTORE PUSH1 0x24 PUSH1 0x0 REVERT JUMPDEST POP DIV SWAP1 JUMP JUMPDEST PUSH1 0x0 DUP1 DUP4 CALLDATALOAD PUSH1 0x1E NOT DUP5 CALLDATASIZE SUB ADD DUP2 SLT PUSH2 0x125B JUMPI PUSH1 0x0 DUP1 REVERT JUMPDEST DUP4 ADD PUSH1 0x20 DUP2 ADD SWAP3 POP CALLDATALOAD SWAP1 POP PUSH1 0x1 PUSH1 0x1 PUSH1 0x40 SHL SUB DUP2 GT ISZERO PUSH2 0x127A JUMPI PUSH1 0x0 DUP1 REVERT JUMPDEST DUP1 PUSH1 0x5 SHL CALLDATASIZE SUB DUP3 SGT ISZERO PUSH2 0x128C JUMPI PUSH1 0x0 DUP1 REVERT JUMPDEST SWAP3 POP SWAP3 SWAP1 POP JUMP JUMPDEST DUP2 DUP4 MSTORE PUSH1 0x0 PUSH1 0x1 PUSH1 0x1 PUSH1 0xFB SHL SUB DUP4 GT ISZERO PUSH2 0x12AC JUMPI PUSH1 0x0 DUP1 REVERT JUMPDEST DUP3 PUSH1 0x5 SHL DUP1 DUP4 PUSH1 0x20 DUP8 ADD CALLDATACOPY SWAP4 SWAP1 SWAP4 ADD PUSH1 0x20 ADD SWAP4 SWAP3 POP POP POP JUMP JUMPDEST DUP1 CALLDATALOAD PUSH1 0x1 PUSH1 0x1 PUSH1 0x40 SHL SUB DUP2 AND DUP2 EQ PUSH2 0x11C7 JUMPI PUSH1 0x0 DUP1 REVERT JUMPDEST PUSH1 0x0 DUP3 CALLDATALOAD PUSH1 0x9E NOT DUP4 CALLDATASIZE SUB ADD DUP2 SLT PUSH2 0x12F2 JUMPI PUSH1 0x0 DUP1 REVERT JUMPDEST SWAP1 SWAP2 ADD SWAP3 SWAP2 POP POP JUMP JUMPDEST DUP1 CALLDATALOAD PUSH2 0xFFFF DUP2 AND DUP2 EQ PUSH2 0x11C7 JUMPI PUSH1 0x0 DUP1 REVERT JUMPDEST DUP1 ISZERO ISZERO DUP2 EQ PUSH2 0x11B9 JUMPI PUSH1 0x0 DUP1 REVERT JUMPDEST DUP1 CALLDATALOAD PUSH2 0x11C7 DUP2 PUSH2 0x130D JUMP JUMPDEST DUP1 CALLDATALOAD PUSH4 0xFFFFFFFF DUP2 AND DUP2 EQ PUSH2 0x11C7 JUMPI PUSH1 0x0 DUP1 REVERT JUMPDEST PUSH1 0x0 DUP3 CALLDATALOAD PUSH2 0x11E NOT DUP4 CALLDATASIZE SUB ADD DUP2 SLT PUSH2 0x12F2 JUMPI PUSH1 0x0 DUP1 REVERT JUMPDEST PUSH1 0x0 DUP1 DUP4 CALLDATALOAD PUSH1 0x1E NOT DUP5 CALLDATASIZE SUB ADD DUP2 SLT PUSH2 0x1368 JUMPI PUSH1 0x0 DUP1 REVERT JUMPDEST DUP4 ADD PUSH1 0x20 DUP2 ADD SWAP3 POP CALLDATALOAD SWAP1 POP PUSH1 0x1 PUSH1 0x1 PUSH1 0x40 SHL SUB DUP2 GT ISZERO PUSH2 0x1387 JUMPI PUSH1 0x0 DUP1 REVERT JUMPDEST DUP1 CALLDATASIZE SUB DUP3 SGT ISZERO PUSH2 0x128C JUMPI PUSH1 0x0 DUP1 REVERT JUMPDEST DUP2 DUP4 MSTORE DUP2 DUP2 PUSH1 0x20 DUP6 ADD CALLDATACOPY POP PUSH1 0x0 DUP3 DUP3 ADD PUSH1 0x20 SWAP1 DUP2 ADD SWAP2 SWAP1 SWAP2 MSTORE PUSH1 0x1F SWAP1 SWAP2 ADD PUSH1 0x1F NOT AND SWAP1 SWAP2 ADD ADD SWAP1 JUMP JUMPDEST DUP1 CALLDATALOAD PUSH1 0xFF DUP2 AND DUP2 EQ PUSH2 0x11C7 JUMPI PUSH1 0x0 DUP1 REVERT JUMPDEST DUP2 DUP4 MSTORE PUSH1 0x0 PUSH1 0x20 DUP1 DUP6 ADD DUP1 DUP2 SWAP7 POP DUP6 PUSH1 0x5 SHL DUP2 ADD SWAP2 POP DUP5 PUSH1 0x0 JUMPDEST DUP8 DUP2 LT ISZERO PUSH2 0x14A4 JUMPI DUP3 DUP5 SUB DUP10 MSTORE PUSH2 0x1401 DUP3 DUP9 PUSH2 0x12DC JUMP JUMPDEST PUSH1 0xA0 PUSH4 0xFFFFFFFF PUSH2 0x1411 DUP4 PUSH2 0x1326 JUMP JUMPDEST AND DUP7 MSTORE DUP7 DUP3 ADD CALLDATALOAD PUSH2 0x1421 DUP2 PUSH2 0x11A4 JUMP JUMPDEST PUSH1 0x1 PUSH1 0x1 PUSH1 0xA0 SHL SUB AND DUP7 DUP9 ADD MSTORE PUSH1 0x40 PUSH2 0x143C DUP4 DUP3 ADD DUP5 PUSH2 0x1244 JUMP JUMPDEST DUP4 DUP4 DUP11 ADD MSTORE PUSH2 0x144E DUP5 DUP11 ADD DUP3 DUP5 PUSH2 0x1293 JUMP JUMPDEST SWAP4 POP POP POP POP PUSH1 0x60 PUSH2 0x1461 DUP2 DUP5 ADD DUP5 PUSH2 0x1351 JUMP JUMPDEST DUP9 DUP5 SUB DUP4 DUP11 ADD MSTORE PUSH2 0x1473 DUP5 DUP3 DUP5 PUSH2 0x1396 JUMP JUMPDEST SWAP4 POP POP POP POP PUSH1 0x80 DUP1 DUP4 ADD CALLDATALOAD SWAP3 POP PUSH2 0x1489 DUP4 PUSH2 0x130D JUMP JUMPDEST SWAP2 ISZERO ISZERO SWAP6 SWAP1 SWAP2 ADD SWAP5 SWAP1 SWAP5 MSTORE SWAP8 DUP5 ADD SWAP8 SWAP1 DUP5 ADD SWAP1 PUSH1 0x1 ADD PUSH2 0x13EA JUMP JUMPDEST POP SWAP2 SWAP8 SWAP7 POP POP POP POP POP POP POP JUMP JUMPDEST PUSH1 0x0 PUSH2 0x120 PUSH2 0x14D0 DUP5 PUSH2 0x14C3 DUP6 PUSH2 0x12C5 JUMP JUMPDEST PUSH1 0x1 PUSH1 0x1 PUSH1 0x40 SHL SUB AND SWAP1 MSTORE JUMP JUMPDEST PUSH2 0x14DC PUSH1 0x20 DUP5 ADD PUSH2 0x12C5 JUMP JUMPDEST PUSH1 0x1 PUSH1 0x1 PUSH1 0x40 SHL SUB AND PUSH1 0x20 DUP6 ADD MSTORE PUSH2 0x14F6 PUSH1 0x40 DUP5 ADD PUSH2 0x11BC JUMP JUMPDEST PUSH1 0x1 PUSH1 0x1 PUSH1 0xA0 SHL SUB AND PUSH1 0x40 DUP6 ADD MSTORE PUSH2 0x1510 PUSH1 0x60 DUP5 ADD PUSH2 0x131B JUMP JUMPDEST ISZERO ISZERO PUSH1 0x60 DUP6 ADD MSTORE PUSH2 0x1523 PUSH1 0x80 DUP5 ADD PUSH2 0x11BC JUMP JUMPDEST PUSH1 0x1 PUSH1 0x1 PUSH1 0xA0 SHL SUB AND PUSH1 0x80 DUP6 ADD MSTORE PUSH1 0xA0 DUP4 DUP2 ADD CALLDATALOAD SWAP1 DUP6 ADD MSTORE PUSH2 0x1548 PUSH1 0xC0 DUP5 ADD DUP5 PUSH2 0x1351 JUMP JUMPDEST DUP3 PUSH1 0xC0 DUP8 ADD MSTORE PUSH2 0x155B DUP4 DUP8 ADD DUP3 DUP5 PUSH2 0x1396 JUMP JUMPDEST SWAP3 POP POP POP PUSH2 0x156B PUSH1 0xE0 DUP5 ADD PUSH2 0x13BF JUMP JUMPDEST PUSH1 0xFF AND PUSH1 0xE0 DUP6 ADD MSTORE PUSH2 0x100 PUSH2 0x1582 DUP5 DUP3 ADD DUP6 PUSH2 0x1244 JUMP JUMPDEST DUP7 DUP5 SUB DUP4 DUP9 ADD MSTORE PUSH2 0x1594 DUP5 DUP3 DUP5 PUSH2 0x13D0 JUMP JUMPDEST SWAP8 SWAP7 POP POP POP POP POP POP POP JUMP JUMPDEST PUSH1 0x0 PUSH1 0x20 DUP1 DUP4 MSTORE PUSH2 0x15B0 DUP5 DUP6 PUSH2 0x1244 JUMP JUMPDEST PUSH1 0x40 DUP4 DUP7 ADD MSTORE PUSH2 0x15C4 PUSH1 0x60 DUP7 ADD DUP3 DUP5 PUSH2 0x1293 JUMP JUMPDEST SWAP2 POP POP DUP2 DUP6 ADD CALLDATALOAD PUSH1 0xBE NOT DUP7 CALLDATASIZE SUB ADD DUP2 SLT PUSH2 0x15DD JUMPI PUSH1 0x0 DUP1 REVERT JUMPDEST DUP6 DUP2 ADD SWAP1 POP PUSH1 0x1F NOT DUP6 DUP4 SUB ADD PUSH1 0x40 DUP7 ADD MSTORE DUP1 CALLDATALOAD DUP3 MSTORE DUP3 DUP2 ADD CALLDATALOAD DUP4 DUP4 ADD MSTORE PUSH2 0x1606 PUSH1 0x40 DUP3 ADD PUSH2 0x12C5 JUMP JUMPDEST PUSH1 0x1 PUSH1 0x1 PUSH1 0x40 SHL SUB DUP1 DUP3 AND PUSH1 0x40 DUP6 ADD MSTORE DUP1 PUSH2 0x1623 PUSH1 0x60 DUP6 ADD PUSH2 0x12C5 JUMP JUMPDEST AND PUSH1 0x60 DUP6 ADD MSTORE POP POP PUSH2 0x1638 PUSH1 0x80 DUP3 ADD DUP3 PUSH2 0x12DC JUMP JUMPDEST PUSH1 0xC0 PUSH1 0x80 DUP5 ADD MSTORE PUSH2 0x160 DUP4 ADD DUP2 CALLDATALOAD PUSH1 0xC0 DUP6 ADD MSTORE PUSH2 0xFFFF PUSH2 0x1659 DUP7 DUP5 ADD PUSH2 0x12FB JUMP JUMPDEST AND PUSH1 0xE0 DUP6 ADD MSTORE PUSH1 0x40 DUP3 ADD CALLDATALOAD PUSH2 0x166D DUP2 PUSH2 0x130D JUMP JUMPDEST ISZERO ISZERO PUSH2 0x100 DUP6 ADD MSTORE PUSH1 0x60 DUP3 ADD CALLDATALOAD PUSH2 0x1683 DUP2 PUSH2 0x130D JUMP JUMPDEST ISZERO ISZERO PUSH2 0x120 DUP6 ADD MSTORE PUSH2 0x1698 PUSH1 0x80 DUP4 ADD DUP4 PUSH2 0x1244 JUMP JUMPDEST PUSH1 0xA0 PUSH2 0x140 DUP8 ADD MSTORE SWAP2 DUP3 SWAP1 MSTORE SWAP1 SWAP2 POP PUSH1 0x0 PUSH2 0x180 DUP6 ADD JUMPDEST DUP4 DUP3 LT ISZERO PUSH2 0x16DA JUMPI PUSH4 0xFFFFFFFF PUSH2 0x16C5 DUP5 PUSH2 0x1326 JUMP JUMPDEST AND DUP2 MSTORE SWAP2 DUP7 ADD SWAP2 PUSH1 0x1 SWAP2 SWAP1 SWAP2 ADD SWAP1 DUP7 ADD PUSH2 0x16AF JUMP JUMPDEST PUSH2 0x16E7 PUSH1 0xA0 DUP7 ADD DUP7 PUSH2 0x133A JUMP JUMPDEST SWAP7 POP DUP6 DUP2 SUB PUSH1 0xA0 DUP8 ADD MSTORE PUSH2 0x16FB DUP2 DUP9 PUSH2 0x14B1 JUMP JUMPDEST SWAP11 SWAP10 POP POP POP POP POP POP POP POP POP POP JUMP JUMPDEST PUSH1 0x0 PUSH1 0x20 DUP3 DUP5 SUB SLT ISZERO PUSH2 0x171B JUMPI PUSH1 0x0 DUP1 REVERT JUMPDEST DUP2 MLOAD PUSH2 0x119D DUP2 PUSH2 0x130D JUMP JUMPDEST PUSH1 0x0 DUP3 CALLDATALOAD PUSH1 0xBE NOT DUP4 CALLDATASIZE SUB ADD DUP2 SLT PUSH2 0x173C JUMPI PUSH1 0x0 DUP1 REVERT JUMPDEST SWAP2 SWAP1 SWAP2 ADD SWAP3 SWAP2 POP POP JUMP JUMPDEST PUSH4 0x4E487B71 PUSH1 0xE0 SHL PUSH1 0x0 MSTORE PUSH1 0x41 PUSH1 0x4 MSTORE PUSH1 0x24 PUSH1 0x0 REVERT JUMPDEST PUSH1 0x40 MLOAD PUSH1 0xA0 DUP2 ADD PUSH1 0x1 PUSH1 0x1 PUSH1 0x40 SHL SUB DUP2 GT DUP3 DUP3 LT OR ISZERO PUSH2 0x177E JUMPI PUSH2 0x177E PUSH2 0x1746 JUMP JUMPDEST PUSH1 0x40 MSTORE SWAP1 JUMP JUMPDEST PUSH1 0x40 MLOAD PUSH2 0x120 DUP2 ADD PUSH1 0x1 PUSH1 0x1 PUSH1 0x40 SHL SUB DUP2 GT DUP3 DUP3 LT OR ISZERO PUSH2 0x177E JUMPI PUSH2 0x177E PUSH2 0x1746 JUMP JUMPDEST PUSH1 0x40 MLOAD PUSH1 0xC0 DUP2 ADD PUSH1 0x1 PUSH1 0x1 PUSH1 0x40 SHL SUB DUP2 GT DUP3 DUP3 LT OR ISZERO PUSH2 0x177E JUMPI PUSH2 0x177E PUSH2 0x1746 JUMP JUMPDEST PUSH1 0x40 MLOAD PUSH1 0x1F DUP3 ADD PUSH1 0x1F NOT AND DUP2 ADD PUSH1 0x1 PUSH1 0x1 PUSH1 0x40 SHL SUB DUP2 GT DUP3 DUP3 LT OR ISZERO PUSH2 0x17F1 JUMPI PUSH2 0x17F1 PUSH2 0x1746 JUMP JUMPDEST PUSH1 0x40 MSTORE SWAP2 SWAP1 POP JUMP JUMPDEST PUSH1 0x0 PUSH1 0x1 PUSH1 0x1 PUSH1 0x40 SHL SUB DUP3 GT ISZERO PUSH2 0x1812 JUMPI PUSH2 0x1812 PUSH2 0x1746 JUMP JUMPDEST POP PUSH1 0x5 SHL PUSH1 0x20 ADD SWAP1 JUMP JUMPDEST PUSH1 0x0 PUSH1 0xA0 DUP3 DUP5 SUB SLT ISZERO PUSH2 0x182E JUMPI PUSH1 0x0 DUP1 REVERT JUMPDEST PUSH2 0x1836 PUSH2 0x175C JUMP JUMPDEST SWAP1 POP DUP2 CALLDATALOAD DUP2 MSTORE PUSH1 0x20 PUSH2 0x1849 DUP2 DUP5 ADD PUSH2 0x12FB JUMP JUMPDEST DUP2 DUP4 ADD MSTORE PUSH1 0x40 DUP4 ADD CALLDATALOAD PUSH2 0x185B DUP2 PUSH2 0x130D JUMP JUMPDEST PUSH1 0x40 DUP4 ADD MSTORE PUSH1 0x60 DUP4 ADD CALLDATALOAD PUSH2 0x186E DUP2 PUSH2 0x130D JUMP JUMPDEST PUSH1 0x60 DUP4 ADD MSTORE PUSH1 0x80 DUP4 ADD CALLDATALOAD PUSH1 0x1 PUSH1 0x1 PUSH1 0x40 SHL SUB DUP2 GT ISZERO PUSH2 0x188C JUMPI PUSH1 0x0 DUP1 REVERT JUMPDEST DUP4 ADD PUSH1 0x1F DUP2 ADD DUP6 SGT PUSH2 0x189D JUMPI PUSH1 0x0 DUP1 REVERT JUMPDEST DUP1 CALLDATALOAD PUSH2 0x18B0 PUSH2 0x18AB DUP3 PUSH2 0x17F9 JUMP JUMPDEST PUSH2 0x17C9 JUMP JUMPDEST DUP2 DUP2 MSTORE PUSH1 0x5 SWAP2 SWAP1 SWAP2 SHL DUP3 ADD DUP4 ADD SWAP1 DUP4 DUP2 ADD SWAP1 DUP8 DUP4 GT ISZERO PUSH2 0x18CF JUMPI PUSH1 0x0 DUP1 REVERT JUMPDEST SWAP3 DUP5 ADD SWAP3 JUMPDEST DUP3 DUP5 LT ISZERO PUSH2 0x18F4 JUMPI PUSH2 0x18E5 DUP5 PUSH2 0x1326 JUMP JUMPDEST DUP3 MSTORE SWAP3 DUP5 ADD SWAP3 SWAP1 DUP5 ADD SWAP1 PUSH2 0x18D4 JUMP JUMPDEST PUSH1 0x80 DUP7 ADD MSTORE POP SWAP3 SWAP6 SWAP5 POP POP POP POP POP JUMP JUMPDEST PUSH1 0x0 DUP3 PUSH1 0x1F DUP4 ADD SLT PUSH2 0x1915 JUMPI PUSH1 0x0 DUP1 REVERT JUMPDEST DUP2 CALLDATALOAD PUSH1 0x1 PUSH1 0x1 PUSH1 0x40 SHL SUB DUP2 GT ISZERO PUSH2 0x192E JUMPI PUSH2 0x192E PUSH2 0x1746 JUMP JUMPDEST PUSH2 0x1941 PUSH1 0x1F DUP3 ADD PUSH1 0x1F NOT AND PUSH1 0x20 ADD PUSH2 0x17C9 JUMP JUMPDEST DUP2 DUP2 MSTORE DUP5 PUSH1 0x20 DUP4 DUP7 ADD ADD GT ISZERO PUSH2 0x1956 JUMPI PUSH1 0x0 DUP1 REVERT JUMPDEST DUP2 PUSH1 0x20 DUP6 ADD PUSH1 0x20 DUP4 ADD CALLDATACOPY PUSH1 0x0 SWAP2 DUP2 ADD PUSH1 0x20 ADD SWAP2 SWAP1 SWAP2 MSTORE SWAP4 SWAP3 POP POP POP JUMP JUMPDEST PUSH1 0x0 DUP3 PUSH1 0x1F DUP4 ADD SLT PUSH2 0x1984 JUMPI PUSH1 0x0 DUP1 REVERT JUMPDEST DUP2 CALLDATALOAD PUSH1 0x20 PUSH2 0x1994 PUSH2 0x18AB DUP4 PUSH2 0x17F9 JUMP JUMPDEST DUP3 DUP2 MSTORE PUSH1 0x5 SWAP3 SWAP1 SWAP3 SHL DUP5 ADD DUP2 ADD SWAP2 DUP2 DUP2 ADD SWAP1 DUP7 DUP5 GT ISZERO PUSH2 0x19B3 JUMPI PUSH1 0x0 DUP1 REVERT JUMPDEST DUP3 DUP7 ADD JUMPDEST DUP5 DUP2 LT ISZERO PUSH2 0x1ADA JUMPI DUP1 CALLDATALOAD PUSH1 0x1 PUSH1 0x1 PUSH1 0x40 SHL SUB DUP1 DUP3 GT ISZERO PUSH2 0x19D6 JUMPI PUSH1 0x0 DUP1 REVERT JUMPDEST SWAP1 DUP9 ADD SWAP1 PUSH1 0xA0 DUP3 DUP12 SUB PUSH1 0x1F NOT ADD SLT ISZERO PUSH2 0x19EE JUMPI PUSH1 0x0 DUP1 REVERT JUMPDEST PUSH2 0x19F6 PUSH2 0x175C JUMP JUMPDEST PUSH2 0x1A01 DUP8 DUP5 ADD PUSH2 0x1326 JUMP JUMPDEST DUP2 MSTORE PUSH1 0x40 DUP1 DUP5 ADD CALLDATALOAD PUSH2 0x1A12 DUP2 PUSH2 0x11A4 JUMP JUMPDEST DUP3 DUP10 ADD MSTORE PUSH1 0x60 DUP5 ADD CALLDATALOAD DUP4 DUP2 GT ISZERO PUSH2 0x1A29 JUMPI PUSH1 0x0 DUP1 DUP2 REVERT JUMPDEST DUP5 ADD PUSH1 0x3F DUP2 ADD DUP14 SGT PUSH2 0x1A3B JUMPI PUSH1 0x0 DUP1 DUP2 REVERT JUMPDEST DUP9 DUP2 ADD CALLDATALOAD PUSH2 0x1A4B PUSH2 0x18AB DUP3 PUSH2 0x17F9 JUMP JUMPDEST DUP2 DUP2 MSTORE PUSH1 0x5 SWAP2 SWAP1 SWAP2 SHL DUP3 ADD DUP4 ADD SWAP1 DUP11 DUP2 ADD SWAP1 DUP16 DUP4 GT ISZERO PUSH2 0x1A6B JUMPI PUSH1 0x0 DUP1 DUP2 REVERT JUMPDEST SWAP3 DUP5 ADD SWAP3 JUMPDEST DUP3 DUP5 LT ISZERO PUSH2 0x1A89 JUMPI DUP4 CALLDATALOAD DUP3 MSTORE SWAP3 DUP12 ADD SWAP3 SWAP1 DUP12 ADD SWAP1 PUSH2 0x1A70 JUMP JUMPDEST DUP1 DUP6 DUP8 ADD MSTORE POP POP POP POP POP PUSH1 0x80 DUP1 DUP5 ADD CALLDATALOAD DUP4 DUP2 GT ISZERO PUSH2 0x1AA7 JUMPI PUSH1 0x0 DUP1 DUP2 REVERT JUMPDEST PUSH2 0x1AB5 DUP14 DUP11 DUP4 DUP9 ADD ADD PUSH2 0x1904 JUMP JUMPDEST PUSH1 0x60 DUP5 ADD MSTORE POP PUSH2 0x1AC7 PUSH1 0xA0 DUP6 ADD PUSH2 0x131B JUMP JUMPDEST SWAP1 DUP3 ADD MSTORE DUP6 MSTORE POP POP SWAP2 DUP4 ADD SWAP2 DUP4 ADD PUSH2 0x19B7 JUMP JUMPDEST POP SWAP7 SWAP6 POP POP POP POP POP POP JUMP JUMPDEST PUSH1 0x0 PUSH2 0x120 DUP3 DUP5 SUB SLT ISZERO PUSH2 0x1AF8 JUMPI PUSH1 0x0 DUP1 REVERT JUMPDEST PUSH2 0x1B00 PUSH2 0x1784 JUMP JUMPDEST SWAP1 POP PUSH2 0x1B0B DUP3 PUSH2 0x12C5 JUMP JUMPDEST DUP2 MSTORE PUSH2 0x1B19 PUSH1 0x20 DUP4 ADD PUSH2 0x12C5 JUMP JUMPDEST PUSH1 0x20 DUP3 ADD MSTORE PUSH2 0x1B2A PUSH1 0x40 DUP4 ADD PUSH2 0x11BC JUMP JUMPDEST PUSH1 0x40 DUP3 ADD MSTORE PUSH2 0x1B3B PUSH1 0x60 DUP4 ADD PUSH2 0x131B JUMP JUMPDEST PUSH1 0x60 DUP3 ADD MSTORE PUSH2 0x1B4C PUSH1 0x80 DUP4 ADD PUSH2 0x11BC JUMP JUMPDEST PUSH1 0x80 DUP3 ADD MSTORE PUSH1 0xA0 DUP3 ADD CALLDATALOAD PUSH1 0xA0 DUP3 ADD MSTORE PUSH1 0xC0 DUP3 ADD CALLDATALOAD PUSH1 0x1 PUSH1 0x1 PUSH1 0x40 SHL SUB DUP1 DUP3 GT ISZERO PUSH2 0x1B75 JUMPI PUSH1 0x0 DUP1 REVERT JUMPDEST PUSH2 0x1B81 DUP6 DUP4 DUP7 ADD PUSH2 0x1904 JUMP JUMPDEST PUSH1 0xC0 DUP5 ADD MSTORE PUSH2 0x1B92 PUSH1 0xE0 DUP6 ADD PUSH2 0x13BF JUMP JUMPDEST PUSH1 0xE0 DUP5 ADD MSTORE PUSH2 0x100 SWAP2 POP DUP2 DUP5 ADD CALLDATALOAD DUP2 DUP2 GT ISZERO PUSH2 0x1BAD JUMPI PUSH1 0x0 DUP1 REVERT JUMPDEST PUSH2 0x1BB9 DUP7 DUP3 DUP8 ADD PUSH2 0x1973 JUMP JUMPDEST DUP4 DUP6 ADD MSTORE POP POP POP SWAP3 SWAP2 POP POP JUMP JUMPDEST PUSH1 0x0 PUSH1 0xC0 DUP3 CALLDATASIZE SUB SLT ISZERO PUSH2 0x1BD8 JUMPI PUSH1 0x0 DUP1 REVERT JUMPDEST PUSH2 0x1BE0 PUSH2 0x17A7 JUMP JUMPDEST DUP3 CALLDATALOAD DUP2 MSTORE PUSH1 0x20 DUP4 ADD CALLDATALOAD PUSH1 0x20 DUP3 ADD MSTORE PUSH2 0x1BFA PUSH1 0x40 DUP5 ADD PUSH2 0x12C5 JUMP JUMPDEST PUSH1 0x40 DUP3 ADD MSTORE PUSH2 0x1C0B PUSH1 0x60 DUP5 ADD PUSH2 0x12C5 JUMP JUMPDEST PUSH1 0x60 DUP3 ADD MSTORE PUSH1 0x80 DUP4 ADD CALLDATALOAD PUSH1 0x1 PUSH1 0x1 PUSH1 0x40 SHL SUB DUP1 DUP3 GT ISZERO PUSH2 0x1C2A JUMPI PUSH1 0x0 DUP1 REVERT JUMPDEST PUSH2 0x1C36 CALLDATASIZE DUP4 DUP8 ADD PUSH2 0x181C JUMP JUMPDEST PUSH1 0x80 DUP5 ADD MSTORE PUSH1 0xA0 DUP6 ADD CALLDATALOAD SWAP2 POP DUP1 DUP3 GT ISZERO PUSH2 0x1C4F JUMPI PUSH1 0x0 DUP1 REVERT JUMPDEST POP PUSH2 0x1C5C CALLDATASIZE DUP3 DUP7 ADD PUSH2 0x1AE5 JUMP JUMPDEST PUSH1 0xA0 DUP4 ADD MSTORE POP SWAP3 SWAP2 POP POP JUMP JUMPDEST PUSH1 0x0 PUSH1 0x1 DUP3 ADD PUSH2 0x1C7A JUMPI PUSH2 0x1C7A PUSH2 0x120C JUMP JUMPDEST POP PUSH1 0x1 ADD SWAP1 JUMP JUMPDEST DUP2 DUP2 SUB DUP2 DUP2 GT ISZERO PUSH2 0x1C94 JUMPI PUSH2 0x1C94 PUSH2 0x120C JUMP JUMPDEST SWAP3 SWAP2 POP POP JUMP JUMPDEST DUP1 DUP3 ADD DUP1 DUP3 GT ISZERO PUSH2 0x1C94 JUMPI PUSH2 0x1C94 PUSH2 0x120C JUMP JUMPDEST PUSH4 0x4E487B71 PUSH1 0xE0 SHL PUSH1 0x0 MSTORE PUSH1 0x32 PUSH1 0x4 MSTORE PUSH1 0x24 PUSH1 0x0 REVERT JUMPDEST DUP1 MLOAD PUSH2 0x11C7 DUP2 PUSH2 0x11A4 JUMP JUMPDEST PUSH1 0x0 DUP1 PUSH1 0x0 DUP1 PUSH1 0x0 DUP1 PUSH1 0x0 DUP1 PUSH1 0x0 PUSH2 0x120 DUP11 DUP13 SUB SLT ISZERO PUSH2 0x1CED JUMPI PUSH1 0x0 DUP1 REVERT JUMPDEST DUP10 MLOAD PUSH2 0x1CF8 DUP2 PUSH2 0x11A4 JUMP JUMPDEST DUP1 SWAP10 POP POP PUSH1 0x20 DUP11 ADD MLOAD DUP1 PUSH1 0x2 SIGNEXTEND DUP2 EQ PUSH2 0x1D10 JUMPI PUSH1 0x0 DUP1 REVERT JUMPDEST PUSH1 0x40 DUP12 ADD MLOAD SWAP1 SWAP9 POP PUSH1 0x1 PUSH1 0x1 PUSH1 0x80 SHL SUB DUP2 AND DUP2 EQ PUSH2 0x1D2D JUMPI PUSH1 0x0 DUP1 REVERT JUMPDEST SWAP7 POP PUSH2 0x1D3B PUSH1 0x60 DUP12 ADD PUSH2 0x1CC3 JUMP JUMPDEST SWAP6 POP PUSH2 0x1D49 PUSH1 0x80 DUP12 ADD PUSH2 0x1CC3 JUMP JUMPDEST SWAP5 POP PUSH1 0xA0 DUP11 ADD MLOAD SWAP4 POP PUSH1 0xC0 DUP11 ADD MLOAD SWAP3 POP PUSH1 0xE0 DUP11 ADD MLOAD SWAP2 POP PUSH2 0x1D6D PUSH2 0x100 DUP12 ADD PUSH2 0x1CC3 JUMP JUMPDEST SWAP1 POP SWAP3 SWAP6 SWAP9 POP SWAP3 SWAP6 SWAP9 POP SWAP3 SWAP6 SWAP9 JUMP JUMPDEST DUP1 DUP3 MUL DUP2 ISZERO DUP3 DUP3 DIV DUP5 EQ OR PUSH2 0x1C94 JUMPI PUSH2 0x1C94 PUSH2 0x120C JUMP JUMPDEST DUP2 DUP2 SUB PUSH1 0x0 DUP4 SLT DUP1 ISZERO DUP4 DUP4 SGT AND DUP4 DUP4 SLT DUP3 AND OR ISZERO PUSH2 0x1DB3 JUMPI PUSH2 0x1DB3 PUSH2 0x120C JUMP JUMPDEST POP SWAP3 SWAP2 POP POP JUMP JUMPDEST PUSH1 0x1 DUP2 DUP2 JUMPDEST DUP1 DUP6 GT ISZERO PUSH2 0x1DF5 JUMPI DUP2 PUSH1 0x0 NOT DIV DUP3 GT ISZERO PUSH2 0x1DDB JUMPI PUSH2 0x1DDB PUSH2 0x120C JUMP JUMPDEST DUP1 DUP6 AND ISZERO PUSH2 0x1DE8 JUMPI SWAP2 DUP2 MUL SWAP2 JUMPDEST SWAP4 DUP5 SHR SWAP4 SWAP1 DUP1 MUL SWAP1 PUSH2 0x1DBF JUMP JUMPDEST POP SWAP3 POP SWAP3 SWAP1 POP JUMP JUMPDEST PUSH1 0x0 DUP3 PUSH2 0x1E0C JUMPI POP PUSH1 0x1 PUSH2 0x1C94 JUMP JUMPDEST DUP2 PUSH2 0x1E19 JUMPI POP PUSH1 0x0 PUSH2 0x1C94 JUMP JUMPDEST DUP2 PUSH1 0x1 DUP2 EQ PUSH2 0x1E2F JUMPI PUSH1 0x2 DUP2 EQ PUSH2 0x1E39 JUMPI PUSH2 0x1E55 JUMP JUMPDEST PUSH1 0x1 SWAP2 POP POP PUSH2 0x1C94 JUMP JUMPDEST PUSH1 0xFF DUP5 GT ISZERO PUSH2 0x1E4A JUMPI PUSH2 0x1E4A PUSH2 0x120C JUMP JUMPDEST POP POP PUSH1 0x1 DUP3 SHL PUSH2 0x1C94 JUMP JUMPDEST POP PUSH1 0x20 DUP4 LT PUSH2 0x133 DUP4 LT AND PUSH1 0x4E DUP5 LT PUSH1 0xB DUP5 LT AND OR ISZERO PUSH2 0x1E78 JUMPI POP DUP2 DUP2 EXP PUSH2 0x1C94 JUMP JUMPDEST PUSH2 0x1E82 DUP4 DUP4 PUSH2 0x1DBA JUMP JUMPDEST DUP1 PUSH1 0x0 NOT DIV DUP3 GT ISZERO PUSH2 0x1E96 JUMPI PUSH2 0x1E96 PUSH2 0x120C JUMP JUMPDEST MUL SWAP4 SWAP3 POP POP POP JUMP JUMPDEST PUSH1 0x0 PUSH2 0x119D DUP4 DUP4 PUSH2 0x1DFD JUMP JUMPDEST PUSH1 0x0 PUSH1 0x1 PUSH1 0xFF SHL DUP3 ADD PUSH2 0x1EBF JUMPI PUSH2 0x1EBF PUSH2 0x120C JUMP JUMPDEST POP PUSH1 0x0 SUB SWAP1 JUMP INVALID LOG2 PUSH5 0x6970667358 0x22 SLT KECCAK256 DUP4 PUSH24 0x254376916E18EF9CBAA1FACD842CDC979E6C3BC2C7A8EB2B EXTCODECOPY ORIGIN SWAP8 0xBF 0xE5 JUMPDEST PUSH5 0x736F6C6343 STOP ADDMOD SGT STOP CALLER "},"methodIdentifiers":{"acceptingUpdates()":"6747f3c6","calculateFee()":"e6af35f0","decimals()":"313ce567","feedId()":"4a643499","getCurrentFeed()":"115416fe","getFeedInfo()":"349225f8","invertPrice()":"84e767bd","lastUpdateTimestamp()":"14bcec9f","latestValue()":"4ab5cc82","owner()":"8da5cb5b","pauseUpdates()":"02271069","poolAddress()":"1755ff21","priceRelayAddress()":"59488a44","read()":"57de26a4","resumeUpdates()":"23d60889","sourceChainId()":"1544298e","token0Decimals()":"b31ac6e2","token1Decimals()":"0b77884d","totalGasUsedForVerification()":"8c0a57a8","totalProofsVerified()":"d246a2a3","transferOwnership(address)":"f2fde38b","updateCount()":"69b4ecc9","updateFromProof((bytes32[],(bytes32,bytes32,uint64,uint64,(bytes32,uint16,bool,bool,uint32[]),(uint64,uint64,address,bool,address,uint256,bytes,uint8,(uint32,address,bytes32[],bytes,bool)[]))))":"7bee4c25"}}}}}