{
  "_format": "hh-sol-artifact-1",
  "contractName": "CrossChainPoolPriceCustomFeed",
  "sourceName": "contracts/CrossChainPoolPriceCustomFeed.sol",
  "abi": [
    {
      "inputs": [
        {
          "internalType": "address",
          "name": "_priceRelay",
          "type": "address"
        },
        {
          "internalType": "uint256",
          "name": "_sourceChainId",
          "type": "uint256"
        },
        {
          "internalType": "address",
          "name": "_poolAddress",
          "type": "address"
        },
        {
          "internalType": "string",
          "name": "_feedName",
          "type": "string"
        },
        {
          "internalType": "address",
          "name": "_fdcVerificationAddress",
          "type": "address"
        },
        {
          "internalType": "uint8",
          "name": "_token0Decimals",
          "type": "uint8"
        },
        {
          "internalType": "uint8",
          "name": "_token1Decimals",
          "type": "uint8"
        },
        {
          "internalType": "bool",
          "name": "_invertPrice",
          "type": "bool"
        }
      ],
      "stateMutability": "nonpayable",
      "type": "constructor"
    },
    {
      "anonymous": false,
      "inputs": [
        {
          "indexed": true,
          "internalType": "uint256",
          "name": "value",
          "type": "uint256"
        },
        {
          "indexed": false,
          "internalType": "uint64",
          "name": "timestamp",
          "type": "uint64"
        },
        {
          "indexed": false,
          "internalType": "uint256",
          "name": "blockNumber",
          "type": "uint256"
        },
        {
          "indexed": true,
          "internalType": "address",
          "name": "updater",
          "type": "address"
        }
      ],
      "name": "FeedUpdated",
      "type": "event"
    },
    {
      "anonymous": false,
      "inputs": [
        {
          "indexed": true,
          "internalType": "address",
          "name": "previousOwner",
          "type": "address"
        },
        {
          "indexed": true,
          "internalType": "address",
          "name": "newOwner",
          "type": "address"
        }
      ],
      "name": "OwnershipTransferred",
      "type": "event"
    },
    {
      "anonymous": false,
      "inputs": [
        {
          "indexed": true,
          "internalType": "bytes32",
          "name": "transactionHash",
          "type": "bytes32"
        },
        {
          "indexed": false,
          "internalType": "uint256",
          "name": "value",
          "type": "uint256"
        },
        {
          "indexed": false,
          "internalType": "uint64",
          "name": "timestamp",
          "type": "uint64"
        }
      ],
      "name": "ProofVerified",
      "type": "event"
    },
    {
      "anonymous": false,
      "inputs": [],
      "name": "UpdatesPaused",
      "type": "event"
    },
    {
      "anonymous": false,
      "inputs": [],
      "name": "UpdatesResumed",
      "type": "event"
    },
    {
      "inputs": [],
      "name": "acceptingUpdates",
      "outputs": [
        {
          "internalType": "bool",
          "name": "",
          "type": "bool"
        }
      ],
      "stateMutability": "view",
      "type": "function"
    },
    {
      "inputs": [],
      "name": "calculateFee",
      "outputs": [
        {
          "internalType": "uint256",
          "name": "",
          "type": "uint256"
        }
      ],
      "stateMutability": "pure",
      "type": "function"
    },
    {
      "inputs": [],
      "name": "decimals",
      "outputs": [
        {
          "internalType": "int8",
          "name": "",
          "type": "int8"
        }
      ],
      "stateMutability": "pure",
      "type": "function"
    },
    {
      "inputs": [],
      "name": "feedId",
      "outputs": [
        {
          "internalType": "bytes21",
          "name": "",
          "type": "bytes21"
        }
      ],
      "stateMutability": "view",
      "type": "function"
    },
    {
      "inputs": [],
      "name": "getCurrentFeed",
      "outputs": [
        {
          "internalType": "uint256",
          "name": "_value",
          "type": "uint256"
        },
        {
          "internalType": "int8",
          "name": "_decimals",
          "type": "int8"
        },
        {
          "internalType": "uint64",
          "name": "_timestamp",
          "type": "uint64"
        }
      ],
      "stateMutability": "payable",
      "type": "function"
    },
    {
      "inputs": [],
      "name": "getFeedInfo",
      "outputs": [
        {
          "components": [
            {
              "internalType": "bytes21",
              "name": "feedId",
              "type": "bytes21"
            },
            {
              "internalType": "uint256",
              "name": "latestValue",
              "type": "uint256"
            },
            {
              "internalType": "int8",
              "name": "decimals",
              "type": "int8"
            },
            {
              "internalType": "uint64",
              "name": "lastUpdate",
              "type": "uint64"
            },
            {
              "internalType": "uint256",
              "name": "updateCount",
              "type": "uint256"
            },
            {
              "internalType": "address",
              "name": "priceRelay",
              "type": "address"
            },
            {
              "internalType": "uint256",
              "name": "sourceChainId",
              "type": "uint256"
            },
            {
              "internalType": "address",
              "name": "poolAddress",
              "type": "address"
            },
            {
              "internalType": "bool",
              "name": "acceptingUpdates",
              "type": "bool"
            },
            {
              "internalType": "uint256",
              "name": "avgGasPerUpdate",
              "type": "uint256"
            },
            {
              "internalType": "uint256",
              "name": "totalProofsVerified",
              "type": "uint256"
            }
          ],
          "internalType": "struct CrossChainPoolPriceCustomFeed.FeedInfo",
          "name": "info",
          "type": "tuple"
        }
      ],
      "stateMutability": "view",
      "type": "function"
    },
    {
      "inputs": [],
      "name": "invertPrice",
      "outputs": [
        {
          "internalType": "bool",
          "name": "",
          "type": "bool"
        }
      ],
      "stateMutability": "view",
      "type": "function"
    },
    {
      "inputs": [],
      "name": "lastUpdateTimestamp",
      "outputs": [
        {
          "internalType": "uint64",
          "name": "",
          "type": "uint64"
        }
      ],
      "stateMutability": "view",
      "type": "function"
    },
    {
      "inputs": [],
      "name": "latestValue",
      "outputs": [
        {
          "internalType": "uint256",
          "name": "",
          "type": "uint256"
        }
      ],
      "stateMutability": "view",
      "type": "function"
    },
    {
      "inputs": [],
      "name": "owner",
      "outputs": [
        {
          "internalType": "address",
          "name": "",
          "type": "address"
        }
      ],
      "stateMutability": "view",
      "type": "function"
    },
    {
      "inputs": [],
      "name": "pauseUpdates",
      "outputs": [],
      "stateMutability": "nonpayable",
      "type": "function"
    },
    {
      "inputs": [],
      "name": "poolAddress",
      "outputs": [
        {
          "internalType": "address",
          "name": "",
          "type": "address"
        }
      ],
      "stateMutability": "view",
      "type": "function"
    },
    {
      "inputs": [],
      "name": "priceRelayAddress",
      "outputs": [
        {
          "internalType": "address",
          "name": "",
          "type": "address"
        }
      ],
      "stateMutability": "view",
      "type": "function"
    },
    {
      "inputs": [],
      "name": "read",
      "outputs": [
        {
          "internalType": "uint256",
          "name": "",
          "type": "uint256"
        }
      ],
      "stateMutability": "view",
      "type": "function"
    },
    {
      "inputs": [],
      "name": "resumeUpdates",
      "outputs": [],
      "stateMutability": "nonpayable",
      "type": "function"
    },
    {
      "inputs": [],
      "name": "sourceChainId",
      "outputs": [
        {
          "internalType": "uint256",
          "name": "",
          "type": "uint256"
        }
      ],
      "stateMutability": "view",
      "type": "function"
    },
    {
      "inputs": [],
      "name": "token0Decimals",
      "outputs": [
        {
          "internalType": "uint8",
          "name": "",
          "type": "uint8"
        }
      ],
      "stateMutability": "view",
      "type": "function"
    },
    {
      "inputs": [],
      "name": "token1Decimals",
      "outputs": [
        {
          "internalType": "uint8",
          "name": "",
          "type": "uint8"
        }
      ],
      "stateMutability": "view",
      "type": "function"
    },
    {
      "inputs": [],
      "name": "totalGasUsedForVerification",
      "outputs": [
        {
          "internalType": "uint256",
          "name": "",
          "type": "uint256"
        }
      ],
      "stateMutability": "view",
      "type": "function"
    },
    {
      "inputs": [],
      "name": "totalProofsVerified",
      "outputs": [
        {
          "internalType": "uint256",
          "name": "",
          "type": "uint256"
        }
      ],
      "stateMutability": "view",
      "type": "function"
    },
    {
      "inputs": [
        {
          "internalType": "address",
          "name": "newOwner",
          "type": "address"
        }
      ],
      "name": "transferOwnership",
      "outputs": [],
      "stateMutability": "nonpayable",
      "type": "function"
    },
    {
      "inputs": [],
      "name": "updateCount",
      "outputs": [
        {
          "internalType": "uint256",
          "name": "",
          "type": "uint256"
        }
      ],
      "stateMutability": "view",
      "type": "function"
    },
    {
      "inputs": [
        {
          "components": [
            {
              "internalType": "bytes32[]",
              "name": "merkleProof",
              "type": "bytes32[]"
            },
            {
              "components": [
                {
                  "internalType": "bytes32",
                  "name": "attestationType",
                  "type": "bytes32"
                },
                {
                  "internalType": "bytes32",
                  "name": "sourceId",
                  "type": "bytes32"
                },
                {
                  "internalType": "uint64",
                  "name": "votingRound",
                  "type": "uint64"
                },
                {
                  "internalType": "uint64",
                  "name": "lowestUsedTimestamp",
                  "type": "uint64"
                },
                {
                  "components": [
                    {
                      "internalType": "bytes32",
                      "name": "transactionHash",
                      "type": "bytes32"
                    },
                    {
                      "internalType": "uint16",
                      "name": "requiredConfirmations",
                      "type": "uint16"
                    },
                    {
                      "internalType": "bool",
                      "name": "provideInput",
                      "type": "bool"
                    },
                    {
                      "internalType": "bool",
                      "name": "listEvents",
                      "type": "bool"
                    },
                    {
                      "internalType": "uint32[]",
                      "name": "logIndices",
                      "type": "uint32[]"
                    }
                  ],
                  "internalType": "struct IEVMTransaction.RequestBody",
                  "name": "requestBody",
                  "type": "tuple"
                },
                {
                  "components": [
                    {
                      "internalType": "uint64",
                      "name": "blockNumber",
                      "type": "uint64"
                    },
                    {
                      "internalType": "uint64",
                      "name": "timestamp",
                      "type": "uint64"
                    },
                    {
                      "internalType": "address",
                      "name": "sourceAddress",
                      "type": "address"
                    },
                    {
                      "internalType": "bool",
                      "name": "isDeployment",
                      "type": "bool"
                    },
                    {
                      "internalType": "address",
                      "name": "receivingAddress",
                      "type": "address"
                    },
                    {
                      "internalType": "uint256",
                      "name": "value",
                      "type": "uint256"
                    },
                    {
                      "internalType": "bytes",
                      "name": "input",
                      "type": "bytes"
                    },
                    {
                      "internalType": "uint8",
                      "name": "status",
                      "type": "uint8"
                    },
                    {
                      "components": [
                        {
                          "internalType": "uint32",
                          "name": "logIndex",
                          "type": "uint32"
                        },
                        {
                          "internalType": "address",
                          "name": "emitterAddress",
                          "type": "address"
                        },
                        {
                          "internalType": "bytes32[]",
                          "name": "topics",
                          "type": "bytes32[]"
                        },
                        {
                          "internalType": "bytes",
                          "name": "data",
                          "type": "bytes"
                        },
                        {
                          "internalType": "bool",
                          "name": "removed",
                          "type": "bool"
                        }
                      ],
                      "internalType": "struct IEVMTransaction.Event[]",
                      "name": "events",
                      "type": "tuple[]"
                    }
                  ],
                  "internalType": "struct IEVMTransaction.ResponseBody",
                  "name": "responseBody",
                  "type": "tuple"
                }
              ],
              "internalType": "struct IEVMTransaction.Response",
              "name": "data",
              "type": "tuple"
            }
          ],
          "internalType": "struct IEVMTransaction.Proof",
          "name": "_proof",
          "type": "tuple"
        }
      ],
      "name": "updateFromProof",
      "outputs": [],
      "stateMutability": "nonpayable",
      "type": "function"
    }
  ],
  "bytecode": "0x6101806040523480156200001257600080fd5b506040516200259038038062002590833981016040819052620000359162000414565b6001600160a01b038816620000915760405162461bcd60e51b815260206004820152601560248201527f496e76616c69642072656c61792061646472657373000000000000000000000060448201526064015b60405180910390fd5b60008711620000e35760405162461bcd60e51b815260206004820152601460248201527f496e76616c696420736f7572636520636861696e000000000000000000000000604482015260640162000088565b6001600160a01b0386166200013b5760405162461bcd60e51b815260206004820152601460248201527f496e76616c696420706f6f6c2061646472657373000000000000000000000000604482015260640162000088565b6001600160a01b038416620001935760405162461bcd60e51b815260206004820152601360248201527f496e76616c696420464443206164647265737300000000000000000000000000604482015260640162000088565b60008360ff16118015620001ab575060128360ff1611155b620001f95760405162461bcd60e51b815260206004820152601760248201527f496e76616c696420746f6b656e3020646563696d616c73000000000000000000604482015260640162000088565b60008260ff1611801562000211575060128260ff1611155b6200025f5760405162461bcd60e51b815260206004820152601760248201527f496e76616c696420746f6b656e3120646563696d616c73000000000000000000604482015260640162000088565b600080546001600160a01b031916331790556001600160a01b0388811660a05260c0889052861660e0526004805460ff1916600117905560ff8381166101205282166101405280151561016052620002b785620002df565b6001600160581b0319166080525050506001600160a01b03166101005250620005e192505050565b8051600090829015801590620002f757506014815111155b620003455760405162461bcd60e51b815260206004820152601360248201527f496e76616c6964206e616d65206c656e67746800000000000000000000000000604482015260640162000088565b602160f81b60005b8251811015620003b65760006200036682600862000579565b6200037390609862000599565b90508060ff168483815181106200038e576200038e620005af565b016020015160f81c901b60581b92909217915080620003ad81620005c5565b9150506200034d565b509392505050565b80516001600160a01b0381168114620003d657600080fd5b919050565b634e487b7160e01b600052604160045260246000fd5b805160ff81168114620003d657600080fd5b80518015158114620003d657600080fd5b600080600080600080600080610100898b0312156200043257600080fd5b6200043d89620003be565b97506020808a015197506200045560408b01620003be565b60608b01519097506001600160401b03808211156200047357600080fd5b818c0191508c601f8301126200048857600080fd5b8151818111156200049d576200049d620003db565b604051601f8201601f19908116603f01168101908382118183101715620004c857620004c8620003db565b816040528281528f86848701011115620004e157600080fd5b600093505b82841015620005055784840186015181850187015292850192620004e6565b6000868483010152809a505050505050506200052460808a01620003be565b93506200053460a08a01620003f1565b92506200054460c08a01620003f1565b91506200055460e08a0162000403565b90509295985092959890939650565b634e487b7160e01b600052601160045260246000fd5b808202811582820484141762000593576200059362000563565b92915050565b8181038181111562000593576200059362000563565b634e487b7160e01b600052603260045260246000fd5b600060018201620005da57620005da62000563565b5060010190565b60805160a05160c05160e05161010051610120516101405161016051611efc62000694600039600081816104090152610fb901526000818161016e0152610efe0152600081816104730152610f2201526000610839015260008181610262015281816107250152610d7d015260008181610220015281816106ff0152610d19015260008181610375015281816106d70152818161090b0152610bec01526000818161030e01526106820152611efc6000f3fe6080604052600436106101405760003560e01c806357de26a4116100b65780638c0a57a81161006f5780638c0a57a81461042b5780638da5cb5b14610441578063b31ac6e214610461578063d246a2a314610495578063e6af35f0146104ab578063f2fde38b146104bf57600080fd5b806357de26a41461034e57806359488a44146103635780636747f3c61461039757806369b4ecc9146103c15780637bee4c25146103d757806384e767bd146103f757600080fd5b80631755ff21116101085780631755ff211461025057806323d608891461029c578063313ce567146102b1578063349225f8146102cd5780634a643499146102ef5780634ab5cc821461033857600080fd5b806302271069146101455780630b77884d1461015c578063115416fe146101a757806314bcec9f146101d65780631544298e1461020e575b600080fd5b34801561015157600080fd5b5061015a6104df565b005b34801561016857600080fd5b506101907f000000000000000000000000000000000000000000000000000000000000000081565b60405160ff90911681526020015b60405180910390f35b6101af610547565b6040805193845260009290920b60208401526001600160401b03169082015260600161019e565b3480156101e257600080fd5b506002546101f6906001600160401b031681565b6040516001600160401b03909116815260200161019e565b34801561021a57600080fd5b506102427f000000000000000000000000000000000000000000000000000000000000000081565b60405190815260200161019e565b34801561025c57600080fd5b506102847f000000000000000000000000000000000000000000000000000000000000000081565b6040516001600160a01b03909116815260200161019e565b3480156102a857600080fd5b5061015a6105ad565b3480156102bd57600080fd5b506040516006815260200161019e565b3480156102d957600080fd5b506102e261060f565b60405161019e919061109e565b3480156102fb57600080fd5b506040516affffffffffffffffffffff197f000000000000000000000000000000000000000000000000000000000000000016815260200161019e565b34801561034457600080fd5b5061024260015481565b34801561035a57600080fd5b5061024261078b565b34801561036f57600080fd5b506102847f000000000000000000000000000000000000000000000000000000000000000081565b3480156103a357600080fd5b506004546103b19060ff1681565b604051901515815260200161019e565b3480156103cd57600080fd5b5061024260035481565b3480156103e357600080fd5b5061015a6103f2366004611163565b6107d9565b34801561040357600080fd5b506103b17f000000000000000000000000000000000000000000000000000000000000000081565b34801561043757600080fd5b5061024260055481565b34801561044d57600080fd5b50600054610284906001600160a01b031681565b34801561046d57600080fd5b506101907f000000000000000000000000000000000000000000000000000000000000000081565b3480156104a157600080fd5b5061024260065481565b3480156104b757600080fd5b506000610242565b3480156104cb57600080fd5b5061015a6104da3660046111cc565b610afa565b6000546001600160a01b031633146105125760405162461bcd60e51b8152600401610509906111e9565b60405180910390fd5b6004805460ff191690556040517f4a4c785fe1c9642309071a07ac280989cd10624630e14194d12672c8f0fe661f90600090a1565b600080600080600154116105915760405162461bcd60e51b81526020600482015260116024820152704e6f206461746120617661696c61626c6560781b6044820152606401610509565b50506001546002549092600692506001600160401b0390911690565b6000546001600160a01b031633146105d75760405162461bcd60e51b8152600401610509906111e9565b6004805460ff191660011790556040517f24b779da341973449740a5c61843c5dd3fcfaf5b667a7b67edcda18b45beba6990600090a1565b6040805161016081018252600080825260208201819052918101829052606081018290526080810182905260a0810182905260c0810182905260e081018290526101008101829052610120810182905261014081019190915260408051610160810182526affffffffffffffffffffff197f0000000000000000000000000000000000000000000000000000000000000000168152600154602082015260069181018290526002546001600160401b0316606082015260035460808201526001600160a01b037f0000000000000000000000000000000000000000000000000000000000000000811660a08301527f000000000000000000000000000000000000000000000000000000000000000060c08301527f00000000000000000000000000000000000000000000000000000000000000001660e082015260045460ff161515610100820152905461012082019061076b57600061077b565b60065460055461077b9190611222565b8152602001600654815250905090565b600080600154116107d25760405162461bcd60e51b81526020600482015260116024820152704e6f206461746120617661696c61626c6560781b6044820152606401610509565b5060015490565b60045460ff1661081c5760405162461bcd60e51b815260206004820152600e60248201526d155c19185d195cc81c185d5cd95960921b6044820152606401610509565b60005a6040516358fbe9e160e01b81529091506001600160a01b037f000000000000000000000000000000000000000000000000000000000000000016906358fbe9e19061086e90859060040161159f565b602060405180830381865afa15801561088b573d6000803e3d6000fd5b505050506040513d601f19601f820116820180604052508101906108af9190611709565b6108ef5760405162461bcd60e51b815260206004820152601160248201527024b73b30b634b21023222190383937b7b360791b6044820152606401610509565b60006108fe6020840184611726565b61090790611bc6565b90507f00000000000000000000000000000000000000000000000000000000000000006001600160a01b03168160a00151608001516001600160a01b03161461098b5760405162461bcd60e51b815260206004820152601660248201527557726f6e6720636f6e7472616374206164647265737360501b6044820152606401610509565b8060a0015160e0015160ff166001146109db5760405162461bcd60e51b8152602060048201526012602482015271151c985b9cd858dd1a5bdb8819985a5b195960721b6044820152606401610509565b6000806109f08360a001516101000151610bbc565b60018290556002805467ffffffffffffffff19166001600160401b038316179055600380549294509092506000610a2683611c68565b919050555060005a610a389086611c81565b90508060056000828254610a4c9190611c9a565b909155505060068054906000610a6183611c68565b9091555050604080516001600160401b0384168152436020820152339185917fcbb0a1964fded1543e1fc229a1bea0552bb873219986500cf7ea9d1a4506d736910160405180910390a3608084015151604080518581526001600160401b03851660208201527f20aafbdb02edecf8b1e8547d36a18bfa617d137f7556777a48b28d206bd6d4d4910160405180910390a2505050505050565b6000546001600160a01b03163314610b245760405162461bcd60e51b8152600401610509906111e9565b6001600160a01b038116610b6c5760405162461bcd60e51b815260206004820152600f60248201526e496e76616c6964206164647265737360881b6044820152606401610509565b600080546001600160a01b038381166001600160a01b0319831681178455604051919092169283917f8be0079c531659141344cd1fd0a4f28419497f9722a3daafe3b4186f6b6457e09190a35050565b6000806000805b8451811015610e3e576000858281518110610be057610be0611cad565b602002602001015190507f00000000000000000000000000000000000000000000000000000000000000006001600160a01b031681602001516001600160a01b031614610c2d5750610e2c565b6000816040015151118015610c7f57507f75c79671c8187d029ada1a8f8cacf6af122360061d5f3e78d2eb1f00871946f28160400151600081518110610c7557610c75611cad565b6020026020010151145b15610e2a5760038160400151511015610ccb5760405162461bcd60e51b815260206004820152600e60248201526d496e76616c696420746f7069637360901b6044820152606401610509565b60008160400151600181518110610ce457610ce4611cad565b602002602001015160001c905060008260400151600281518110610d0a57610d0a611cad565b602002602001015160001c90507f00000000000000000000000000000000000000000000000000000000000000008214610d7b5760405162461bcd60e51b81526020600482015260126024820152712bb937b7339039b7bab931b29031b430b4b760711b6044820152606401610509565b7f00000000000000000000000000000000000000000000000000000000000000006001600160a01b0316816001600160a01b031614610de95760405162461bcd60e51b815260206004820152600a60248201526915dc9bdb99c81c1bdbdb60b21b6044820152606401610509565b6000808460600151806020019051810190610e049190611cce565b5050509550505050509150610e1882610e92565b9850965060019550610e3e9350505050565b505b80610e3681611c68565b915050610bc3565b5080610e8c5760405162461bcd60e51b815260206004820152601c60248201527f507269636552656c61796564206576656e74206e6f7420666f756e64000000006044820152606401610509565b50915091565b6000600160601b6001600160a01b0383168280600160801b831115610edc576000610ec1600160401b85611222565b9050610ecd8180611d7c565b9250600160401b915050610ef5565b610ee68380611d7c565b9150610ef28480611d7c565b90505b6000610f4760ff7f00000000000000000000000000000000000000000000000000000000000000008116907f000000000000000000000000000000000000000000000000000000000000000016611d93565b90506000808212610f7957610f5d826006611c9a565b610f6890600a611e9e565b610f729085611d7c565b9050610fa9565b610f8684620f4240611d7c565b9050610f9182611eaa565b610f9c90600a611e9e565b610fa69084611d7c565b92505b6000610fb58483611222565b90507f00000000000000000000000000000000000000000000000000000000000000008015610fe45750600081115b15610ffb57610ff88164e8d4a51000611222565b90505b600081116110445760405162461bcd60e51b81526020600482015260166024820152755072696365206d75737420626520706f73697469766560501b6044820152606401610509565b6001600160801b0381106110925760405162461bcd60e51b815260206004820152601560248201527450726963652065786365656473206d6178696d756d60581b6044820152606401610509565b98975050505050505050565b81516affffffffffffffffffffff1916815261016081016020830151602083015260408301516110d3604084018260000b9052565b5060608301516110ee60608401826001600160401b03169052565b506080830151608083015260a083015161111360a08401826001600160a01b03169052565b5060c083015160c083015260e083015161113860e08401826001600160a01b03169052565b5061010083810151151590830152610120808401519083015261014092830151929091019190915290565b60006020828403121561117557600080fd5b81356001600160401b0381111561118b57600080fd5b82016040818503121561119d57600080fd5b9392505050565b6001600160a01b03811681146111b957600080fd5b50565b80356111c7816111a4565b919050565b6000602082840312156111de57600080fd5b813561119d816111a4565b6020808252600990820152682737ba1037bbb732b960b91b604082015260600190565b634e487b7160e01b600052601160045260246000fd5b60008261123f57634e487b7160e01b600052601260045260246000fd5b500490565b6000808335601e1984360301811261125b57600080fd5b83016020810192503590506001600160401b0381111561127a57600080fd5b8060051b360382131561128c57600080fd5b9250929050565b81835260006001600160fb1b038311156112ac57600080fd5b8260051b80836020870137939093016020019392505050565b80356001600160401b03811681146111c757600080fd5b60008235609e198336030181126112f257600080fd5b90910192915050565b803561ffff811681146111c757600080fd5b80151581146111b957600080fd5b80356111c78161130d565b803563ffffffff811681146111c757600080fd5b6000823561011e198336030181126112f257600080fd5b6000808335601e1984360301811261136857600080fd5b83016020810192503590506001600160401b0381111561138757600080fd5b80360382131561128c57600080fd5b81835281816020850137506000828201602090810191909152601f909101601f19169091010190565b803560ff811681146111c757600080fd5b81835260006020808501808196508560051b810191508460005b878110156114a457828403895261140182886112dc565b60a063ffffffff61141183611326565b16865286820135611421816111a4565b6001600160a01b031686880152604061143c83820184611244565b83838a015261144e848a018284611293565b9350505050606061146181840184611351565b888403838a0152611473848284611396565b935050505060808083013592506114898361130d565b911515959091019490945297840197908401906001016113ea565b5091979650505050505050565b60006101206114d0846114c3856112c5565b6001600160401b03169052565b6114dc602084016112c5565b6001600160401b031660208501526114f6604084016111bc565b6001600160a01b031660408501526115106060840161131b565b15156060850152611523608084016111bc565b6001600160a01b0316608085015260a0838101359085015261154860c0840184611351565b8260c087015261155b8387018284611396565b9250505061156b60e084016113bf565b60ff1660e085015261010061158284820185611244565b868403838801526115948482846113d0565b979650505050505050565b600060208083526115b08485611244565b6040838601526115c4606086018284611293565b9150508185013560be198636030181126115dd57600080fd5b8581019050601f19858303016040860152803582528281013583830152611606604082016112c5565b6001600160401b03808216604085015280611623606085016112c5565b166060850152505061163860808201826112dc565b60c060808401526101608301813560c085015261ffff6116598684016112fb565b1660e0850152604082013561166d8161130d565b151561010085015260608201356116838161130d565b15156101208501526116986080830183611244565b60a061014087015291829052909150600061018085015b838210156116da5763ffffffff6116c584611326565b168152918601916001919091019086016116af565b6116e760a086018661133a565b965085810360a08701526116fb81886114b1565b9a9950505050505050505050565b60006020828403121561171b57600080fd5b815161119d8161130d565b6000823560be1983360301811261173c57600080fd5b9190910192915050565b634e487b7160e01b600052604160045260246000fd5b60405160a081016001600160401b038111828210171561177e5761177e611746565b60405290565b60405161012081016001600160401b038111828210171561177e5761177e611746565b60405160c081016001600160401b038111828210171561177e5761177e611746565b604051601f8201601f191681016001600160401b03811182821017156117f1576117f1611746565b604052919050565b60006001600160401b0382111561181257611812611746565b5060051b60200190565b600060a0828403121561182e57600080fd5b61183661175c565b90508135815260206118498184016112fb565b81830152604083013561185b8161130d565b6040830152606083013561186e8161130d565b606083015260808301356001600160401b0381111561188c57600080fd5b8301601f8101851361189d57600080fd5b80356118b06118ab826117f9565b6117c9565b81815260059190911b820183019083810190878311156118cf57600080fd5b928401925b828410156118f4576118e584611326565b825292840192908401906118d4565b6080860152509295945050505050565b600082601f83011261191557600080fd5b81356001600160401b0381111561192e5761192e611746565b611941601f8201601f19166020016117c9565b81815284602083860101111561195657600080fd5b816020850160208301376000918101602001919091529392505050565b600082601f83011261198457600080fd5b813560206119946118ab836117f9565b82815260059290921b840181019181810190868411156119b357600080fd5b8286015b84811015611ada5780356001600160401b03808211156119d657600080fd5b9088019060a0828b03601f190112156119ee57600080fd5b6119f661175c565b611a01878401611326565b8152604080840135611a12816111a4565b82890152606084013583811115611a295760008081fd5b8401603f81018d13611a3b5760008081fd5b88810135611a4b6118ab826117f9565b81815260059190911b82018301908a8101908f831115611a6b5760008081fd5b928401925b82841015611a895783358252928b0192908b0190611a70565b8085870152505050505060808084013583811115611aa75760008081fd5b611ab58d8a83880101611904565b606084015250611ac760a0850161131b565b90820152855250509183019183016119b7565b509695505050505050565b60006101208284031215611af857600080fd5b611b00611784565b9050611b0b826112c5565b8152611b19602083016112c5565b6020820152611b2a604083016111bc565b6040820152611b3b6060830161131b565b6060820152611b4c608083016111bc565b608082015260a082013560a082015260c08201356001600160401b0380821115611b7557600080fd5b611b8185838601611904565b60c0840152611b9260e085016113bf565b60e084015261010091508184013581811115611bad57600080fd5b611bb986828701611973565b8385015250505092915050565b600060c08236031215611bd857600080fd5b611be06117a7565b8235815260208301356020820152611bfa604084016112c5565b6040820152611c0b606084016112c5565b606082015260808301356001600160401b0380821115611c2a57600080fd5b611c363683870161181c565b608084015260a0850135915080821115611c4f57600080fd5b50611c5c36828601611ae5565b60a08301525092915050565b600060018201611c7a57611c7a61120c565b5060010190565b81810381811115611c9457611c9461120c565b92915050565b80820180821115611c9457611c9461120c565b634e487b7160e01b600052603260045260246000fd5b80516111c7816111a4565b60008060008060008060008060006101208a8c031215611ced57600080fd5b8951611cf8816111a4565b8099505060208a01518060020b8114611d1057600080fd5b60408b01519098506001600160801b0381168114611d2d57600080fd5b9650611d3b60608b01611cc3565b9550611d4960808b01611cc3565b945060a08a0151935060c08a0151925060e08a01519150611d6d6101008b01611cc3565b90509295985092959850929598565b8082028115828204841417611c9457611c9461120c565b8181036000831280158383131683831282161715611db357611db361120c565b5092915050565b600181815b80851115611df5578160001904821115611ddb57611ddb61120c565b80851615611de857918102915b93841c9390800290611dbf565b509250929050565b600082611e0c57506001611c94565b81611e1957506000611c94565b8160018114611e2f5760028114611e3957611e55565b6001915050611c94565b60ff841115611e4a57611e4a61120c565b50506001821b611c94565b5060208310610133831016604e8410600b8410161715611e78575081810a611c94565b611e828383611dba565b8060001904821115611e9657611e9661120c565b029392505050565b600061119d8383611dfd565b6000600160ff1b8201611ebf57611ebf61120c565b506000039056fea26469706673582212208377254376916e18ef9cbaa1facd842cdc979e6c3bc2c7a8eb2b3c3297bfe55b64736f6c63430008130033",
  "linkReferences": {},
  "deployedLinkReferences": {}
}